:100000000C9402040C9449040C9449040C94490483
:100010000C9449040C9449040C9449040C9449042C
:100020000C9449040C9449040C94932E0C94672F5F
:100030000C94C3280C9449040C9449040C9449046E
:100040000C9449040C9449040C9449040C944904FC
:100050000C9449040C941A290C9449040C944904F6
:100060000C9449040C9449040C9449040C944904DC
:100070000C9449040C9449040C9449040C944904CC
:100080000C9449040C9449040C9449040C944904BC
:100090000C9449040C9449040C9449040C944904AC
:1000A0000C9449040C9449040C944904290014004C
:1000B0001A000800150017001C0018000C001200A0
:1000C00013002A002B0004001600070009000A0094
:1000D0000B000D000E000F0033002800E1001D0092
:1000E0001B00060019000500110010003600370043
:1000F00000000251E000E300E200015100000000B6
:100100002C000000E600E7000000E4000100010010
:1001100001000100010001000100010001000100D7
:1001200001000100010001000100010001000100C7
:1001300001000100010001000100010001000100B7
:1001400001000100010001000100010001000100A7
:10015000000001000100010001000100000000009A
:100160000100000001000100000001000100010089
:100170000100010001000100010001000100010077
:100180000100010001000100010001000100010067
:100190000100010001000100010001000100010057
:1001A0000100010001000100010001000100010047
:1001B000000001000100010001000100000000003A
:1001C0000100000001000100000001000100010029
:1001D0000100010001000100010001000100010017
:1001E0000100010001000100010001000100010007
:1001F00001000100010001000100010001000100F7
:1002000001000100010001000100010001000100E6
:1002100000000100010001000100010000000000D9
:1002200001000000010001000000010000000000CA
:10023000000000002A2B2800000000000000000041
:100240000000000000000029000000002C1E3420E7
:10025000212224342627252E362D3738271E1F200D
:100260002122232425263333362E37381F04050652
:100270000708090A0B0C0D0E0F1011121314151696
:100280001718191A1B1C1D2F3130232D3504050694
:100290000708090A0B0C0D0E0F1011121314151676
:1002A0001718191A1B1C1D2F3130354C0000000087
:1002B000000000000000000000000000000000003E
:1002C000000000000000000000000000000000002E
:1002D0007E0F00D4FFFFFFC7000000781E0F05004F
:1002E000047F3F1F643214643214783C1E1E140ACB
:1002F000052223252628292A2C2D2F303233353666
:10030000383A3B3D3E4042434547494A4C4E5051A6
:10031000535557595A5C5E6062646668696B6D6FCD
:1003200071737577797B7D7F81838587898A8C8ED0
:1003300090929496989A9C9E9FA1A3A5A7A8AAACD8
:10034000AEAFB1B3B4B6B8B9BBBCBEBFC1C2C3C512
:10035000C6C7C9CACBCCCDCED0D1D2D2D3D4D5D6B4
:10036000D7D7D8D9D9DADADBDBDBDCDCDCDCDCDDE7
:10037000DDDDDDDCDCDCDCDCDBDBDBDADAD9D9D8CB
:10038000D7D7D6D5D4D3D2D2D1D0CECDCCCBCAC963
:10039000C7C6C5C3C2C1BFBEBCBBB9B8B6B4B3B192
:1003A000AFAEACAAA8A7A5A3A19F9E9C9A9896942D
:1003B00092908E8C8A89878583817F7D7B79777502
:1003C00073716F6D6B6968666462605E5C5A5957E1
:1003D000555351504E4C4A4947454342403E3D3BA0
:1003E0003A3836353332302F2D2C2A29282625232A
:1003F00022FFAA7F55400001010101010101010115
:1004000002020202020202020203030303030303C5
:100410000304040404040404050505050506060692
:100420000606070707070708080808090909090A4F
:100430000A0A0B0B0B0C0C0C0D0D0D0E0E0E0F0FF4
:100440000F10101111111212131314141515161682
:100450001717181819191A1A1B1B1C1D1D1E1E1FF1
:100460002020212222232424252626272829292A40
:100470002B2C2D2D2E2F3031323233343536373868
:10048000393A3B3C3D3E3F40414243444546474864
:10049000494A4C4D4E4F50515354555658595A5B3A
:1004A0005D5E5F616264656668696B6C6D6F7072DA
:1004B000737577787A7B7D7E8082838587888A8C46
:1004C0008E8F91939596989A9C9EA0A2A3A5A7A97A
:1004D000ABADAFB1B3B5B7BABCBEC0C2C4C6C9CB71
:1004E000CDCFD1D4D6D8DBDDDFE2E4E7E9EBEEF027
:1004F000F3F5F8FAFDFFFD377A585A000004E6D606
:10050000B4460200210116000000742FE5A3E002AA
:100510001500F55D003D8889C65436C3174FE4DDEC
:100520005DB4CD52BE75DCF4789D695A3847A2D8C7
:10053000729369DE078E5B2153DD5858D4143B5CFF
:100540002312CFBD8A205BB300115A6A489C120760
:10055000A42552F155ECB9D315289B86D92B003828
:100560004DDACFEC594E3715A222512933CA4A45EC
:100570009389493FDA32D4B8919FAFCCB2EE3C694F
:1005800079ED5919F8DBAA56C8BD941011E3D75F6D
:1005900084D1019AFA629DA8A161D93E67E5EAACCF
:1005A00005D75365CACBFE815815D34AACB457D290
:1005B000CCF91AF010E0E0F3302AECD5F5A26EE5A4
:1005C0002D43E0871D2124C2DAEEA557BCA49A660C
:1005D0005D84ADA15239C835546A07D497EC1981AE
:1005E00009F6E82BE37A580987B960C4BAF1349B5D
:1005F000AB88ABCEF49FD18C53366F5E094C472E3F
:10060000E21C5EF11BD0B651F20000000000D2D611
:1006100090DDAF82A5570001910296040000FF54BF
:100620008DF0B1C467FB020000000004595A1C039E
:100630007600690061006C003A0066003600340004
:1006400063003200620033006300000010034400C6
:1006500065006C0069006C00610068000000140314
:100660007200610069006E006B0065006500620049
:10067000730000000403090409025B00030100A0E9
:10068000FA09040000010301010009211101000120
:100690002240000705810308000A09040100020343
:1006A0000000000921110100012222000705820338
:1006B00020000107050303200001090402000103D3
:1006C00000000009211101000122BC00070584037C
:1006D00020000A12011001000000086B725C640126
:1006E00000010203010660FF0961A1010962150012
:1006F00026FF009520750881020963150026FF007A
:10070000952075089102C005010902A10185020921
:1007100001A1000509190129051500250195057597
:100720000181029501750381010501093009311527
:1007300081257F95027508810609381581257F95E9
:100740000175088106050C0A38021581257F95017F
:1007500075088106C0C005010980A1018503190142
:100760002AB700150126B700950175108100C00554
:100770000C0901A101850419012AA002150126A076
:1007800002950175108100C005010906A1018505CA
:10079000050719E029E71500250195087501810273
:1007A0000507190029EF1500250195F07501810253
:1007B0000508190129059505750191029501750333
:1007C0009101C005010906A101050719E029E715F6
:1007D00000250195087501810295017508810105C3
:1007E00007190029FF150026FF00950675088100EE
:1007F00005081901290595057501910295017503F3
:100800009101C00011241FBECFEFDAE0DEBFCDBFE3
:1008100004B603FE27C08091310390913203A0916A
:100820003303B09134038730904BA740B04BD1F4E1
:10083000109231031092320310923303109234035A
:1008400014BE84B7877F84BF0FB6F894A8958091B3
:100850006000886180936000109260000FBEE0E04D
:10086000F8E3099511E0A0E0B1E0E8EAF5E602C09E
:1008700005900D92A03EB107D9F723E0A0EEB1E0BC
:1008800001C01D92A133B207E1F70E944B2B0C94DB
:100890008D320C9400000895089581E0089581E060
:1008A00008950C944D0408950C9453041F93CF9312
:1008B000DF9300D000D00F92CDB7DEB749835A83C3
:1008C0006B833091490289819A8131111DC0662361
:1008D000B9F02223A9F00E94BD25182F682F898125
:1008E0009A810E94692569817A81812F0F900F90EA
:1008F0000F900F900F90DF91CF911F910C94A5183E
:100900000E949525182FEFCF0E94BD2569817A811D
:10091000EDCFFC01262F408151816281738184815A
:100920000C945604CF93DF93EC0160E00E9489049D
:10093000BE01DF91CF910C9454048F929F92AF929D
:10094000BF92CF92DF92EF92FF920F931F936B01B2
:100950007C0181E090E0A0E0B0E04C015D0104C0CA
:10096000880C991CAA1CBB1C4A95D2F7B501A4019E
:100970004C015D0104C0880C991CAA1CBB1C2A9563
:10098000D2F7482959296A297B2904C0880F991F61
:10099000AA1FBB1F0A95D2F78A019B010C211D21BA
:1009A0002E213F21041715072607370789F48C29C4
:1009B0009D29AE29BF29BC01CD011F910F91FF9048
:1009C000EF90DF90CF90BF90AF909F908F90089561
:1009D00080959095A095B0958C219D21AE21BF2149
:1009E000EACF0F93382F262F6091A0027091A102B9
:1009F0008091A2029091A302042F432F0E949D0494
:100A00000F910C94A7240E9469290E940927811143
:100A100002C00E94AD270C9449080C944B0808951D
:100A20000E94D3200E940F052FEF84E39CE0215009
:100A300080409040E1F700C000000C943E290F93E5
:100A40001F93CF93DF938C01EB010E9470148823D6
:100A500089F1BE01C8010E945104882359F1BE01E9
:100A6000C8010E94211A882329F1BE01C8010E94F1
:100A7000731A8823F9F0BE01C8010E94961B8823CF
:100A8000C9F0BE01C8010E947D13882399F08A81B4
:100A9000882339F001158CE5180751F00E3D1C45EF
:100AA00079F0CE01DF91CF911F910F910C944F04FB
:100AB0000E94100580E0DF91CF911F910F91089562
:100AC0000E94AD27F7CFCF93DF93EC0161E00E9446
:100AD0008904BE01DF91CF910C941F05DF92EF9244
:100AE000FF920F931F93CF93DF93E82FF0E0E45D25
:100AF000FD4FD490282F26952695269530E0F901B4
:100B0000E453FD4F0491877010E0082E02C0159544
:100B100007950A94E2F701701127F901E454FD4F9B
:100B2000E490F12C082E02C0F594E7940A94E2F7C1
:100B300091E0E922FF24F901E455FD4FC491D0E092
:100B400002C0D595C7958A95E2F7C170DD270115DA
:100B5000110519F081EE0E94511DE114F10419F004
:100B600086EE0E94511D8D2D0E94501EEF2819F017
:100B700086EE0E94E31D012B19F081EE0E94E31D19
:100B8000CD2B51F08CE2DF91CF911F910F91FF900F
:100B9000EF90DF900C94501EDF91CF911F910F9139
:100BA000FF90EF90DF900895EF92FF920F931F93C5
:100BB000CF93DF93EC01162F0AE08881882309F494
:100BC00054C0813009F04EC08981813099F47E0192
:100BD00022E0E20EF11C8A810E94501EE70121965C
:100BE000812F815050F3EFE9FFE03197F1F700C01A
:100BF0000000F7CF823041F47E0182E0E80EF11C64
:100C00008A810E94511DEACF833041F47E01E2E0E7
:100C1000EE0EF11C8A810E94E31DE0CF843011F0BA
:100C20002196DDCF2A81229690E080E0AE014F5FD1
:100C30005F4F2053330B2A30310548F0019778F28B
:100C4000EFE9FFE03197F1F700C00000F7CF089F10
:100C5000B001099F700D1124C901860F971F2981CA
:100C6000EA01E4CF0E946E05BACFDF91CF911F91C8
:100C70000F91FF90EF90089560E00C94D4050895D3
:100C80000C943F0681E008950C944206CF93C82F40
:100C90000E9440068C2FCF910C94440690E080E097
:100CA00008950895FC01EE0FFF1FE452FD4F85915A
:100CB00094910895CF93DF930E94A5180E946F0727
:100CC000EC01811520E5920708F042C0811530E45F
:100CD000930708F0BDC0883E910528F5803E910538
:100CE00008F09DC0883A910588F4853A910508F08E
:100CF0008FC08130910509F492C0009709F48FC02C
:100D0000049708F08CC0D0E0C0E089C08F3B91050B
:100D100008F489C0805C9109C03CD105A0F30E9411
:100D20005206EC017CC08115904250F4C11581E05F
:100D3000D80708F074C0C03FD10528F3D0656FC054
:100D4000C11590E3D90708F079C0CE019F70E7CFB5
:100D5000811525E5920758F5811534E5930708F0CC
:100D6000A6C0811542E5940750F4C11581E5D80766
:100D700008F471C0DC2FCC27C16FD06A50C0982F07
:100D8000969596959E0123703327C115D34508F09B
:100D90007FC0C1E0D0E002C0CC0FDD1F2A95E2F792
:100DA00020E2929FC0011124C82BD92B6FC0C1151E
:100DB00089E5D807A8F4C11598E5D90708F07CC0E3
:100DC000C11526E5D20708F09ECF8C2F0E94060899
:100DD000C82FD0E0DC2FCC27CC27DF71D0621FC01A
:100DE000C1153AE5D30708F46CC0CE0190568115C1
:100DF000904208F088CF8D2F8F710E94060890E0F6
:100E0000982F882788279F719C012C2BE901E6CF1A
:100E1000C55AD0E0CE59DE4FC881D0E0D064CE01B3
:100E2000DF91CF910895C85AD0E0CC0FDD1FCC5C84
:100E3000DE4F0990D881C02DD464F1CFCE0199271F
:100E4000D3FF03C0EC01D86CEACFEC01D06CE7CF44
:100E5000DF70D06AE4CFCE01E4E096958795EA95FD
:100E6000E1F783702C2F26952695237090E2299F19
:100E700090011124382B8C2F8370C1E0D0E002C088
:100E8000CC0FDD1F8A95E2F7C22BD32BDC68C7CFCE
:100E9000C1E0D0E002C0CC0FDD1F2A95E2F730E2BE
:100EA000939FC0011124C82BD92BDA68B8CFD82F53
:100EB000CC27C46FD06AB3CFDC2FCC27C06FD06AE9
:100EC000AECF8C2F8F700E94060834E0D695C79560
:100ED0003A95E1F7CF709C2FEC01D069A0CF823812
:100EE0009105B1F1B0F48133910509F475C048F46E
:100EF0008932910509F469C08A32910509F473C0F9
:100F000008958533910509F459C08933910501F19C
:100F10000895833E9105A9F138F4803E9105F9F0DA
:100F2000823E910549F10895863E9105A9F1873EDB
:100F30009105C9F1843E910519F52091230321FF04
:100F40001FC08091220384FD14C087EE90E00895B5
:100F5000209122032370A1F080EE90E0089520916B
:100F6000220320FD47C03091230330FF09C024FF36
:100F700044C090E080E004C02091220322FDF7CF1E
:100F800008952091220322FD3BC03091230330FDC0
:100F9000E3CF24FFF5CFEDCF2091220323FFF0CF45
:100FA00024FDE7CFD2CF2091220323FD2CC0309126
:100FB000230331FFEECF84EE90E0089520912203C9
:100FC00025FFDECF89E290E008952091220325FFDE
:100FD000D7CF85E390E008952091220326FFD0CF5C
:100FE0008AE290E008952091220326FFC9CF81E391
:100FF00090E0089589E390E0089583EE90E00895ED
:1010000082EE90E0089586EE90E00895909122039C
:1010100092FF06C0282F28712830F9F4877F84605A
:1010200093FF06C0282F28712831F1F4877E846150
:101030002091230320FF06C0382F38713830D9F4AF
:10104000877F816021FF06C0282F28712831D1F4C5
:10105000877E816194FD877E0895282F2471243036
:10106000F9F68B7F8860DCCF282F2471243101F7BB
:101070008B7E8861DDCF382F3171313019F78E7F4B
:101080008860E0CF282F2171213121F78E7E886181
:10109000E1CF0C944B040C944C04E82FF0E0EE0FDD
:1010A000FF1FE750FD4F21E030E002C0220F331F49
:1010B0006A95E2F7808191812823392381E0232BEF
:1010C00009F480E00895E82FF0E0EE0FFF1FE750ED
:1010D000FD4F808191810895089580EA8A95F1F706
:1010E000089500C008950C946D08F894E82FE295D7
:1010F000EF70F0E031A1282F2F7081E090E001C067
:10110000880F2A95EAF7982F9095932391A392A19F
:10111000892B82A378940895CF93DF9385E30E946F
:10112000750886E30E94750886E60E94750887E6C2
:101130000E947508C5E6D1E089910E94750881E09A
:10114000C137D807C9F71092F2021092F10210923B
:10115000FA021092F9021092F4021092F302109225
:10116000FC021092FB021092F6021092F50210920D
:10117000FE021092FD021092F8021092F7021092F5
:1011800000031092FF0284E00E944E09DF91CF918C
:101190000C940305AF92BF92CF92DF92EF92FF9231
:1011A0000F931F93CF93DF9301E711E0C1EFD2E0DC
:1011B000C12CD12CEE24E394F12CF80181918F0104
:1011C000F894E82FE295EF70F0E021A18F70A7016D
:1011D00002C0440F551F8A95E2F7CA01922F982B3F
:1011E00091A392A18095892382A378940E9471088B
:1011F000E5E6F1E030E020E0B12CA12C4191A42FF4
:10120000A295AF70B0E090968C9190E04F7002C0C4
:10121000959587954A95E2F780FD3BC0C701022E60
:1012200002C0880F991F0A94E2F7A82AB92A2F5FF3
:101230003F4F2C30310511F7F801319780810E9422
:10124000750853E0C5120E94730888819981A81619
:10125000B90611F1B982A88281E0D82AC3942296F6
:1012600084E0C812AACF2D2D44E069EF72E081EF2F
:1012700092E00E944F090E940D058D2DDF91CF91C4
:101280001F910F91FF90EF90DF90CF90BF90AF90A4
:10129000089590E080E0C9CF80E0DFCF0895FF920D
:1012A0000F931F93CF93DF93F82E092F162FD72F6D
:1012B000C42F222349F081E08093E4010E94F328A7
:1012C0009093E3018093E2018091E4018823A1F0EF
:1012D0008091E2019091E3010E940B29069760F052
:1012E000EF2DF02FA12FBD2F90E080E0D0E08C17E4
:1012F0009D0744F01092E401DF91CF911F910F916F
:10130000FF900895219131912D933D930196EFCF58
:101310008091EB0180FF12C06091090185E0689F18
:10132000B0011124759567957595679560387105BD
:10133000A8F561157105A1F1862F089581FF09C0F7
:101340006091090185E0689FB0011124759567954A
:10135000EDCF6091090182FD0AC08091EA018823E6
:10136000D1F09091080160910901891728F085E07A
:10137000689FB0011124DACF869FB001112485E067
:10138000869F9001879F300D1124692F70E0C9015D
:101390000E943931CBCF65E070E0CECF8FE7089562
:1013A00081E008958091EB0180FF0CC06091050100
:1013B00070E075956795759567956115710549F1AB
:1013C000862F089581FF06C06091050170E0759534
:1013D0006795F3CF6091050182FD0BC09091E90103
:1013E0009923A1F06091040180910501961738F0CE
:1013F000682F70E06038710500F38FE70895899FCA
:10140000C001112470E00E943931F4CF61E070E036
:10141000D7CF81E00895803F31F40E9488098195FB
:101420008093EF010895813F19F40E948809F8CF55
:10143000823F31F40E94880981958093EE010895DE
:10144000833F19F40E948809F8CF893F29F40E944C
:10145000D2098093F00108958A3F21F40E94D209B5
:101460008195F7CF8B3F31F40E94D209819580930B
:10147000F10108958C3F19F40E94D209F8CF843FFE
:1014800031F48091ED0181608093ED010895853FF5
:1014900021F48091ED018260F7CF863F21F48091A5
:1014A000ED018460F1CF873F21F48091ED018860E8
:1014B000EBCF883F21F48091ED018061E5CF8D3F36
:1014C00031F48091EB0181608093EB0108958E3FB0
:1014D00021F48091EB018260F7CF8F3FB9F78091C3
:1014E000EB018460F1CF9091EE01803F59F480913F
:1014F000EF0187FF0DC01092EF0191110BC0109208
:10150000EA0108C0813F81F48091EF0118169CF335
:10151000992381F08091F0019091F101892B09F0DC
:1015200064C01092E9010895823F49F497FFF0CF1B
:101530001092EE018091EF018111ECCFE0CF833F5B
:1015400019F41916ACF3E4CF2091F001893F29F486
:101550001216F4F61092F001DBCF8A3F19F427FF40
:10156000D7CFF8CF2091F1018B3F29F427FFD0CFBF
:101570001092F101CDCF8C3F19F41216CCF3C8CFE5
:10158000843F31F48091ED018E7F8093ED01C0CFD7
:10159000853F21F48091ED018D7FF7CF863F21F4C7
:1015A0008091ED018B7FF1CF873F21F48091ED0198
:1015B000877FEBCF883F21F48091ED018F7EE5CFCF
:1015C0008D3F31F48091EB018E7F8093EB01A0CFB2
:1015D0008E3F21F48091EB018D7FF7CF8F3F09F093
:1015E00097CF8091EB018B7FF0CF08950E94F32875
:1015F0009C019091EE018091EF01982B21F03093A6
:10160000E8012093E7019091F0018091F101982B7E
:1016100021F03093E6012093E5018CEE91E00C94EB
:10162000EB1BEF92FF920F931F93CF93DF9300D0AA
:1016300000D000D0CDB7DEB786E0ECEEF1E0DE0101
:10164000119601900D928A95E1F7E090EE01F090ED
:10165000EF010091F0011091F1011092EE01109252
:10166000EF011092F0011092F1018E2D8F2991F06F
:101670008091E7019091E8010E940B29AC019091C3
:10168000EA01992309F43FC080910A0184171506E5
:1016900008F447C0802F812B91F08091E501909153
:1016A000E6010E940B29AC019091E901992309F40C
:1016B00077C0809106018417150608F47FC08091D9
:1016C000EE019091EF01892B9091F001892B90917F
:1016D000F101892B11F00E94F60A86E0FE01319695
:1016E000ACEEB1E001900D928A95E1F726960FB627
:1016F000F894DEBF0FBECDBFDF91CF911F910F9148
:10170000FF90EF90089520910B018AE0289F9001AF
:1017100011242417350708F0BDCF9F5F9093EA018D
:1017200002C09F3FD1F7EE2059F00E9488099FEF39
:101730001E140CF491E0899F802D11248093EE01FA
:10174000FF2059F00E9488099FEF1F140CF491E0CC
:10175000899F802D11248093EF013091EE01332376
:1017600009F498CF2091EF01222309F493CF45EBA0
:101770003403C0011124992359F09093EE0145EBF5
:10178000240390011124332339F03093EF0182CFE9
:1017900081E08093EE01F3CF81E08093EF017ACF77
:1017A000209107018AE0289F900111242417350712
:1017B00008F085CF9F5F9093E90102C09F3FD1F76A
:1017C000002359F00E94D2099FEF10160CF491E00B
:1017D000899F802D11248093F001112359F00E94DC
:1017E000D2099FEF11160CF491E0899F802D1124EE
:1017F0008093F1013091F001332309F460CF2091FF
:10180000F101222309F45BCF45EB3403C00111241D
:10181000992359F09093F00145EB24039001112492
:10182000332339F03093F1014ACF81E08093F00106
:10183000F3CF81E08093F10142CF86E0ECEEF1E05E
:10184000DF011D928A95E9F71092EA011092E901F1
:101850001092EB010895EF92FF920F931F93CF9395
:10186000DF93EB01E82FD11110C0442321F0F0E009
:10187000EA50FC4FE4916E2F7E2F8E2FDF91CF9197
:101880001F910F91FF90EF9008950D2F10E0282FDA
:1018900030E0442329F02A503C4FF901249130E0F4
:1018A000F6E0CF9FC0011124EFEFF0E0BF010E94EE
:1018B0002531AB018C2F90E0880F991FA5E5A49FDF
:1018C000B001A59F700D1124861B970B982F990FBF
:1018D000980FBF01601B710B629FD001639FB00D19
:1018E000729FB00D11248B2F9D9FB0011124672F83
:1018F0007727EF01C61BD70BBE01629FE001639FF4
:10190000D00D729FD00D11247F01E91AF108E09EDD
:10191000B001E19E700DF09E700D1124672F7727A6
:10192000E61BF70BE29F8001E39F100DF29F100D65
:101930001124E12F722F4230510599F048F44115DE
:10194000510569F04130510581F0EB2F8D2F07C013
:101950004430510569F080F046305105B1F76E2FE3
:101960008DCFE22F7B2F812FFACFE22F7D2FF7CF64
:10197000EB2F822F712FF3CF7B2F822FED2FEFCF05
:1019800041E00C942B0C08950C94C00CCF93DF9382
:10199000762FE901682F842F0E94C40C7983688315
:1019A0008A83DF91CF91089580910103982F9E7FC4
:1019B00029F4817082608093010308958635E8F3ED
:1019C00081708465F8CF88E090E00C942E32CF923D
:1019D000DF92EF92FF926B017C010E94D40CB70161
:1019E000A60188E090E0FF90EF90DF90CF900C94FC
:1019F0004C32609101037091020380910303909136
:101A000004030C94E70CE1E0F3E083E080831182AF
:101A10008FEF8283838314826081718182819381BD
:101A20000C94E70C8091010380FF02C08695089515
:101A300080E0089590910503933018F49F5F909390
:101A40000503882351F06091010370910203809196
:101A50000303909104030C94E70C089581E00C9427
:101A60001A0D90910503992319F091509093050355
:101A7000882351F060910103709102038091030368
:101A8000909104030C94E70C089581E00C94310DBF
:101A900080910503089580930503662351F06091BA
:101AA00001037091020380910303909104030C944D
:101AB000E70C089560E00C944B0D809102030895AB
:101AC00080910303089580910403089570E00C94BD
:101AD000ED13609110018091010380FF0AC0809195
:101AE0000F0123E0829FC00111248A5F9C4F0C9458
:101AF000660D809111019091120123E0829FF00107
:101B00001124EA5FFC4F891750F71182108212826C
:101B10008F5F3396F8CF9091010390FF14C090919E
:101B200011012091120133E0939FF0011124EA5F2B
:101B3000FC4F921710F00C94690D818360834283EF
:101B40009F5F3396F6CF0895CF93DF9300D00F9227
:101B5000CDB7DEB79091010390FF0AC09E012F5FC1
:101B60003F4F0E94C60C4B8169818A810E948B0D78
:101B70000F900F900F90DF91CF910895CF93DF9347
:101B8000EC01EC81F0E0EF50FD4F4491E1E0F3E037
:101B9000628181810E94A40D8C818F5F8C83DF9193
:101BA000CF910895CF93DF93EC01E1E0F3E043811F
:101BB00062818C810E94A40D8C818F5F8C83DF9168
:101BC000CF9108950F931F93CF93DF9300D00F927F
:101BD000CDB7DEB78C018091F20181110AC09E0160
:101BE0002F5F3F4F4FEF6FEF0E94C60C8A818093AB
:101BF000F201F8016481613069F08091F20140E006
:101C0000662361F040E0623011F44091F20180E01F
:101C100060E004C06091F20140E080E00E948B0D22
:101C2000F801848190E0019663E070E00E94393110
:101C300084830F900F900F90DF91CF911F910F91A0
:101C40000895AF92BF92CF92DF92EF92FF920F93DF
:101C50001F93CF93DF9300D00F92CDB7DEB7182F2D
:101C6000F62E042FE22E9091010390FF29C0E92F58
:101C7000E695AE2FB0E0AB58BE4F8C918093240216
:101C80009E7F923059F59E012F5F3F4F812F0E941A
:101C9000C60C4B8169818A810E948B0D10930203CF
:101CA000F092030300930403EE2051F060910103CE
:101CB0007091020380910303909104030E94E70C4A
:101CC0000F900F900F90DF91CF911F910F91FF9088
:101CD000EF90DF90CF90BF90AF900895823019F4CD
:101CE00000910403DBCF863019F410910203D6CFA4
:101CF0008930D9F3893191F6E9518E2F8170D82E30
:101D0000E695F0E0EF50FC4FA590B490C12CBB24B9
:101D100060911301C61618F00E94690DBFCF2C2DDB
:101D200030E0A29EC001A39E900DB29E900D1124A2
:101D300070E00E942531812FD11013C0860F409191
:101D40001101420F532F511D9A01220F331F240FEF
:101D5000351F2A5F3C4F402F6F2D0E94C60CC39445
:101D6000D7CF861BECCFE1E0F3E09181282F4381B0
:101D7000628188E0890F0C94210E81E00C94B30EEF
:101D8000E1E0F3E09181282F4381628188EF890FA0
:101D90000C94210E81E00C94C00EE1E0F3E062812E
:101DA00028E0620F08F46FEF282F438181810C94A3
:101DB000210E81E00C94CD0EE1E0F3E0628128E099
:101DC000621B08F460E0282F438181810C94210E6E
:101DD00081E00C94DC0EE1E0F3E0438128E0420F67
:101DE00008F44FEF282F628181810C94210E81E04D
:101DF0000C94EB0EE1E0F3E0438128E0421B08F491
:101E000040E0282F628181810C94210E81E00C94A6
:101E1000FA0E20E00C94210EEF92FF921F93CF93C5
:101E2000DF93EC0110E0EE24EA94F12C60911301B1
:101E3000161770F00E94690D9A818C8190FF27C05F
:101E40008F5F8C83DF91CF911F91FF90EF9008956A
:101E500020911101422F410F5527551FCA019A01A8
:101E6000220F331F280F391F2A5F3C4F70E0C70134
:101E70000E943931962F8C814091040360910303B5
:101E8000199F800D11240E94C60C1F5FCFCF815077
:101E9000D8CFBF92CF92DF92EF92FF920F931F9312
:101EA000CF93DF93FC0182810FEF80FF01E010E010
:101EB000809113011817C0F00E94690D8091F40100
:101EC000013009F051C0811102C08091130181508D
:101ED0008093F401DF91CF911F910F91FF90EF90CC
:101EE000DF90CF90BF900895C0911101C12ED12CE9
:101EF000CC0DDD2DD11DCE01880F991FC80FD91F24
:101F0000CA5FDC4F198218821A8234E0E32EF12C6A
:101F1000B12C8091F4018B0D893004F18770082E6B
:101F2000000C990BC816D90691F4809104038E9D7C
:101F3000A0018F9D500D11245595479555954795B6
:101F40009E0160910303809102030E94C60CB00EB3
:101F5000F1E0EF1AF108E9F61F5FAACF87FFDFCFA4
:101F600090911301890FDBCF90E0019660911301EE
:101F700070E00E943931ACCF0F931F93CF93DF9362
:101F8000809111019091120123E0829FF0011124B0
:101F9000EA5FFC4F891740F1C0E0D3E06091130184
:101FA000C61740F10E94690D20910D018091F30147
:101FB000820F8093F30190910E01920F90930E0186
:101FC000191654F4082E000C990B4091130141503E
:101FD000550B841795071CF0219520930D01DF9177
:101FE000CF911F910F9108951182108212828F5FFD
:101FF0003396D0CF0C2F10E070E0C8010E94393129
:1020000020911101820F482F50E02091F301022E00
:10201000000C330B02171307BCF020910E01022EA7
:10202000000C330B201731077CF08D9F9001112499
:102030002A5F3C4F409104036091030380910203A7
:102040000E94C60CCF5FAACFFA01EE0FFF1FE40F6C
:10205000F51FEA5FFC4F118210821282F3CF8F923C
:102060009F92AF92BF92CF92DF92EF92FF920F9327
:102070001F93CF93DF93EC014C81042F10E0980164
:10208000D8010E9484319B01AC010E949A314B011E
:102090005C01E0E2F0E0E01BF10BA5E5B0E0AC0193
:1020A0009B010E949A316B017C019F01DF010E941C
:1020B0007C319B01AC010E94A5319B01AC01280D34
:1020C000391D4A1D5B1DC701B6010E944D31F22E1C
:1020D000822F90E039E23F1560F143E0249F9001A8
:1020E000112435952795122F109500E085E5E82EEF
:1020F000EF1880911301081758F10E94690D9C8117
:1021000081E0992319F0903219F48FEF80930C013C
:1021100080910C01890F8C83DF91CF911F910F91DA
:10212000FF90EF90DF90CF90BF90AF909F908F90F7
:10213000089525E530E0B901681B790B9B01220F5A
:10214000331F260F371F37FFCCCF2F5F3F4FC9CF2D
:102150008E2D01FD8F2D20911101622F600F7727A9
:10216000771F9B01220F331F260F371F2A5F3C4F1B
:10217000412F609103030E94C60C0F5FBACF0F93EB
:102180001F93CF93DF93EC0110E000E090911301D7
:102190009017110609F06CF40E94690D8C8190E093
:1021A0000196817099278C83DF91CF911F910F91B8
:1021B000089520911101A801420F511D9A01220F8B
:1021C000331F240F351F2A5F3C4F4C81609103035E
:1021D0008091020396959017110651F04CF044231C
:1021E00049F0409104030E94C60C0F5F1F4FCECFF1
:1021F0004423B9F340E0F7CF4F925F926F927F9202
:102200008F929F92AF92BF92CF92DF92EF92FF9206
:102210000F931F93CF93DF93FC016280448081E092
:102220008483E1EFF2E07490E0E7F3E0E491812C45
:1022300075E0972EF2E0CF2EDD24D394AA24AA9441
:10224000B12C55245A94E7190E2F10E080911301F8
:10225000881690F0DF91CF911F910F91FF90EF9032
:10226000DF90CF90BF90AF909F908F907F906F90B6
:102270005F904F900C94690DE82CF12C82E086154C
:1022800068F09E9CF0019F9CF00D1124EB50FE4FD6
:10229000809102038083809103038183411023C0D6
:1022A0009E9CF0019F9CF00D1124EB50FE4F138279
:1022B000128220911101C701820F911D9C01220FF2
:1022C000331F280F391F2A5F3C4F9E9CF0019F9CB3
:1022D000F00D1124EB50FE4F4281618180810E94FC
:1022E000C60C8394B3CF9E9CE0019F9CD00D11241B
:1022F000CB50DE4F8B818823E9F081508B83859D05
:10230000C00111246C8170E00E942531FB01FF2780
:10231000EF50FD4F8491E82FE719E59DC00111248E
:10232000B8010E94253180910403689FB0011124F7
:102330007A83BFCF0E94F93120910403269521585A
:102340002C9DA0012D9D500D1124452F552784173C
:1023500095070CF0AECF82E0861588F40E94F93123
:10236000B5010E94393188830E94F931209103031D
:102370002695622F70E00E943931280F29839E9C98
:10238000F0019F9CF00D1124EB50FE4F12828091C2
:102390000403893C58F088EC9E9CF0019F9CF00D52
:1023A0001124EB50FE4F8483838383CF8431A0F7C5
:1023B00084E1F2CFE1E0F3E080818E7F8083608171
:1023C0007181828193810E94E70C109225022FEF88
:1023D00080E792E0215080409040E1F700C000008B
:1023E0000C94690DE1E0F3E080818E7F8083109290
:1023F00025022FEF80E792E0215080409040E1F7E6
:1024000000C000000C94690D60910103669570E0B6
:102410004BE050E084E191E00E941232892B19F4E4
:1024200081E0809325020E94F32890931E028093FE
:102430001D0208959091010390FF35C091708111A4
:1024400028C0926090930103662351F060910103CC
:102450007091020380910303909104030E94E70CA2
:1024600060910103669570E04BE050E084E191E0FB
:102470000E941232892BA1F01092250281E08093F4
:1024800020024091040360910303809102030C94A5
:10249000090F8B3210F09465D5CF880F982BD2CFCF
:1024A0000E940412EBCF0895682F90910103969536
:1024B00081E0890F8B3208F081E00C941A1281E0E0
:1024C0000C945412682F9091010396958FEF890F09
:1024D00009F48AE20C941A1281E00C94621261E011
:1024E0000C941A12E1E0F3E080818160808386958C
:1024F0000C946F128091010380FD0C94DA110C94FE
:10250000721260E00C941A128091230281112EC085
:102510000E940927811104C00E94AD270E94030D6B
:102520000E94E30C60930103709302038093030302
:10253000909304036E7F61F40E94030D0E94E30CEC
:102540006093010370930203809303039093040349
:102550000E94D40C109225028091010380FF03C0D9
:1025600086950E94811281E0809323020895E1E024
:10257000F3E080818160808386950C9481120F93B3
:102580001F93CF93DF9380912502882309F496C08F
:1025900080912402E0910103E695E81BE0931F027D
:1025A000823091F5F0E0E351FD4FE491CE2FD0E081
:1025B0000EEB1DE080912002882361F01092200232
:1025C0000E94F32890931E0280931D021092220213
:1025D000109221020E94F328E0911D02F0911E0248
:1025E0008E1B9F0B8F3F9F4708F068C0EC0FFD1FAD
:1025F000F0931E02E0931D028DE192E0F801DF915D
:10260000CF911F910F910994863049F4F0E0E65183
:10261000FD4FE491CE2FD0E002ED1DE0CBCF89300D
:1026200051F4E695F0E0E951FD4FE491CE2FD0E072
:102630000CE01FE0BFCF8F3051F4E695F0E0EC5195
:10264000FD4FE491CE2FD0E009E41FE0B3CF8531F8
:1026500049F4F0E0EF51FD4FE491CE2FD0E00CEBC8
:102660001FE0A8CFC8E2D0E00FE210E1883109F402
:10267000A1CF833239F4EFEDF2E0C591D49102EEAF
:102680001DE098CFC4EFD1E00FEB10E1843209F4E4
:1026900091CFC0EDD7E003EC1CE0853209F08ACF82
:1026A0008E2F63E00E941931E92FF0E0E452FD4FD4
:1026B000E491CE2FD0E00CEF10E17CCFDF91CF91F1
:1026C0001F910F910895FA01811101C0FB01099436
:1026D000CF93DF93C82FD62F0E94120D8C1740F096
:1026E0000E94120D8D1720F4DF91CF910C945F1290
:1026F0008C2FDF91CF910C946F120F931F93CF9378
:102700008C01FB01C281CC2309F465C00E945226D2
:102710008272F801E25CFC45E431F10538F4E157DE
:10272000FD4C0C946F310E947A12C0E08C2FCF9137
:102730001F910F9108954CE652E16FE572E10E94FE
:102740006313F3CF4FE552E16CE672E1F8CF4AEC48
:102750005EE06DEB7EE0F3CF4DEB5EE06AEC7EE099
:10276000EECF48EE5EE069ED7EE0E9CF49ED5EE058
:1027700068EE7EE0E4CF46E05FE067EF7EE0DFCF2B
:1027800047EF5EE066E07FE0DACF45E45DE06EE2D1
:102790007DE0D5CF4EE25DE065E47DE0D0CF81E025
:1027A0000E946F12C2CF65E082E00E946813BDCF25
:1027B00068E086E0FACF6EE089E0F7CF64E18FE071
:1027C000F4CF67E185E1F1CF88E1EACF62E289E108
:1027D000ECCF83E2E5CFC1E0A9CF239A45B1477F93
:1027E00055B15860EFB7F8949B01220F331F260FA5
:1027F000371F280F391F2817390741F4EFBF8FE51E
:1028000094E00197F1F700C000000895DC016D919C
:10281000CD0178E055B9000000C067FF45B9660FEB
:10282000000000C000C000C045B900C07A9591F713
:10283000E2CF82E290E00E942632883589F483E27A
:1028400090E00E9426328F3559F484E290E00E9495
:10285000263291E0813709F090E0892F8170089548
:1028600080E0FCCFCF93C82F6FEF811168E582E243
:1028700090E00E943A326FEFC1116FE583E290E081
:102880000E943A326FEFC11161E784E290E0CF918C
:102890000C943A3280E00E9432140C94032708957D
:1028A00085E290E00E942632682F70E090E080E0A0
:1028B000089585E290E00C943A320E944F140E94F1
:1028C000191481110CC060E070E0CB010E94591412
:1028D0000E94A3170E940F1981E00C9432140895EE
:1028E000CF93FB01C281CC2309F19C0122513F45CA
:1028F0002031310520F582510E941F19C0E08C2F34
:10290000CF91089581E00E94CD2443E062E081E010
:102910000E94F104F3CF81E00E94EE2443E062E0E4
:1029200081E00E94F104EBCF82E0F6CF8031FFE539
:102930009F0789F381319F45B9F3C1E0E0CF803132
:10294000EFE59E07F9F281319F45C9F682E0DBCFC2
:102950002FEFFC0120830895CF93DF93EC01888152
:102960008138A9F028F4803871F0DF91CF91089573
:10297000823881F08338C9F70E945D0D89830E94F7
:10298000600D8A83F2CF0E94630D8983EECF0E948F
:10299000120DFBCF0E94480DF8CFCF93DF93EC01CF
:1029A00088818138E1F028F4803869F0DF91CF9197
:1029B0000895823811F18338C9F70E94630D482FBA
:1029C0006A81898108C0D9810E94600DC82F0E9448
:1029D0005D0D4D2F6C2FDF91CF910C94090F8981E4
:1029E0000E9481128981811104C0DF91CF910C94E2
:1029F000F211DF91CF910C94B7128981DF91CF91C1
:102A00000C945A0DEF92FF920F931F93CF93DF9385
:102A1000EC01162F988120912A0230912B02232B52
:102A200079F09E3F09F073C08981833020F0855092
:102A3000833008F06CC0612FCE010E94381667C049
:102A40009E012F5F3F4F9B3009F4FCC068F5953025
:102A500009F49DC0E0F4923009F463C040F4913071
:102A600009F452C0612FCE010E94A81450C09330C7
:102A700009F480C09430B1F74B816A8189810E944A
:102A800059179827892798279D838C8340C09730B2
:102A900009F48BC008F486C0983009F48AC09930D4
:102AA00009F70E94F90C33C0903109F4A3C000F576
:102AB0009D3009F486C008F480C09E3009F489C0B6
:102AC0009F3081F680912C0290912D02892BF9F094
:102AD0006B8170E06D317105D0F489819A81AE010E
:102AE0004C5F5F4F9827892798270E94E4180FC0F2
:102AF000923109F485C008F480C0933109F491C083
:102B00009E3F09F0AFCF97CF198289E08A83612F6A
:102B1000CE01DF91CF911F910F91FF90EF900C9418
:102B2000402A8981823071F0833079F0813009F058
:102B300099CF0E94FF280E9475316A837B838C8322
:102B40009D83E5CF0E945014F6CF80912C02909186
:102B50002D02892BE1F27E0100E0802F0E946308A4
:102B6000F701928383830F5FF2E0EF0EF11C0430D4
:102B7000A1F7CDCF8981823009F074CF6A817B8142
:102B80008C819D810E9475310E945914C0CF2C8187
:102B90003D813227232732274B816A8189810E9418
:102BA0007B17B5CF0E94A317B2CFC9010E94CD14E5
:102BB000AECFC9010E94AC14AACF0E94B818898375
:102BC000A6CF0E94BA189827892798279A838983C5
:102BD0009ECF6B8170E06D31710508F098CF8981CF
:102BE0009A81AE014C5F5F4F9827892798270E94F2
:102BF000BD188DCF0E940F198ACF0E944717DFCFD3
:102C00006B8170E06D31710508F081CF89819A8107
:102C1000AE014C5F5F4F9827892798270E94ED17D8
:102C200076CF6B8170E06D31710508F070CF8981CE
:102C30009A81AE014C5F5F4F9827892798270E94A1
:102C4000131865CF80912C0290912D02892B09F4E5
:102C50005ECFCE010E94402A2FEF81EE94E02150FA
:102C600080409040E1F700C000000E943E294FCF15
:102C7000EF92FF920F931F93CF93DF93CDB7DEB701
:102C800028970FB6F894DEBF0FBECDBF8C0160321F
:102C900019F5DC011196EC911197E930E8F4F0E0B8
:102CA000ED55FD4C0C946F3188E0ECE2F1E0DE0173
:102CB000119601900D928A95E1F783E0F8018083E7
:102CC00011821282138288E0FE013196D801149697
:102CD00001900D928A95E1F728960FB6F894DEBF21
:102CE0000FBECDBFDF91CF911F910F91FF90EF905D
:102CF000089588E38C9381E011968C931197129636
:102D00001C92129713961C92E7CFFC018381682FC7
:102D100070E0762F66278281860F972F911D092EEE
:102D2000000CAA0BBB0B25E0880F991FAA1FBB1F25
:102D30002A95D1F7AC01BD01405E5F4F6F4F7F4FC9
:102D4000481759076A077B0738F28833F1E09F0775
:102D5000A105B10508F6493321E052076105710567
:102D600020F048E351E060E070E0481B590BBC01E3
:102D70006A507B4FC80128960FB6F894DEBF0FBE8D
:102D8000CDBFDF91CF911F910F91FF90EF900C94E9
:102D9000093240E250E06FEF70E00E941F328091F4
:102DA0002C02D8018C9380912A0211968C93119752
:102DB00012961C92129713961C92139714961C92BB
:102DC00014978BE015968C9387CF81E090E09093D9
:102DD0002B0280932A0282E390E090932902809351
:102DE00028020E94F328909327028093260274CF32
:102DF00080912A0290912B02892B91F160E080E072
:102E00000E944D08E82E6BE080E00E944D08F82EED
:102E100080912602909127020E940B298536910508
:102E200050F1EE2041F1FF2031F10E94F328909300
:102E3000270280932602809128029091290201970F
:102E40009093290280932802892B51F410922B022F
:102E500010922A0281E090E090932D0280932C0240
:102E600080912C02F801808380912A0281838091D5
:102E70002802828331CF82E390E0909329028093ED
:102E80002802EECF10922D0210922C0225CF84E062
:102E9000089550E0440F551F98E1699F400D511D62
:102EA000112490E6899F400D511D1124CA01869678
:102EB00008950F931F93CF93DF938430C8F4643049
:102EC000B8F44C30A8F40E9449178C010E942632B5
:102ED000C82FD0E0DC2FCC27C80101960E942632F3
:102EE0009E01282BC901DF91CF911F910F91089569
:102EF00090E080E0F8CF0F931F93CF93DF93E90129
:102F00008430E0F46430D0F44C30C0F421153C45FA
:102F100031F420912C0230912D02232B79F00E9464
:102F200049178C016D2F0E943A326C2FC80101960F
:102F3000DF91CF911F910F910C943A32DF91CF9195
:102F40001F910F9108958F929F92AF92BF92CF924F
:102F5000DF92EF92FF921F93CF93DF9380902C022A
:102F600090902D0281E090E090932D0280932C02AE
:102F70008CEAC82E80E0D82ED0E07601C0E014C0E4
:102F8000F50125913491412F6C2F8D2F0E947B17D5
:102F900082E0A80EB11C1F5F1C3091F788E1E80E9B
:102FA000F11CCF5FC43019F0570110E0E9CFDF5FAB
:102FB00080E6C80ED11CD43001F790922D02809289
:102FC0002C02DF91CF911F91FF90EF90DF90CF9077
:102FD000BF90AF909F908F900895EF92FF920F93C4
:102FE0001F93CF93DF93EC018A017C01E60EF71E5D
:102FF000CE018696CE15DF0539F4DF91CF911F9172
:103000000F91FF90EF900895C03821E0D20740F46F
:103010000E942632F80180830F5F1F4F2196E8CF70
:10302000F8011082F9CF4F925F926F927F928F9248
:103030009F92AF92BF92CF92DF92EF92FF920F9347
:103040001F93CF93DF93EC017B018A01803891407D
:10305000D8F480E891E08C1B9D0B86179707A0F0B1
:103060003E0136E2630E711C80912C0290912D027C
:103070002E01460E571E892BC1F07E01C701869690
:10308000E414F50409F050C0DF91CF911F910F9126
:10309000FF90EF90DF90CF90BF90AF909F908F9078
:1030A0007F906F905F904F9008956E0181E0C822ED
:1030B000DD24C0FF0FC0CE0185960E942632F801A4
:1030C000908189279827892781159C4519F48FEFCE
:1030D000F8018083570140FE13C0F1E0AF1AB10838
:1030E00048018A0C9B1CC3018E0D9F1D0E94263235
:1030F000F401908181159C4519F48FEFF4018083D0
:10310000F801EC0DFD1D2FEFCA14DB0408F0B5CF5C
:103110009081818181159C4511F42083218382E077
:10312000C80ED11C3296F0CFE0E8EE16E1E0FE06C4
:1031300040F4F701EC1BFD0BE00FF11F60810E94D2
:103140003A32FFEFEF1AFF0A99CF462F20912A0259
:1031500030912B02232B49F4843038F4743028F456
:103160006C3018F4672F0C94591790E080E00895A4
:1031700080E108958AE592E00895EF92FF920F931F
:103180001F93CF93DF93EC018A017C01E60EF71EBB
:10319000CE018A559E4FCE15DF0539F4DF91CF91D0
:1031A0001F910F91FF90EF900895CA3522E0D2074A
:1031B00040F40E942632F80180830F5F1F4F219652
:1031C000E7CFF8011082F9CFCF92DF92EF92FF9212
:1031D0000F931F93CF93DF937C016A018C01060F3D
:1031E000171FEC01CE018A559E4FC017D10749F435
:1031F000DF91CF911F910F91FF90EF90DF90CF90D3
:103200000895CA3522E0D20740F4FE01EE19FF0905
:10321000EC0DFD1D60810E943A322196E3CFCF93E1
:10322000DF93C6EAD1E060E0CE010E943A322196F7
:10323000C11584E0D807B9F7DF91CF910895BF9207
:10324000CF92DF92EF92FF920F931F93CF93DF9372
:1032500000D000D0CDB7DEB7F82E2FE0281740F011
:103260008FEF93E00E94263206EA11E08823D1F026
:103270000F900F900F900F90DF91CF911F910F91B2
:10328000FF90EF90DF90CF90BF900895011544E03C
:10329000140771F3C8010E942632811101C0FA940B
:1032A0000F5F1F4FF110F2CF19821A821B821C820E
:1032B000BB24BA9478015FEFE51AF50AC8010E94B1
:1032C000263289831A82882399F2813009F047C017
:1032D000680182E0C80ED11CC7010E942632E82E88
:1032E0008A83882329F2C6010E942632F82E8FEFA6
:1032F0008E0D833068F46801E3E0CE0ED11CFB82B2
:10330000FF2021F0CE0101960E943C068601D2CF1B
:10331000F4E0EF12FBCF680124E0C20ED11CC8011B
:1033200003960E942632FF2009F4A2CF882309F4D5
:103330009FCF8150990BB89E9001B99E300D1124FA
:103340004F2D4150550BCA01820F931F0197F0F288
:10335000EFE9FFE03197F1F700C00000F7CFCE01B1
:1033600001960E943C066701D1CF0F931F93CF9324
:10337000DF93C42FD22FFC0182818823C9F04093B0
:1033800030020E94F32890932F0280932E0280E255
:103390008C0F883008F050C0C77081E001C0880FE2
:1033A000CA95EAF7DF91CF911F910F910C94581EA7
:1033B00010913002141335C080912E0290912F028B
:1033C0000E940B29883C910560F5C0E2CD0F1D17C6
:1033D000B9F080E2810F883040F4177081E001C0BD
:1033E000880F1A95EAF70E945F1EC83048F481E002
:1033F0009D2F977001C0880F9A95EAF70E94581E7A
:10340000802F0E94501EC830B8F4D77081E001C0F0
:10341000880FDA95EAF7DF91CF911F910F910C9405
:103420005F1E80E28C0F883038F4C77081E001C0E5
:10343000880FCA95EAF7EFCFDF91CF911F910F91D7
:1034400008950F939C01CB01233F4CE5340759F1BC
:10345000A8F4283DFCE53F0701F1293D4CE5340780
:10346000D1F1273D3C4591F406E221EE41EE67EDB6
:103470007CE50E94B51980E00F910895253FFCE599
:103480003F07E9F0B0F0263F3C45F9F0FC018281AE
:10349000882339F110923002EFCF07E225EE45EE96
:1034A00068ED7CE5E6CF06E221EE40EE63EF7CE5D9
:1034B000E0CF07E225EE44EE64EF7CE5DACF06E2EA
:1034C00021EE42EE65EF7CE5D4CF07E225EE46EE35
:1034D00066EF7CE5CECF08E221E045EE69ED7CE5C4
:1034E000C8CF81E0C9CFCF93DF93EC01FB0182818C
:1034F000882309F419C1C230FCE5DF07C0F1C631E9
:103500009CE5D90730F09E012A5F3C452930310502
:1035100070F50E941C279093230380932203C031EF
:10352000ECE5DE0709F4CFC008F05BC0C8308CE5DD
:10353000D80709F4B6C088F5C430ECE5DE0709F415
:10354000A8C0C0F4C2308CE5D80709F49CC08091B3
:1035500022038260C330DC4509F498C080912203C5
:10356000909123030E942A270E94D32080E0DF91BC
:10357000CF910895809122038061C630ECE5DE078B
:1035800009F484C0809122038860C730DC4508F4C8
:103590007DC080912203806279C0CC308CE5D80751
:1035A00009F489C070F4809122038C60CA30ECE584
:1035B000DE0709F46BC008F478C0809122038E7F87
:1035C00065C0CE308CE5D80709F479C0809122031C
:1035D0008B7FCF30DC4508F459C0809122038F7E69
:1035E00055C0CB3FECE5DE0709F457C030F5C331D9
:1035F0008CE5D80709F46FC078F4C131ECE5DE073B
:1036000009F465C0C231DC4509F0A8CF0E94D3207F
:10361000809122038F773AC0C5318CE5D80709F431
:1036200062C008F476C0809123038160CA3FDC4504
:1036300009F094CF8093230391CFCF3FFCE5DF07C0
:1036400009F44DC088F4809123038D7FCD3F9CE524
:10365000D90781F3809123038E7FCE3FDC4550F361
:10366000809123038360E6CFC130FDE5DF0709F4D5
:1036700059C008F444C080E0C230DD4509F06ECF87
:103680000E94AF276BCF8091220381608093220339
:1036900065CF809122038460F9CF809123038260FB
:1036A000C9CF809122038064F1CF0E94D320809102
:1036B00022038068EBCF809122038D7FE7CF80913A
:1036C0002203877FE3CF809122038F7DDFCF80911C
:1036D00022038F7BDBCF80912203837FD7CF809122
:1036E00023038C7FA7CF8091220382FB992790F937
:1036F00021E0922790FB82F990FB83F9C7CF80915C
:103700002303982F909591708E7F892B90FB81F9E0
:1037100091CF0E94D32090912203892F97FB87F9A4
:103720008058B4CF81E0ACCF81E021CFCF93DF933D
:10373000EB0186319C4511F50E9452269A8199230E
:1037400099F08A7A91E009F490E090933102811126
:1037500009C089E20E942D260E949E2680E0DF910A
:10376000CF91089585E3F6CF80913102811104C095
:1037700089E20E943426F0CF85E3FBCF81E0EFCFD2
:1037800090933702809336020895E0913602F091CB
:103790003702309721F00190F081E02D099480E00C
:1037A0000895E0913602F0913702309799F0209118
:1037B0002B01222359F02091220327FF07C0DC01AF
:1037C0002C9111962C93119725E02C930280F38174
:1037D000E02D09940895E0913602F0913702309778
:1037E00039F022E0DC012C930480F581E02D09946E
:1037F000089520913402309135022817390771F06D
:103800009093350280933402E0913602F0913702B2
:10381000309721F00680F781E02D099408952091DA
:103820003202309133022817390771F09093330236
:1038300080933202E0913602F0913702309721F006
:103840000084F185E02D099408950E94FF2860937B
:10385000450270934602809347029093480260931A
:103860004102709342028093430290934402089570
:1038700085B7806885BF85B7806885BF089508953E
:1038800008950C943F1C08950C94431C0E94381C0E
:1038900081E097E20E9462290E94401C0C94411C26
:1038A00081E008950C94501C089508950E94EA2820
:1038B0000E948C080E945D140E9480290E9484123C
:1038C0000C94441C8F929F92AF92BF92CF92DF9242
:1038D000EF92FF920F931F93CF93DF93CDB7DEB795
:1038E0002A970FB6F894DEBF0FBECDBF0E94541CBE
:1038F0000E94551C0E94CA0881110E94251C59E390
:10390000852E52E0952E10E000E0A02E802F0E9420
:1039100063086C01F401E190F1904F01E816F9069B
:1039200009F45EC08091CD0281FD0E946C08C70140
:103930008C259D25B12CEE24E394F12C9C012E21A5
:103940003F21232B09F446C00E94521C8823A9F072
:10395000BE82AF82CE20DF2081E0CD2809F480E056
:1039600088870E94F3288160782F9A8789874E8103
:103970005F8168858A850E941A1D000F111FF8015A
:10398000E75CFD4F80819181E826F926F182E08293
:103990000E94BF120E94110B0E94C51B9091380219
:1039A0008917A9F10E94C51B809338022A960FB689
:1039B000F894DEBF0FBECDBFDF91CF911F910F9165
:1039C000FF90EF90DF90CF90BF90AF909F908F903F
:1039D0000C944606B394EE0CFF1CFCE0BF12AECF75
:1039E0000F5F1F4F0430110509F08FCF8FEF8983D0
:1039F0008A831B820E94F3288160782F9D838C83A9
:103A000049815A816B818D810E941A1DC1CF2A96EE
:103A10000FB6F894DEBF0FBECDBFDF91CF911F91DF
:103A20000F91FF90EF90DF90CF90BF90AF909F905D
:103A30008F900895DF92EF92FF920F931F93CF9391
:103A4000DF93CDB7DEB72B970FB6F894DEBF0FBE6E
:103A5000CDBF7A878B87F42E052F162FE72ED82E11
:103A600061110E9472261E821D827E2DEC82DD82F3
:103A70004F2D502F612F8D2D9E812B960FB6F894D0
:103A8000DEBF0FBECDBFDF91CF911F910F91FF9091
:103A9000EF90DF900C944923FC01808191810C947C
:103AA000FF25CF93C82F882309F48BC08238C1F437
:103AB0000E94C51B81FD85C089E30E942D260E94BE
:103AC0009E262FEF81EE94E0215080409040E1F758
:103AD00000C0000089E30E943426CF910C949E26FA
:103AE0008338A1F40E94C51B80FD6BC083E50E9452
:103AF0002D260E949E262FEF81EE94E021508040DB
:103B00009040E1F700C0000083E5E5CF8438A1F4E0
:103B10000E94C51B82FD55C087E40E942D260E948D
:103B20009E262FEF81EE94E0215080409040E1F7F7
:103B300000C0000087E4CFCF8CEF8C0F813A90F467
:103B40006C2F80911F01909120010E94C82788232B
:103B500029F08C2F0E9434260E949E268C2F0E94D2
:103B60002D26BBCF80E28C0F883048F4C77081E0EF
:103B700001C0880FCA95EAF70E945526AECFEBE543
:103B8000EC0FE33040F4F0E0E253FE4F808190E030
:103B9000CF910C94F91BE8E5EC0FE73150F4F0E01D
:103BA000EE0FFF1FE056FE4F80819181CF910C9464
:103BB0000F1CC03F30F08C2F0E940B0ACF910C9449
:103BC000F60ACF910895882309F452C0823871F41F
:103BD0000E94C51B81FF4CC089E30E942D260E94D4
:103BE0009E2689E30E9434260C949E26833859F43D
:103BF0000E94C51B80FF3CC083E50E942D260E94C9
:103C00009E2683E5EFCF843859F40E94C51B82FFBE
:103C10002FC087E40E942D260E949E2687E4E2CFD3
:103C20009CEF980F913AF0F290E2980F983050F490
:103C3000877091E001C0990F8A95EAF7892F0E9459
:103C40005B26D2CF9BE5980F933020F490E080E084
:103C50000C94F91B98E5980F973120F490E080E0E0
:103C60000C940F1C803F20F00E94730A0C94F60AFB
:103C700008951F93CF93DF93182FEB010E94511DDE
:103C8000209731F4812FDF91CF911F910C94E31D88
:103C90008FE99FE00197F1F700C000002197F0CF76
:103CA00070E060E0893311F460E570E00C94391E37
:103CB000882321F00E9455260C949E26089588237F
:103CC00021F00E945B260C949E260895BF92CF920D
:103CD000DF92EF92FF920F931F93CF93DF936C01CC
:103CE000D62FC72FFC011281058102950F700E940B
:103CF0004B26E82E8823A1F0E12E112389F08C2F8A
:103D0000807F803429F080E28D0FE12C883040F0F4
:103D100082E00E94E9260E944B2691E0E82EE926E7
:103D2000BC2EB2949FE0B922EB2DF0E0E455FD4C9F
:103D30000C946F310C2F0F70C07F11F00295007F33
:103D40001123A9F0002359F080E28D0F883010F084
:103D5000D11109C0802F0E9455260E949E268D2FCA
:103D60000E94511D14C0802F0E946526F6CF8D2F12
:103D70000E94E31D002359F080E28D0F883010F07F
:103D8000D1112CC0802F0E945B260E949E262B2DD5
:103D90002850330B2430310520F40E94C51B0E94AB
:103DA0004606EE2009F4A0C10E94472680FD9CC172
:103DB000F60112820E9441260E94CD24C6010E9473
:103DC00095200E944126DF91CF911F910F91FF9086
:103DD000EF90DF90CF90BF900C94EE24802F0E9444
:103DE0006B26D3CFFC2FFF70FF2EC07FC03219F09F
:103DF000F29480EFF822DD2369F0D13049F11123EC
:103E000091F1002351F1F601858180FFA8CF8F70D9
:103E1000858323C0112381F0011106C00E948526ED
:103E20008F290E94581EB3CF0130C1F70E9485260A
:103E30008F290E948B26ABCF011106C00E949426C9
:103E40008F2D0E945F1EA3CF013009F4A0CFF6CFC3
:103E5000112329F0063008F09ACF8F2DE2CF0530DC
:103E600008F095CFEDCF002359F3D93349F4FFEF94
:103E700027EE33E0F15020403040E1F700C0000071
:103E80008D2F0E94E31D83CF8C2F8695869583709E
:103E900069F0813009F07BCF8D2F9C2F9370111129
:103EA00002C090E080E00E940F1C71CF8D2F9C2FEC
:103EB0009370111102C090E080E00E94F91B67CF5F
:103EC0008D2F112339F00E940B0A0E94F60A0E94DE
:103ED000F60A5DCF0E94730AFACF8C2F837009F027
:103EE00041C0111154CF4D2F429546954770440F54
:103EF000440F0D2F0F7010E030E020E0042E04C0BE
:103F0000000F111F221F331F0A94D2F760E070E0E8
:103F1000CB01D4FF0FC06FE070E080E090E004C000
:103F2000660F771F881F991F4A95D2F76095709585
:103F300080959095C695C695C370602B712B822B8A
:103F4000932BC23049F058F4C13019F00E947F24FD
:103F50001ECF0E946D241BCF0E94912418CF0E9477
:103F60006B2415CF8695112311F08C2F8170882337
:103F700009F40DCF4D2F429546954770440F440FDD
:103F80000D2F0F7010E030E020E0042E04C0000F71
:103F9000111F221F331F0A94D2F760E070E0CB019B
:103FA000D4FF0FC06FE070E080E090E004C0660FC7
:103FB000771F881F991F4A95D2F760957095809555
:103FC0009095C695C695C370602B712B822B932B51
:103FD000C23049F058F4C13019F00E944425D7CEC0
:103FE0000E943225D4CE0E945625D1CE0E94A7240D
:103FF000CECECF70112329F08C2F0E94CD248D2F8F
:1040000010CF8D2F0E945F1E8C2F0E94EE24BFCEFA
:10401000D23F89F160F4D03FC9F0D13F29F111239B
:1040200009F442C001119BCE8C2F8F7121C0D33F68
:1040300039F1D43FA1F7112369F1CF718C2F0E9480
:10404000CD2463E08C2F0E94D426A1CE112341F011
:10405000053008F09CCE8C2F8F710E94112597CED1
:10406000063008F094CEF7CF8C2F8F71112369F2B0
:104070000E94CD248CCE8C2F8F711123C9F3C5CF14
:10408000112329F08C2F8F710E94B82480CE0E94BA
:10409000B3247DCE81E00E94E926023008F477CE79
:1040A00082E00E94E92673CE002359F0D93309F04B
:1040B000E7CE8FEF97EEE3E081509040E040E1F7EC
:1040C000DDCE8C2F8F71A1CF4C2F4F706D2FC6017D
:1040D0000E944E060E94E3235ACE4C2F4F706D2F44
:1040E000C6010E94510653CEDF91CF911F910F91CF
:1040F000FF90EF90DF90CF90BF9008950F931F93A4
:10410000CF93DF93EC01688179818A810E9409262F
:104110008C010E9468250E946A24B801CE01DF91BB
:10412000CF911F910F910C94661ECF93DF93EC01FA
:104130008B819C81892B29F08881998189238F3FEC
:1041400059F4DF91CF910895CE010E947E20CE01D7
:10415000DF91CF910C949204CE010E9463058111EE
:10416000F3CF0E944B26882361F38A81882349F389
:1041700082E0DF91CF910C94E92690E080E00E94EC
:10418000F91B90E080E00E940F1C0E9472260E94A2
:1041900082260E949E260E941D0C0C94F60A0E9404
:1041A0003B260C94BD200E9462260C94CF20E92F60
:1041B000E295EF70E250EE3070F4F0E0E454FD4C24
:1041C0000C946F31803F19F020F4883E20F481E098
:1041D0000895843FE1F380E00895883EC0F3813F75
:1041E000D1F7F5CF93FB882780F908950E94FF252A
:1041F0000C94D720CF93DF9300D000D00F92CDB78F
:10420000DEB70F900F900F900F900F90DF91CF912E
:104210000895CF93DF9300D000D000D0CDB7DEB7A4
:1042200026960FB6F894DEBF0FBECDBFDF91CF91BB
:1042300008951F93CF93DF93C0914A0216E08091B7
:104240004B028C1304C0DF91CF911F910895D0E0F1
:104250001C9FF0011D9FF00D1124E45BFD4F408178
:10426000518162817381848195810E940921219607
:10427000C770E5CF40917C0250917D0260917E0233
:1042800070917F0280918002909181020C940921AB
:104290001F93CF93DF9380918102807FA9F4809157
:1042A0007E02882389F080914A02C0914B0260917E
:1042B0007C0270917D02A0917F02B0918002D62F86
:1042C000D72316E0C81304C0DF91CF911F91089542
:1042D00090E0109711F0DF3F19F401968770F2CF4C
:1042E000189F9001199F300D1124F901E45BFD4FD7
:1042F00041814713F2CF40814613EFCF42814111F4
:10430000ECCF438154814A1B5B0B483C510528F795
:10431000809181028F70806180938102F901EF5A50
:10432000FD4F80818F70806180838CE792E00E94D6
:104330009520DF91CF911F910C941921AF92BF92DC
:10434000CF92DF92EF92FF920F931F93CF93DF9361
:10435000CDB7DEB761970FB6F894DEBF0FBECDBF05
:104360008C0185E0F801DE011D9601900D928A9581
:10437000E1F7F80140815181E2808CE7C82E82E0AC
:10438000D82E60917F02709180026115710509F449
:1043900061C190917C0220917D02892F82238F3F01
:1043A00009F458C1A380B480F0907E02F501E61BA9
:1043B000F70BFF2009F4FCC080918102382F307F79
:1043C000E83CF10508F0B2C0311179C0FE2C25138C
:1043D00023C0941321C0E1101FC08F7080618093AF
:1043E00081020E943A21C6010E949520809181029B
:1043F000F80185838F2D61960FB6F894DEBF0FBE4E
:10440000CDBFDF91CF911F910F91FF90EF90DF9083
:10441000CF90BF90AF900895AB2829F0842F8523CB
:104420008F3F09F033C180E0F82FF170DF2E80FF5D
:104430003CC080914A0220914B0236E0821315C0A5
:104440004D875E878D859E850E94FF25292F2295A9
:104450002F702230F0F0243018F59F70F1F0F80141
:104460009581907FD1F4D12C1EC090E0389FF0014F
:10447000399FF00D1124E45BFD4F6181651306C087
:104480006081641303C062816E110FC00196877052
:10449000D5CF9F7011F0882331F3805E883018F3F8
:1044A000C8010E949520FD2CA5CFEE2009F4A2CFD3
:1044B00080918102816080938102F12C9BCF251332
:1044C00006C0941304C0F801EE2009F48DC04D8796
:1044D0005E878D859E850E94F620882319F1EE2047
:1044E00009F180918102803270F020917C0230913C
:1044F0007D0238872F831986BB86AA868C87CE01DA
:1045000007960E94952086E0F801ACE7B2E00190A2
:104510000D928A95E1F70E9448210E943A21FF24DA
:10452000F39468CFC8010E949520F9CF311113C0D0
:104530007A2DB98AA88A6E2D89890E94FA208CE783
:1045400092E00E94952086E0F60111928A95E9F7A3
:104550000E943A21B2CF25130FC094130DC0E11071
:104560000BC0F8018583C8010E94952086E0F60102
:1045700011928A95E9F73ECF4D875E878D859E859E
:104580000E94F620882371F2EE2061F28091810270
:10459000803208F4B8CF20917C0230917D023A83BA
:1045A00029831B82BD82AC828E83CE010196A9CF66
:1045B000E83CF10508F041C0FE2CEE2009F4B2CF32
:1045C00025132AC0941328C08091810280FD1BC04E
:1045D000982F907FC1F0F8018583903F31F0982F9C
:1045E000907F905F8F70892B8583C8010E949520F2
:1045F00086E0F801ACE7B2E001900D928A95E1F710
:104600000E943A21F7CE86E0F801ACE7B2E00190D3
:104610000D928A95E1F7EECE4D875E878D859E855A
:104620000E94F62081116FCF80918102816080937A
:104630008102C8010E949520DDCE7A2DB98AA88A10
:104640006E2D89890E94FA2086E0F60111928A95E2
:10465000E9F7D6CFEE2009F465CF4D875E878D85CB
:104660009E850E94F620F82E882309F45BCF86E011
:10467000F801ACE7B2E001900D928A95E1F78CE782
:1046800092E00E944C1D0E944821BACF81E08E2505
:10469000CBCE1F93CF93DF93CDB7DEB72C970FB65A
:1046A000F894DEBF0FBECDBF4F83588769877A87E6
:1046B0008B879C87CE0107960E949E21882369F0F4
:1046C0008A859B85892B39F04F815885842F8523D6
:1046D0008F3F09F071C016E05FC086E0FE0137969B
:1046E000DE01119601900D928A95E1F78A859B85EE
:1046F000892B89F38F81988589238F3F61F32091DE
:104700004B0230E0C90101968770992740914A0217
:104710004817190671F40E94D32010924B02109290
:104720004A0286E0ECE7F2E0DF011D928A95E9F7A4
:10473000D2CF96E0929FD001939FB00D1124A45B3D
:10474000BD4FFE01319601900D929A95E1F780934D
:104750004B020E941921BFCF819FC0011124845BAD
:104760009D4F0E949E218823E9F0E0914A021E9FFE
:10477000F0011124E45BFD4F40815181628173811E
:10478000848195810E94092180914A0290E00196DE
:104790008770992780934A0280914A0290914B0238
:1047A0008913DACF2C960FB6F894DEBF0FBECDBFBB
:1047B000DF91CF911F91089569857A858B859C85BE
:1047C0000E94092188CFEF92FF920F931F93CF93FE
:1047D000DF938C01892B81F0F12CEE24E394E80126
:1047E0002196F8018491843770F4843008F05FC01A
:1047F0008130B1F08230A1F1DF91CF911F910F9103
:10480000FF90EF900895853709F44CC008F43DC03F
:104810009CE7980F903780F78F770E94E31D49C07F
:104820000E5F1F4FFE01849190E2980F983060F464
:104830008770FE2D01C0FF0F8A95EAF78F2F0E9427
:1048400075260E949E2602C00E94511D8F2D815008
:1048500030F2EFE9FFE03197F1F700C00000F7CF49
:104860000E5F1F4FFE01849190E2980F983050F434
:104870008770FE2D01C0FF0F8A95EAF78F2F0E94E7
:104880007B26DFCF0E94E31DE1CF0E5F1F4FFE01AD
:10489000C491C150D8F28FE99FE00197F1F700C0B1
:1048A0000000F7CF0E5F1F4FFE01F490CFCF0E94A4
:1048B000511D8E01CBCF08950C945B240E945C2483
:1048C0006093A4027093A5028093A6029093A7021E
:1048D0000C94BD2008950C945E240F931F930091B7
:1048E000A4021091A5022091A6023091A702602B8C
:1048F000712B822B932B1F910F910C945E240F939D
:104900001F930091A4021091A5022091A60230915C
:10491000A70260237123822393231F910F910C948C
:104920005E240F931F930091A4021091A502209181
:10493000A6023091A70260277127822793271F9133
:104940000F910C945E240C945B240C94A3240E947D
:10495000A5246093A0027093A1028093A202909379
:10496000A3020C94BD2060E070E0CB010C94A7245E
:104970000F931F9341E050E060E070E08A019B01DB
:1049800004C0000F111F221F331F8A95D2F7C901DF
:10499000B8011F910F910C94A7240F931F9341E02E
:1049A00050E060E070E004C0440F551F661F771FA1
:1049B0008A95D2F78091A0029091A102A091A202C3
:1049C000B091A3028A019B01082B192B2A2B3B2BA8
:1049D000C901B8011F910F910C94A7240F931F9345
:1049E00041E050E060E070E004C0440F551F661FD6
:1049F000771F8A95D2F7CB01BA01609570958095A3
:104A000090950091A0021091A1022091A2023091F4
:104A1000A30260237123822393231F910F910C948F
:104A2000A7240F931F9341E050E060E070E004C0C2
:104A3000440F551F661F771F8A95D2F78091A002F9
:104A40009091A102A091A202B091A3028A019B01C0
:104A5000082719272A273B27C901B8011F910F9161
:104A60000C94A7240F931F930091A0021091A10210
:104A70002091A2023091A302602B712B822B932BE9
:104A80001F910F910C94A7240F931F930091A002E4
:104A90001091A1022091A2023091A3026023712300
:104AA000822393231F910F910C94A7240F931F939C
:104AB0000091A0021091A1022091A2023091A302C4
:104AC00060277127822793271F910F910C94A724A9
:104AD00008952CE0929F800D1124982F977041E04B
:104AE00001C0440F9A95EAF786958695869595E0DC
:104AF000899FF0011124EE57FD4F90E080E070E0B7
:104B00005191DF0111979B01082E02C03695279520
:104B10000A94E2F7217021952527242325272C9339
:104B200001968530910561F708952CE0929F800DE4
:104B30001124982F977086958695869525E0829FFB
:104B4000F0011124EE57FD4F50E040E080E021914C
:104B500030E0092E02C0369527950A94E2F72170BD
:104B60003327042E01C0220F0A94EAF7822B4F5FED
:104B70005F4F4530510559F70895BF92CF92DF92AC
:104B8000EF92FF920F931F93CF93DF938C01C0900E
:104B9000A002D090A102E090A202F090A302809126
:104BA000A4029091A502A091A602B091A702C82AE2
:104BB000D92AEA2AFB2ACFE1D0E0BC2ED701C601D0
:104BC0000C2E04C0B695A795979587950A94D2F7B1
:104BD00080FD0EC0219788F7B12C8B2DDF91CF91EE
:104BE0001F910F91FF90EF90DF90CF90BF900895AD
:104BF000B8018C2F0E945A06019761F3EECFCF9334
:104C0000DF93EC010E94BD25BE01DF91CF910C9492
:104C10005A061F93CF93DF93EB019091490299239A
:104C200031F0CB01DF91CF911F910C94FF258823A8
:104C300079F0CB010E94BD25182F682FCE010E946C
:104C40006925BE01812FDF91CF911F910C945A06E7
:104C5000CB010E949525182FF4CF682F80911F015A
:104C6000909120010C944828682F80911F01909109
:104C700020010C94532880911F01909120010C94E5
:104C80005E288091A80285958595859508958091E7
:104C9000A802877008959091A802977081E009F4A6
:104CA00080E008958091CC0208959091CC02892BE8
:104CB0008093CC02089580959091CC029823909394
:104CC000CC0208951092CC0208959091CB02892BCA
:104CD0008093CB02089580959091CB029823909376
:104CE000CB0208951092CB0208959091CA02892BAD
:104CF0008093CA02089580959091CA029823909358
:104D0000CA0208951092CA0208958091A9020895D6
:104D100008950C9488269091A902981721F0809309
:104D2000A9020C94892608958091A902882329F06C
:104D30001092A90280E00C9489260895E0911F0149
:104D4000F09120018091CC028083E0911F01F091CD
:104D5000200180819091CB02892B8083E0911F01FB
:104D6000F091200180819091CA02892B80839091DB
:104D7000A902992381F0E0911F01F0912001808127
:104D8000892B808380911F01909120010E94B4277C
:104D900081110E94942680911F01909120010C9412
:104DA000D11B08950C94D12698E0899F900111247D
:104DB000622B6093A8020E94CD248091A802859561
:104DC000859585950C94D2261092A80280E00C94CB
:104DD000D2269091A802809589238093A802282F3B
:104DE000277071F4282F082E000C330B921713062E
:104DF00039F08595859585950E94EE240C94E426DE
:104E0000089580E008956FEF7FEF90E080E00C94CC
:104E1000583290E080E00E94343221E08B3E9E4F79
:104E200009F020E0822F089582E090E00C94263271
:104E300083E090E00C942632CF9384E090E00E94CF
:104E40002632C82F81E290E00E942632982F8C2FC4
:104E5000CF910895CF93C92F682F84E090E00E94EE
:104E60003A326C2F81E290E0CF910C943A32AB0150
:104E7000BC018FE090E00C944C32AB01BC0183E1AB
:104E800090E00C944C3260E070E0CB010C943D2734
:104E900060E070E0CB010E9437270C9443276BEE53
:104EA0007EEF90E080E00E94583260E082E090E087
:104EB0000E943A3260E083E090E00E943A32109221
:104EC000A4021092A5021092A6021092A70260E01E
:104ED00084E090E00E943A3260E081E290E00E943B
:104EE0003A3260E085E090E00E943A3260E086E08D
:104EF00090E00E943A326FEF87E090E00E943A32F1
:104F000040E050E0BA0188E090E00E944C3260E05E
:104F10008DE090E00E943A3240E050E0BA0188E132
:104F200090E00E944C3260E087E190E00E943A32CB
:104F300040E050E0BA018CE190E00E944C3260E029
:104F400080E290E00E943A3240E050E0BA0188E10D
:104F500090E00E944C320C9448270C944F27682F05
:104F60008EE090E00C943A32FC01329680912B0155
:104F7000882321F0809122039EE187FF96E080E064
:104F8000915008F4089521912223D1F38F5FF8CF37
:104F9000662301F120912B012223F1F020912203BD
:104FA00027FF1AC0462F4695469546954E3190F4F8
:104FB000677021E030E002C0220F331F6A95E2F7EC
:104FC000840F911DFC01828190E02823392381E028
:104FD000232B69F480E00895FC0132960896219114
:104FE000261721F0E817F907D1F7F4CF81E00895EB
:104FF0009C01FC0132969FEF80E04191461751F0F1
:105000009F3F19F4411101C0982F8F5F8630A9F797
:105010009F3F09F40895290F311D97FD3A95F90135
:1050200062830895FC01329608962191261303C0ED
:10503000DF0111971C92E817F907B9F70895E62FD9
:10504000E695E695E695EE3168F4E80FF92FF11D47
:10505000677021E030E001C0220F6A95EAF7828193
:10506000822B82830895E62FE695E695E695EE314C
:1050700070F4E80FF92FF11D677021E030E001C0F6
:10508000220F6A95EAF720958281282322830895CA
:1050900020912B01222329F02091220327FD0C943B
:1050A0001F280C94F82720912B01222329F020910E
:1050B000220327FD0C9433280C941228FC0132960D
:1050C00080912B01882351F08091220387FF06C035
:1050D0008EE1DF011D928A95E9F7089586E0F9CF08
:1050E000089508950C94712880912803843049F123
:1050F0000E94722880E00E9446061092CE0288E14B
:1051000090E020E40FB6F894A895809360000FBE5D
:105110002093600083B7817F846083BF83B7816001
:1051200083BF7894889583B78E7F83BF0FB6F8943A
:10513000A895809160008861809360001092600063
:105140000FBE08950895CF930E9470280E94CA0848
:105150000E94A228C0E08C2F0E946308892B31F4A2
:10516000CF5FC430C1F780E0CF91089581E0FCCFDC
:1051700008950C94B8280E94D3200E94C51B0E9459
:1051800046060C94B9281F921FB61F9211248F93C4
:105190009F93AF93BF938091CE02811113C08091F2
:1051A0001E0390911F03A0912003B091210341960B
:1051B000A11DB11D80931E0390931F03A093200394
:1051C000B0932103BF91AF919F918F911F901FBE0C
:1051D0001F90189582E084BD93E095BD9AEF97BD2E
:1051E00080936E0008952FB7F89480911E039091DC
:1051F0001F03A0912003B09121032FBF08952FB763
:10520000F89460911E0370911F0380912003909188
:1052100021032FBF08959C014FB7F89480911E037E
:1052200090911F03A0912003B09121034FBF821BD7
:10523000930B089578941F921FB61F9211248F9399
:105240009F93AF93BF9380911E0390911F03A091F2
:105250002003B09121030196A11DB11D80931E036F
:1052600090931F03A0932003B0932103BF91AF91AC
:105270009F918F911F901FBE1F90189581E0809382
:10528000E00080E28093D8001092C9008FE19EE494
:105290000197F1F700C0000087E090EBDC018093FC
:1052A000310390933203A0933303B093340388E126
:1052B0009CE00FB6F894A895809360000FBE909381
:1052C0006000FFCF9093E1018093E00108950C947A
:1052D0004A140E94CA082FEF86E791E021508040CF
:1052E0009040E1F700C000000E94CA0880E00E94E0
:1052F000630880FF04C00E9467290C943E2908952A
:105300000E940927811102C00E94AD270E94142724
:105310008093CD020E941C27909323038093220345
:105320000E941827682F70E090E080E00E946B24B4
:105330006091A0027091A1028091A2029091A302BB
:105340000C94A5248091EF020895CF93DF9300D0B1
:105350000F92CDB7DEB790912803943011F5898371
:105360007B836A839093E9008FEF9091E8008150EE
:1053700095FD06C095ED9A95F1F700008111F5CFE6
:105380008091E80085FF0DC050E040E063E070E0F0
:10539000CE0101960E94392C8091E8008E7780938F
:1053A000E8000F900F900F90DF91CF910895BC010E
:1053B00084E00C94A529BC0183E00C94A5299C01F0
:1053C00084E08093E9009FEF8091E800915085FD93
:1053D00006C085ED8A95F1F700009111F5CF809117
:1053E000E80085FF0CC050E040E066E070E0C901D5
:1053F0000E94392C8091E8008E778093E800089510
:10540000CF93DF93EC0180912B018823B1F1809140
:10541000220387FF32C060E284E08093E9008FEFCF
:105420009091E800815095FD06C095ED9A95F1F7B1
:1054300000008111F5CF8091E80085FF1BC08091AD
:105440002B0170E050E040E0811104C050E040E0EA
:1054500068E070E0CE010E94392C8091E8008E77E0
:105460008093E80080E2FE01AFECB2E001900D9283
:105470008A95E1F7DF91CF91089568E081E0CDCF83
:10548000CF93FC01603221F580912803843001F52F
:10549000C091E900CF702091EC00922F917020FD17
:1054A00090E8C92B82E08093E9008091E80080FFBA
:1054B0000CC050E040E060E270E0CF010E94392C67
:1054C0008091E8008E778093E800CF70C093E90068
:1054D000CF91089580912703811109C00E94182E51
:1054E0000E94752E8091E20084608093E20008950E
:1054F00010922703089508950895089542E061ECFD
:1055000081E00E94942D42E261EC84E00E94942D9F
:1055100042E261EC82E00E94942D42E260EC83E082
:105520000C94942D80912A03833009F461C030F4E7
:105530008130D1F1823009F49DC008958A3009F498
:1055400089C08B3009F46FC0893009F050C0809158
:105550002903813209F04BC080912D0390912E03D5
:10556000009719F0029709F042C08091E800877F08
:105570008093E8008091E80082FF35C09091F300AD
:105580008091F200029729F48091F1008B7F8130A5
:1055900021F48091F1008093EF028091E8008B77F5
:1055A0008093E8000C94C82D80912903813AF9F486
:1055B0008091E800877F8093E80080912D0390918F
:1055C0002E03892B61F460E28FEC92E070E00E9480
:1055D000D72C8091E8008B778093E800089560E0F5
:1055E00090E080E0F3CF809128038111C3CF08952C
:1055F00080912903813AD9F780912D0390912E0350
:10560000892BA9F78091E800877F8093E80080913B
:10561000E80080FFFCCF80912B018093F100809106
:10562000E8008E77BDCF80912903813201F7809108
:105630002D0390912E03892BD1F68091E800877F6E
:105640008093E8000E94C82D80912B0380932B014A
:105650000C94D32080912903813249F68091E8008F
:10566000877F8093E8000E94C82D80912C0380934F
:10567000F002089580912903813A09F0B8CF809112
:10568000E800877F8093E8008091E80080FFFCCFEE
:105690008091F002C2CFCDB7DEB7A0970FB6F894D5
:1056A000DEBF0FBECDBF84B7877F84BF0FB6F8942F
:1056B000A8958091600088618093600010926000DE
:1056C0000FBE80E890E00FB6F8948093610090934D
:1056D00061000FBE0E94461C0E94182E0E94752E6B
:1056E0008091E20084608093E20078940E94FE3012
:1056F0000E94561C81E291E00E94C01B13E0809141
:1057000028038530C9F00E94621C809128038430F0
:10571000D1F00E94541C0E94551CF1CF0E947428A5
:1057200080912603882341F00E94A328882321F03A
:105730000E94232C0E94D32080912803853071F38E
:105740000E94BB28E0CF1093E9008091E80082FF1F
:10575000E0CF8091E80090E085FF09C050E040E094
:1057600060E270E0CE0101960E94882C91E0809169
:10577000E8008B778093E800992359F260E2CE012C
:1057800001960E940215C5CF0C94C62B292F3327F2
:105790002330310521F168F42130310509F449C085
:1057A0002230310509F44AC090E080E030E020E08A
:1057B00029C02132310581F122323105A9F7633048
:1057C000710590F7FB01EE0FFF1FEC52FE4F208199
:1057D00031816F527E4FFB01808190E013C0992789
:1057E0008130910599F0009741F08230910589F060
:1057F0000397D1F6EEE2F6E002C0E4E7F6E084912A
:1058000090E09F01FA01318320830895EEE5F6E0F0
:10581000F6CFECE4F6E0F3CF6330710528F6660FBF
:10582000771FFB01E652FE4F2081318189E090E035
:10583000E9CF82E190E023ED36E0E4CF8BE590E024
:1058400028E736E0DFCF80E189BD82E189BD09B478
:1058500000FEFDCF8091D8008F7D8093D80080918D
:10586000E00082608093E0008091E00081FDFCCF49
:105870000895AF92BF92CF92DF92FF920F931F9342
:10588000CF93DF936C01EB018A010E94E72DF82E84
:10589000811123C00115110539F0F8018081918132
:1058A000C81BD90BC80ED91EB12CA12C2097A9F06A
:1058B0008091E80085FD22C08091E8008E7780937A
:1058C000E80001151105A1F0F80180819181A80E71
:1058D000B91EB182A08285E0F82E8F2DDF91CF9185
:1058E0001F910F91FF90DF90CF90BF90AF900895E0
:1058F0000E94E72D8823D1F2F82EEFCFF601819197
:105900006F018093F1002197FFEFAF1ABF0ACECF4E
:10591000AF92BF92CF92DF92FF920F931F93CF93DC
:10592000DF936C01EB018A010E94E72DF82E8111B3
:1059300023C00115110539F0F80180819181C81B40
:10594000D90BC80ED91EB12CA12C2097A9F080919B
:10595000E80085FD22C08091E8008B778093E80005
:1059600001151105A1F0F80180819181A80EB91EE1
:10597000B182A08285E0F82E8F2DDF91CF911F910B
:105980000F91FF90DF90CF90BF90AF9008950E944D
:10599000E72D8823D1F2F82EEFCF8091F100F601A8
:1059A00081936F012197FFEFAF1ABF0ACECFFC01A1
:1059B00080912F039091300386179707A0F061150F
:1059C000710529F49091E8009E779093E80090E0AB
:1059D0006115710551F4911108C08091E80082FFB2
:1059E00034C080E00895BC01F2CF80912803882361
:1059F000C1F18530C1F18091E80083FD30C0809114
:105A0000E80082FDEACF8091E80080FFE1CF80913D
:105A1000F3002091F200382F6115710519F028303C
:105A2000310558F091E02830310509F090E02091DF
:105A3000E8002E772093E800CBCF81918093F1008E
:105A4000615071092F5F3F4FE7CF80912803882372
:105A500041F0853041F08091E80083FFBECF81E0C6
:105A6000089582E0089583E00895FC0180912F035A
:105A70009091300386179707A0F06115710529F4FE
:105A80008091E8008E778093E80090E061157105C1
:105A900051F4911108C08091E80082FF35C080E088
:105AA0000895BC01F2CF809128038823C9F1853085
:105AB000C9F18091E80083FD31C08091E80082FD4A
:105AC000EACF8091E80080FFE1CF8091F300209140
:105AD000F200382F6115710519F02830310558F0A2
