:100000000C945C040C94A3040C94A3040C94A3041B
:100010000C94A3040C94A3040C94A3040C94A304C4
:100020000C94A3040C94A3040C94BF270C94932861
:100030000C94F91E0C94A3040C94A3040C94A30434
:100040000C94A3040C94A3040C94A3040C94A30494
:100050000C94A3040C94441F0C94A3040C94A304C8
:100060000C94A3040C94A3040C94A3040C94A30474
:100070000C94A3040C94A3040C94A3040C94A30464
:100080000C94A3040C94A3040C94A3040C94A30454
:100090000C94A3040C94A3040C94A3040C94A30444
:1000A0000C94A3040C94A3040C94A30414001A004D
:1000B000080015001700000000001C0018000C00CC
:1000C0001200130004001600070009000A000000D7
:1000D00000000B000D000E000F0028001D611B64C6
:1000E000066819000541E1002C001142106136003C
:1000F00037002A001E001F002000210022000000FF
:1001000000002300240025002600270029005000BD
:10011000510052004F00000000002D002E0034005E
:10012000330001002B002F003000310001000100DE
:100130000100025138000100010001001E021F02EF
:1001400020022102220200000000230224022502D4
:10015000260227020100C45CC65CC75CC35C0000C9
:1001600000002D022E0234023302010001002F0292
:100170003002310203510100010001003802360251
:10018000370201003A0001000100010001000000F7
:100190000000010001000100010001000100010058
:1001A0000100010001000000000001000100010049
:1001B0000100010001000100010001000100010037
:1001C0000100010001000100010001000100010027
:1001D0000100010001000000000001000100010019
:1001E0000100010001000100010001000100000008
:1001F00000000100010001000100010001000100F8
:1002000001000100010001000100010001000100E6
:1002100001000100010001000100010001000000D7
:1002200000000100010001000100010001000100C7
:1002300001000100010000000000010001000100B8
:1002400001000100010001000100010001000100A6
:100250000100010001000100010001000100010096
:100260000100010001000000000001000100010088
:100270000100010001000100010001000100000077
:100280000000010001000100010001000100010067
:100290000100010001000100010001000100010056
:1002A0000100010001000100010001000100000047
:1002B0000000010001000100010001000100010037
:1002C0000100010001000000000001000100010028
:1002D0000100010001000100010001000100010016
:1002E0000100010001000100010001000100010006
:1002F00001000100010000000000010001000100F8
:1003000001000100010001000100010001000000E6
:1003100000000100010001000100010001000100D6
:1003200001000100010001000100010001000100C5
:1003300001000100010001000100010001000000B6
:1003400000000100010001000100010001000100A6
:100350000100010001000000000001000100010097
:100360000100010001000100010001000100010085
:100370000100010001000100010001000100010075
:100380000100010001000000000001000100010067
:100390000100010001000100010001000100000056
:1003A0000000010001000100010001000100010046
:1003B0000100010001000100010001000100010035
:1003C0000100010001000100010001000100000026
:1003D0000000010001000100010001000100010016
:1003E0000100010001000000000001000100010007
:1003F00001000100010001000100010001000100F5
:1004000001000100010001000100010001000100E4
:1004100001000100010000000000010001000100D6
:1004200001000100010001000100010001000000C5
:1004300000000100010001000100010001000100B5
:1004400001000100010001000100010001000100A4
:100450000100010001000100010001000100000095
:100460000000010001000100010001000100010085
:100470000100010001000000000001000100010076
:100480000100010001000100010001000100010064
:100490000100010001000100010001000100010054
:1004A0000100010001000000000001000100010046
:1004B0000100010001000100010001000100000035
:1004C0000000010001000100010001000100010025
:1004D0000100010001000100010001000100010014
:1004E0000100010001000100010001000100000005
:1004F00000000100010001000100010001000100F5
:1005000001000100010000000000010001000100E5
:1005100001000100010001000100010001000100D3
:1005200001000100010001000100010032190A0070
:10053000047F3F1F643214643214783C1E1E140A78
:10054000052223252628292A2C2D2F303233353613
:10055000383A3B3D3E4042434547494A4C4E505154
:10056000535557595A5C5E6062646668696B6D6F7B
:1005700071737577797B7D7F81838587898A8C8E7E
:1005800090929496989A9C9E9FA1A3A5A7A8AAAC86
:10059000AEAFB1B3B4B6B8B9BBBCBEBFC1C2C3C5C0
:1005A000C6C7C9CACBCCCDCED0D1D2D2D3D4D5D662
:1005B000D7D7D8D9D9DADADBDBDBDCDCDCDCDCDD95
:1005C000DDDDDDDCDCDCDCDCDBDBDBDADAD9D9D879
:1005D000D7D7D6D5D4D3D2D2D1D0CECDCCCBCAC911
:1005E000C7C6C5C3C2C1BFBEBCBBB9B8B6B4B3B140
:1005F000AFAEACAAA8A7A5A3A19F9E9C9A989694DB
:1006000092908E8C8A89878583817F7D7B797775AF
:1006100073716F6D6B6968666462605E5C5A59578E
:10062000555351504E4C4A4947454342403E3D3B4D
:100630003A3836353332302F2D2C2A2928262523D7
:1006400022FFAA7F554000010101010101010101C2
:100650000202020202020202020303030303030373
:100660000304040404040404050505050506060640
:100670000606070707070708080808090909090AFD
:100680000A0A0B0B0B0C0C0C0D0D0D0E0E0E0F0FA2
:100690000F10101111111212131314141515161630
:1006A0001717181819191A1A1B1B1C1D1D1E1E1F9F
:1006B0002020212222232424252626272829292AEE
:1006C0002B2C2D2D2E2F3031323233343536373816
:1006D000393A3B3C3D3E3F40414243444546474812
:1006E000494A4C4D4E4F50515354555658595A5BE8
:1006F0005D5E5F616264656668696B6C6D6F707288
:10070000737577787A7B7D7E8082838587888A8CF3
:100710008E8F91939596989A9C9EA0A2A3A5A7A927
:10072000ABADAFB1B3B5B7BABCBEC0C2C4C6C9CB1E
:10073000CDCFD1D4D6D8DBDDDFE2E4E7E9EBEEF0D4
:10074000F3F5F8FAFDFF0C036D0061006E00740014
:100750006100000014037200610069006E006B000C
:1007600065006500620073000000040309040902CB
:100770003B00020100A0FA0904000001030101008E
:100780000921110100012240000705810308000A28
:1007900009040100010300000009211101000122E8
:1007A000BC000705820320000A12011001000000AE
:1007B000086B72746D01000102000105010902A1BC
:1007C0000185020901A10005091901290515002566
:1007D00001950575018102950175038101050109E6
:1007E0003009311581257F95027508810609381574
:1007F00081257F950175088106050C0A380215814F
:10080000257F950175088106C0C005010980A101F9
:10081000850319012AB700150126B7009501751047
:100820008100C0050C0901A101850419012AA0025B
:10083000150126A002950175108100C00501090669
:10084000A1018505050719E029E71500250195088F
:10085000750181020507190029EF1500250195F0A2
:100860007501810205081901290595057501910297
:10087000950175039101C005010906A1010507193C
:10088000E029E7150025019508750181029501759C
:100890000881010507190029FF150026FF009506AC
:1008A0007508810005081901290595057501910252
:1008B000950175039101C00011241FBECFEFDAE04E
:1008C000DEBFCDBF04B603FE27C080910C0390911C
:1008D0000D03A0910E03B0910F038730904BA740FA
:1008E000B04BD1F410920C0310920D0310920E0332
:1008F00010920F0314BE84B7877F84BF0FB6F8949D
:10090000A8958091600088618093600010926000DB
:100910000FBEE0E0F8E3099511E0A0E0B1E0ECEDF6
:10092000F7E502C005900D92A83CB107D9F723E086
:10093000A8ECB1E001C01D92AC30B207E1F70E9413
:1009400001250C94B02B0C9400000895089581E0CB
:10095000089581E008950C94A70408950C94AD04C3
:100960001F93CF93DF9300D000D00F92CDB7DEB7A7
:1009700049835A836B8330911A0289819A8131119C
:100980001DC06623B9F02223A9F00E94EF1B182F87
:10099000682F89819A810E949B1B69817A81812FAE
:1009A0000F900F900F900F900F90DF91CF911F91AC
:1009B0000C9466050E94C71B182FEFCF0E94EF1BF7
:1009C00069817A81EDCFFC01262F408151816281BE
:1009D000738184810C94B004CF93DF93EC0160E0C9
:1009E0000E94E304BE01DF91CF910C94AE040E94FB
:1009F000331D811102C00E94E11D0C9471070C94FB
:100A0000730708950E9405170E9401052FEF84E3E4
:100A10009CE0215080409040E1F700C000000C9421
:100A2000681F0F931F93CF93DF93EC0161E00E9447
:100A3000E3048C01BE010E94AB04882359F1BE017E
:100A4000C8010E948A10882329F1BE01C8010E94B2
:100A5000DC108823F9F0BE01C8010E94FF11882331
:100A6000C9F0BE01C8010E94820F882399F08A81D3
:100A7000882339F001158CE5180751F00F3D1C450E
:100A800079F0CE01DF91CF911F910F910C94A904C1
:100A90000E94020580E0DF91CF911F910F91089590
:100AA0000E94E11DF7CF08950C94530581E008954D
:100AB0000C945605CF93C82F0E9454058C2FCF91CC
:100AC0000C94580590E080E008950895972F70E009
:100AD0002CE0929F600D711D1124FB0194E2899F0F
:100AE000E00DF11D1124EE0FFF1FE455FF4F85911E
:100AF00094910895FC01EE0FFF1FE45DFA4F85917C
:100B000094910895CF93DF930E9466050E94970603
:100B1000EC01811520E5920708F042C0811530E410
:100B2000930708F0BDC0883E910528F5803E9105E9
:100B300008F09DC0883A910588F4853A910508F03F
:100B40008FC08130910509F492C0009709F48FC0DD
:100B5000049708F08CC0D0E0C0E089C08F3B9105BD
:100B600008F489C0805C9109C03CD105A0F30E94C3
:100B70007A05EC017CC08115904250F4C11581E0EA
:100B8000D80708F074C0C03FD10528F3D0656FC006
:100B9000C11590E3D90708F079C0CE019F70E7CF67
:100BA000811525E5920758F5811534E5930708F07E
:100BB000A6C0811542E5940750F4C11581E5D80718
:100BC00008F471C0DC2FCC27C16FD06A50C0982FB9
:100BD000969596959E0123703327C115D34508F04D
:100BE0007FC0C1E0D0E002C0CC0FDD1F2A95E2F744
:100BF00020E2929FC0011124C82BD92B6FC0C115D0
:100C000089E5D807A8F4C11598E5D90708F07CC094
:100C1000C11526E5D20708F09ECF8C2F0E942E0723
:100C2000C82FD0E0DC2FCC27CC27DF71D0621FC0CB
:100C3000C1153AE5D30708F46CC0CE019056811572
:100C4000904208F088CF8D2F8F710E942E0790E080
:100C5000982F882788279F719C012C2BE901E6CFCC
:100C6000C55AD0E0C65ADE4FC881D0E0D064CE016C
:100C7000DF91CF910895C85AD0E0CC0FDD1FC45D3D
:100C8000DE4F0990D881C02DD464F1CFCE019927D1
:100C9000D3FF03C0EC01D86CEACFEC01D06CE7CFF6
:100CA000DF70D06AE4CFCE01E4E096958795EA95AF
:100CB000E1F783702C2F26952695237090E2299FCB
:100CC00090011124382B8C2F8370C1E0D0E002C03A
:100CD000CC0FDD1F8A95E2F7C22BD32BDC68C7CF80
:100CE000C1E0D0E002C0CC0FDD1F2A95E2F730E270
:100CF000939FC0011124C82BD92BDA68B8CFD82F05
:100D0000CC27C46FD06AB3CFDC2FCC27C06FD06A9A
:100D1000AECF8C2F8F700E942E0734E0D695C795EA
:100D20003A95E1F7CF709C2FEC01D069A0CF8238C3
:100D30009105B1F1B0F48133910509F475C048F41F
:100D40008932910509F469C08A32910509F473C0AA
:100D500008958533910509F459C08933910501F14E
:100D60000895833E9105A9F138F4803E9105F9F08C
:100D7000823E910549F10895863E9105A9F1873E8D
:100D80009105C9F1843E910519F52091FE0221FFDC
:100D90001FC08091FD0284FD14C087EE90E008958D
:100DA0002091FD022370A1F080EE90E00895209143
:100DB000FD0220FD47C03091FE0230FF09C024FF34
:100DC00044C090E080E004C02091FD0222FDF7CFF6
:100DD00008952091FD0222FD3BC03091FE0230FDBE
:100DE000E3CF24FFF5CFEDCF2091FD0223FFF0CF1D
:100DF00024FDE7CFD2CF2091FD0223FD2CC03091FE
:100E0000FE0231FFEECF84EE90E008952091FD02C6
:100E100025FFDECF89E290E008952091FD0225FFB5
:100E2000D7CF85E390E008952091FD0226FFD0CF33
:100E30008AE290E008952091FD0226FFC9CF81E368
:100E400090E0089589E390E0089583EE90E008959E
:100E500082EE90E0089586EE90E008959091FD0274
:100E600092FF06C0282F28712830F9F4877F84600C
:100E700093FF06C0282F28712831F1F4877E846102
:100E80002091FE0220FF06C0382F38713830D9F487
:100E9000877F816021FF06C0282F28712831D1F477
:100EA000877E816194FD877E0895282F24712430E8
:100EB000F9F68B7F8860DCCF282F2471243101F76D
:100EC0008B7E8861DDCF382F3171313019F78E7FFD
:100ED0008860E0CF282F2171213121F78E7E886133
:100EE000E1CF0C94A5040C94A604E82FF0E0EE0FDB
:100EF000FF1FE053FD4F808191810895089580EA9E
:100F00008A95F1F70895F894E82FE295EF70F0E0F4
:100F100031A1282F2F7081E090E001C0880F2A9521
:100F2000EAF7982F9095932391A392A1892B82A3FE
:100F300078940895CF93DF9382E90E94830784EF2A
:100F40000E94830785EF0E948307CDE5D1E0899158
:100F50000E94830781E0C936D807C9F71092CB02F7
:100F60001092CA021092D1021092D0021092CD02B9
:100F70001092CC021092D3021092D2021092CF02A1
:100F80001092CE021092D5021092D40283E00E94F9
:100F90004B08DF91CF910C94F704AF92BF92DF9290
:100FA000EF92FF920F931F93CF93DF93C9E6D1E0A7
:100FB0000AEC12E0D12CEE24E394F12C8991F89400
:100FC000E82FE295EF70F0E021A18F70A70102C039
:100FD000440F551F8A95E2F7CA01922F982B91A3CF
:100FE00092A18095892382A378940E947F07EDE5E2
:100FF000F1E030E020E0B12CA12C4191A42FA2958A
:10100000AF70B0E090968C9190E04F7002C09595D3
:1010100087954A95E2F780FD39C0C701022E02C0CC
:10102000880F991F0A94E2F7A82AB92A2F5F3F4F29
:101030002C30310511F7FE01319780810E94830722
:10104000F80180819181A816B90619F1B182A082B8
:1010500081E0D82A0E5F1F4FF1E0CC36DF0709F0A0
:10106000ADCF2D2D43E060ED72E08AEC92E00E945E
:101070004C080E94FF048D2DDF91CF911F910F919D
:10108000FF90EF90DF90BF90AF90089590E080E0E8
:10109000CBCF80E0DECF0895FF920F931F93CF93C5
:1010A000DF93F82E092F162FD72FC42F222349F0B4
:1010B00081E08093CA010E94291F9093C901809307
:1010C000C8018091CA018823A1F08091C801909144
:1010D000C9010E94351F069760F0EF2DF02FA12F58
:1010E000BD2F90E080E0D0E08C179D0744F0109277
:1010F000CA01DF91CF911F910F91FF900895219127
:1011000031912D933D930196EFCFEF92FF920F9384
:101110001F93CF93DF93EB01E82FD11110C044232D
:1011200021F0F0E0EA5BF94FE4916E2F7E2F8E2FD5
:10113000DF91CF911F910F91FF90EF9008950D2FA8
:1011400010E0282F30E0442329F02A5B394FF901C1
:10115000249130E0F6E0CF9FC0011124EFEFF0E0E2
:10116000BF010E945F2AAB018C2F90E0880F991F6E
:10117000A5E5A49FB001A59F700D1124861B970BB8
:10118000982F990F980FBF01601B710B629FD001C0
:10119000639FB00D729FB00D11248B2F9D9FB001E6
:1011A0001124672F7727EF01C61BD70BBE01629F63
:1011B000E001639FD00D729FD00D11247F01E91AC9
:1011C000F108E09EB001E19E700DF09E700D1124BB
:1011D000672F7727E61BF70BE29F8001E39F100D37
:1011E000F29F100D1124E12F722F4230510599F01A
:1011F00048F44115510569F04130510581F0EB2F5C
:101200008D2F07C04430510569F080F046305105FC
:10121000B1F76E2F8DCFE22F7B2F812FFACFE22FE8
:101220007D2FF7CFEB2F822F712FF3CF7B2F822FC4
:10123000ED2FEFCF41E00C94850808950C941A0926
:10124000CF93DF93762FE901682F842F0E941E0928
:10125000798368838A83DF91CF9108958091D60244
:10126000982F9E7F29F4817082608093D602089522
:101270008635E8F381708465F8CF88E090E00C94BF
:10128000512BCF92DF92EF92FF926B017C010E9473
:101290002E09B701A60188E090E0FF90EF90DF9063
:1012A000CF900C946F2BE6EDF2E083E08083118207
:1012B0008FEF828383831482608171818281938125
:1012C0000C9441098091D60280FF02C08695089552
:1012D00080E008959091DA02933018F49F5F909324
:1012E000DA02882351F06091D6027091D702809182
:1012F000D8029091D9020C944109089581E00C9490
:101300006A099091DA02992319F091509093DA02C8
:10131000882351F06091D6027091D7028091D80253
:101320009091D9020C944109089581E00C948109AF
:1013300070E00C94F20F609108018091D60280FF5A
:101340000AC08091070123E0829FC00111248552C9
:101350009D4F0C9498098091090190910A0123E016
:10136000829FF0011124E552FD4F891750F7118239
:10137000108212828F5F3396F8CF9091D60290FF41
:1013800014C09091090120910A0133E0939FF0016C
:101390001124E552FD4F921710F00C949B098183A4
:1013A000608342839F5F3396F6CF0895CF93DF9398
:1013B00000D00F92CDB7DEB79091D60290FF0AC051
:1013C0009E012F5F3F4F0E9420094B8169818A81D6
:1013D0000E94BD090F900F900F90DF91CF9108955B
:1013E000CF93DF93EC01EC81F0E0EF5BFA4F449197
:1013F000E6EDF2E0628181810E94D6098C818F5FE7
:101400008C83DF91CF910895CF93DF93EC01E6EDCC
:10141000F2E0438162818C810E94D6098C818F5FCA
:101420008C83DF91CF9108950F931F93CF93DF9318
:1014300000D00F92CDB7DEB78C018091CB01811126
:101440000AC09E012F5F3F4F4FEF6FEF0E942009B0
:101450008A818093CB01F8016481613069F08091C9
:10146000CB0140E0662361F040E0623011F440912E
:10147000CB0180E060E004C06091CB0140E080E0FF
:101480000E94BD09F801848190E0019663E070E05C
:101490000E94732A84830F900F900F90DF91CF9159
:1014A0001F910F910895AF92BF92CF92DF92EF926A
:1014B000FF920F931F93CF93DF9300D00F92CDB77E
:1014C000DEB7182FF62E042FE22E9091D60290FF51
:1014D00029C0E92FE695AE2FB0E0A459BE4F8C91FC
:1014E000809307029E7F923059F59E012F5F3F4FF8
:1014F000812F0E9420094B8169818A810E94BD0948
:101500001093D702F092D8020093D902EE2051F046
:101510006091D6027091D7028091D8029091D90241
:101520000E9441090F900F900F90DF91CF911F9172
:101530000F91FF90EF90DF90CF90BF90AF90089504
:10154000823019F40091D902DBCF863019F4109162
:10155000D702D6CF8930D9F3893191F6E9518E2F50
:101560008170D82EE695F0E0EF5BF94FA590B4902E
:10157000C12CBB2460910B01C61618F00E949B0978
:10158000BFCF2C2D30E0A29EC001A39E900DB29E35
:10159000900D112470E00E945F2A812FD11013C09A
:1015A000860F40910901420F532F511D9A01220FBE
:1015B000331F240F351F25523D4F402F6F2D0E94A2
:1015C0002009C394D7CF861BECCFE6EDF2E09181E2
:1015D000282F4381628188E0890F0C94530A81E0AF
:1015E0000C94E50AE6EDF2E09181282F43816281B7
:1015F00088EF890F0C94530A81E00C94F20AE6ED0F
:10160000F2E0628128E0620F08F46FEF282F438137
:1016100081810C94530A81E00C94FF0AE6EDF2E01C
:10162000628128E0621B08F460E0282F43818181F9
:101630000C94530A81E00C940E0BE6EDF2E043812A
:1016400028E0420F08F44FEF282F628181810C942B
:10165000530A81E00C941D0BE6EDF2E0438128E093
:10166000421B08F440E0282F628181810C94530AC8
:1016700081E00C942C0B20E00C94530AEF92FF9223
:101680001F93CF93DF93EC0110E0EE24EA94F12C4A
:1016900060910B01161770F00E949B099A818C8152
:1016A00090FF27C08F5F8C83DF91CF911F91FF90B8
:1016B000EF90089520910901422F410F5527551FA2
:1016C000CA019A01220F331F280F391F25523D4F9F
:1016D00070E0C7010E94732A962F8C814091D90235
:1016E0006091D802199F800D11240E9420091F5F6C
:1016F000CFCF8150D8CFAF92BF92CF92DF92EF92EF
:10170000FF920F931F93CF93DF93FC0182810FEF22
:1017100080FF01E010E04AE0A42E80910B01181731
:10172000C8F00E949B098091CD01013009F055C09D
:10173000811102C080910B0181508093CD01DF9116
:10174000CF911F910F91FF90EF90DF90CF90BF90BE
:10175000AF900895C0910901C12ED12CCC0DDD2D83
:10176000D11DCE01880F991FC80FD91FC552DD4F5B
:10177000198218821A8234E0E32EF12CB12C809168
:10178000CD018B0D8B301CF16A2D0E94512A892FBF
:10179000082E000C990BC816D90691F48091D90235
:1017A0008E9DA0018F9D500D1124559547955595FF
:1017B00047959E016091D8028091D7020E9420092E
:1017C000B00EF1E0EF1AF108D1F61F5FA6CF87FF48
:1017D000DFCF90910B01890FDBCF90E001966091F4
:1017E0000B0170E00E94732AA8CF0F931F93CF9331
:1017F000DF938091090190910A0123E0829FF0011B
:101800001124E552FD4F891740F1C0E0D3E060910B
:101810000B01C61740F10E949B09209105018091A0
:10182000CC01820F8093CC0190910601920F90938E
:101830000601191654F4082E000C990B40910B0167
:101840004150550B841795071CF0219520930501F5
:10185000DF91CF911F910F91089511821082128212
:101860008F5F3396D0CF0C2F10E070E0C8010E943C
:10187000732A20910901820F482F50E02091CC015A
:10188000022E000C330B02171307BCF02091060147
:10189000022E000C330B201731077CF08D9F900136
:1018A000112425523D4F4091D9026091D802809178
:1018B000D7020E942009CF5FAACFFA01EE0FFF1FC7
:1018C000E40FF51FE552FD4F118210821282F3CF13
:1018D0008F929F92AF92BF92CF92DF92EF92FF9240
:1018E0000F931F93CF93DF93EC014C81042F10E0F3
:1018F0009801D8010E94B72A9B01AC010E94CD2A11
:101900004B015C01E0E2F0E0E01BF10BA5E5B0E08B
:10191000AC019B010E94CD2A6B017C019F01DF017C
:101920000E94AF2A9B01AC010E94D82A9B01AC0106
:10193000280D391D4A1D5B1DC701B6010E94872A6B
:10194000F22E822F90E039E23F1560F143E0249FB0
:101950009001112435952795122F109500E085E50B
:10196000E82EEF1880910B01081758F10E949B098F
:101970009C8181E0992319F0903219F48FEF8093C4
:10198000040180910401890F8C83DF91CF911F9115
:101990000F91FF90EF90DF90CF90BF90AF909F900E
:1019A0008F90089525E530E0B901681B790B9B0104
:1019B000220F331F260F371F37FFCCCF2F5F3F4F2C
:1019C000C9CF8E2D01FD8F2D20910901622F600F4F
:1019D0007727771F9B01220F331F260F371F2552B2
:1019E0003D4F412F6091D8020E9420090F5FBACF6E
:1019F0000F931F93CF93DF93EC0110E000E09091E1
:101A00000B019017110609F06CF40E949B098C8160
:101A100090E00196817099278C83DF91CF911F917F
:101A20000F91089520910901A801420F511D9A01BB
:101A3000220F331F240F351F25523D4F4C816091DB
:101A4000D8028091D70296959017110651F04CF06C
:101A5000442349F04091D9020E9420090F5F1F4F93
:101A6000CECF4423B9F340E0F7CF8F929F92AF924D
:101A7000BF92CF92DF92EF92FF920F931F93CF937B
:101A8000DF93FC01B280948081E0848300E015E064
:101A90005BE4A52E88248394EE24EA94F12C7BE465
:101AA000C72ED12C80910B01081770F0DF91CF91D8
:101AB0001F910F91FF90EF90DF90CF90BF90AF906C
:101AC0009F908F900C949B09C02FD0E01C9FF00139
:101AD0001D9FF00D1124E253FE4F91101CC0138284
:101AE000128220910901CE01820F911D9C01220FCB
:101AF000331F280F391F25523D4F1C9FF0011D9F9A
:101B0000F00D1124E253FE4F4281618180810E94D9
:101B100020090F5FC7CF2381222379F1215023832E
:101B200034818A2D821B311101C0822F1C9FF0014C
:101B30001D9FF00D1124E253FE4F9091D902899F11
:101B4000C0011124B6010E945F2A6283211104C0E2
:101B5000332311F01482A38222E02B1510F21C9F74
:101B6000F0011D9FF00D1124E253FE4F8091D7022A
:101B700080838091D8028183B4CF0E942C2B823045
:101B800091400CF0AECF82E08B1530F50E942C2BEB
:101B9000B7010E94732A1C9FF0011D9FF00D1124B4
:101BA000E253FE4F808322E02B15C8F40E942C2BB9
:101BB0002091D8022695622F70E00E94732A280F88
:101BC0001C9FF0011D9FF00D1124E253FE4F218355
:101BD0001282A382848285CF8091D702DCCF2091AC
:101BE000D802EECFE6EDF2E080818E7F80836081C7
:101BF0007181828193810E944109109208022FEF26
:101C000080E792E0215080409040E1F700C0000062
:101C10000C949B096091D602669570E04BE050E011
:101C20008CE091E00E943C2B892B19F481E0809399
:101C300008020E94291F90930102809300020895D8
:101C40009091D60290FF35C09170811128C09260AA
:101C50009093D602662351F06091D6027091D7021C
:101C60008091D8029091D9020E9441096091D602D8
:101C7000669570E04BE050E08CE091E00E943C2BD8
:101C8000892BA1F01092080281E080930302409119
:101C9000D9026091D8028091D7020C943B0B8B3211
:101CA00010F09465D5CF880F982BD2CF0E940A0EE2
:101CB000EBCF0895682F9091D602969581E0890F19
:101CC0008B3208F081E00C94200E81E00C945A0EC7
:101CD000682F9091D60296958FEF890F09F48AE2CA
:101CE0000C94200E81E00C94680E61E00C94200EA0
:101CF000E6EDF2E080818160808386950C94750E1C
:101D00008091D60280FD0C94F20D0C94780E60E068
:101D10000C94200E8091060281112EC00E94331D6A
:101D2000811104C00E94E11D0E9453090E943D09D7
:101D30006093D6027093D7028093D8029093D90211
:101D40006E7F61F40E9453090E943D096093D602A0
:101D50007093D7028093D8029093D9020E942E09E3
:101D6000109208028091D60280FF03C086950E94DF
:101D7000870E81E08093060208950F931F93CF93FF
:101D8000DF9380910802882309F49DC080910702A7
:101D9000E091D602E695E81BE09302028230C9F595
:101DA000F0E0E35CFA4FE491CE2FD0E000EF19E0D1
:101DB00080910302882389F0109203020E94291F58
:101DC0009E0120953095820F931F9093010280937E
:101DD000000210920502109204028091000290917C
:101DE00001020E94351F8C179D0708F46CC0E0911A
:101DF0000002F0910102CE0FDF1FD0930102C093C9
:101E0000000280E092E0F801DF91CF911F910F91E5
:101E10000994863049F4F0E0E65CFA4FE491CE2F65
:101E2000D0E004E01AE0C4CF893051F4E695F0E048
:101E3000E95CFA4FE491CE2FD0E00EE31BE0B8CF7F
:101E40008F3051F4E695F0E0EC5CFA4FE491CE2F40
:101E5000D0E00BE71BE0ACCF853149F4F0E0EF5C5C
:101E6000FA4FE491CE2FD0E005EF1BE0A1CFC8E2FE
:101E7000D0E008E61CE0883109F49ACF833239F4C7
:101E8000EFE2F5E0C591D49104E11AE091CFC4EFFF
:101E9000D1E008EF1CE0843209F48ACFC0EDD7E02E
:101EA0000DE119E0853209F083CF8E2F63E00E94A7
:101EB000452AE92FF0E0E45DFA4FE491CE2FD0E01F
:101EC00005E31DE075CFDF91CF911F910F9108952C
:101ED000FA01811101C0FB010994CF93DF93C82F50
:101EE000D62F0E9462098C1740F00E9462098D175C
:101EF00020F4DF91CF910C94650E8C2FDF91CF9160
:101F00000C94750E0F931F93CF938C01FB01C2812C
:101F1000CC2309F465C00E94841C8272F801E35C42
:101F2000FC45E431F10538F4EE54F44D0C94A92A43
:101F30000E94800EC0E08C2FCF911F910F910895C9
:101F400042E75EE065E67EE00E94680FF3CF45E67B
:101F50005EE062E77EE0F8CF4CEF5AE06FEE7AE0A9
:101F6000F3CF4FEE5AE06CEF7AE0EECF4AE15BE060
:101F70006BE07BE0E9CF4BE05BE06AE17BE0E4CF44
:101F800048E35BE069E27BE0DFCF49E25BE068E3E6
:101F90007BE0DACF45E959E06EE779E0D5CF4EE74F
:101FA00059E065E979E0D0CF81E00E94750EC2CF9B
:101FB00065E082E00E946D0FBDCF68E086E0FACF59
:101FC0006EE089E0F7CF64E18FE0F4CF67E185E16F
:101FD000F1CF88E1EACF62E289E1ECCF83E2E5CF9D
:101FE000C1E0A9CF539A4BB1477F5BB15860EFB7BF
:101FF000F8949B01220F331F260F371F280F391F1C
:102000002817390741F4EFBF8FE594E00197F1F706
:1020100000C000000895DC016D91CD0178E05BB94E
:10202000000000C067FF4BB9660F000000C000C091
:1020300000C04BB900C07A9591F7E2CF0F931F9380
:10204000CF93DF93C42FD22FFC0182818823C9F064
:1020500040930B020E94291F90930A028093090269
:1020600080E28C0F883008F050C0C77081E001C05A
:10207000880FCA95EAF7DF91CF911F910F910C94C9
:102080008F1410910B02141335C0809109029091A6
:102090000A020E94351F8639910560F5C0E2CD0F16
:1020A0001D17B9F080E2810F883040F4177081E08D
:1020B00001C0880F1A95EAF70E949614C83048F4B8
:1020C00081E09D2F977001C0880F9A95EAF70E94D2
:1020D0008F14802F0E947C14C830B8F4D77081E030
:1020E00001C0880FDA95EAF7DF91CF911F910F9128
:1020F0000C94961480E28C0F883038F4C77081E01D
:1021000001C0880FCA95EAF7EFCFDF91CF911F91F9
:102110000F9108950F939C01CB01243F4CE53407A8
:1021200059F1A8F4293DFCE53F0701F12A3D4CE5B2
:102130003407D1F1283D3C4591F406E221EE41EE11
:1021400068ED7CE50E941E1080E00F910895263F07
:10215000FCE53F07E9F0B0F0273F3C45F9F0FC0112
:102160008281882339F110920B02EFCF07E225EE2E
:1021700045EE69ED7CE5E6CF06E221EE40EE64EF48
:102180007CE5E0CF07E225EE44EE65EF7CE5DACFB3
:1021900006E221EE42EE66EF7CE5D4CF07E225EEC3
:1021A00046EE67EF7CE5CECF08E221E045EE6AED32
:1021B0007CE5C8CF81E0C9CFCF93DF93EC01FB0171
:1021C0008281882309F419C1C230FCE5DF07C0F120
:1021D000C6319CE5D90730F09E012B5F3C45293084
:1021E000310570F50E94501D9093FE028093FD0210
:1021F000C031ECE5DE0709F4CFC008F05BC0C830A1
:102200008CE5D80709F4B6C088F5C430ECE5DE07E4
:1022100009F4A8C0C0F4C2308CE5D80709F49CC00A
:102220008091FD028260C330DC4509F498C0809142
:10223000FD029091FE020E945E1D0E94051780E043
:10224000DF91CF9108958091FD028061C630ECE569
:10225000DE0709F484C08091FD028860C730DC4548
:1022600008F47DC08091FD02806279C0CC308CE59D
:10227000D80709F489C070F48091FD028C60CA30DF
:10228000ECE5DE0709F46BC008F478C08091FD022C
:102290008E7F65C0CE308CE5D80709F479C0809177
:1022A000FD028B7FCF30DC4508F459C08091FD02E0
:1022B0008F7E55C0CC3FECE5DE0709F457C030F502
:1022C000C3318CE5D80709F46FC078F4C131ECE56F
:1022D000DE0709F465C0C231DC4509F0A8CF0E94D1
:1022E00005178091FD028F773AC0C5318CE5D8077C
:1022F00009F462C008F476C08091FE028160CB3F91
:10230000DC4509F094CF8093FE0291CFC115FDE525
:10231000DF0709F44DC088F48091FE028D7FCE3F27
:102320009CE5D90781F38091FE028E7FCF3FDC458B
:1023300050F38091FE028360E6CFC230FDE5DF07F7
:1023400009F459C008F444C080E0C330DD4509F009
:102350006ECF0E94E31D6BCF8091FD028160809360
:10236000FD0265CF8091FD028460F9CF8091FE026D
:102370008260C9CF8091FD028064F1CF0E94051771
:102380008091FD028068EBCF8091FD028D7FE7CFC9
:102390008091FD02877FE3CF8091FD028F7DDFCFAB
:1023A0008091FD028F7BDBCF8091FD02837FD7CFB1
:1023B0008091FE028C7FA7CF8091FD0282FB99273E
:1023C00090F921E0922790FB82F990FB83F9C7CF27
:1023D0008091FE02982F909591708E7F892B90FBB3
:1023E00081F991CF0E9405179091FD02892F97FBEB
:1023F00087F98058B4CF81E0ACCF81E021CFCF9373
:10240000DF93EB0186319C4511F50E94841C9A8173
:10241000992399F08A7A91E009F490E090930C0264
:10242000811109C089E20E945F1C0E94D01C80E0DB
:10243000DF91CF91089585E3F6CF80910C02811151
:1024400004C089E20E94661CF0CF85E3FBCF81E0E7
:10245000EFCF90931202809311020895E091110240
:10246000F0911202309721F00190F081E02D099453
:1024700080E00895E0911102F0911202309799F0F6
:1024800020912B01222359F02091FD0227FF07C044
:10249000DC012C9111962C93119725E02C9302804E
:1024A000F381E02D09940895E0911102F091120258
:1024B000309739F022E0DC012C930480F581E02D87
:1024C0000994089520910F023091100228173907BE
:1024D00071F09093100280930F02E0911102F0913D
:1024E0001202309721F00680F781E02D09940895BB
:1024F00020910D0230910E022817390771F0909348
:102500000E0280930D02E0911102F09112023097B9
:1025100021F00084F185E02D0994089585B7806845
:1025200085BF85B7806885BF0895089508950C9488
:10253000951208950C9499120E948E120E94961280
:102540000C94971281E008950C94A21208950895B6
:102550000E94201F0E949A070E94C41F0E948A0E98
:102560000C949A129F92AF92BF92CF92DF92EF9209
:10257000FF920F931F93CF93DF93CDB7DEB72A97C8
:102580000FB6F894DEBF0FBECDBF0E94A6120E9408
:10259000A7120E94CD070E94A412882309F472C0DA
:1025A00054E1A52E52E0B52E10E000E0902E802FD1
:1025B0000E9475076C01F501E190F1905F01E8164A
:1025C000F90609F459C08091990281FD0E947E07A5
:1025D00097012C253D2580E0EE24E394F12CA90100
:1025E0004E215F21452B09F441C08E839F82CE206E
:1025F000DF2081E0CD2809F480E088870E94291F30
:102600008160782F9A8789874E815F8168858A8566
:102610000E946513000F111FF801EC5EFD4F8081D1
:102620009181E826F926F182E0820E94BD0E0E9487
:1026300072220E942E12909113028917A1F10E941A
:102640002E12809313022A960FB6F894DEBF0FBEA7
:10265000CDBFDF91CF911F910F91FF90EF90DF9051
:10266000CF90BF90AF909F900C945A058F5FEE0C67
:10267000FF1C8C3009F0B3CF0F5F1F4F03301105E3
:1026800009F094CF8FEF89838A831B820E94291FD0
:102690008160782F9D838C8349815A816B818D81E4
:1026A0000E946513C2CF2A960FB6F894DEBF0FBE04
:1026B000CDBFDF91CF911F910F91FF90EF90DF90F1
:1026C000CF90BF90AF909F900895CF93DF93CDB7F9
:1026D000DEB72B970FB6F894DEBF0FBECDBF4F838A
:1026E000588769877A878B871E821D8285E0FE0165
:1026F0003796DE01119601900D928A95E1F7498196
:102700005A816B817C818D819E812B960FB6F894C6
:10271000DEBF0FBECDBFDF91CF910C947B19FC01C2
:10272000808191810C94311CCF93C82F882309F4A8
:102730008BC08238C1F40E942E1281FD85C089E3CE
:102740000E945F1C0E94D01C2FEF81EE94E021506C
:1027500080409040E1F700C0000089E30E94661CC1
:10276000CF910C94D01C8338A1F40E942E1280FDCE
:102770006BC083E50E945F1C0E94D01C2FEF81EE8E
:1027800094E0215080409040E1F700C0000083E5D4
:10279000E5CF8438A1F40E942E1282FD55C087E453
:1027A0000E945F1C0E94D01C2FEF81EE94E021500C
:1027B00080409040E1F700C0000087E4CFCF8CEF6D
:1027C0008C0F813A90F46C2F809117019091180131
:1027D0000E94FC1D882329F08C2F0E94661C0E94F9
:1027E000D01C8C2F0E945F1CBBCF80E28C0F8830E6
:1027F00048F4C77081E001C0880FCA95EAF70E94CB
:10280000871CAECFEBE5EC0FE33040F4F0E0EB5388
:10281000FE4F808190E0CF910C946212E8E5EC0FBE
:10282000E73150F4F0E0EE0FFF1FE956FE4F8081D4
:102830009181CF910C947812C03F30F08C2F0E9480
:102840006C21CF910C945722CF910895882309F4DD
:1028500052C0823871F40E942E1281FF4CC089E36D
:102860000E945F1C0E94D01C89E30E94661C0C948D
:10287000D01C833859F40E942E1280FF3CC083E59F
:102880000E945F1C0E94D01C83E5EFCF843859F46E
:102890000E942E1282FF2FC087E40E945F1C0E94BC
:1028A000D01C87E4E2CF9CEF980F913AF0F290E2CF
:1028B000980F983050F4877091E001C0990F8A9575
:1028C000EAF7892F0E948D1CD2CF9BE5980F933099
:1028D00020F490E080E00C94621298E5980F973114
:1028E00020F490E080E00C947812803F20F00E9469
:1028F000D4210C9457220895CF93C82F0E9494138B
:10290000C93349F42FEF87EE93E021508040904087
:10291000E1F700C000008C2FCF910C94261488237F
:1029200021F00E94871C0C94D01C0895882321F06C
:102930000E948D1C0C94D01C0895BF92CF92DF9200
:10294000EF92FF920F931F93CF93DF937C01D62FCB
:10295000C72FFC01058102950F70128111110E9491
:10296000A41C0E947D1CD82E882391F01123D1F045
:102970008C2F807F803421F080E28D0F883090F0A2
:1029800082E00E941B1D0E947D1C91E0D82ED9265A
:10299000CC2EC2949FE0C922EC2DF0E0EA53F44D16
:1029A0000C94A92AD12CF4CF0C2F0F70C07F11F0FA
:1029B0000295007F1123A9F0002359F080E28D0FCA
:1029C000883010F0D11109C0802F0E94871C0E940E
:1029D000D01C8D2F0E94941314C0802F0E94971C2E
:1029E000F6CF8D2F0E942614002359F080E28D0F20
:1029F000883010F0D1112CC0802F0E948D1C0E94B5
:102A0000D01C2C2D2850330B2430310520F40E948B
:102A10002E120E945A05DD2009F498C10E94791CEB
:102A200080FD94C1F70112820E94731C0E94FF1A5C
:102A3000C7010E94C7160E94731CDF91CF911F919E
:102A40000F91FF90EF90DF90CF90BF900C94201BE0
:102A5000802F0E949D1CD3CFFC2FFF70BF2EC07F04
:102A6000C03219F0B29480EFB822DD2339F0D130B2
:102A700019F1112361F1002321F1ABCF112381F072
:102A8000011106C00E94B71C8B290E948F14B9CF78
:102A90000130C1F70E94B71C8B290E94BD1CB1CF29
:102AA000011106C00E94C61C8B2D0E949614A9CF4E
:102AB000013009F4A6CFF6CF112329F0063008F033
:102AC000A0CF8B2DE2CF053008F09BCFEDCF0023B8
:102AD00059F3D93349F42FEF37EE83E021503040DA
:102AE0008040E1F700C000008D2F0E94261489CF9E
:102AF0008C2F86958695837069F0813009F081CF9F
:102B00008D2F9C2F9370111102C090E080E00E94E5
:102B1000781277CF8D2F9C2F9370111102C090E007
:102B200080E00E9462126DCF8D2F112329F00E9448
:102B30006C210E94572265CF0E94D421FACF8C2F9E
:102B4000837009F041C011115CCF4D2F429546951D
:102B50004770440F440F0D2F0F7010E030E020E05D
:102B6000042E04C0000F111F221F331F0A94D2F736
:102B700060E070E0CB01D4FF0FC06FE070E080E058
:102B800090E004C0660F771F881F991F4A95D2F7FF
:102B90006095709580959095C695C695C370602B8D
:102BA000712B822B932BC23049F058F4C13019F0AD
:102BB0000E94B11A26CF0E949F1A23CF0E94C31AE7
:102BC00020CF0E949D1A1DCF8695112311F08C2FC6
:102BD0008170882309F415CF4D2F42954695477093
:102BE000440F440F0D2F0F7010E030E020E0042E52
:102BF00004C0000F111F221F331F0A94D2F760E098
:102C000070E0CB01D4FF0FC06FE070E080E090E097
:102C100004C0660F771F881F991F4A95D2F76095E9
:102C2000709580959095C695C695C370602B712B55
:102C3000822B932BC23049F058F4C13019F00E9416
:102C4000761BDFCE0E94641BDCCE0E94881BD9CE8F
:102C50000E94D91AD6CECF70112329F08C2F0E9452
:102C6000FF1A8D2F12CF8D2F0E9496148C2F0E9449
:102C7000201BC7CED23F89F160F4D03FC9F0D13FCD
:102C800029F1112309F442C00111A3CE8C2F8F71B9
:102C900021C0D33F39F1D43FA1F7112369F1CF719E
:102CA0008C2F0E94FF1A63E08C2F0E94061DA9CE74
:102CB000112341F0053008F0A4CE8C2F8F710E94B3
:102CC000431B9FCE063008F09CCEF7CF8C2F8F7120
:102CD000112369F20E94FF1A94CE8C2F8F71112359
:102CE000C9F3C5CF112329F08C2F8F710E94EA1AE6
:102CF00088CE0E94E51A85CE81E00E941B1D02301D
:102D000008F47FCE82E00E941B1D7BCE002359F089
:102D1000D93309F0E9CE9FEFE7EEF3E09150E040C0
:102D2000F040E1F7DFCE8C2F8F71A1CF4C2F4F7089
:102D30006D2FC7010E9462050E94151A62CE4C2FAA
:102D40004F706D2FC7010E9465055BCEDF91CF915B
:102D50001F910F91FF90EF90DF90CF90BF9008955B
:102D60000F931F93CF93DF93EC01688179818A8160
:102D70000E943B1C8C010E949A1B0E949C1AB80165
:102D8000CE01DF91CF911F910F910C949D14CF93A1
:102D9000DF93EC018B819C81892B29F088819981BB
:102DA00089238F3F59F4DF91CF910895CE010E947E
:102DB000B016CE01DF91CF910C94EC04CE010E94AD
:102DC00011058111F3CF0E947D1C882361F38A8154
:102DD000882349F382E0DF91CF910C941B1D0E9460
:102DE000A41C0E94B41C0E94D01C0E947E230E943E
:102DF000572290E080E00E94621290E080E00C9404
:102E000078120E946D1C0C94EF160E94941C0C9476
:102E10000117E92FE295EF70E250EE3070F4F0E028
:102E2000EA52F44D0C94A92A803F19F020F4883E10
:102E300020F481E00895843FE1F380E00895883E26
:102E4000C0F3813FD1F7F5CF93FB882780F9089530
:102E50000E94311C0C940917CF93DF9300D000D04F
:102E60000F92CDB7DEB70F900F900F900F900F908D
:102E7000DF91CF910895CF93DF9300D000D000D0A1
:102E8000CDB7DEB726960FB6F894DEBF0FBECDBF26
:102E9000DF91CF9108951F93CF93DF93C0911B02D1
:102EA00016E080911C028C1304C0DF91CF911F911A
:102EB0000895D0E01C9FF0011D9FF00D1124E35EEA
:102EC000FD4F4081518162817381848195810E948F
:102ED0003B172196C770E5CF40914D0250914E02AD
:102EE00060914F0270915002809151029091520274
:102EF0000C943B171F93CF93DF9380915202807FF6
:102F0000A9F480914F02882389F080911B02C0911F
:102F10001C0260914D0270914E02A0915002B0913E
:102F20005102D62FD72316E0C81304C0DF91CF91EA
:102F30001F91089590E0109711F0DF3F19F401966A
:102F40008770F2CF189F9001199F300D1124F9015D
:102F5000E35EFD4F41814713F2CF40814613EFCF2F
:102F600042814111ECCF438154814A1B5B0B4639AE
:102F7000510528F7809152028F7080618093520230
:102F8000F901EE5DFD4F80818F70806180838DE45B
:102F900092E00E94C716DF91CF911F910C944B17BE
:102FA000AF92BF92CF92DF92EF92FF920F931F9357
:102FB000CF93DF93CDB7DEB761970FB6F894DEBF3E
:102FC0000FBECDBF8C0185E0F801DE011D9601909A
:102FD0000D928A95E1F7F80140815181E2808DE4FC
:102FE000C82E82E0D82E6091500270915102611576
:102FF000710509F461C190914D0220914E02892F13
:1030000082238F3F09F458C1A380B480F0904F020F
:10301000F501E61BF70BFF2009F4FCC0809152027A
:10302000382F307FE639F10508F0B2C0311179C090
:10303000FE2C251323C0941321C0E1101FC08F70F4
:103040008061809352020E946C17C6010E94C716CD
:1030500080915202F80185838F2D61960FB6F89406
:10306000DEBF0FBECDBFDF91CF911F910F91FF90BB
:10307000EF90DF90CF90BF90AF900895AB2829F0EC
:10308000842F85238F3F09F033C180E0F82FF17042
:10309000DF2E80FF3CC080911B0220911C0236E095
:1030A000821315C04D875E878D859E850E94311CD9
:1030B000292F22952F702230F0F0243018F59F70C0
:1030C000F1F0F8019581907FD1F4D12C1EC090E0F1
:1030D000389FF001399FF00D1124E35EFD4F6181AF
:1030E000651306C06081641303C062816E110FC056
:1030F00001968770D5CF9F7011F0882331F3805EE1
:10310000883018F3C8010E94C716FD2CA5CFEE2009
:1031100009F4A2CF80915202816080935202F12C77
:103120009BCF251306C0941304C0F801EE2009F4C8
:103130008DC04D875E878D859E850E9428178823C8
:1031400019F1EE2009F180915202803270F0209145
:103150004D0230914E0238872F831986BB86AA868E
:103160008C87CE0107960E94C71686E0F801ADE471
:10317000B2E001900D928A95E1F70E947A170E94C1
:103180006C17FF24F39468CFC8010E94C716F9CFCB
:10319000311113C07A2DB98AA88A6E2D89890E94AF
:1031A0002C178DE492E00E94C71686E0F60111927A
:1031B0008A95E9F70E946C17B2CF25130FC09413BC
:1031C0000DC0E1100BC0F8018583C8010E94C7162D
:1031D00086E0F60111928A95E9F73ECF4D875E872A
:1031E0008D859E850E942817882371F2EE2061F25A
:1031F00080915202803208F4B8CF20914D02309174
:103200004E023A8329831B82BD82AC828E83CE011B
:103210000196A9CFE639F10508F041C0FE2CEE2059
:1032200009F4B2CF25132AC0941328C0809152020A
:1032300080FD1BC0982F907FC1F0F8018583903FDF
:1032400031F0982F907F905F8F70892B8583C80114
:103250000E94C71686E0F801ADE4B2E001900D923D
:103260008A95E1F70E946C17F7CE86E0F801ADE48D
:10327000B2E001900D928A95E1F7EECE4D875E8720
:103280008D859E850E94281781116FCF80915202F3
:10329000816080935202C8010E94C716DDCE7A2D4C
:1032A000B98AA88A6E2D89890E942C1786E0F601BA
:1032B00011928A95E9F7D6CFEE2009F465CF4D87B4
:1032C0005E878D859E850E942817F82E882309F435
:1032D0005BCF86E0F801ADE4B2E001900D928A95F3
:1032E000E1F78DE492E00E948F130E947A17BACF23
:1032F00081E08E25CBCE1F93CF93DF93CDB7DEB782
:103300002C970FB6F894DEBF0FBECDBF4F83588702
:1033100069877A878B879C87CE0107960E94D01792
:10332000882369F08A859B85892B39F04F815885E0
:10333000842F85238F3F09F071C016E05FC086E0BF
:10334000FE013796DE01119601900D928A95E1F704
:103350008A859B85892B89F38F81988589238F3F67
:1033600061F320911C0230E0C90101968770992712
:1033700040911B024817190671F40E94051710921C
:103380001C0210921B0286E0EDE4F2E0DF011D92C8
:103390008A95E9F7D2CF96E0929FD001939FB00D26
:1033A0001124A35EBD4FFE01319601900D929A95B6
:1033B000E1F780931C020E944B17BFCF819FC00191
:1033C0001124835E9D4F0E94D0178823E9F0E0917D
:1033D0001B021E9FF0011124E35EFD4F40815181CD
:1033E00062817381848195810E943B1780911B02C9
:1033F00090E001968770992780931B0280911B02B1
:1034000090911C028913DACF2C960FB6F894DEBF88
:103410000FBECDBFDF91CF911F91089569857A8549
:103420008B859C850E943B1788CFEF92FF920F936C
:103430001F93CF93DF938C01892B81F0F12CEE2425
:10344000E394E8012196F8018491843770F4843084
:1034500008F05FC08130B1F08230A1F1DF91CF91EF
:103460001F910F91FF90EF900895853709F44CC09C
:1034700008F43DC09CE7980F903780F78F770E9443
:10348000261449C00E5F1F4FFE01849190E2980FF1
:10349000983060F48770FE2D01C0FF0F8A95EAF71F
:1034A0008F2F0E94A71C0E94D01C02C00E94941360
:1034B0008F2D815030F2EFE9FFE03197F1F700C036
:1034C0000000F7CF0E5F1F4FFE01849190E2980F2E
:1034D000983050F48770FE2D01C0FF0F8A95EAF7EF
:1034E0008F2F0E94AD1CDFCF0E942614E1CF0E5F0C
:1034F0001F4FFE01C491C150D8F28FE99FE00197A0
:10350000F1F700C00000F7CF0E5F1F4FFE01F490EF
:10351000CFCF0E9494138E01CBCF08950C948D1AB7
:103520000E948E1A609370027093710280937202EF
:10353000909373020C94EF1608950C94901A0F93C5
:103540001F930091700210917102209172023091CC
:103550007302602B712B822B932B1F910F910C9474
:10356000901A0F931F930091700210917102209195
:1035700072023091730260237123822393231F917F
:103580000F910C94901A0F931F9300917002109159
:103590007102209172023091730260277127822795
:1035A00093271F910F910C94901A0C948D1A0C94E0
:1035B000D51A0E94D71A60936C0270936D028093A3
:1035C0006E0290936F020C94EF1660E070E0CB01F6
:1035D0000C94D91A0F931F9341E050E060E070E023
:1035E0008A019B0104C0000F111F221F331F8A95FF
:1035F000D2F7C901B8011F910F910C94D91A0F93FA
:103600001F9341E050E060E070E004C0440F551F9C
:10361000661F771F8A95D2F780916C0290916D0298
:10362000A0916E02B0916F028A019B01082B192BA9
:103630002A2B3B2BC901B8011F910F910C94D91A69
:103640000F931F9341E050E060E070E004C0440F2E
:10365000551F661F771F8A95D2F7CB01BA01609577
:1036600070958095909500916C0210916D0220915B
:103670006E0230916F0260237123822393231F9186
:103680000F910C94D91A0F931F9341E050E060E022
:1036900070E004C0440F551F661F771F8A95D2F74C
:1036A00080916C0290916D02A0916E02B0916F02B8
:1036B0008A019B01082719272A273B27C901B8013E
:1036C0001F910F910C94D91A0F931F9300916C02C4
:1036D00010916D0220916E0230916F02602B712B60
:1036E000822B932B1F910F910C94D91A0F931F9338
:1036F00000916C0210916D0220916E0230916F0268
:1037000060237123822393231F910F910C94D91A64
:103710000F931F9300916C0210916D0220916E0225
:1037200030916F0260277127822793271F910F9195
:103730000C94D91A08952CE0929F800D1124982F93
:10374000977041E001C0440F9A95EAF786958695F7
:10375000869595E0899FF0011124ED5AFD4F90E088
:1037600080E070E05191DF0111979B01082E02C0AB
:10377000369527950A94E2F7217021952527242371
:1037800025272C9301968530910561F708952CE04B
:10379000929F800D1124982F977086958695869517
:1037A00025E0829FF0011124ED5AFD4F50E040E0EA
:1037B00080E0219130E0092E02C0369527950A94C9
:1037C000E2F721703327042E01C0220F0A94EAF792
:1037D000822B4F5F5F4F4530510559F70895BF92D7
:1037E000CF92DF92EF92FF920F931F93CF93DF93CD
:1037F0008C01C0906C02D0906D02E0906E02F0904F
:103800006F028091700290917102A0917202B0914A
:103810007302C82AD92AEA2AFB2ACFE1D0E0BC2EBB
:10382000D701C6010C2E04C0B695A795979587952C
:103830000A94D2F780FD0EC0219788F7B12C8B2D0A
:10384000DF91CF911F910F91FF90EF90DF90CF907C
:10385000BF900895B8018C2F0E948205019761F3F3
:10386000EECFCF93DF93EC010E94EF1BBE01DF91FF
:10387000CF910C9482051F93CF93DF93EB0190912E
:103880001A02992331F0CB01DF91CF911F910C9453
:10389000311C882379F0CB010E94EF1B182F682F71
:1038A000CE010E949B1BBE01812FDF91CF911F9102
:1038B0000C948205CB010E94C71B182FF4CF682FF0
:1038C00080911701909118010C947C1E682F8091B3
:1038D0001701909118010C94871E80911701909107
:1038E00018010C94921E809174028595859585959A
:1038F0000895809174028770089590917402977072
:1039000081E009F480E008958091980208959091F3
:103910009802892B8093980208958095909198023F
:103920009823909398020895109298020895909188
:103930009702892B80939702089580959091970222
:10394000982390939702089510929702089590916A
:103950009602892B80939602089580959091960205
:10396000982390939602089510929602089580915C
:103970007502089508950C94BA1C909175029817D9
:1039800021F0809375020C94BB1C08958091750200
:10399000882329F01092750280E00C94BB1C0895D6
:1039A000E0911701F0911801809198028083E091D5
:1039B0001701F0911801808190919702892B8083E3
:1039C000E0911701F0911801808190919602892B66
:1039D000808390917502992381F0E0911701F09115
:1039E00018018081892B80838091170190911801A3
:1039F0000E94E81D81110E94C61C809117019091C0
:103A000018010C943A1208950C94031D98E0899FB4
:103A100090011124622B609374020E94FF1A80911E
:103A200074028595859585950C94041D10927402F9
:103A300080E00C94041D90917402809589238093FA
:103A40007402282F277071F4282F082E000C330BD6
:103A50009217130639F08595859585950E94201B50
:103A60000C94161D089590E080E00E94572B21E0F1
:103A70008C3E9E4F09F020E0822F089582E090E076
:103A80000C94492B682F82E090E00C945D2B83E02E
:103A900090E00C94492B682F83E090E00C945D2B10
:103AA000CF9384E090E00E94492BC82F81E290E000
:103AB0000E94492B982F8C2FCF910895CF93C92F17
:103AC000682F84E090E00E945D2B6C2F81E290E0F3
:103AD000CF910C945D2BAB01BC018FE090E00C9476
:103AE0006F2BAB01BC0183E190E00C946F2B60E085
:103AF00070E0CB010C94711D60E070E0CB010E947E
:103B00006B1D0C94771D6CEE7EEF90E080E00E94C0
:103B10007B2B60E082E090E00E945D2B60E083E020
:103B200090E00E945D2B1092700210927102109230
:103B300072021092730260E084E090E00E945D2BBC
:103B400060E081E290E00E945D2B60E085E090E023
:103B50000E945D2B60E086E090E00E945D2B6FEF9D
:103B600087E090E00E945D2B40E050E0BA0188E0E1
:103B700090E00E946F2B60E08DE090E00E945D2B52
:103B800040E050E0BA0188E190E00E946F2B60E0D5
:103B900087E190E00E945D2B40E050E0BA018CE1AB
:103BA00090E00E946F2B60E080E290E00E945D2B2D
:103BB00040E050E0BA0188E190E00E946F2B0C9445
:103BC0007C1D0C94831D682F8EE090E00C945D2B7F
:103BD000FC01329680912B01882321F08091FD0217
:103BE0009EE187FF96E080E0915008F408952191CE
:103BF0002223D1F38F5FF8CF662301F120912B01AF
:103C00002223F1F02091FD0227FF1AC0462F46958E
:103C1000469546954E3190F4677021E030E002C041
:103C2000220F331F6A95E2F7840F911DFC018281F8
:103C300090E02823392381E0232B69F480E0089564
:103C4000FC01329608962191261721F0E817F90712
:103C5000D1F7F4CF81E008959C01FC0132969FEFEB
:103C600080E04191461751F09F3F19F4411101C086
:103C7000982F8F5F8630A9F79F3F09F40895290F89
:103C8000311D97FD3A95F90162830895FC01329642
:103C900008962191261303C0DF0111971C92E817A3
:103CA000F907B9F70895E62FE695E695E695EE3122
:103CB00068F4E80FF92FF11D677021E030E001C0D2
:103CC000220F6A95EAF78281822B82830895E62F7C
:103CD000E695E695E695EE3170F4E80FF92FF11DC3
:103CE000677021E030E001C0220F6A95EAF7209565
:103CF000828128232283089520912B01222329F0F9
:103D00002091FD0227FD0C94531E0C942C1E209133
:103D10002B01222329F02091FD0227FD0C94671E20
:103D20000C94461EFC01329680912B01882351F0A1
:103D30008091FD0287FF06C08EE1DF011D928A950A
:103D4000E9F7089586E0F9CF089508950C94A51E2B
:103D50000E94A61E80910303843049F110929A02BA
:103D600088E190E020E40FB6F894A8958093600075
:103D70000FBE2093600080E00E945A050E94A61E9C
:103D800083B7817F846083BF83B7816083BF78946A
:103D9000889583B78E7F83BF0FB6F894A8958091DE
:103DA0006000886180936000109260000FBE0895EB
:103DB0000895CF930E94A41E0E94CD070E94D81E92
:103DC000C0E08C2F0E947507892B31F4CF5FC33080
:103DD000C1F780E0CF91089581E0FCCF08950C9465
:103DE000EE1E0E9405170E942E120E945A050C9486
:103DF000EF1E1F921FB61F9211248F939F93AF93B4
:103E0000BF9380919A02811113C08091F902909121
:103E1000FA02A091FB02B091FC024196A11DB11DD6
:103E20008093F9029093FA02A093FB02B093FC02F4
:103E3000BF91AF919F918F911F901FBE1F901895BA
:103E400082E084BD93E095BD9AEF97BD80936E00AC
:103E500008952FB7F8948091F9029091FA02A091F9
:103E6000FB02B091FC022FBF08959C014FB7F8945C
:103E70008091F9029091FA02A091FB02B091FC02AC
:103E80004FBF821B930B089578941F921FB61F9209
:103E900011248F939F93AF93BF938091F9029091D8
:103EA000FA02A091FB02B091FC020196A11DB11D86
:103EB0008093F9029093FA02A093FB02B093FC0264
:103EC000BF91AF919F918F911F901FBE1F9018952A
:103ED00087E797E7909301088093000888E19AE0CC
:103EE0000FB6F894A895809360000FBE9093600081
:103EF000FFCFAF92BF92CF92DF92EF92FF920F93DC
:103F00001F93CF93C0E0CC24C394D12CE82EF12C86
:103F10008C2F0E9475075C0110E000E0C601002EA6
:103F200002C0880F991F0A94E2F78A219B21892BEE
:103F300099F40F5F1F4F0C30110581F7CF5FC3302D
:103F400039F780E0CF911F910F91FF90EF90DF90B4
:103F5000CF90BF90AF900895602F7C2F80E00E949B
:103F60006605E816F90629F781E0ECCFCF93C82F54
:103F70008CE20E94791F882321F08C2FCF910C9422
:103F8000791F80E0CF910895CF930E94331D811156
:103F900002C00E94E11DC5E608C00E94CD078FE364
:103FA0009CE90197F1F700C00000C150B1F789E228
:103FB0000E94B61F81110BC18AE20E94B61F8111B7
:103FC0000E94E11D85E00E94B61F81110E94681FBA
:103FD0000E943E1D8093990287E00E94B61F8823AD
:103FE00071F08BE10E94B61F882309F4CDC0909137
:103FF0009902892F8D7F91FF826080939902809131
:1040000099020E94421D0E94501D9093FE028093CF
:10401000FD0280EE0E94B61F882341F09091FD02C0
:10402000892F8E7F90FF81608093FD0289E30E943B
:10403000B61F882341F09091FD02892F8D7F91FF5B
:1040400082608093FD0282EE0E94B61F882341F0B9
:104050009091FD02892F8B7F92FF84608093FD02F7
:1040600086EE0E94B61F882341F09091FD02892FB1
:10407000877F93FF88608093FD0283EE0E94B61FC6
:10408000882341F09091FD02892F8F7E94FF8061FB
:104090008093FD0285E30E94B61F882341F0909132
:1040A000FD02892F8F7D95FF80628093FD0281E361
:1040B0000E94B61F882341F09091FD02892F8F7BCB
:1040C00096FF80648093FD0281E10E94B61F8823E1
:1040D00041F09091FD02892F97FB87F980588093DA
:1040E000FD028091FD029091FE020E945E1D87E21A
:1040F0000E94B61FC82F8EE10E94B61F8111C260B8
:104100008FE10E94B61F8111C46080E20E94B61F39
:104110008111C86081E20E94B61F8111C06182E2F4
:104120000E94B61F8111C06283E20E94B61F8111F6
:10413000C06484E20E94B61F882309F442C0C068AC
:104140008C2F0E944B1D6C2F70E090E080E00E944D
:104150009D1A60916C0270916D0280916E02909137
:104160006F020E94D71A8FE00E94B61F882319F0B1
:1041700081E00E94E31D85E10E94B61F882339F18A
:1041800080E0CF910C94E31D8EE00E94B61F88233F
:1041900039F090919902892F8B7F92FF84602DCF07
:1041A00080E10E94B61F90919902882329F0892FFF
:1041B000877F93FF886021CF892F8E7F90FF81605A
:1041C0001CCFC111BDCF0E94471D682FBDCFCF911D
:1041D00008958091A10280FF12C060911E0185E0C8
:1041E000689FB0011124759567957595679560383E
:1041F0007105A8F561157105A1F1862F089581FF5C
:1042000009C060911E0185E0689FB0011124759579
:104210006795EDCF60911E0182FD0AC08091A002DA
:104220008823D1F090911D0160911E01891728F01B
:1042300085E0689FB0011124DACF869FB001112478
:1042400085E0869F9001879F300D1124692F70E0D3
:10425000C9010E94732ACBCF65E070E0CECF8FE713
:10426000089581E008958091A10280FF0CC06091C3
:104270001A0170E0759567957595679561157105DB
:1042800049F1862F089581FF06C060911A0170E000
:1042900075956795F3CF60911A0182FD0BC09091DF
:1042A0009F029923A1F06091190180911A0196173C
:1042B00038F0682F70E06038710500F38FE70895DB
:1042C000899FC001112470E00E94732AF4CF61E03D
:1042D00070E0D7CF81E00895803F31F40E94E9205B
:1042E00081958093A5020895813F19F40E94E920E9
:1042F000F8CF823F31F40E94E92081958093A40297
:104300000895833F19F40E94E920F8CF893F29F4EA
:104310000E9433218093A60208958A3F21F40E94CF
:1043200033218195F7CF8B3F31F40E943321819562
:104330008093A70208958C3F19F40E943321F8CF8F
:10434000843F31F48091A30281608093A302089599
:10435000853F21F48091A3028260F7CF863F21F44C
:104360008091A3028460F1CF873F21F48091A30262
:104370008860EBCF883F21F48091A3028061E5CF74
:104380008D3F31F48091A10281608093A102089554
:104390008E3F21F48091A1028260F7CF8F3FB9F761
:1043A0008091A1028460F1CF9091A402803F59F4E2
:1043B0008091A50287FF0DC01092A50291110BC03C
:1043C0001092A00208C0813F81F48091A5021816C6
:1043D0009CF3992381F08091A6029091A702892BEA
:1043E00009F064C010929F020895823F49F497FF3C
:1043F000F0CF1092A4028091A5028111ECCFE0CF02
:10440000833F19F41916ACF3E4CF2091A602893F3B
:1044100029F41216F4F61092A602DBCF8A3F19F4A3
:1044200027FFD7CFF8CF2091A7028B3F29F427FF92
:10443000D0CF1092A702CDCF8C3F19F41216CCF337
:10444000C8CF843F31F48091A3028E7F8093A30272
:10445000C0CF853F21F48091A3028D7FF7CF863FA7
:1044600021F48091A3028B7FF1CF873F21F48091CB
:10447000A302877FEBCF883F21F48091A3028F7E38
:10448000E5CF8D3F31F48091A1028E7F8093A10210
:10449000A0CF8E3F21F48091A1028D7FF7CF8F3F77
:1044A00009F097CF8091A1028B7FF0CF08950E94F1
:1044B000291F9C019091A4028091A502982B21F0C4
:1044C00030939E0220939D029091A6028091A702B4
:1044D000982B21F030939C0220939B0282EA92E079
:1044E0000C945412EF92FF920F931F93CF93DF938C
:1044F00000D000D000D0CDB7DEB786E0E2EAF2E02F
:10450000DE01119601900D928A95E1F7E090A402E8
:10451000F090A5020091A6021091A7021092A402A9
:104520001092A5021092A6021092A7028E2D8F293A
:1045300091F080919D0290919E020E94351FAC01E6
:104540009091A002992309F43FC080911F01841724
:10455000150608F447C0802F812B91F080919B02B3
:1045600090919C020E94351FAC0190919F0299236B
:1045700009F477C080911B018417150608F47FC0E9
:104580008091A4029091A502892B9091A602892B7B
:104590009091A702892B11F00E94572286E0FE011C
:1045A0003196A2EAB2E001900D928A95E1F7269643
:1045B0000FB6F894DEBF0FBECDBFDF91CF911F9134
:1045C0000F91FF90EF900895209120018AE0289F9D
:1045D000900111242417350708F0BDCF9F5F9093F9
:1045E000A00202C09F3FD1F7EE2059F00E94E920BF
:1045F0009FEF1E140CF491E0899F802D112480936D
:10460000A402FF2059F00E94E9209FEF1F140CF430
:1046100091E0899F802D11248093A5023091A402FE
:10462000332309F498CF2091A502222309F493CFD4
:1046300045EB3403C0011124992359F09093A4024F
:1046400045EB240390011124332339F03093A50264
:1046500082CF81E08093A402F3CF81E08093A50212
:104660007ACF20911C018AE0289F90011124241701
:10467000350708F085CF9F5F90939F0202C09F3F50
:10468000D1F7002359F00E9433219FEF10160CF44C
:1046900091E0899F802D11248093A602112359F067
:1046A0000E9433219FEF11160CF491E0899F802D19
:1046B00011248093A7023091A602332309F460CF1E
:1046C0002091A702222309F45BCF45EB3403C001FC
:1046D0001124992359F09093A60245EB24039001ED
:1046E0001124332339F03093A7024ACF81E080931D
:1046F000A602F3CF81E08093A70242CF86E0E2EAF0
:10470000F2E0DF011D928A95E9F71092A002109263
:104710009F021092A10208958091C8020895CF933C
:10472000DF9300D00F92CDB7DEB7909103039430A2
:1047300019F589837B836A8382E08093E9008FEF98
:104740009091E800815095FD06C095ED9A95F1F79E
:1047500000008111F5CF8091E80085FF0DC050E089
:1047600040E063E070E0CE0101960E94B4258091A4
:10477000E8008E778093E8000F900F900F90DF9104
:10478000CF910895BC0184E00C948F23BC0183E099
:104790000C948F239C0182E08093E9009FEF80912D
:1047A000E800915085FD06C085ED8A95F1F700007F
:1047B0009111F5CF8091E80085FF0CC050E040E0FA
:1047C00066E070E0C9010E94B4258091E8008E7710
:1047D0008093E8000895CF93DF93EC0180912B0143
:1047E0008823B1F18091FD0287FF32C060E282E050
:1047F0008093E9008FEF9091E800815095FD06C00D
:1048000095ED9A95F1F700008111F5CF8091E800C0
:1048100085FF1BC080912B0170E050E040E08111CA
:1048200004C050E040E068E070E0CE010E94B42592
:104830008091E8008E778093E80080E2FE01A8EA8C
:10484000B2E001900D928A95E1F7DF91CF91089542
:1048500068E081E0CDCF80910203811109C00E9400
:1048600044270E94A1278091E20084608093E200A7
:104870000895109202030895089508950C94F11E6E
:1048800042E061EC81E00E94C02642E261EC82E0FD
:104890000C94C02680910503833009F45FC030F486
:1048A0008130C1F1823009F49BC008958A3009F447
:1048B00087C08B3009F46DC0893009F04EC08091FB
:1048C0000403813209F049C08091080390910903E3
:1048D000029708F042C08091E800877F8093E8004B
:1048E0008091E80082FF35C09091F3008091F20042
:1048F000029729F48091F1008B7F813021F480911F
:10490000F1008093C8028091E8008B778093E800E3
:104910000C94F42680910403813AF9F48091E80024
:10492000877F8093E8008091080390910903892B89
:1049300061F460E288EA92E070E00E9403268091D0
:10494000E8008B778093E800089560E090E080E0D5
:10495000F3CF809103038111C3CF089580910403A5
:10496000813AD9F78091080390910903892BA9F71F
:104970008091E800877F8093E8008091E80080FFC5
:10498000FCCF80912B018093F1008091E8008E771D
:10499000BDCF80910403813201F78091080390918B
:1049A0000903892BD1F68091E800877F8093E80086
:1049B0000E94F4268091060380932B010C94051726
:1049C00080910403813249F68091E800877F8093CB
:1049D000E8000E94F426809107038093C90208959D
:1049E00080910403813A09F0B8CF8091E800877F75
:1049F0008093E8008091E80080FFFCCF8091C9029D
:104A0000C2CF84B7877F84BF0FB6F894A8958091F2
:104A10006000886180936000109260000FBE80E8A3
:104A200090E00FB6F89480936100909361000FBE00
:104A30000E949C120E9444270E94A1278091E200BC
:104A400084608093E20078940E942A2A0E94A8122F
:104A500081E291E00E94291280910303853039F0B0
:104A60000E94B2120E94A6120E94A712F5CF0E94C5
:104A7000A81E80910103882379F30E94D91E882300
:104A800059F30E949E25E8CF0C944625292F332701
:104A90002330310519F168F42130310509F444C09F
:104AA0002230310509F445C090E080E030E020E09C
:104AB00025C02132310549F122323105A9F780E4C0
:104AC00090E027E738E061157105C1F08CEB90E0CC
:104AD0002BEB37E06130710589F0E6CF9927813003
:104AE000910581F0009729F00297F1F6E6E4F7E0EE
:104AF00002C0EAE6F7E0849190E09F01FA01318379
:104B000020830895E4E5F7E0F6CF89E090E020E81F
:104B100037E06115710591F389E090E029E937E00C
:104B20006130710559F3C0CF82E190E029EA37E0A6
:104B3000E5CF8BE390E02EE637E0E0CF80E189BD62
:104B400082E189BD09B400FEFDCF8091D8008F7D40
:104B50008093D8008091E00082608093E000809193
:104B6000E00081FDFCCF0895AF92BF92CF92DF921B
:104B7000FF920F931F93CF93DF936C01EB018A0198
:104B80000E941327F82E811123C00115110539F059
:104B9000F80180819181C81BD90BC80ED91EB12C98
:104BA000A12C2097A9F08091E80085FD22C080917A
:104BB000E8008E778093E80001151105A1F0F80157
:104BC00080819181A80EB91EB182A08285E0F82E65
:104BD0008F2DDF91CF911F910F91FF90DF90CF909C
:104BE000BF90AF9008950E9413278823D1F2F82E2A
:104BF000EFCFF60181916F018093F1002197FFEFD4
:104C0000AF1ABF0ACECFFC0180910A0390910B032B
:104C100086179707A0F06115710529F49091E800B7
:104C20009E779093E80090E06115710551F4911121
:104C300008C08091E80082FF34C080E00895BC0184
:104C4000F2CF809103038823C1F18530C1F18091B7
:104C5000E80083FD30C08091E80082FDEACF8091BA
:104C6000E80080FFE1CF8091F3002091F200382F1F
:104C70006115710519F02830310558F091E02830A0
:104C8000310509F090E02091E8002E772093E800AC
:104C9000CBCF81918093F100615071092F5F3F4F1D
:104CA000E7CF80910303882341F0853041F0809164
:104CB000E80083FFBECF81E0089582E0089583E09D
:104CC0000895FC0180910A0390910B0386179707C2
:104CD000A0F06115710529F48091E8008E7780932A
:104CE000E80090E06115710551F4911108C08091C0
:104CF000E80082FF35C080E00895BC01F2CF8091CA
:104D000003038823C9F18530C9F18091E80083FD50
:104D100031C08091E80082FDEACF8091E80080FFF9
:104D2000E1CF8091F3002091F200382F61157105D9
:104D300019F02830310558F091E02830310509F09C
:104D400090E08091E8008E778093E800CBCF84914B
:104D50008093F1003196615071092F5F3F4FE6CF8C
:104D600080910303882341F0853041F08091E80071
:104D700083FFBDCF81E0089582E0089583E0089528
:104D8000982F973028F08F708093E90081E0089584
:104D90009093E900242F762F50E0981731F070910E
:104DA000EC002091ED005091F00021FD02C09F5FCA
:104DB000E8CF3091EB003E7F3093EB003091ED0077
:104DC0003D7F3093ED003091EB0031603093EB008C
:104DD0007093EC002093ED005093F0002091EE00D2
:104DE00027FDE5CF80E008958091040387FF13C07D
:104DF0008091E80082FF06C08091E8008B77809365
:104E0000E80004C0809103038111F2CF08958091DE
:104E100003038823D9F38091E80080FFF8CF8091C5
:104E2000E8008E77ECCF2091E4003091E50095E624
:104E3000A9012091EC00822F817020FF06C0809193
:104E4000E80080FF06C080E008952091E80022FD80
:104E50001AC080910303882389F0853089F08091FE
:104E6000EB0085FD0FC02091E4003091E500421772
:104E70005307F9F29150E1F684E0089582E0089535
:104E800083E0089581E008950E94B2270E94BA2726
:104E9000E0EEF0E0808181608083E8EDF0E08081E9
:104EA0008F77808319BCA7EDB0E08C918E7F8C93B7
:104EB00080818F7E80831092020308950F931F9349
:104EC000CF93DF930E94B2270E94BA27C8EDD0E0AB
:104ED00088818F77888388818068888388818F7DA7
:104EE000888319BC109203031092FF0210920103F1
:104EF0001092000300EE10E0F80180818B7F808328
:104F000088818160888342E060E080E00E94C02662
:104F1000E1EEF0E080818E7F8083E2EEF0E0808140
:104F200081608083808188608083F80180818E7FAA
:104F30008083888180618883DF91CF911F910F9159
:104F40000895E8EDF0E080818F7E8083E7EDF0E06A
:104F500080818160808384E082BF81E0809302034E
:104F60000C945E27E8EDF0E080818E7F80831092C4
:104F7000E20008951092DA001092E10008951F9265
:104F80000F920FB60F9211242F933F934F935F937D
:104F90006F937F938F939F93AF93BF93EF93FF9301
:104FA0008091E10082FF0BC08091E20082FF07C088
:104FB0008091E1008B7F8093E1000E94292A8091FB
:104FC000DA0080FF19C08091D80080FF15C0809161
:104FD000DA008E7F8093DA008091D90080FF96C03E
:104FE00080E189BD82E189BD09B400FEFDCF81E089
:104FF000809303030E942B248091E10080FF19C05D
:105000008091E20080FF15C08091E2008E7F809346
:10501000E2008091E20080618093E2008091D800FC
:1050200080628093D80019BC85E0809303030E94BE
:105030003D248091E10084FF2BC08091E20084FF39
:1050400027C080E189BD82E189BD89B5982F917023
:1050500080FFFBCF8091D8008F7D8093D800809116
:10506000E1008F7E8093E1008091E2008F7E80934B
:10507000E2008091E20081608093E2008091FF0273
:10508000882309F449C084E0809303030E943E24EE
:105090008091E10083FF29C08091E20083FF25C059
:1050A0008091E100877F8093E10082E08093030399
:1050B0001092FF028091E1008E7F8093E100809149
:1050C000E2008E7F8093E2008091E2008061809315
:1050D000E20042E060E080E00E94C0268091F000A3
:1050E00088608093F0000E943C24FF91EF91BF9173
:1050F000AF919F918F917F916F915F914F913F9170
:105100002F910F900FBE0F901F90189519BC109201
:1051100003030E94392470CF8091E30087FD93E060
:1051200090930303B3CF1F920F920FB60F921124E7
:105130002F933F934F935F936F937F938F939F939F
:10514000AF93BF93CF93DF93EF93FF93D091E90099
:10515000DF708091EC00C82FC17080FDC0E8109214
:10516000E9008091F000877F8093F00078940E949E
:10517000D7281092E9008091F00088608093F000B9
:10518000CD2BCF70C093E900FF91EF91DF91CF91CC
:10519000BF91AF919F918F917F916F915F914F914F
:1051A0003F912F910F900FBE0F901F9018951F9356
:1051B000CF93DF93CDB7DEB7AA970FB6F894DEBFD3
:1051C0000FBECDBF84E093E02091F100FC0121935C
:1051D000CF01F3E08C309F07B9F70E944A248091F9
:1051E000E80083FF1EC180910403909105039A306B
:1051F00008F017C1E92FF0E0EC51F44D0C94A92A06
:10520000803899F0823809F00CC1809108038F70C2
:10521000873008F006C18093E9008091EB0085FBA0
:10522000882780F91092E90006C0809100039091D0
:105230000103911182609091E800977F9093E800BC
:105240008093F1001092F1008091E8008E77E5C024
:10525000882309F4D3C0823009F0E3C080910603AB
:105260008111D6C0809108038F702FEF280F263050
:1052700008F0D7C08093E9002091EB0020FFC8C060
:10528000933031F48091EB0080628093EB00C0C0DA
:105290009091EB0090619093EB0021E030E001C031
:1052A000220F8A95EAF72093EA001092EA00809193
:1052B000EB008860EACF8111B4C0109106031F771C
:1052C0008091E3008078812B8093E3008091E80057
:1052D000877F8093E8000E94F4268091E80080FF99
:1052E000FCCF8091E30080688093E30082E011119D
:1052F00083E08093030395C08058823008F091C00A
:1053000080910603909107038C3D23E09207A1F55D
:1053100083E08A838AE289834FB7F894DE0113968B
:1053200020E03EE051E2E32FF0E050935700E4919B
:1053300020FF03C0E295EF703F5FEF708E2F90E08B
:10534000EA30C0F0C7968D939D932F5F243159F7B3
:105350004FBF8091E800877F8093E8006AE270E0A9
:10536000CE0101960E9403268091E8008B778093FE
:10537000E80057C0C096E7CF609108037091090319
:10538000AE014F5F5F4F0E944425BC01892B09F499
:1053900048C09091E800977F9093E80089819A81B6
:1053A0000E946126E1CF8038E1F58091E800877F97
:1053B0008093E8008091FF028093F10045CF811136
:1053C00030C090910603923060F58091E800877FAD
:1053D0008093E8009093FF020E94F4268091FF02E0
:1053E000882311F084E005C08091E30087FDFACFA7
:1053F00081E0809303030E94402413C08091060340
:10540000813079F481E0933009F080E080930103EA
:105410001092E9008091E800877F8093E8000E9465
:10542000F4268091E80083FF0AC08091E800877F1E
:105430008093E8008091EB0080628093EB00AA9655
:105440000FB6F894DEBF0FBECDBFDF91CF911F9195
:1054500008950895CF93809103038823A1F0C0910C
:10546000E900CF709091EC00892F817090FD80E869
:10547000C82B1092E9008091E80083FD0E94D72894
:10548000CF70C093E900CF910895991B79E004C0D3
:10549000991F961708F0961B881F7A95C9F7809573
:1054A000089587FB082E062687FD819567FD619587
:1054B0000E94452A0EF4919507FC81950895AA1B38
:1054C000BB1B51E107C0AA1FBB1FA617B70710F0EF
:1054D000A61BB70B881F991F5A95A9F78095909521
:1054E000BC01CD01089597FB072E16F4009407D058
:1054F00077FD09D00E945F2A07FC05D03EF4909505
:1055000081959F4F0895709561957F4F0895A1E211
:105510001A2EAA1BBB1BFD010DC0AA1FBB1FEE1F2D
:10552000FF1FA217B307E407F50720F0A21BB30B78
:10553000E40BF50B661F771F881F991F1A9469F7F4
:1055400060957095809590959B01AC01BD01CF0150
:105550000895EE0FFF1F0590F491E02D09940E942D
:10556000B72A332312F48A1B9B0B0C94C82AA29FE0
:10557000B001B39FC001A39F700D811D1124911D27
:10558000B29F700D811D1124911D08950E94B72AAC
:10559000B7FF0895821B930B08950E94B72AA59F19
:1055A000900DB49F900DA49F800D911D112408951E
:1055B000B7FF0C94CD2A0E94CD2A821B930B08952D
:1055C0008F929F92AF92BF92CF92DF92EF92FF9213
:1055D000CF93DF93EC01688179818A819B8161158A
:1055E00071058105910521F464E279ED8BE597E081
:1055F0002DE133EF41E050E00E94912B49015A0127
:105600009B01AC01A7EAB1E40E94CD2A6B017C01A9
:10561000ACEEB4EFA50194010E94DB2ADC01CB01C2
:105620008C0D9D1DAE1DBF1DB7FF03C00197A109C5
:10563000B04888839983AA83BB839F77DF91CF91FA
:10564000FF90EF90DF90CF90BF90AF909F908F90A2
:1056500008950E94E02A089580E091E00E94E02AE7
:105660000895B0E0A0E08093000190930101A09321
:105670000201B09303010895FC014150504030F005
:1056800001900616D1F73197CF0108958827992701
:105690000895F999FECF92BD81BDF89A992780B5FA
:1056A0000895A6E1B0E044E050E00C94832BA8E11B
:1056B000B0E042E050E00C94832B262FF999FECF06
:1056C00092BD81BDF89A019700B4021639F01FBA55
:1056D00020BD0FB6F894FA9AF99A0FBE0895039672
:1056E000272F0E945E2B0E945D2B252F0E945E2B90
:1056F000242F0C945E2B0196272F0E945E2B0C9476
:105700005D2BDC01CB01FC01F999FECF06C0F2BD97
:10571000E1BDF89A319600B40D9241505040B8F76F
:105720000895052E97FB1EF400940E94A82B57FDA8
:1057300007D00E94872A07FC03D04EF40C94A82BB4
:1057400050954095309521953F4F4F4F5F4F0895AD
:1057500090958095709561957F4F8F4F9F4F0895DD
:10576000F894FFCF980FA00FA70FAC0FB10FB60F93
:10577000BB0FC00FC50FCA0FCF0FD40FD80FDD0F4F
:10578000E00FE30FE60FE90FEB0FEE0FD414D41484
:105790002C152C1578159415011501159F152B1630
:1057A0003A163A169616011501159F161417141776
:1057B0001D171D171F171D171D171D171417141759
:1057C00024171D171D17241700292829112A2829F5
:0C57D000112A5B297C29112AD329DF292A
:1057DC0001000000010102000A000A0A01191A1B4B
:1057EC001C1D1E1F20212276022808641E140A325A
:1057FC001E8C23EB23CA23C623C22301E200E9003B
:10580C00EA00B500B600B700CD008301CC008A01D8
:10581C00920194012102230224022502260227026E
:10582C002A02B300B4006F007000818283F6F73156
:10583C003332363534C697669492F4F50001020281
:10584C0002020606060909090909090F0F0F0F0FB5
:10585C000F151515181919191919191919191923B9
:10586C0024252525252525E200E900EA00B500B60A
:10587C0000B700CD008301CC008A01920194012174
:10588C0002230224022502260227022A02B300B4B4
:08589C00006F0070008182839F
:00000001FF
