:100000000C94CB030C9412040C9412040C94120460
:100010000C9412040C9412040C9412040C94120408
:100020000C9412040C9412040C94D3290C948F2970
:100030000C94EF310C9412040C9412040C941204DE
:100040000C9412040C9412040C9412040C941204D8
:100050000C9412040C94CB310C9412040C941204E2
:100060000C9412040C9412040C9412040C941204B8
:100070000C9412040C9412040C9412040C941204A8
:100080000C9412040C9412040C9412040C94120498
:100090000C9412040C9412040C9412040C94120488
:1000A0000C9412040C9412040C941204050109021D
:1000B000A10185020901A100050919012905150001
:1000C00025019505750181029501750381010501E1
:1000D000093009311581257F950275088106093897
:1000E0001581257F950175088106050C0A380215D2
:1000F00081257F950175088106C0C005010980A191
:1001000001850319012AB700150126B7009501756D
:10011000108100C0050C0901A101850419012AA064
:1001200002150126A002950175108100C005010984
:1001300006A1018505050719E029E71500250195A8
:1001400008750181020507190029EF1500250195A1
:10015000F0750181020508190129059505750191C0
:1001600002950175039101C00660FF0961A10109B3
:1001700062150026FF0095207508810209631500AD
:1001800026FF00952075089102C005010906A1010E
:10019000050719E029E71500250195087501810279
:1001A0009501750881010507190029FF150026FF33
:1001B0000095067508810005081901290595057542
:1001C000019102950175039101C00000000000003B
:1001D000000000000000000000000000000000001F
:1001E00000000000000000000000000000007E0F82
:1001F00000D4FFFFFFC700000078000000000000EF
:1002000000002A2B28000000000000000000000071
:10021000000000000029000000002C1E34202122D4
:1002200024342627252E362D3738271E1F2021223D
:10023000232425263333362E37381F0405060708B6
:10024000090A0B0C0D0E0F101112131415161718A6
:10025000191A1B1C1D2F3130232D350405060708E4
:10026000090A0B0C0D0E0F10111213141516171886
:10027000191A1B1C1D2F3130354C000101010101E1
:10028000010101010202020202020202020303034F
:10029000030303030304040404040404050505051F
:1002A00005060606060607070707070808080809DF
:1002B0000909090A0A0A0B0B0B0C0C0C0D0D0D0E8B
:1002C0000E0E0F0F0F101011111112121313141420
:1002D000151516161717181819191A1A1B1B1C1D95
:1002E0001D1E1E1F202021222223242425262627EE
:1002F0002829292A2B2C2D2D2E2F30313232333420
:1003000035363738393A3B3C3D3E3F404142434425
:1003100045464748494A4C4D4E4F50515354555607
:1003200058595A5B5D5E5F616264656668696B6CB3
:100330006D6F7072737577787A7B7D7E808283852E
:1003400087888A8C8E8F91939596989A9C9EA0A26E
:10035000A3A5A7A9ABADAFB1B3B5B7BABCBEC0C278
:10036000C4C6C9CBCDCFD1D4D6D8DBDDDFE2E4E73C
:10037000E9EBEEF0F3F5F8FAFDFF2B0014001A009C
:100380000800150017001C0018000C0012001300D4
:100390002A00010004001600070009000A000B00F3
:1003A0000D000E000F0033002800E1001D001B00AF
:1003B0000600190005001100100036003700380053
:1003C0000100E0000100E300280000000000000040
:1003D0002C00E60029000000010035001E021F026B
:1003E00020022102220223022402250226022702E1
:1003F0004C000100310034002D002E002F00300091
:100400005100520050004F0001000100290001007E
:100410004600010001000100AD00AE00AC00AB00E1
:10042000E5000100E3000100010000000000000001
:1004300001000100010000000100010001000100B5
:100440000100010001000100240025002600270012
:1004500001002900310234022D022E0201000100A8
:10046000210022002300A900280001000100010052
:1004700001000100010027001E001F002000AA004B
:100480000100010001000100010000000000000067
:100490000100010001000000010001000100010055
:1004A00001000100010001003A003B003C003D005A
:1004B000010029000100010001000100010001000C
:1004C0003E003F00400041000100E1001E001F000F
:1004D0002000210022002300420043004400450088
:1004E00001000100E10005002C00000000000000F8
:1004F00006000100010000000100010001003C03B2
:1005000000000200020038030000030001003D0368
:1005100000000400020022035908050001003E0308
:1005200000000600020024030000070002003A0356
:100530000000080001003F0300000900020026033C
:1005400034080A000200280334080B0002002A03C2
:1005500034080C0002002C0334080D0002002E03A6
:1005600034080E000200300334080F00020032038A
:10057000340810000200340334081100020036036E
:10058000340812000200400300001300020042037E
:100590000000FD377A585A000004E6D6B44602003F
:1005A000210116000000742FE5A3E00265010C5D37
:1005B000003D8889C65436C3174FE4E2A55FD4C511
:1005C000BF32999C6352A1F4B0924826C995E08746
:1005D0002BE283A0B64BFBAC7B3AB574E0AFC63BD5
:1005E000D1E7CDAE5A712532B5B234E9271905DD10
:1005F0008C3F28385CB6E753639FDD6A23DA895D58
:1006000010C9DAFAAF94A76D906BB05A9A0647CF2B
:10061000922229B8C14E22198C9041DE5059C4BA99
:10062000084305EC446457760DAE453343CFDC11E7
:100630003E177FC151A4457EF79E80B1FCBEA6B592
:100640006BEF8AC47BE9930640073797CE1E88CEAE
:10065000C2EDD344A38D05C8E3A07E6A011A12FD42
:1006600075D3463B516DB6D70A2CE600BC61A7CBCB
:10067000F71A8D032D1B6B6B9E2FE9E8788ED155F1
:10068000756E6058789FEC3129CF1FE72F3405AB8A
:10069000ED0BE238FD27A8243A1D7760C1F44E7CAB
:1006A000085BF8EB5DB7CED797048FA87DB8F081D3
:1006B0009D2ECDCE004CD413F55C9BEE00005F0761
:1006C00042E352C5B0DD0001A802E604000006A224
:1006D000C7B8B1C467FB020000000004595A090200
:1006E0005B00030100A0FA090400000103010100FE
:1006F0000921110100012240000705810308000AB9
:100700000904010002030000000921110100012277
:1007100022000705820320000107050303200001D2
:100720000904020001030000000921110100012257
:10073000BC000705840320000A120110010000001C
:10074000086B72736D0100010203011C03760069DE
:100750000061006C003A006600360034006300322D
:1007600000620033006300000010034D0069006E5A
:1007700000690073007500620000001403520061FC
:100780000069006E006B0065006500620073000088
:1007900000040309040011241FBECFEFDAE0DEBF1E
:1007A000CDBF04B603FE27C08091E2039091E3031E
:1007B000A091E403B091E5038730904BA740B04B84
:1007C000D1F41092E2031092E3031092E40310922A
:1007D000E50314BE84B7877F84BF0FB6F894A8954D
:1007E00080916000886180936000109260000FBE6D
:1007F000E0E0F8E3099511E0A0E0B1E0EEE6F6E60E
:1008000002C005900D92AC37B107D9F723E0ACE7F1
:10081000B1E001C01D92A23EB207E1F70E94AA2AF0
:100820000C94C4320C940000E8EDF0E080818E7FDF
:1008300080831092E2001092DA001092E100A0EEA4
:10084000B0E08C9181608C9380818F77808319BC1C
:10085000A7EDB0E08C918E7F8C9380818F7E80831A
:100860001092AF0308952091E4003091E50095E6E1
:10087000A9012091EC00822F817020FF06C0809199
:10088000E80080FF06C080E008952091E80022FD86
:100890001AC08091D403882389F0853089F0809133
:1008A000EB0085FD0FC02091E4003091E500421778
:1008B0005307F9F29150E1F684E0089582E008953B
:1008C00083E0089581E00895EF92FF920F931F93C4
:1008D000CF937C018B010E943304C82F811117C074
:1008E0008091E80085FD0BC08091E8008E778093B1
:1008F000E8000E943304882399F3C82F08C0F70149
:1009000081917F018093F1000150110949F78C2FEB
:10091000CF911F910F91FF90EF9008958091D60392
:1009200087FF13C08091E80082FF06C08091E80035
:100930008B778093E80004C08091D4038111F2CFBB
:1009400008958091D4038823D9F38091E80080FF33
:10095000F8CF8091E8008E77ECCF982F9093E90044
:10096000242F762F50E0891731F07091EC00209100
:10097000ED005091F00021FD07C09F5F973071F7A7
:100980008093E90081E008953091EB003E7F309341
:10099000EB003091ED003D7F3093ED003091EB00A6
:1009A00031603093EB007093EC002093ED00509396
:1009B000F0002091EE0027FDE0CF80E00895CF9277
:1009C000DF92EF92FF920F931F93CF93DF93C8EDC7
:1009D000D0E088818F7E8883E7EDF0E080818160C0
:1009E000808384E082BF81E08093AF0388818E7F23
:1009F000888302EE10E0F80110821092DA0081EE96
:100A0000C82ED12CF601108288818F778883888147
:100A10008068888388818F7D888319BC1092D40375
:100A20001092D5031092D3031092D20390EEE92EC8
:100A3000F12CF70180818B7F80838881816088839E
:100A400042E060E080E00E94AD04F60180818E7F8C
:100A50008083F801808181608083808188608083C9
:100A6000F70180818E7F8083888180618883DF9118
:100A7000CF911F910F91FF90EF90DF90CF9008954D
:100A8000FC018091DC039091DD0386179707A0F0AD
:100A90006115710529F49091E8009E779093E80024
:100AA00090E06115710551F4911108C08091E80042
:100AB00082FF34C080E00895BC01F2CF8091D4035E
:100AC0008823C1F18530C1F18091E80083FD30C0F9
:100AD0008091E80082FDEACF8091E80080FFE1CFBD
:100AE0008091F3002091F200382F6115710519F003
:100AF0002830310558F091E02830310509F090E0B8
:100B00002091E8002E772093E800CBCF819180934D
:100B1000F100615071092F5F3F4FE7CF8091D403FF
:100B2000882341F0853041F08091E80083FFBECFFB
:100B300081E0089582E0089583E0089580E00895BB
:100B40008091B10308959C014FB7F8948091A90357
:100B50009091AA03A091AB03B091AC034FBF821B4D
:100B6000930B08952FB7F8948091A9039091AA034D
:100B7000A091AB03B091AC032FBF089580914903BE
:100B8000882331F0109249031092480310924703D2
:100B90000895809590914603982390934603089575
:100BA0008095909145039823909345030895109262
:100BB00021031092200310921F03089580912403B3
:100BC00090912503892B89F00E94B205209147035B
:100BD00030914803AC01421B530B81E02091240368
:100BE000309125034217530708F480E0817008957F
:100BF0008091450390914603892B90914403892B62
:100C000080937E0180914903882319F18091240308
:100C100090912503892B29F00E94DE0581110E9405
:100C2000BE0580917E0190914903892B80937E01BE
:100C300080911901882341F18091760387FF24C0B8
:100C40008EE1E0E8F1E090E0815000F591110E9422
:100C5000BE05E0918103F09182033097E1F080912D
:100C60001901882359F08091760387FF07C080918E
:100C70007E0180937F0185E080937E010280F38175
:100C8000E02D8EE791E0099486E0DBCF21912223CD
:100C9000D9F29F5FD9CF089580911E0381111092E0
:100CA0001E030895909119019923D1F09091760334
:100CB00097FF16C0E82FE695E695E695EE31E0F44D
:100CC000F0E0E258FE4F282F277081E090E001C04D
:100CD000880F2A95EAF78095928189238283089567
:100CE000E0E8F1E09191891303C0DF0111971C92B4
:100CF00091E0E638F907B1F7089590911901992329
:100D0000C1F09091760397FF14C0E82FE695E69521
:100D1000E695EE31F8F4F0E0E258FE4F877021E0FE
:100D200030E001C0220F8A95EAF78281822B82830C
:100D30000895A0E8B1E0EFEF90E02D91821751F017
:100D4000EF3F19F4211101C0E92F9F5F9630A9F7F9
:100D5000EF3F09F408950E2E000CFF0BE258FE4FF2
:100D6000E6CF9E3F49F1E82F2CE0929FE00D112441
:100D70009E2F9770E695E695E69585E0E89FF00151
:100D80001124E050FD4F50E040E080E0219130E040
:100D9000092E02C0369527950A94E2F72170332771
:100DA000042E01C0220F0A94EAF7822B4F5F5F4F97
:100DB0004530510559F7089580E008959E3F69F147
:100DC000E82F2CE0929FE00D11248E2F877041E0D8
:100DD00001C0440F8A95EAF7E695E695E69585E029
:100DE000E89FF0011124E050FD4F30E020E070E07A
:100DF0005191DF011197CB01022E02C09695879584
:100E00000A94E2F7817081958527842385278C9346
:100E10002F5F3F4F2530310559F708952091FF028C
:100E20009091CE0256E0291302C080E0089530E090
:100E3000529FF001539FF00D1124E153FD4F71813A
:100E4000761306C07081781303C07281741304C0D6
:100E50002F5F3F4F2770E7CF81E00895452B39F092
:100E6000682381E06F3F09F080E08170089581E0A0
:100E7000FCCF8091FF029091CE02981301C008959B
:100E80008F5F8770FACFE92FE295EF70E250EE3076
:100E900070F4F0E0EA53FD4C0C943E32803F19F0C0
:100EA00020F4883E20F481E00895843FE1F380E05F
:100EB0000895883EC0F3813FD1F7F5CF93FB882793
:100EC00080F90895882321F00E94C9050C94F80543
:100ED0000895882339F090914603982B9093460308
:100EE0000C94F8050895882321F00E94D0050C94F5
:100EF000F8050895882339F090914503982B909335
:100F000045030C94F80508952091F5013091F60100
:100F10002817390771F09093F6018093F501E0915D
:100F20008103F0918203309721F00084F185E02D58
:100F3000099408952091F3013091F401281739079D
:100F400071F09093F4018093F301E0918103F091AB
:100F50008203309721F00680F781E02D09940895EF
:100F6000E0918103F0918203309721F00190F081AC
:100F7000E02D099480E00895CF93DF93EC0181E0A8
:100F8000898B809145039F81892B809345038091B4
:100F900046039885892B809346030E94F805EA81D1
:100FA000FB81309739F06C897D89CE010696DF91FF
:100FB000CF910994DF91CF910895EF92FF920F9313
:100FC0001F93CF93DF93EC018A85811134C0EB80AE
:100FD000FC8087E5F81A26E12E9DC0012F9D900D1B
:100FE0001124DC01A750BE4F1496ED91FC9115978A
:100FF000309731F054966D917C9181509E4F0995B8
:1010000086E18E9D80018F9D100D112407501E4F8B
:10101000F80187810E94D005F80180850E94C905EA
:101020000E94F805188219861B861E821D82109266
:10103000F8011092F701DF91CF911F910F91FF906E
:10104000EF900895EEE4F3E083E0E637F80739F433
:1010500088E090E09093BC028093BB020895848165
:1010600087FF14823596F0CFE2E2F3E08481958128
:101070002AE030E0B9010E94163260930B018681AC
:1010800080930C01828580930801848580930701F9
:1010900086859785B9010E9416326093090180897F
:1010A00080930A01828980930601848980930501D7
:1010B00008958091220390912303909301018093DE
:1010C00000010895FA01811101C0FB01099480918A
:1010D0009C03982F9E7F39F480919C0381708260DD
:1010E00080939C0308958430B8F708950E94B20558
:1010F0009C0190918C0380918D03982B21F030936B
:1011000089032093880390918E0380918F03982BFD
:1011100021F03093860320938503E0918103F091C1
:101120008203309749F082E080938A030480F5813E
:10113000E02D8AE893E00994089590E080E00E9411
:101140009A0790E080E00E94840710924603109274
:1011500044030E94F80586E0EAE8F3E0DF011D920F
:101160008A95E9F710928703109284031092C702C0
:101170000C9476086093DE037093DF038093E003A2
:101180009093E1030C949D080F931F936091DE03ED
:101190007091DF038091E0039091E1038B019C014A
:1011A0000670112722273327063011052105310546
:1011B00029F468601F910F910C94BA08677FFACFE9
:1011C0000F931F9341E050E060E070E004C0440FD3
:1011D000551F661F771F8A95D2F7CB01BA0160951C
:1011E0007095809590950091DE031091DF0320911A
:1011F000E0033091E10360237123822393231F9145
:101200000F910C94BA0890912103809589238093C3
:101210002103282F277039F4282F082E000C330BB8
:101220009217130621F49091770392FF07C08595DA
:10123000859585950E94E0080C94D70508950F9335
:101240001F9341E050E060E070E004C0440F551F80
:10125000661F771F8A95D2F78091DE039091DF0396
:10126000A091E003B091E1038A019B01082B192BA7
:101270002A2B3B2BC901B8011F910F910C94BA087E
:101280009091770392FD10C098E0899F90011124FE
:10129000622B609321030E941F090E94B205909364
:1012A000200380931F0308950C941F0960934A0341
:1012B00070934B0380934C0390934D030C949D08C3
:1012C00090918C03803F59F480918D0387FF0DC06E
:1012D00010928D0391110BC01092870308C0813FBB
:1012E00081F480918D0318169CF3992381F08091ED
:1012F0008E0390918F03892B09F064C010928403B0
:101300000895823F49F497FFF0CF10928C038091AB
:101310008D038111ECCFE0CF833F19F41916ACF3A4
:10132000E4CF20918E03893F29F41216F4F610922F
:101330008E03DBCF8A3F19F427FFD7CFF8CF209158
:101340008F038B3F29F427FFD0CF10928F03CDCF8F
:101350008C3F19F41216CCF3C8CF843F31F480913E
:101360008B038E7F80938B03C0CF853F21F48091C8
:101370008B038D7FF7CF863F21F480918B038B7F8A
:10138000F1CF873F21F480918B03877FEBCF883F9C
:1013900021F480918B038F7EE5CF8D3F31F48091D6
:1013A000C7028E7F8093C702A0CF8E3F21F4809129
:1013B000C7028D7FF7CF8F3F09F097CF8091C7028B
:1013C0008B7FF0CF0895882309F452C0823871F4DE
:1013D0000E94B00781FF4CC089E30E947D060E94F5
:1013E000F80589E30E9452060C94F805833859F4F5
:1013F0000E94B00780FF3CC083E50E947D060E94EA
:10140000F80583E5EFCF843859F40E94B00782FFD6
:101410002FC087E40E947D060E94F80587E4E2CF92
:101420009CEF980F913AF0F290E2980F983050F4B8
:10143000877091E001C0990F8A95EAF7892F0E9481
:10144000D005D2CF9BE5980F933020F490E080E058
:101450000C949A0798E5980F973120F490E080E07B
:101460000C948407803F20F00E9460090C94760859
:1014700008958091C70280FF0CC06091060170E062
:1014800075956795759567956115710549F1862F75
:10149000089581FF06C06091060170E0759567951B
:1014A000F3CF6091060182FD0BC0909184039923D4
:1014B000A1F06091050180910601961738F0682F20
:1014C00070E06038710500F38FE70895899FC001CF
:1014D000112470E00E942A32F4CF61E070E0D7CF8F
:1014E00081E008958091C70260912A0370912B03D7
:1014F00080FF16C020910801269FC001279F900DF4
:101500001124BC01769567957695679560387105CD
:1015100008F043C06115710509F441C0862F089594
:1015200081FF0BC020910801269FC001279F900DCD
:101530001124BC0176956795E9CF82FF09C080919F
:1015400008019B01829FB001839F700D1124DECFA3
:10155000209187032223D1F2909107018091080105
:10156000482F50E0291748F0CB01849FB001859F98
:10157000700D949F700D1124C9CF289F90011124E4
:10158000269FA001279F500D369F500D1124692FD3
:1015900070E0CA010E941632B9CF8FE7089581E04A
:1015A0000895803F31F40E94720A819580938D03E3
:1015B0000895813F19F40E94720AF8CF823F31F4F6
:1015C0000E94720A819580938C030895833F19F4D9
:1015D0000E94720AF8CF893F29F40E94390A809349
:1015E0008E0308958A3F21F40E94390A8195F7CF2E
:1015F0008B3F31F40E94390A819580938F030895BF
:101600008C3F19F40E94390AF8CF843F31F480915D
:101610008B03816080938B030895853F21F4809133
:101620008B038260F7CF863F21F480918B03846027
:10163000F1CF873F21F480918B038860EBCF883F07
:1016400021F480918B038061E5CF8D3F31F480914F
:10165000C70281608093C70208958E3F21F4809174
:10166000C7028260F7CF8F3FB9F78091C7028460CD
:10167000F1CF833011F128F4813049F0823091F0BC
:101680000895853081F120F18630C1F1089580916F
:101690000B01681720F4861B80930B0108951092AC
:1016A0000B01089580910C01681720F4861B80932C
:1016B0000C01089510920C0108958091080168179B
:1016C00020F4861B80930801089510920801089564
:1016D00080910701681720F4861B80930701089505
:1016E00010920701089580910601681720F4861B67
:1016F00080930601089510920601089580910501D6
:10170000681720F4861B8093050108951092050147
:101710000895833081F128F4813059F08230D1F07E
:101720000895853009F449C0B8F1863009F456C0EF
:10173000089580910B01482F460F5527551F4F3FA5
:10174000510524F4680F60930B0108958FEF809387
:101750000B01089580910C01482F460F5527551F06
:101760004F3F510524F4680F60930C0108958FEFEB
:1017700080930C01089580910801482F460F55274A
:10178000551F4F3F510524F4680F609308010895D9
:101790008FEF80930801089580910701482F460F2D
:1017A0005527551F4F3F510524F4680F60930701DB
:1017B00008958FEF80930701089580910601482FC7
:1017C000460F5527551F4F3F510524F4680F60936E
:1017D000060108958FEF8093060108958091050119
:1017E000482F460F5527551F4F3F510524F4680FCA
:1017F0006093050108958FEF809305010895F89493
:10180000E82FE295EF70F0E031A1282F2F7081E0F2
:1018100090E001C0880F2A95EAF7982F90959323BE
:1018200091A392A1892B82A3789408959091760335
:1018300092FF06C0282F28712830F9F4877F846032
:1018400093FF06C0282F28712831F1F4877E846128
:101850002091770320FF06C0382F38713830D9F433
:10186000877F816021FF06C0282F28712831D1F49D
:10187000877E816194FD877E0895282F247124300E
:10188000F9F68B7F8860DCCF282F2471243101F793
:101890008B7E8861DDCF382F3171313019F78E7F23
:1018A0008860E0CF282F2171213121F78E7E886159
:1018B000E1CFCF93DF939C013A9521153F4168F525
:1018C000EC01CC27D170DC01AA27B270AC0144270F
:1018D00054709C012227387094FF11C080E1CD2BF9
:1018E00009F480E0AB2B09F08062452B09F080649D
:1018F000232B09F08068FB01DF91CF91099481E0EF
:10190000CD2B09F480E0AB2B09F08260452B09F068
:101910008460232B81F38860EECFDF91CF9108950F
:10192000CF93DF93EC010E94E309CE01805E910921
:10193000089720F062E677E0209711F463E777E0FC
:10194000CE01DF91CF910C94590CCF9384E090E0BD
:101950000E947432C82F82E290E00E947432982F65
:101960008C2FCF9108950F931F93CF93DF9302E2B3
:1019700013E0C7EAD1E0CE010E947432F8018193EE
:101980008F012196C93CF1E0DF07A9F7C0E0D5E05F
:10199000FE0185919491009711F0FC01099528961C
:1019A000F5E0C839DF07A1F7DF91CF911F910F91C3
:1019B00008950F931F93CF93DF93843030F56430F5
:1019C00020F54C3010F5C42FD0E0CC0FDD1F28E1FE
:1019D000629FC00DD11D112430E6839FC00DD11D23
:1019E0001124CE0187960E947432082F10E0102F28
:1019F0000027CE0188960E9474329801282BC901D5
:101A0000DF91CF911F910F91089590E080E0F8CF82
:101A1000462F2091AD033091AE03232B91F47E3FEE
:101A200039F46E3F71F48091EF019091F0010895C7
:101A3000843038F4743028F46C3018F4672F0C9428
:101A4000D90C90E080E00895CF93DF930E94080DB9
:101A5000EC0182389105A9F1D8F58133910509F49B
:101A600096C048F58932910509F48AC08A9709F42D
:101A700095C0C11521E5D20708F0BCC0C11530E5FD
:101A8000D30708F014C1C83ED10508F09CC0C03E81
:101A9000D10560F5C83AD10508F087C0C53AD1052F
:101AA00008F0FDC0C130D10509F12097F9F0C4302C
:101AB000D105E0F440C08533910509F45AC0C997B7
:101AC000C1F680917603837089F0C0EED0E00EC03D
:101AD000833E910599F170F4803E910501F1823EBB
:101AE000910539F68091760382FD21C0CE01DF9108
:101AF000CF910895863E910561F1873E910571F180
:101B0000843E910509F0B5CF8091770381FFEECF38
:101B100080917603C7EED0E084FD0DC0E7CF8091C1
:101B2000760380FD12C19091770390FFDFCFC3EE63
:101B3000D0E084FFDBCFD0E0C0E0D8CF8091760347
:101B400082FD06C19091770390FDBFCF84FFCECF79
:101B5000F2CF8091760383FDDDCFC8CF80917603ED
:101B600083FDF9C09091770391FFF0CFC4EED0E0F0
:101B7000BDCF8091760385FFB9CFC9E2D0E0B6CF63
:101B80008091760385FFB2CFC5E3D0E0AFCF8091DF
:101B9000760386FFABCFCAE2D0E0A8CF8091760370
:101BA00086FFA4CFC1E3D0E0A1CFCF3BD10518F68B
:101BB000C85AD0E0CC0FDD1FC15DDE4F0990D8813F
:101BC000C02DD46493CFC11540E2D40758F4C11599
:101BD00081E0D80708F08ACFC03FD10508F4ABCF29
:101BE000D06584CFC11590E4D90708F4A4CFDF7085
:101BF000D06A7CCFC11525E5D20700F5C11534E5C3
:101C0000D30708F08AC0C11543E5D40708F071C0B6
:101C1000C11582E5D80708F467C0CE018370992703
:101C200021E030E002C0220F331F8A95E2F7C6950B
:101C3000C69580E2C89FE001112452C0C11599E504
:101C4000D907A8F4C11528E5D20708F06BC0C11563
:101C500036E5D30708F06FCF8C2F0E94160CC82FE3
:101C6000D0E0DC2FCC27CC27DF71D0623FCFC1156D
:101C70004AE5D40708F45BC0CE0190568115904226
:101C800008F059CF8D2F8F710E94160C90E0982F7D
:101C9000882788279F719C012C2BE901E6CFC55A24
:101CA000D0E0C45DDE4FC881D0E0D0641FCFCE014C
:101CB000E4E096958795EA95E1F783702C2F2695B9
:101CC0002695237040E2249F90011124382B8C2FFD
:101CD0008370C1E0D0E002C0CC0FDD1F8A95E2F72F
:101CE000C22BD32BDC6802CFDC2FCC27C16FD06A8C
:101CF000FDCECE018370992721E030E002C0220F93
:101D0000331F8A95E2F7C695C69590E2C99FE00118
:101D10001124C22BD32BDA68E9CEDC2FCC27C46F79
:101D2000D06AE4CEDC2FCC27C06FD06ADFCE8C2FF8
:101D30008F700E94160C34E0D695C7953A95E1F75E
:101D4000CF709C2FEC01D069D1CEC9E3D0E0CECECC
:101D5000C2EED0E0CBCEC6EED0E0C8CEBF92CF92DE
:101D6000DF92EF92FF920F931F93CF93DF938C013B
:101D7000C090DE03D090DF03E090E003F090E10339
:101D800080914A0390914B03A0914C03B0914D0375
:101D9000C82AD92AEA2AFB2ACFE1D0E0BC2ED701F3
:101DA000C6010C2E04C0B695A795979587950A9401
:101DB000D2F780FD0EC0219788F7B12C8B2DDF91D3
:101DC000CF911F910F91FF90EF90DF90CF90BF9038
:101DD0000895B8018C2F0E94240D019761F3EECF76
:101DE000CF93DF93EC010E94AE0EBE01DF91CF9145
:101DF0000C94240D0E94F00E0C9443071F93CF9374
:101E0000DF9300D000D00F92CDB7DEB749835A835D
:101E100089819A816623B9F02223A9F00E94AE0E2F
:101E2000182F682F89819A810E94DE0669817A8144
:101E3000812F0F900F900F900F900F90DF91CF9107
:101E40001F910C94080D0E94B106182FEFCFCF936D
:101E5000C0917703C2FB992790F9981781F080FB16
:101E6000C2F9C09377036091760384E090E00E940A
:101E700088326C2F82E290E0CF910C948832CF911F
:101E800008950F931F93CF93DF9302E213E0C7EA05
:101E9000D1E0CE010E947432F80161918F01681780
:101EA00019F0CE010E9488322196C93CF1E0DF078B
:101EB00081F7DF91CF911F910F910895E2E2F3E056
:101EC000128E138E8FEA90E09183808385E0848F59
:101ED00088E893E1938382832CE231E03583248385
:101EE00082E390E09783868385E090E09187808706
:101EF0008AE090E09387828744E150E055874487E9
:101F00003787268724E630E0318B208B28E030E0CD
:101F1000338B228B28E230E0358B248B28EC30E0A9
:101F2000378B268B318F208F158E978F868F80E58C
:101F300090E091A380A30E94410F0C94B30CCF9327
:101F4000DF93C9E6D2E060E0CE010E94883221969C
:101F5000C11584E0D807B9F7DF91CF9108950F93A9
:101F60001F93CF93DF938901843048F5643038F5AF
:101F70004C3028F521153C4531F420910D0130916C
:101F80000E01232BE1F0C42FD0E0CC0FDD1F98E130
:101F9000699FC00DD11D112490E6899FC00DD11DF0
:101FA0001124612FCE0187960E948832602FCE01C6
:101FB0008896DF91CF911F910F910C948832DF9119
:101FC000CF911F910F910895CF93DF9300D00F927F
:101FD000CDB7DEB79091D403943011F589837B831C
:101FE0006A839093E9008FEF9091E800815095FD0E
:101FF00006C095ED9A95F1F700008111F5CF80911B
:10200000E80085FF0DC050E040E063E070E0CE01E5
:1020100001960E9464048091E8008E778093E80026
:102020000F900F900F90DF91CF910895BC0184E045
:102030000C94E40FBC0183E00C94E40F9C0184E059
:102040008093E9009FEF8091E800915085FD06C0E4
:1020500085ED8A95F1F700009111F5CF8091E800A8
:1020600085FF0CC050E040E066E070E0C9010E94CE
:1020700064048091E8008E778093E8000895CF9300
:10208000DF93EC01809119018823B1F180917603EF
:1020900087FF32C060E284E08093E9008FEF909187
:1020A000E800815095FD06C095ED9A95F1F7000086
:1020B0008111F5CF8091E80085FF1BC08091190147
:1020C00070E050E040E0811104C050E040E068E082
:1020D00070E0CE010E9464048091E8008E778093C6
:1020E000E80080E2FE01A2EBB3E001900D928A9538
:1020F000E1F7DF91CF91089568E081E0CDCF81E0F5
:102100008093E00080E28093D8001092C9008FE1B4
:102110009EE40197F1F700C0000087E090EBDC013E
:102120008093E2039093E303A093E403B093E50369
:1021300088E19CE00FB6F894A895809360000FBEEC
:1021400090936000FFCF019708F40895EFE9FFE056
:102150003197F1F700C00000F6CF80919C0380FD1D
:102160000AC0E1EAF1E0118210821282339651E056
:10217000ED3DF507C1F7509A3BB13E7F2BB1216091
:102180004FB7F89481EA91E0FC015191CF0168E0EA
:102190002BB9000000C057FF3BB9550F000000C02D
:1021A00000C000C03BB900C06A9591F7F1E08D3DD9
:1021B0009F0751F74FBF8FE594E00197F1F700C0FB
:1021C000000008951092450380911901E0E8F1E0C4
:1021D000882359F08091760387FF07C08EE1DF01E5
:1021E0001D928A95E9F70C949D0886E0F8CF1F931D
:1021F000CF93DF93CDB7DEB7AA970FB6F894DEBFC3
:102200000FBECDBF86ED93E02091F100DC012D9350
:10221000CD01B3E08E3D9B07B9F78091D7038330A2
:1022200009F471C0B8F4813009F448C0823009F46F
:10223000B2C08091E80083FF3AC18091D6039091AB
:10224000D7039A3008F033C1E92FF0E0EC52FD4C8F
:102250000C943E328A3009F48DC08B3009F470C082
:10226000893039F78091D603813219F78091DA03EA
:102270009091DB03009711F00297D9F68091E80066
:10228000877F8093E8008091E80082FF37C09091BB
:10229000F3008091F200029729F48091F1008B7F86
:1022A000813021F48091F1008093B1038091E800A6
:1022B0008B778093E8000E948E04BBCF8091D60379
:1022C000813A09F0B6CF8091E800877F8093E800DB
:1022D0008091DA039091DB03892B61F460E282EB59
:1022E00093E070E00E9440058091E8008B77809336
:1022F000E8009FCF60E090E080E0F3CF8091D403CE
:102300008111C1CF96CF8091D603813A09F091CF48
:102310008091DA039091DB03892B09F08ACF8091B9
:10232000E800877F8093E8008091E80080FFFCCF81
:10233000809119018093F1008091E8008E77B9CFE8
:102340008091D603813209F074CF8091DA039091A5
:10235000DB03892B09F06DCF8091E800877F8093A4
:10236000E8000E948E048091D803809319010E9496
:10237000E2105FCF8091D603813209F05ACF80916D
:10238000E800877F8093E8000E948E048091D90343
:102390008093B0034ECF8091D603813A09F049CFA4
:1023A0008091E800877F8093E8008091E80080FFBB
:1023B000FCCF8091B003BECF803899F0823809F00D
:1023C00076C08091DA038F70873008F070C08093F8
:1023D000E9008091EB0085FB882780F91092E900E5
:1023E00006C08091D2039091D303911182609091A5
:1023F000E800977F9093E8008093F1001092F1003D
:102400008091E8008E77C0C1882309F4ADC1823085
:1024100009F04DC08091D8038111B1C18091DA03D8
:102420008F702FEF280F263008F041C08093E9000D
:102430002091EB0020FFA3C1933031F48091EB0099
:1024400080628093EB009BC19091EB009061909330
:10245000EB0021E030E001C0220F8A95EAF72093DB
:10246000EA001092EA008091EB008860EACF8111C7
:102470001EC01091D8031F778091E3008078812BD4
:102480008093E3008091E800877F8093E8000E94BA
:102490008E048091E80080FFFCCF8091E30080688B
:1024A0008093E30082E0111183E08093D403809154
:1024B000E80083FF0AC08091E800877F8093E800EE
:1024C0008091EB0080628093EB00AA960FB6F8949F
:1024D000DEBF0FBECDBFDF91CF911F910895805811
:1024E000823028F72091D8033091D9032C3DE3E0C6
:1024F0003E07A1F583E08A838AE289834FB7F89487
:10250000DE01139620E03EE051E2E32FF0E050932D
:102510005700E49120FF03C0E295EF703F5FEF703A
:102520008E2F90E0EA30C0F0C7968D939D932F5F79
:10253000243159F74FBF8091E800877F8093E800EE
:102540006AE270E0CE0101960E9440058091E800A9
:102550008B778093E800ABCFC096E7CF8091DA030A
:102560009091DB03432F55274330510509F44AC0AE
:1025700078F54130510509F485C08BE590E0EEED2A
:10258000F6E04230510509F092CF2091E800277F14
:102590002093E8002091DC033091DD03821793073C
:1025A00008F49C0140E02115310509F070C041118B
:1025B0006EC08091E80082FDC9CF8091D40388234A
:1025C00029F2853019F28091E80083FFF2CFBECF67
:1025D0004132510509F447C04232510509F067CF35
:1025E0008330910508F063CFFC01EE0FFF1FE05927
:1025F000FE4F0190F081E02D83599E4FDC018C91BC
:1026000090E01DC0332721303105E9F02115310557
:1026100079F022303105F9F02330310509F047CF48
:10262000EBE4F7E0E4918E2F90E0EBE4F7E007C0F5
:10263000E1E9F7E0E4918E2F90E0E1E9F7E000971F
:1026400009F435CFA2CFEBE7F7E0E4918E2F90E0CD
:10265000EBE7F7E0F4CFE9E6F7E0E4918E2F90E0C6
:10266000E9E6F7E0ECCF8330910508F020CF880F42
:10267000991FFC01EA58FE4F0190F081E02D89E09E
:1026800090E083CF82E190E0E9E3F7E07ECF8091B4
:10269000D403882309F45ACF853009F457CF8091A9
:1026A000E80083FD53CF8091E80082FD82CF8091C6
:1026B000E80080FF78CF9091F3008091F20021151F
:1026C000310519F08830910550F041E0089709F084
:1026D00040E08091E8008E778093E80064CF4491D9
:1026E0004093F1003196215031090196E8CF8038AE
:1026F00009F0DDCE8091E800877F8093E80080912B
:10270000D5038093F1007CCE8111D1CE1091D803F6
:10271000123008F0CCCE8091E800877F8093E800EB
:102720001093D5030E948E04112311F084E005C09C
:102730008091E30087FDFACF81E08093D40342E0EB
:1027400061EC81E00E94AD0442E261EC84E00E9411
:10275000AD0442E261EC82E00E94AD0442E260EC32
:1027600083E00E94AD04A3CE8091D803813009F0AC
:102770009ECE81E0933009F080E08093D3031092E5
:10278000E9008091E800877F8093E8000E948E0432
:102790008ECE0F931F9341E050E060E070E08A011D
:1027A0009B0104C0000F111F221F331F8A95D2F70F
:1027B000C901B8010E9456091F910F910C94E210B3
:1027C0007F928F929F92AF92BF92CF92DF92EF92C1
:1027D000FF920F931F93CF93DF93CDB7DEB764972C
:1027E0000FB6F894DEBF0FBECDBFA0900D01B09024
:1027F0000E0181E090E090930E0180930D018AE735
:10280000C82E83E0D82E00E0760110E015C0F40158
:1028100025913491472D612F802F0E94AF0F82E0C8
:10282000880E911C7394ECE07E12F1CFF8E1EF0E6C
:10283000F11C1F5F143019F04701712CE8CF0F5FB6
:1028400080E6C80ED11C0430F9F60E945E0F1A8291
:1028500019821C821B821E821D8218861F8288ECB0
:1028600090E09A87898709EC11E04AE050E0B801CE
:10287000CE0101960E94AC32065F1F4F0931E2E0A3
:102880001E0799F77E01FBE0EF0EF11C8AE0F701CD
:1028900011928A95E9F74AE050E0B801C7010E9419
:1028A000AC32065F1F4F0936F2E01F07A1F7B09266
:1028B0000E01A0920D0164960FB6F894DEBF0FBE14
:1028C000CDBFDF91CF911F910F91FF90EF90DF90DF
:1028D000CF90BF90AF909F908F907F9008956AEEB9
:1028E0007EEF90E080E00E94A63260E082E090E01F
:1028F0000E94883260E083E090E00E94883210926B
:102900004A0310924B0310924C0310924D0360E067
:1029100084E090E00E94883260E082E290E00E94D1
:10292000883260E085E090E00E94883260E086E0D6
:1029300090E00E9488326FEF87E090E00E9488323A
:1029400040E050E0BA0188E090E00E949A3260E0F6
:102950008DE090E00E94883240E050E0BA0188E1CA
:1029600090E00E949A3260E087E190E00E94883215
:1029700040E050E0BA018CE190E00E949A3270E0B1
:1029800060E080E290E00E94A63240E050E0BA01B0
:1029900088E190E00E949A3240E050E0BA018FE076
:1029A00090E00E949A3240E050E0BA0183E190E06A
:1029B0000C949A32EBEFE80FEF3308F06AC0F0E0C6
:1029C000E252FD4C0C943E320E946F1481E0089557
:1029D00080919103807F8093910381E08093C60270
:1029E000089580910D0190910E01892B79F30E9439
:1029F000E2102FEF84E39CE0215080409040E1F70B
:102A000000C000000E947F1090919103892F8E7F5B
:102A100090FF81608093910380FDD8CF817F809368
:102A20009103D4CF90919103892F8D7F91FF826084
:102A30008093910381FFCACF809191038160EFCF92
:102A400090919103892F8B7F92FF846080939103F3
:102A500082FDF2CFBBCF90919103892F877F93FFA7
:102A600088608093910383FDE7CFB0CF0E94E2108E
:102A700090917603892F97FB87F98058809376038E
:102A8000A5CF80E00E94C913A1CF8953FBCF8D5100
:102A9000F9CF80E00895CF93C82F882309F4A9C007
:102AA0008238C1F40E94B00781FDA3C089E30E946F
:102AB0007D060E94F8052FEF81EE94E021508040C2
:102AC0009040E1F700C0000089E30E945206CF91D8
:102AD0000C94F8058338A1F40E94B00780FD89C0EA
:102AE00083E50E947D060E94F8052FEF81EE94E0B9
:102AF000215080409040E1F700C0000083E5E5CF21
:102B00008438A1F40E94B00782FD73C087E40E945C
:102B10007D060E94F8052FEF81EE94E02150804061
:102B20009040E1F700C0000087E4CFCF8CEF8C0F1E
:102B3000813A08F0B1C08091C6028130B9F1882392
:102B400059F1823009F44DC01092C60280911901EA
:102B5000882309F492C08091760387FF8EC0EC2F02
:102B6000E695E695E695F0E0E258FE4F828190E02A
:102B70004C2F477021E030E002C0220F331F4A95EE
:102B8000E2F782239323892B09F482C08C2F0E94C1
:102B900052060E94F8057CC0809145038232B1F64E
:102BA0008C2F0E94DA14811124C0D0CF809145036C
:102BB0008232B1F3C43171F038F4CB3049F0C03116
:102BC00061F080E08170EFCFC93221F0C833C9F7DE
:102BD00081E0F8CF1092C602F4CF82E08093C60263
:102BE000F7CFC93221F190F4C43109F120F4C73094
:102BF00089F1CF910895CE51C630D8F7EC2FF0E08F
:102C0000EE5DFE4F80818093C502F3CFCE3401F19B
:102C100040F46AE0CB3469F78091C502CF910C94FF
:102C2000890BC13579F061E0C235B1F3E2CF809113
:102C3000C502882319F01092C502DBCF81E0809392
:102C4000C602D7CF61E08091C502CF910C94390BB9
:102C50006AE0F9CF8EE180930B0182E380930C014F
:102C60008AE08093080184E18093070188E08093E3
:102C7000060188E280930501BCCFE0E8F1E086E838
:102C800091E02191C21709F481CF8E179F07C9F7F0
:102C90008C2F0E947D061BCF80E28C0F883068F459
:102CA000C77021E030E001C0220FCA95EAF7809199
:102CB0004503822B809345030ACFEBE5EC0FE3300D
:102CC00040F4F0E0E45DFE4F808190E0CF910C9401
:102CD0009A07E8E5EC0FE73150F4F0E0EE0FFF1F44
:102CE000E15DFE4F80819181CF910C948407C03FBC
:102CF00008F47FCF8C2F0E94D10ACF910C947608D4
:102D00001F93CF93DF93182FC0914203D0914303B9
:102D1000893321F0C0914003D0914103812F0E945B
:102D20004B15209731F4812FDF91CF911F910C9497
:102D3000E3098FE99FE00197F1F700C000002197B8
:102D4000F0CF0F931F93CF93DF93C42FD22FFC01AB
:102D500082818823A1F04093C1020E94B205909322
:102D6000F2018093F101C77081E001C0880FCA951C
:102D7000EAF7DF91CF911F910F910C947A07109190
:102D8000C102141339C08091F1019091F2010E94A7
:102D9000A30520913A0330913B038217930760F516
:102DA000C0E2CD0F1D17B9F080E2810F883040F4EA
:102DB000177081E001C0880F1A95EAF70E94730727
:102DC000C83048F481E09D2F977001C0880F9A9514
:102DD000EAF70E947A07802F0E948016C83098F484
:102DE000D77081E001C0880FDA95EAF7DF91CF91C3
:102DF0001F910F910C947307C77081E001C0880F79
:102E0000CA95EAF7F3CFDF91CF911F910F91089503
:102E1000FF920F931F93CF93DF938C01EB01F42E5E
:102E20008091040182FF43C08B7F809304018091D5
:102E3000BD022091BF023091C002AB01421B530B77
:102E40009A01409100015091010124173507A8F41F
:102E50000E944B15809104018D7F80930401809125
:102E60004003909141030E94A3108091BD020E94F3
:102E7000E30982E00E94C90524C090914603926054
:102E8000909346030E944B158091040182608093C9
:102E9000040180913D0385FFE2CF86FDE0CFFF2056
:102EA000F1F2DF91CF911F910F91FF900895802F44
:102EB0000E94E3098091BD029091BE0280179107A4
:102EC000C1F20E94F805D093C002C093BF02E9CFBF
:102ED000AF92BF92CF92DF92EF92FF920F931F9328
:102EE000CF93DF93EC018AE0A82E2881222309F4F6
:102EF0008CC02130C9F599818A81913021F42296C4
:102F00000E94801605C0923029F422960E944B152B
:102F10002196EBCF933021F422960E94E309F8CF5B
:102F2000943011F02196F4CF229630E020E0AE01EB
:102F30004F5F5F4F8053990B8A30910550F02150BD
:102F4000310930F38FE99FE00197F1F700C00000ED
:102F5000F6CFA29EB001A39E700D11249C01260FF6
:102F6000371F8981EA01E3CFE22FF0E0E650FE4F00
:102F7000B490822F86958695869590E0FC01E65167
:102F8000FE4FE4902770F12C022E02C0F594E794D6
:102F90000A94E2F731E0E322FF24FC01E652FE4FFF
:102FA000C490D12C022E02C0D594C7940A94E2F7A3
:102FB00031E0C322DD24FC01E653FE4F049110E012
:102FC00002C0159507952A95E2F701701127E114C3
:102FD000F10419F081EE0E944B15C114D10419F0CF
:102FE00086EE0E944B158B2D0E948016CD2819F07D
:102FF00086EE0E94E309EF2819F081EE0E94E309B2
:10300000012B09F485CF8CE27BCFDF91CF911F910B
:103010000F91FF90EF90DF90CF90BF90AF90089509
:10302000CF93DF93EC01805E9109089720F069E669
:1030300077E0209711F46AE777E0CE010E94590CFF
:103040008C2FDF91CF910C944B15CF939091B702B9
:10305000992321F0811116C01092B702CF910895E3
:10306000EC2FF0E0EE0FFF1FE755FD4F80819181BF
:103070000E9410180E94F805CF5F8091B702C81710
:1030800078F3EACFC0E0F9CF8F929F92BF92CF92B0
:10309000DF92EF92FF920F931F93CF93DF93CDE5D3
:1030A000D1E008E713E081E6E82E81E0F82EB12CAC
:1030B000CC24C394D12C8991F894E82FE295EF7039
:1030C000F0E021A18F70A60102C0440F551F8A9520
:1030D000E2F7CA01922F982B91A392A180958923A0
:1030E00082A3789400C0E1E6F1E030E020E0912C8A
:1030F000812C4191A42FA295AF70B0E090968C9155
:1031000090E04F7002C0959587954A95E2F780FD53
:103110005DC0C601022E02C0880F991F0A94E2F713
:10312000882A992A2F5F3F4F2C30310511F7FE0175
:10313000319780810E94FF0B50EA5A95F1F7F80110
:10314000808191818816990609F443C0918280821A
:1031500081E0B82A0E5F1F4FEC16FD0609F0ABCFD9
:10316000BB20C9F181E08093A0010E94B205909339
:103170009F0180939E0180919E0190919F010E94EA
:10318000A305069760F1809178039091790390935D
:10319000A2038093A10380917A0390917B03909383
:1031A000A4038093A30380917C0390917D0390936B
:1031B000A6038093A50380917E0390917F03909353
:1031C000A8038093A7031092A00109C090E080E0BB
:1031D000A7CF80E0BECF8091A0018111CCCF80919C
:1031E000020110E006E18F3F09F063C08091030106
:1031F00081116AC080913D0380FF1CC08091040151
:1032000082FF18C00E94B2052091BF023091C00217
:10321000AC01421B530B2091000130910101421778
:10322000530740F041E0BC018091BD029091BE0285
:103230000E9408178B2DDF91CF911F910F91FF9066
:10324000EF90DF90CF90BF909F908F900895029F56
:10325000F001039FF00D1124E750FE4FE288F38840
:10326000E114F10421F4E0903A03F0903B03029F53
:10327000E001039FD00D1124C750DE4F8E818823BB
:10328000B9F08D859E850E94A305E816F90680F4A5
:10329000109F700111248989811105C0C7018750D1
:1032A0009E4F0E94BC07C70181509E4F0E94DD07C0
:1032B0001F5F212F30E080910201082E000C990B36
:1032C0008217930724F692CF8091B8029091B902A9
:1032D000009709F48FCF0E94A30520913803309105
:1032E00039032817390708F085CF81E00E94251897
:1032F0000E9422087FCFCF92DF92EF92FF926B0164
:103300007C010E946708B701A60188E090E0FF9069
:10331000EF90DF90CF900C949A328F929F92AF9261
:10332000BF92CF92DF92EF92FF920F931F93CF93B2
:10333000DF93D82FC62FD42E822EC0909C03C0FEC0
:10334000B4C08C2D8E7F8230E1F4E42FF0E0E6589B
:10335000FD4F611135C02491F22FE22FC0FE11C044
:10336000A1EAB1E08DED91E01196EC9311972C93C9
:103370001296FC93129713968A179B07A9F70E943F
:10338000AD10D0939D03C0939E03D0929F038820DD
:1033900009F48BC060919C0370919D0380919E0302
:1033A00090919F03DF91CF911F910F91FF90EF902C
:1033B000DF90CF90BF90AF909F908F900C947B192F
:1033C000E62EF12CE4919E2E0E2F10E026E0D29FE7
:1033D000C00111242FEF30E0B9010E9416328D2F69
:1033E00090E0880F991FF5E5F69FA001F79F500D1B
:1033F0001124841B950BB82EBB0CB80EA9014E19D5
:103400005F09409FC001419F900D509F900D112476
:10341000F92FCB9DA0011124452F5527D901A41BBD
:10342000B50BA09FA001A19F500DB09F500D11247E
:10343000D901AB19B1095D01AE9CD001AF9CB00DB3
:10344000BE9CB00D1124AB2FBB272A1B3B0B209F2A
:10345000D001219FB00D309FB00D11242B2F623071
:103460007105A1F050F46115710509F477CF613051
:10347000710581F0292FF52F71CF6430710569F046
:1034800080F06630710509F469CFF4CF2E2FE92F53
:10349000FB2F64CF2E2FE52F61CF292FFE2FEB2F8F
:1034A0005DCFE92FF92D252F59CFDF91CF911F91B6
:1034B0000F91FF90EF90DF90CF90BF90AF909F90D3
:1034C0008F900895ECE9F3E0438121E1421B08F479
:1034D00040E021E0628181810C948D19ECE9F3E0F8
:1034E000438121E1420F08F44FEF21E062818181A5
:1034F0000C948D19ECE9F3E0628121E1621B08F480
:1035000060E021E0438181810C948D19ECE9F3E0C6
:10351000628121E1620F08F46FEF21E04381818134
:103520000C948D19ECE9F3E0818121E04381628103
:1035300088500C948D19ECE9F3E0818121E04381FE
:103540006281885F0C948D198091A003882319F003
:1035500081508093A00360919C0370919D038091A2
:103560009E0390919F030C947B198091A00383305C
:1035700018F48F5F8093A00360919C0370919D036A
:1035800080919E0390919F030C947B1980919C03E2
:1035900080FF19C08170826080939C03662351F084
:1035A00060919C0370919D0380919E0390919F0375
:1035B0000E947B1920E040919F0360919E038091BF
:1035C0009D030C948D19089580919C0386958150DC
:1035D00009F481E061E00C94C61A61E081E00C948A
:1035E000C61AECE9F3E083E0808311828FEF8283D7
:1035F0008383148260817181828193810C947B1911
:103600009B01883070F49AE0899FB0011124675EB5
:103610007D4F4AE050E0C9010E94643290E080E0B2
:1036200008958FEF9FEF08952F923F924F925F92F0
:103630006F927F928F929F92AF92BF92CF92DF92C2
:10364000EF92FF920F931F93CF93DF93CDB7DEB727
:1036500064970FB6F894DEBF0FBECDBF7C01DC01CE
:1036600013964D915C91149711966C9111978C91D2
:103670000E942E078111EBC021E0F70140815181AA
:103680006281738184810E94FE0E8C01D7011296A3
:103690008C9181117EC0F70182818111BAC0003105
:1036A000BFE51B0709F463C10131EFE51E0709F40B
:1036B00062C1980137552F3F310511F008F06AC1FA
:1036C00040910201042E000C550B4217530714F4CD
:1036D0002093020196E1929F5001939FB00C112418
:1036E000F501E750FE4F6F01808BD70112969C9138
:1036F0008681992309F441C1128701878F5F8683F0
:103700000E94B205F60196878587809149038783D9
:103710008091460390914503892B80870190F08129
:10372000E02D309741F0D60154966D917C91C50102
:1037300081509E4F09951093F8010093F701409036
:103740000301442009F431C11092BC021092BB0263
:10375000512C65E0362E88248394912C22242394C6
:10376000A090BB02B090BC02F8E0AF16B10408F420
:1037700086C18091BA02882309F439C20E94B20539
:103780009093B9028093B8021092BA02511053C0BC
:103790000CC1809102018F3F09F47DCFF9EFCF2E4C
:1037A000F1E0DF2EB12CA12C992493948091020199
:1037B000082E000C990B8A159B050CF46CCFD601D2
:1037C00016968C9116978823E9F019968D919C9105
:1037D0000817190739F48091F7019091F80108173B
:1037E000190781F0F6019786148703878189811173
:1037F00003C0C6010E94BC07C60106960E94DD07F1
:1038000010924603FFEFAF1ABF0A26E1C20ED11C89
:10381000CDCF980122513F452031310508F087C7AF
:103820008FEF93E00E947432EEEEDE2ED00E09E6AA
:1038300012E0882389F180912103877041F0D7013C
:1038400012968C91882319F082E00E9403096496F5
:103850000FB6F894DEBF0FBECDBFDF91CF911F91A1
:103860000F91FF90EF90DF90CF90BF90AF909F901F
:103870008F907F906F905F904F903F902F90089522
:10388000011534E01307B9F2C8010E9474328111A6
:1038900001C0DA940F5F1F4FD110F2CF19821A8244
:1038A0001B821C82CC24CA9448014FEF841A940ACC
:1038B000C8010E94743289831A82882309F4BBCF1D
:1038C000813009F048C0580152E0A50EB11CC40176
:1038D0000E947432982E8A83882309F4ACCFC501E4
:1038E0000E947432D82E8FEF890D833068F458010E
:1038F00083E0A80EB11CDB82DD2021F0CE01019611
:103900000E9468178501D0CF94E09912FBCF58012F
:10391000A4E0AA0EB11CC80103960E947432DD20F7
:1039200009F489CF882309F486CF8150990BC89E6A
:103930009001C99E300D1124ED2DE150FF0BCF01F8
:10394000820F931F0197F0F2AFE9BFE01197F1F7F3
:1039500000C00000F7CFCE0101960E946817540105
:10396000D1CF81E00E941F090E94C40864CF81E08A
:103970000E94E008F9CF82E0FBCF882309F4DFCE74
:103980008189882309F4DBCEC50181509E4F0E94B6
:10399000DD07D5CE073FFCE51F0709F05EC0882391
:1039A00009F4CDCE81E08093030180913D0380FF37
:1039B00035C00E94B2056C01F7018281882311F1A4
:1039C0008091040182FF06C040E0B60190E080E0F3
:1039D0000E94081782E00E94C9050B31FCE51F0711
:1039E00009F42AC10C312CE5120709F477C1909132
:1039F0000401892F8E7F90FF81600A313CE5130717
:103A000009F46FC10832110508F071C10E311105BA
:103A100008F0B3C10430110508F07CC1033FFCE598
:103A20001F0709F4E2C108F0CAC1083D3CE51307CD
:103A300009F4D5C1093D4CE5140709F4E8C1073D77
:103A40005CE5150709F0FDC006E221EE41EE67EDE9
:103A50007CE5C7010E94A116EECE083F2CE51207B7
:103A600009F072C6882309F46ACE109203011092FD
:103A7000B9021092B80281E00E94251896CF3A9CB4
:103A8000F0013B9CF00D1124E25BFC4FBE01655F31
:103A90007F4F80810E94001B892B61F0712C572879
:103AA0008091BB029091BC0201969093BC028093DE
:103AB000BB0256CEFE013B9690E080E066246A94FD
:103AC000282F419151914115510589F1041715078E
:103AD00009F4682E01968430910591F724E03FEFB8
:103AE0006316E1F2D70112967C903A9CC0013B9C90
:103AF000900D1124FC01E25BFC4F6F018481A40155
:103B000002C0440F551F2A95E2F79A01215031094E
:103B10007720A1F1A40101C0440F6A94EAF7842B35
:103B200084838F778217130631F0742CB8CF8230DC
:103B300008F4B4CFD4CF80E00E942518D6011496A3
:103B40008C911497806814968C93149712968D918B
:103B50009C91009729F00E9410182092BA029FCFE2
:103B6000BE016F5F7F4F8091BB020E94001B892BBB
:103B7000A1F789859A850E94E827EFCF8F77821772
:103B8000130631F482819381009719F10E94900C01
:103B90003A9CF0013B9CF00D1124E25BFC4F448108
:103BA000242F30E0062C02C0359527950A94E2F7C1
:103BB00020FF74CFC40101C0880F6A94EAF7809592
:103BC0008423848387FF6ACF803809F0AECF1482C4
:103BD000ACCFBE016F5F7F4F8091BB020E94001B84
:103BE000892BB1F689859A850E94B927D1CF5110CA
:103BF00006C081E00E9425180E942208D6CED70177
:103C000012968C91882309F416CE0E94B2059093E7
:103C1000B9028093B802E091B702E73008F00BCE0A
:103C200081E08E0F8093B702F0E0EE0FFF1FE755A3
:103C3000FD4F11830083FFCD80910401816080934B
:103C40000401F7013281332309F48DC51092C102BA
:103C50000230FCE51F0708F4B8C506312CE5120751
:103C600030F0C8018A5F9C45099708F0AEC50E94F4
:103C7000A50C909377038093760300313CE51307FE
:103C800009F473C108F006C108305CE5150709F4B2
:103C900062C108F0D5C004309CE5190709F453C18E
:103CA00008F0BBC00230BCE51B0709F446C1809197
:103CB0007603826003301C4509F442C160917603AB
:103CC0001091770384E090E00E948832612F82E2B5
:103CD00090E00E9488320E94E210ADCD80910401F4
:103CE0008E7F8093040182E00E94C905AACF093328
:103CF000110560F40D32110520F40B32110509F0A5
:103D00008DCE80913D0382FD89CE08C00436110519
:103D1000C1F384CE80913D0384FD80CED7011296FD
:103D20008C91882309F445C08091040180FF76CEF0
:103D300090913D0391FD04C02091450321116ECE69
:103D400095FF26C096FD02C081FD22C02091BF02D2
:103D50003091C002F601E21BF30BE83CF105C0F420
:103D60002091BD023091BE020217130789F481FD34
:103D700009C0802F0E944B155ECD80913D0383FDCD
:103D80004DCECCCF80914603826080934603F1CF25
:103D90001093BE020093BD02D092C002C092BF0237
:103DA0008091040184608093040182E00E940309F1
:103DB00042CD40E0B601C8010E9408173CCD053F46
:103DC0008CE51807F1F0B8F0063FACE51A0709F0EA
:103DD00038CF07E225EE46EE66EF7CE53ACE07E205
:103DE00025EE45EE68ED7CE534CE06E221EE40EEB0
:103DF00063EF7CE52ECE07E225EE44EE64EF7CE532
:103E000028CE06E221EE42EE65EF7CE522CE08E206
:103E100021E045EE69ED7CE51CCE80917603806162
:103E20000630FCE51F0709F48BC08091760388609B
:103E300007301C4508F484C080917603806280C0FE
:103E4000809176038D7F0C303CE5130709F478C030
:103E500070F4809176038C600A305CE5150709F4F4
:103E60006FC008F47CC0809176038E7F69C080911A
:103E70007603877F0E309CE5190709F461C08091B5
:103E800076038B7F0F301C4508F45AC0809176036F
:103E90008F7E56C00B3FBCE51B0709F458C030F5B8
:103EA0000331FCE51F0709F468C078F401313CE5F3
:103EB000130709F45EC002311C4509F0FFCE0E94D1
:103EC000E210809176038F773BC005315CE51507E2
:103ED00009F45BC008F46FC08091770381600A3FEA
:103EE0001C4509F0EBCE80937703E8CE0F3FACE59D
:103EF0001A0709F446C088F4809177038D7F0D3F3F
:103F0000ECE51E0781F3809177038E7F0E3F1C4501
:103F100050F3809177038360E6CF01302DE51207DF
:103F200009F452C0F0F160E002301D4509F0C6CE40
:103F30008EE090E00E948832C1CE8091760381604D
:103F400080937603BBCE809176038460F9CF809115
:103F500077038260C8CF809176038064F1CF0E949E
:103F6000E210809176038068EBCF809176038F7D9D
:103F7000E7CF809176038F7BE3CF80917603837FB9
:103F8000DFCF809177038C7FAECF8091760382FB69
:103F9000992790F921E0922790FB82F990FB83F911
:103FA000CFCF80917703982F909591708E7F892B3A
:103FB00090FB81F998CF0E94E21090917603892FAF
:103FC00097FB87F98058BCCF61E0B2CF8091C202E5
:103FD000811104C089E20E945206F4C385E3FBCF3D
:103FE0004AE75AE166E87AE1073C3CE5130709F441
:103FF00055C008F460C046E85AE16AE77AE14EC06D
:104000000D3C5CE5150709F460C0A8F444EA5AE1E8
:1040100065EB7AE10B3CACE51A0709F43FC04EE6CC
:104020005AE162E67AE10C3C1C45C0F145EB5AE1ED
:1040300064EA7AE133C0063DECE51E0708F4FBCBE9
:104040000D35100709F4F7CBE1C380919C0380FF85
:1040500019C08E7F80939C0360919C0370919D0397
:1040600080919E0390919F030E947B192FEF30E770
:1040700042E0215030404040E1F700C000000E9483
:10408000AD10D9CB816080939C0361E086950E943E
:10409000C61AD1CB44EE5AE16DEE7AE10E94620875
:1040A000CACB4DEE5AE164EE7AE1F8CF42E95AE12B
:1040B0006BE97AE1F3CF4BE95AE162E97AE1EECFBD
:1040C00042E65AE16EE67AE1E9CF61E081E0DFCFD6
:1040D0000B35BDE51B0701F10C351D4509F0A6C3E5
:1040E0008091770382FB882780F991E089270E94DD
:1040F000270F9CC30E94E210FFEF24E33CE0F15045
:1041000020403040E1F700C000000E947F100E9474
:104110006F1491CB81E0EBCF80E0E9CFC8010E9422
:10412000B106D82E92C3E12FEF70BE2E812F807F73
:1041300019F0B29420EFB222CC20C9F0BB2069F074
:1041400080E2800F883010F081100BC08091450311
:10415000B82AB09245030E94F805802F0E944B15A3
:1041600016C080914603B82AB0924603F4CF802F40
:104170000E94E309BB2059F080E2800F883010F0E4
:1041800081103EC08B2D0E94D0050E94F805492D5C
:104190004850550B4430510510F40E94B007C80137
:1041A0000E94430781119DC21092C4021092C30263
:1041B000AA20A9F08091210380FD11C0F70112828D
:1041C0008595859585950E941F09C7010E94141B3E
:1041D000809121038595859585950E94E00820E0D2
:1041E000D7014C9111965C91119712966C91129790
:1041F00013967C91139714968C910E94FE0E27CBF8
:104200008B2D0E94C905C1CFF12FFF70BF2E812FCA
:10421000807F803219F0B29490EFB922882031F17A
:1042200044244394841409F46FC0CC2009F479C069
:10423000DD2009F449C020E0D7014C9111965C9132
:10424000119712966C91129713967C91139714966E
:104250008C910E94FE0E80913F0381FD7ECFF7017D
:10426000858180FF7ACF8F7085832EC0CC2071F13D
:10427000D11006C0809149038B290E947A0787CF0D
:1042800055245394D51013C08091770382FD7FCFBE
:1042900080914903B82AB81609F479CF0E94B20573
:1042A0009093480380934703B092490370CF809165
:1042B0003E038230F8F2D812DDCF0E94BE05809115
:1042C0001E03B812B0921E038B2DD7CFD11006C09B
:1042D0000E94BE058B2D0E94730759CF80913E032B
:1042E00066246394D6100BC0823008F450CF8091BE
:1042F00045038B2109F44BCF0E944C06E9CF823055
:1043000038F38D11E5CF43CFCC2031F085E0782E06
:104310007D1408F43CCFD8CF24E02D1508F437CF16
:10432000D9CFDD20B9F2F9E38F12D3C180914203D6
:10433000909143030E94A310802F0E94E30927CF8E
:10434000812F86958695837061F0813009F01FCFAB
:10435000C8019370C11002C090E080E00E94840701
:1043600016CFC8019370C11002C090E080E00E9497
:104370009A070DCF802FCC2039F00E94D10A0E94DD
:1043800076080E94760803CF0E946009FACF812F39
:10439000837009F067C0C110FACE202F22952695B0
:1043A0002770220F220F402F4F7050E070E060E026
:1043B000022E04C0440F551F661F771F0A94D2F7C0
:1043C00080E090E0DC0104FF0FC08FE090E0A0E00F
:1043D000B0E004C0880F991FAA1FBB1F2A95D2F70F
:1043E00080959095A095B095212F269526952370C0
:1043F000223029F1D8F440904A0350904B0360904A
:104400004C0370904D03213069F0842B952BA62B23
:10441000B72BBC01CD0164217521862197210E9413
:104420005609B5CE44295529662977292A013B0129
:10443000482A592A6A2A7B2AC301B201F0CF842B69
:10444000952BA62BB72B40904A0350904B036090BE
:104450004C0370904D03BC01CD0164257525862564
:104460009725DDCF8695CC2011F0812F8170882390
:1044700009F48DCE202F229526952770220F220F2A
:10448000402F4F7050E070E060E0022E04C0440FF7
:10449000551F661F771F0A94D2F780E090E0DC0179
:1044A00004FF0FC08FE090E0A0E0B0E004C0880FF0
:1044B000991FAA1FBB1F2A95D2F780959095A095AA
:1044C000B095212F269526952370223029F1D8F416
:1044D0004090DE035090DF036090E0037090E103B2
:1044E000213069F0842B952BA62BB72BBC01CD0175
:1044F00064217521862197210E94BA0848CE44295B
:104500005529662977292A013B01482A592A6A2A0E
:104510007B2AC301B201F0CF842B952BA62BB72B9E
:104520004090DE035090DF036090E0037090E10361
:10453000BC01CD016425752586259725DDCF212F6A
:104540002F70B22ECC2029F0822F0E941F09802FBD
:1045500094CE802F0E9473078B2D0E94E00817CE07
:10456000802F32EF831609F45BC0381578F040EFE6
:10457000841669F151EF851609F44AC0CC2009F47C
:10458000A3C0D110EACD812F8F7147C093EF891658
:1045900009F44BC0A4EF8A12F1CF20913E032230E0
:1045A00008F47AC080911E03CC2009F462C00E94F6
:1045B000D005809121038770843009F04AC00E94A1
:1045C000D705812F8F710E94E008A12CE0CDCC206F
:1045D000D1F0B4E0BD1508F4DACD212F2F7161E0E0
:1045E00070E080E090E004C0660F771F881F991F7D
:1045F0002A95D2F74090DE035090DF036090E003ED
:104600007090E10397CFE5E0ED1508F4C0CDE5CF5C
:10461000812F8F71CC2009F4A0CF0E941F09B7CD44
:10462000812F8F71CC20C9F398CF60E070E0CB016F
:10463000CC2009F461CF212F2F7161E070E080E080
:1046400090E004C0660F771F881F991F2A95D2F744
:1046500053CF80913E03D81608F0B7CFF12FFF71EA
:10466000BF2E8F2F0E941F0963E08B2D0E944009EF
:10467000ACCF90914503982B90934503D21640F010
:104680000E94D7050E944C0664E0812F8F71EECF07
:1046900081E00E94030999CFCC2059F0212F2F717E
:1046A000B22E822F0E941F0963E08B2D0E944009C9
:1046B0006ECD81E00E94030931E03D1508F067CD21
:1046C00082E00E94030963CDDD2041F0893309F4C3
:1046D0002DCE80914003909141032CCE812F8F717C
:1046E0003CCFCC2019F0D1105FCD62CDD1105CCD84
:1046F00020E0D7014C9111965C91119712966C9124
:10470000129713967C91139714968C910E94FE0E2B
:1047100080913F0383FF48CD8091C3029091C402F2
:10472000029709F041CD802F0E9480163DCD0031C7
:10473000FFE51F0709F415C901312FE5120711F034
:104740000C94591B82E00EC9093F3CE5130711F098
:104750000C949F1B882311F40C949F1B80910301E0
:10476000811183C91FC906311C4509F05FC08091C2
:104770004503982F9A7A20913C0320FF04C0482FCC
:10478000447409F090E021FF04C0482F417109F002
:1047900090E022FF04C0482F487809F090E023FF02
:1047A00003C0827209F090E0332309F40FCC81E05A
:1047B000911101C080E08093C20289E2911185E3EA
:1047C0000E947D060E94F80536C806315CE5150793
:1047D00071F2809145038272093C5CE5150709F48A
:1047E0006FCC08F00DCC053CACE51A0709F45ECCA3
:1047F00008F0F6CB033CECE51E0709F44BCC08F0BF
:1048000050CC023C2CE5120709F41FCC0A355DE5BB
:10481000150709F47FCC08F05BCC01159CE519075E
:1048200009F468CC0E3D1C4509F471CCF701828176
:1048300000811181882309F471CCC8010E94AE0E59
:10484000D82E682FC8010E94DE06B8018D2D0E9467
:10485000240D8C01882ED7011296CC9012971596B4
:10486000DC90D2944FE0D422809121038770A1F094
:10487000AC2CCC2091F0812F807F803421F080E21D
:10488000800F883048F082E00E9403098091210364
:104890008770AA24A3948111A12C912E92943FE0B9
:1048A0009322BBE0B91508F472CCE92DF0E0E35E89
:1048B000FC4C0C943E32BF92CF92DF92EF92FF926B
:1048C0000F931F93CF93DF938091CD02807F61F48C
:1048D0008091CA02882341F0C091FF0286E0B82E81
:1048E0008091CE028C130AC0DF91CF911F910F915E
:1048F000FF90EF90DF90CF90BF900895F090C802A6
:10490000E090C902C090CB02D090CC02A6016E2DDF
:104910008F2D0E942E07D0E0811141C0BC9E8001E6
:10492000BD9E100D1124F801E153FD4F51815E1120
:1049300036C040814F1133C08281811130C0E38085
:10494000F480EC18FD0820E06091CA027091CB025F
:104950008091CC020E94FE0E80913A0390913B031D
:10496000E816F906E0F48091CD028F7080618093A3
:10497000CD02F801EC52FD4F80818F708061808301
:1049800088EC92E00E94141BDF91CF911F910F9150
:10499000FF90EF90DF90CF90BF900C943907219655
:1049A000C7709ECF5F926F927F928F929F92AF92CD
:1049B000BF92CF92DF92EF92FF920F931F93CF930C
:1049C000DF93CDB7DEB761970FB6F894DEBF0FBEA9
:1049D000CDBF8C0185E0F801DE011D9601900D929E
:1049E0008A95E1F7D8017C901196EC901197129678
:1049F0006C9088ECA82E82E0B82E8090CB0290902C
:104A0000CC02A4016091C9028091C8020E942E07C5
:104A10008111C7C1F801C380D480F090CA02C601D9
:104A2000881999094C0120E04091C8025091C902AF
:104A3000FF2009F45DC16F2D7091CB028091CC02F3
:104A40000E94FE0E80913A0390913B035090CD025C
:104A50008816990608F00DC14091CB025091CC0206
:104A6000B090C802A090C902852D807F6A2D09F000
:104A7000B9C08B2D0E942E07F62C81112BC0EA1095
:104A800029C07B1027C0611025C0852D8F708061E3
:104A90008093CD0288EC92E00E94141B8091CD029D
:104AA000D80115968C938F2D61960FB6F894DEBFC2
:104AB0000FBECDBFDF91CF911F910F91FF90EF906F
:104AC000DF90CF90BF90AF909F908F907F906F902E
:104AD0005F90089520E04091C8025091C902609112
:104AE000CA027091CB028091CC020E94FE0E80918E
:104AF0003A0390913B03843F9140F8F0A6016E2D5C
:104B0000872D0E942E07811154C081E0862580FFE9
:104B100025C0462D6E2D872D0E940E078823F1F0AB
:104B200088EC92E00E94141B86E0E8ECF2E0DF01E2
:104B30001D928A95E9F7F12CB6CF20E04091C8028A
:104B40005091C9026091CA027091CB028091CC024F
:104B50000E94FE0E80913F0380FDD0CFA6016E2DF6
:104B6000872D0E942E07811126C081E08625B82F4F
:104B7000B170CB2E80FF2DC0462D6E2D872D0E944B
:104B80000E07D82E811125C07D86EE868D859E85E7
:104B90000E94F00E292F22952F70223070F02430C1
:104BA00098F49F7071F0F8019581907F51F4FD2C7D
:104BB0007ACF80E0ACCF80E0DACF9F7011F088230D
:104BC000B1F3805E883098F3C8010E94141BDC2C7E
:104BD000EECF662009F467CF8091CD02816080938B
:104BE000CD02A9CF8B2D0E942E07811115C0EA108E
:104BF00013C07B1011C061100FC0D80115965C92D4
:104C0000C8010E94141B86E0F801A8ECB2E00190F4
:104C10000D928A95E1F747CF7D86EE868D859E853C
:104C20000E94FA0E882309F16620F9F08091CD02E6
:104C3000803270F02091C8023091C90238872F83EA
:104C40001986DB86CA868C87CE0107960E94141BC4
:104C500086E0F801A8ECB2E001900D928A95E1F7A8
:104C60000E945B24FF24F3941ECFC8010E94141BF2
:104C7000F9CF852D807F09F453CF9090C8028090A2
:104C8000C9024091CB025091CC02682D892D0E941F
:104C90002E07811111C0E8100FC079100DC06110EE
:104CA0000BC0F8015582C8010E94141B86E0D50193
:104CB0001D928A95E9F7F7CE7D86EE868D859E85D5
:104CC0000E94FA0E882389F2662079F28091CD0243
:104CD000803208F4BDCF2091C8023091C9023A83D6
:104CE00029831B82DD82CC828E83CE010196AECFDA
:104CF00060E07091CB028091CC020E94FE0E809108
:104D00003A0390913B038816990680F6F62C6620AC
:104D100009F4ABCFD090C802C090C9024091CB0239
:104D20005091CC026C2D8D2D0E942E07811128C030
:104D3000EC1026C07D1024C020E0472D5E2D609130
:104D4000CA027091CB028091CC020E94FE0E80912B
:104D50003F0382FD58CF9091CD0290FD54CF907FBC
:104D600009F451CF8091CD02F8018583903F09F479
:104D700047CF982F907F905F8F70892B858340CF8E
:104D80007D86EE868D859E850E94FA0E811160CF0C
:104D90008091CD0281608093CD02C8010E94141BD6
:104DA00082CE662009F461CF7D86EE868D859E8554
:104DB0000E94FA0EF82E882309F457CF86E0F801F6
:104DC000A8ECB2E001900D928A95E1F78091C802BB
:104DD0009091C9020E94F00E0E945B2464CECF9293
:104DE000DF92FF920F931F93CF93DF93CDB7DEB780
:104DF00067970FB6F894DEBF0FBECDBFF42E4B8B76
:104E0000052F5C8B162F6D8B7E8B8F8BCE88DF886A
:104E1000A601602F8F2D0E942E07811109C080915D
:104E2000C3029091C40201969093C4028093C3027E
:104E30001111109246031A8A198AFD860E871F8760
:104E4000D98AC88A8091240390912503892BC1F0C7
:104E50000E94B20520911F0330912003821B930B07
:104E600020912403309125038217930720F080912D
:104E7000210382FF7AC00E94DE0581110E94BE05D7
:104E800086E0FE013D96DE01179601900D928A950F
:104E9000E1F7CE0107960E94D224811111C086E06D
:104EA000FE013796DE01119601900D928A95E1F789
:104EB0004A855B8568858F810E942E078823A9F02B
:104EC00016E08091FF029091CE0289133BC0679655
:104ED0000FB6F894DEBF0FBECDBFDF91CF911F910B
:104EE0000F91FF90DF90CF9008952091CE0230E097
:104EF000C9010196877099274091FF02481719064A
:104F000099F096E0929FD001939FB00D1124A15388
:104F1000BD4FFE01319601900D929A95E1F7809375
:104F2000CE020E943907CCCF0E94E2101092CE022E
:104F30001092FF0286E0E8ECF2E0DF011D928A9514
:104F4000E9F7BECF819FC001112481539D4F0E947C
:104F5000D224882309F4BBCF8091FF0290E0019610
:104F6000877099278093FF02ACCF82E00E940309EB
:104F700082CFCF93DF9300D000D00F92CDB7DEB7B2
:104F80009093F0018093EF01811520E2920748F49D
:104F90000F900F900F900F900F90DF91CF910C9486
:104FA000900C8EEF89838A831B820E94B2058160F8
:104FB000782F9D838C8349815A816B818D810F90DD
:104FC0000F900F900F900F90DF91CF910C94EF26E0
:104FD000CF93DF9300D000D00F92CDB7DEB7909380
:104FE000F0018093EF01811520E2920748F40F90C1
:104FF0000F900F900F900F90DF91CF910C9410189D
:105000008EEF89838A8381E08B830E94B205816061
:10501000782F9D838C8349815A816B818D810F907C
:105020000F900F900F900F90DF91CF910C94EF267F
:10503000CF93DF93EC010E94E82780914003909189
:1050400041030E94A310CE01DF91CF910C94B927A8
:105050009B01883070F49AE0899FB0011124675356
:105060007E4F4AE050E0C9010E94643290E080E047
:1050700008958FEF9FEF08958F929F92AF92BF9206
:10508000CF92DF92EF92FF920F931F93CF93DF9314
:10509000CDB7DEB72A970FB6F894DEBF0FBECDBFEF
:1050A00009EF11E0F12CE12C82E9C82E88E2D82E1C
:1050B0009CEBA92E98E2B92E28E3822E29E2922EAB
:1050C000F801D182C082B382A28295828482F58A5D
:1050D000E48ABE016F5F7F4F8E2D0E942828892BA6
:1050E00029F489859A85F801938B828BFFEFEF1A5B
:1050F000FF0A0A5E1F4F88E0E816F10409F72A96B6
:105100000FB6F894DEBF0FBECDBFDF91CF911F91D8
:105110000F91FF90EF90DF90CF90BF90AF909F9056
:105120008F9008950F931F93CF93DF938C01862F59
:1051300065EE71E00E942828892BC9F4C091E50131
:10514000D091E601209799F0F8018081833069F4CD
:10515000CE010E941828CE010E941828CE01DF91AE
:10516000CF911F910F910C9418288430B8F7DF91DC
:10517000CF911F910F9108950F931F93CF93DF93BA
:105180008C01EB0165EE71E08C2F0E942828892BA1
:1051900009F064C0FE01FF27D8018C91E352FE4F55
:1051A0008130D9F419969C911997992311F0808335
:1051B0000CC01A969C919923D1F382E08083809150
:1051C000E7019091E8010097D9F48091E501909171
:1051D000E601009709F442C013C08230E9F5199640
:1051E0008C91199781112DC01A968C9181110EC046
:1051F00083E080838091E9019091EA01009719F1A1
:10520000DF91CF911F910F910C94E82784E0808368
:105210008091EB019091EC01009791F78091E5016D
:105220009091E6010097F9F00E9418288091E7011B
:105230009091E801009721F78091E5019091E601B6
:10524000DFCF85E080838091E5019091E6010097B2
:1052500029F00E941828F0CF86E08083DF91CF915B
:105260001F910F9108958091E7019091E801B1CFCE
:105270000F931F93CF93DF938C01EB0165EE71E0E9
:105280008C2F0E942828892BA1F4809140039091B3
:1052900041030E94A310DD27C352DE4F8881F8012D
:1052A00010821882833009F148F4813059F082303D
:1052B00081F0DF91CF911F910F9108958430D1F04B
:1052C0008530B9F78091E5019091E601009789F367
:1052D00006C08091E7019091E801009799F3DF9172
:1052E000CF911F910F910C94B9278091E901909172
:1052F000EA01F3CF8091EB019091EC01009779F7EF
:105300002091E5013091E6018091E7019091E8015B
:1053100021153105D9F2009711F7C901E0CF1F928D
:105320000F920FB60F9211242F933F934F935F93D9
:105330006F937F938F939F93AF93BF93CF93DF939D
:10534000EF93FF93D091E900DF708091EC00C82FBC
:10535000C17080FDC0E81092E9008091F000877F65
:105360008093F00078940E94F7101092E9008091E9
:10537000F00088608093F000CD2BCF70C093E900DF
:10538000FF91EF91DF91CF91BF91AF919F918F915D
:105390007F916F915F914F913F912F910F900FBE31
:1053A0000F901F9018951F920F920FB60F92112415
:1053B0002F933F934F935F936F937F938F939F931D
:1053C000AF93BF93EF93FF938091E10082FF09C0F9
:1053D0008091E20082FF05C08091E1008B7F809385
:1053E000E1008091DA0080FF24C08091D80080FF26
:1053F00020C08091DA008E7F8093DA008091D900FE
:1054000080FF9BC080E189BD82E189BD09B400FEB7
:10541000FDCF81E08093D4038091AF03811109C057
:105420000E9414040E94DF048091E2008460809353
:10543000E2008091E10080FF17C08091E20080FFD0
:1054400013C08091E2008E7F8093E2008091E200A1
:1054500080618093E2008091D80080628093D800C0
:1054600019BC85E08093D4038091E10084FF29C0BA
:105470008091E20084FF25C080E189BD82E189BD81
:1054800089B5982F917080FFFBCF8091D8008F7DD8
:105490008093D8008091E1008F7E8093E10080911D
:1054A000E2008F7E8093E2008091E2008160809331
:1054B000E2008091D503882309F445C084E08093FD
:1054C000D4038091E10083FF27C08091E20083FF35
:1054D00023C08091E100877F8093E10082E0809388
:1054E000D4031092D5038091E1008E7F8093E10078
:1054F0008091E2008E7F8093E2008091E2008061E3
:105500008093E20042E060E080E00E94AD04809180
:10551000F00088608093F000FF91EF91BF91AF9110
:105520009F918F917F916F915F914F913F912F91BB
:105530000F900FBE0F901F90189519BC1092D403B6
:105540001092AF0376CF8091E30087FD93E09093B4
:10555000D403B7CFCDB7DEB7E4970FB6F894DEBF6C
:105560000FBECDBF84B7877F84BF0FB6F894A895D0
:1055700080916000886180936000109260000FBE8F
:1055800080E890E00FB6F8948093610090936100FA
:105590000FBE85B7806885BF85B7806885BF8EE9F7
:1055A00095E090937D0180937C010E943C281092AD
:1055B0004F0310924E0381E090E090935403809348
:1055C000530382E090E0909359038093580383E063
:1055D00090E090935E0380935D0384E090E090936D
:1055E00063038093620385E090E090936803809367
:1055F000670386E090E090936D0380936C0387E0EF
:1056000090E090937203809371030E94B30C0E9408
:1056100014040E94DF048091E20084608093E20021
:1056200078948091D4038823A1F01091E9001F7031
:105630009091EC00892F817090FD80E8182B1092DA
:10564000E9008091E80083FD0E94F7101F7010931D
:10565000E90082E084BD93E095BD9AEF97BD809309
:105660006E0087E90E94FF0B85E30E94FF0B87EF26
:105670000E94FF0B84E90E94FF0B01E611E0ADE6FA
:10568000EA2EA1E0FA2ED8018D918D010E94FF0B28
:10569000E016F106C1F71092790310927803109288
:1056A000A2031092A10310927B0310927A0310922E
:1056B000A4031092A30310927D0310927C03109216
:1056C000A6031092A50310927F0310927E031092FE
:1056D000A8031092A70390E080E00E9482328A3EE5
:1056E0009E4F11F00E946F1482E090E00E9474328D
:1056F000809391030E94A50C909377038093760387
:105700000E944418EFE3FCE93197F1F700C0000074
:105710000E9444188091A10380FF17C06FEF83E2BD
:1057200090E00E9488326FEF84E290E00E9488321D
:105730006FEF85E290E00E9488326FEF7FEF90E09C
:1057400080E00E94A6320E947F1083E090E00E94D9
:105750007432682F70E090E080E00E94560983E286
:1057600090E00E9474328D3E09F0F3C584E290E02F
:105770000E947432813209F0ECC585E290E00E940B
:1057800074328A3D09F0E5C580918003811134C0EF
:1057900090E080E00E9482328A3E9E4F21F00E947B
:1057A0006F140E94F11A88E090E00E947C326093AE
:1057B0009C0370939D0380939E0390939F036E7F41
:1057C00071F40E94F11A88E090E00E947C326093AC
:1057D0009C0370939D0380939E0390939F030E946C
:1057E000670880919C0380FF04C060E086950E945A
:1057F000C61A81E0809380038FE091E0909382034A
:105800008093810378E1672E712CE0E45E2EF9EA43
:10581000CF2EF3E0DF2E8E010F5F1F4F8091D40358
:1058200050E1E52E62E1F62E853009F421C10E9497
:105830004418882359F08FB7F8944091A9035091E8
:10584000AA036091AB037091AC038FBFA1EAB3E0F0
:10585000E2E9F3E0F12CE12C7E2D8D919D912191D7
:1058600031912817390709F413C12827392760E037
:10587000AA24A394B12CA9014A215B21452B09F448
:1058800001C16BA77CA79C012A213B2191E0232B1E
:1058900009F490E09DA70E94B2058160782F9FA730
:1058A0008EA74BA55CA56DA58FA50E94EF26F701DD
:1058B000EE0FFF1FEE56FC4F80819181A826B9267E
:1058C000B182A08286E0EAE8F3E0D80101900D926F
:1058D0008A95E1F7A0908C03B0908D03E0908E0341
:1058E000F0908F0310928C0310928D0310928E0310
:1058F00010928F038A2D8B2991F0809188039091CB
:1059000089030E94A305AC0190918703992309F4B0
:10591000D8C080910C018417150608F4E0C08E2DC4
:105920008F2991F080918503909186030E94A305B1
:10593000AC0190918403992309F410C180910A016C
:105940008417150608F418C180918C0390918D037B
:10595000892B90918E03892B90918F03892B11F0C5
:105960000E94760886E0F801AAE8B3E001900D9263
:105970008A95E1F70E94B00790919003891721F072
:105980000E94B007809390038091D403843009F083
:1059900045CF83E08093E9008091E80082FF3ECF0D
:1059A0008091E80090E085FF0AC00E94330470E215
:1059B000A72EB12C7801882309F427C191E08091AA
:1059C000E8008B778093E800992309F427CFE090D3
:1059D000AD03F090AE038981E114F10409F423C111
:1059E0008E3F09F0B2C18A81833020F08550833028
:1059F00008F0ABC1EA81EE3008F0A7C1F0E0E75D46
:105A0000FC4C0C943E328091D403843009F1109206
:105A100083030FB6F894A895609260000FBE509271
:105A2000600083B7817F846083BF83B7816083BF59
:105A30007894889583B78E7F83BF0FB6F894A89526
:105A400080916000886180936000109260000FBEBA
:105A50008091D303882361F00E944418E1EAF3E0C7
:105A600081919191892B09F026C4CE16DF06C1F7EA
:105A70008091D403853009F4C6CF0E94E2100E94C1
:105A8000B007D5CE6F5FAA0CBB1C6C3009F0F3CE0B
:105A90002FEFE21AF20A44E0E416F10409F0DCCE3A
:105AA0008FEF88AB89AB1AAA0E94B2058160782F6C
:105AB0009CAB8BAB48A959A96AA98CA90E94EF2677
:105AC00001CF20910B018AE0289F90011124241717
:105AD000350708F024CF9F5F9093870302C09F3F54
