:100000000C944E020C9495020C9495020C9495025B
:100010000C9495020C9495020C9495020C94950204
:100020000C9495020C9495020C946D220C9441232F
:100030000C94911D0C9495020C9495020C949502CD
:100040000C9495020C9495020C9495020C949502D4
:100050000C9495020C94E81D0C9495020C94950256
:100060000C9495020C9495020C9495020C949502B4
:100070000C9495020C9495020C9495020C949502A4
:100080000C9495020C9495020C9495020C94950294
:100090000C9495020C9495020C9495020C94950284
:1000A0000C9495020C9495020C9495022B0014006C
:1000B0001A000800150017001C0018000C001200A0
:1000C00013002A00010004001600070009000A00BE
:1000D0000B000D000E000F0033002800E1001D0092
:1000E0001B00060019000500110010003600370043
:1000F00038000100E0000100E300280000000000DB
:1001000000002C00E60029000000010035001E025E
:100110001F022002210222022302240225022602BB
:1001200027024C000100310034002D002E002F006A
:1001300030005100520050004F0001000100290022
:1001400001004600010001000100AD00AE00AC005E
:10015000AB00E5000100E300010001000000000029
:100160000000010001000100000001000100010089
:10017000010001000100010001002400250026000B
:10018000270001002900310234022D022E02010055
:100190000100210022002300A90028000100010025
:1001A000010001000100010027001E001F002000C7
:1001B000AA00010001000100010001000000000090
:1001C0000000010001000100000001000100010029
:1001D000010001000100010001003A003B003C0069
:1001E0003D000100290001000100010001000100A3
:1001F00001003E003F00400041000100E1001E0000
:100200001F00200021002200230042004300440080
:10021000450001000100E10005002C000000000085
:1002200000000600010001000000010000010101C2
:1002300001010101010102020202020202020203A3
:100240000303030303030304040404040404050573
:100250000505050606060606070707070708080836
:1002600008090909090A0A0A0B0B0B0C0C0C0D0DE5
:100270000D0E0E0E0F0F0F1010111111121213137D
:100280001414151516161717181819191A1A1B1BF6
:100290001C1D1D1E1E1F2020212222232424252652
:1002A00026272829292A2B2C2D2D2E2F303132328A
:1002B000333435363738393A3B3C3D3E3F40414296
:1002C000434445464748494A4C4D4E4F505153547C
:1002D000555658595A5B5D5E5F6162646566686930
:1002E0006B6C6D6F7072737577787A7B7D7E8082B0
:1002F000838587888A8C8E8F91939596989A9C9EF9
:10030000A0A2A3A5A7A9ABADAFB1B3B5B7BABCBE08
:10031000C0C2C4C6C9CBCDCFD1D4D6D8DBDDDFE2D5
:10032000E4E7E9EBEEF0F3F5F8FAFDFF10034D001A
:1003300069006E006900730075006200000014031C
:100340005200610069006E006B006500650062008C
:10035000730000000403090409023B00020100A02D
:10036000FA09040000010301010009211101000143
:100370002240000705810308000A09040100010367
:1003800000000009211101000122B60007058203C7
:1003900020000A12011001000000086B72736D0149
:1003A000000102000105010902A10185020901A164
:1003B0000005091901290815002501950875018115
:1003C000020501093009311581257F9502750881E3
:1003D0000609381581257F950175088106050C0AE7
:1003E00038021581257F950175088106C0C0050179
:1003F0000980A101850319012AB700150126B7005C
:10040000950175108100C0050C0901A10185041931
:10041000012AA002150126A002950175108100C0D5
:1004200005010906A1018505050719E029E7150061
:1004300025019508750181020507190029EF1500AE
:10044000250195F075018102050819012905950519
:1004500075019102950175039101C005010906A17D
:1004600001050719E029E7150025019508750181A7
:10047000029501750881010507190029FF1500265D
:10048000FF009506750881000508190129059505E5
:1004900075019102950175039101C00011241FBEE1
:1004A000CFEFDAE0DEBFCDBF04B603FE27C08091F8
:1004B000D6029091D702A091D802B091D90287308C
:1004C000904BA740B04BD1F41092D6021092D702B5
:1004D0001092D8021092D90214BE84B7877F84BFCD
:1004E0000FB6F894A89580916000886180936000B1
:1004F000109260000FBEE0E0F8E3099511E0A0E083
:10050000B1E0E4EAFBE402C005900D92A839B1071E
:10051000D9F722E0A8E9B1E001C01D92A63DB207DB
:10052000E1F70E94A91F0C9469250C94000081E05A
:10053000089581E008950C94990208950C949D0209
:100540001F93CF93DF9300D000D00F92CDB7DEB7CB
:1005500049835A836B833091CA0189819A81311111
:100560001DC06623B9F02223A9F00E945B1A182F40
:10057000682F89819A810E94071A69817A81812F67
:100580000F900F900F900F900F90DF91CF911F91D0
:100590000C9468030E94331A182FEFCF0E945B1A45
:1005A00069817A81EDCFFC01262F408151816281E2
:1005B000738184810C94A002CF93DF93EC0160E0FF
:1005C0000E94D302BE01DF91CF910C949E020E9443
:1005D0008B050C94B0050C94B30508950E94711519
:1005E0000E94ED022FEF84E39CE021508040904078
:1005F000E1F700C000000C940C1E0F931F93CF93E3
:10060000DF938C0161E00E94D302EC01B8010E94EB
:100610009B028823D9F1B801CE010E94C20E882323
:10062000A9F1B801CE010E94140F882379F1B80115
:10063000CE010E943710882349F1B801CE010E94F3
:10064000AE0D882319F1F8018281882361F0CB3542
:10065000FDE5DF0721F170F4C115ECE5DE07A1F03F
:10066000CF3DDC45C9F0C801DF91CF911F910F91BB
:100670000C949702CC358DE5D807A1F0CD35DD453A
:1006800091F70E94021BEFCF0E94EE0280E0DF9103
:10069000CF911F910F9108950E947B1CF7CF0E946C
:1006A0000B1BE1CF0E940E1BDECF08950C94550367
:1006B00081E008950C945803CF93C82F0E945603ED
:1006C0008C2FCF910C945A0390E080E00895089508
:1006D000972F70E02CE0929F600D711D1124FB019B
:1006E00090E3899FE00DF11D1124EE0FFF1FE455EB
:1006F000FF4F859194910895FC01EE0FFF1FE45D7B
:10070000FD4F859194910895CF93DF930E946803E4
:100710000E949904EC01811520E5920708F042C07F
:10072000811530E4930708F0BDC0883E910528F597
:10073000803E910508F09DC0883A910588F4853A7D
:10074000910508F08FC08130910509F492C000979F
:1007500009F48FC0049708F08CC0D0E0C0E089C0D5
:100760008F3B910508F489C0805C9109C03CD1059C
:10077000A0F30E947C03EC017CC08115904250F4F0
:10078000C11581E0D80708F074C0CD3ED10528F32B
:10079000D0656FC0C11590E3D90708F079C0CE01CC
:1007A0009F70E7CF811525E5920758F5811534E54F
:1007B000930708F0A6C0811542E5940750F4C115CF
:1007C00081E5D80708F471C0DC2FCC27C16FD06A4F
:1007D00050C0982F969596959E0123703327C1158A
:1007E000D34508F07FC0C1E0D0E002C0CC0FDD1FD0
:1007F0002A95E2F720E2929FC0011124C82BD92B41
:100800006FC0C11589E5D807A8F4C11598E5D907C7
:1008100008F07CC0C11526E5D20708F09ECF8C2FCA
:100820000E943005C82FD0E0DC2FCC27CC27DF7109
:10083000D0621FC0C1153AE5D30708F46CC0CE01E1
:1008400090568115904208F088CF8D2F8F710E94AD
:10085000300590E0982F882788279F719C012C2BCA
:10086000E901E6CFC55AD0E0C85BDE4FC881D0E0D1
:10087000D064CE01DF91CF910895C85AD0E0CC0F5B
:10088000DD1FC65EDE4F0990D881C02DD464F1CF44
:10089000CE019927D3FF03C0EC01D86CEACFEC015D
:1008A000D06CE7CFDF70D06AE4CFCE01E4E096955C
:1008B0008795EA95E1F783702C2F2695269523706E
:1008C00090E2299F90011124382B8C2F8370C1E076
:1008D000D0E002C0CC0FDD1F8A95E2F7C22BD32BEC
:1008E000DC68C7CFC1E0D0E002C0CC0FDD1F2A9585
:1008F000E2F730E2939FC0011124C82BD92BDA68AC
:10090000B8CFD82FCC27C46FD06AB3CFDC2FCC2779
:10091000C06FD06AAECF8C2F8F700E94300534E04C
:10092000D695C7953A95E1F7CF709C2FEC01D06929
:10093000A0CF82389105B1F1B0F48133910509F46B
:1009400075C048F48932910509F469C08A3291056D
:1009500009F473C008958533910509F459C08933AA
:10096000910501F10895833E9105A9F138F4803E87
:100970009105F9F0823E910549F10895863E910571
:10098000A9F1873E9105C9F1843E910519F52091A1
:10099000730221FF1FC08091720284FD14C087EE94
:1009A00090E00895209172022370A1F080EE90E013
:1009B00008952091720220FD47C03091730230FFEC
:1009C00009C024FF44C090E080E004C0209172027E
:1009D00022FDF7CF08952091720222FD3BC0309195
:1009E000730230FDE3CF24FFF5CFEDCF20917202EB
:1009F00023FFF0CF24FDE7CFD2CF2091720223FD59
:100A00002CC03091730231FFEECF84EE90E0089558
:100A10002091720225FFDECF89E290E008952091B7
:100A2000720225FFD7CF85E390E0089520917202EE
:100A300026FFD0CF8AE290E008952091720226FF2F
:100A4000C9CF81E390E0089589E390E0089583EEB3
:100A500090E0089582EE90E0089586EE90E008958B
:100A60009091720292FF06C0282F28712830F9F465
:100A7000877F846093FF06C0282F28712831F1F406
:100A8000877E84612091730220FF06C0382F387161
:100A90003830D9F4877F816021FF06C0282F287164
:100AA0002831D1F4877E816194FD877E0895282FB7
:100AB00024712430F9F68B7F8860DCCF282F2471D5
:100AC000243101F78B7E8861DDCF382F31713130D1
:100AD00019F78E7F8860E0CF282F2171213121F70F
:100AE0008E7E8861E1CF0C94D01B0E941C068FE3A0
:100AF0009CE90197F1F700C000000E941C0680E00D
:100B00000E94B50580FF04C00E9473050C940C1E62
:100B100008950C9475050E94D61B811102C00E9495
:100B20007B1C0E94E11B80934E020E94E91B909364
:100B30007302809372020E9489050E94E51B682F50
:100B400070E090E080E00E940919609121027091AC
:100B5000220280912302909124020C94431908955B
:100B60000C94AF0508950C94B205E82FF0E0EE0F59
:100B7000FF1FE458FD4F808191810895089580EA18
:100B80008A95F1F7089500C008950C94BF05F89474
:100B9000E82FE295EF70F0E031A1282F2F7081E06F
:100BA00090E001C0880F2A95EAF7982F909593233B
:100BB00091A392A1892B82A378940895CF93DF9378
:100BC00087E90E94C70585E30E94C70587EF0E9459
:100BD000C70584E90E94C705CBE4D1E089910E9452
:100BE000C70581E0C735D807C9F710927502109282
:100BF000740210927D0210927C0210927702109281
:100C0000760210927F0210927E0210927902109268
:100C10007802109281021092800210927B02109250
:100C20007A02109283021092820284E00E949C0653
:100C3000DF91CF910C94E702AF92BF92DF92EF92D7
:100C4000FF920F931F93CF93DF93C7E5D1E004E7A3
:100C500012E0D12CEE24E394F12C8991F894E82F42
:100C6000E295EF70F0E021A18F70A70102C0440F60
:100C7000551F8A95E2F7CA01922F982B91A392A152
:100C80008095892382A378940E94C305EBE4F1E068
:100C900030E020E0B12CA12C4191A42FA295AF709F
:100CA000B0E090968C9190E04F7002C0959587953A
:100CB0004A95E2F780FD3BC0C701022E02C0880FB3
:100CC000991F0A94E2F7A82AB92A2F5F3F4F2C30C8
:100CD000310511F7FE01319780810E94C7050E94FE
:100CE000C505F80180819181A816B90619F1B18274
:100CF000A08281E0D82A0E5F1F4FF1E0CB35DF07DD
:100D000009F0ABCF2D2D44E06CE772E084E792E070
:100D10000E949D060E94EB028D2DDF91CF911F91C5
:100D20000F91FF90EF90DF90BF90AF90089590E00B
:100D300080E0C9CF80E0DECF0895FF920F931F932C
:100D4000CF93DF93F82E092F162FD72FC42F2223EE
:100D500049F081E080939C010E94C11D90939B010A
:100D600080939A0180919C018823A1F080919A013F
:100D700090919B010E94D91D069760F0EF2DF02FF6
:100D8000A12FBD2F90E080E0D0E08C179D0744F0AC
:100D900010929C01DF91CF911F910F91FF900895C8
:100DA000219131912D933D930196EFCF833081F1C5
:100DB00028F4813059F08230D1F00895853009F45B
:100DC00049C0B8F1863009F456C0089580910701F2
:100DD000482F460F5527551F4F3F510524F4680FE4
:100DE0006093070108958FEF809307010895809124
:100DF0000601482F460F5527551F4F3F510524F434
:100E0000680F6093060108958FEF8093060108959F
:100E100080910501482F460F5527551F4F3F51051B
:100E200024F4680F6093050108958FEF8093050106
:100E3000089580910401482F460F5527551F4F3FB5
:100E4000510524F4680F6093040108958FEF809397
:100E50000401089580910101482F460F5527551F21
:100E60004F3F510524F4680F6093010108958FEFFF
:100E700080930101089580910001482F460F552766
:100E8000551F4F3F510524F4680F609300010895EA
:100E90008FEF809300010895833011F128F48130A1
:100EA00049F0823091F00895853081F120F186304B
:100EB000C1F1089580910701681720F4861B809383
:100EC000070108951092070108958091060168179F
:100ED00020F4861B80930601089510920601089560
:100EE00080910501681720F4861B80930501089501
:100EF00010920501089580910401681720F4861B63
:100F000080930401089510920401089580910101D5
:100F1000681720F4861B8093010108951092010147
:100F2000089580910001681720F4861B80930001CA
:100F300008951092000108950F931F9341E050E02F
:100F400060E070E08A019B0104C0000F111F221FA6
:100F5000331F8A95D2F7C901B8010E9409191F9160
:100F60000F910C947115EBEFE80FEF3308F05AC0B6
:100F7000F0E0E559FA4D0C941B250E947B1C81E0A2
:100F8000089580914E02807F80934E0281E080938D
:100F90009E0108950E94EE02F2CF90914E02892F99
:100FA0008E7F90FF816080934E0280FDE8CF817F2D
:100FB00080934E02E4CF90914E02892F8D7F91FF56
:100FC000826080934E0281FFDACF80914E02816071
:100FD000EFCF90914E02892F8B7F92FF8460809398
:100FE0004E0282FDF2CFCBCF90914E02892F877FA8
:100FF00093FF886080934E0283FDE7CFC0CF0E94AD
:10100000711590917202892F97FB87F98058809310
:101010007202B5CF80E00E949C07B1CF8953FBCF0D
:101020008D51F9CF80E0089580E008950C94140864
:101030008E518A3030F4E82FF0E0E55AFE4F80817F
:10104000089580E00895CF93C82F80919E0181304C
:10105000B9F0882331F08230A1F110929E0180E036
:101060000DC00E94111B8232D1F78C2F0E941408F0
:1010700081111BC08C2F0E94B3078170CF910895FE
:101080000E94111B823289F38C2F0E941608811155
:101090000AC0C43199F060F4CB3029F0C03169F74F
:1010A00082E080939E0181E0E8CF81E090E0E5CF8F
:1010B000C93221F0C833B9F380E0DFCF10929E012E
:1010C000FBCFC93219F188F4C43101F120F4C730E3
:1010D00081F181E0D3CF82EE8C0F8630D0F78C2F58
:1010E0000E94180880939D01F4CFCE3401F140F4A2
:1010F0006AE0CB3471F780919D010E94D606E9CF5A
:10110000C13579F061E0C235B1F3E3CF80919D0143
:10111000882319F010929D01DCCF81E080939E011D
:10112000ADCF61E080919D010E944C07D2CF6AE073
:10113000F9CF8EE18093070182E3809306018AE074
:101140008093050184E18093040188E0809301018C
:1011500088E280930001BDCF8091A50180FF12C07D
:101160006091050185E0689FB00111247595679530
:101170007595679560387105A8F561157105A1F140
:10118000862F089581FF09C06091050185E0689F61
:10119000B001112475956795EDCF6091050182FD31
:1011A0000AC08091A4018823D1F09091040160913C
:1011B0000501891728F085E0689FB0011124DACF76
:1011C000869FB001112485E0869F9001879F300D96
:1011D0001124692F70E0C9010E940725CBCF65E07B
:1011E00070E0CECF8FE7089581E008958091A5014A
:1011F00080FF0CC06091010170E075956795759551
:1012000067956115710549F1862F089581FF06C024
:101210006091010170E075956795F3CF60910101D0
:1012200082FD0BC09091A3019923A1F06091000170
:1012300080910101961738F0682F70E060387105D1
:1012400000F38FE70895899FC001112470E00E9488
:101250000725F4CF61E070E0D7CF81E008958D3E9F
:1012600031F40E94AC0881958093A90108958E3EC7
:1012700019F40E94AC08F8CF8F3E31F40E94AC08FC
:1012800081958093A8010895803F19F40E94AC08CD
:10129000F8CF893F29F40E94F6088093AA010895A7
:1012A0008A3F21F40E94F6088195F7CF8B3F31F4F5
:1012B0000E94F60881958093AB0108958C3F19F444
:1012C0000E94F608F8CF9FE0980F983070F4815F85
:1012D000990B21E030E001C0220F8A95EAF7809156
:1012E000A701822B8093A70108958D3F31F480914F
:1012F000A50181608093A50108958E3F21F480911E
:10130000A5018260F7CF8F3FB9F78091A501846076
:10131000F1CF4091A8018D3E59F48091A90187FF3A
:101320000DC01092A90141110BC01092A40108C078
:101330008E3E81F48091A90118169CF3442381F01C
:101340008091AA019091AB01892B09F05AC01092AB
:10135000A30108958F3E49F447FFF0CF1092A801F2
:101360008091A9018111ECCFE0CF803F19F41416D0
:10137000ACF3E4CF9091AA01893F29F41916F4F651
:101380001092AA01DBCF8A3F19F497FFD7CFF8CF8D
:101390009091AB018B3F29F497FFD0CF1092AB0116
:1013A000CDCF8C3F19F41916CCF3C8CF9FE0980F1E
:1013B000983090F4815F990B21E030E0B90102C0D0
:1013C000660F771F8A95E2F7CB0180959091A70170
:1013D00089238093A701B2CF8D3F31F48091A5017D
:1013E0008E7F8093A501AACF8E3F21F48091A50125
:1013F0008D7FF7CF8F3F09F0A1CF8091A5018B7F23
:10140000F0CF08950E94C11D9C019091A801809188
:10141000A901982B21F03093A2012093A101909172
:10142000AA018091AB01982B21F03093A001209369
:101430009F0186EA91E00C948C10EF92FF920F933B
:101440001F93CF93DF9300D000D000D0CDB7DEB78D
:1014500086E0E6EAF1E0DE01119601900D928A95B0
:10146000E1F7E090A801F090A9010091AA01109184
:10147000AB011092A8011092A9011092AA0110923A
:10148000AB018E2D8F2991F08091A1019091A20145
:101490000E94D91DAC019091A401992309F43FC089
:1014A000809106018417150608F447C0802F812B10
:1014B00091F080919F019091A0010E94D91DAC01F3
:1014C0009091A301992309F477C0809102018417B8
:1014D000150608F47FC08091A8019091A901892B7D
:1014E0009091AA01892B9091AB01892B11F00E9458
:1014F000020A86E0FE013196A6EAB1E001900D9263
:101500008A95E1F726960FB6F894DEBF0FBECDBFE1
:10151000DF91CF911F910F91FF90EF90089520914F
:1015200007018AE0289F900111242417350708F04D
:10153000BDCF9F5F9093A40102C09F3FD1F7EE20E3
:1015400059F00E94AC089FEF1E140CF491E0899FA3
:10155000802D11248093A801FF2059F00E94AC082F
:101560009FEF1F140CF491E0899F802D112480932C
:10157000A9013091A801332309F498CF2091A90142
:10158000222309F493CF45EB3403C001112499239E
:1015900059F09093A80145EB2403900111243323C3
:1015A00039F03093A90182CF81E08093A801F3CF75
:1015B00081E08093A9017ACF209103018AE0289FDE
:1015C000900111242417350708F085CF9F5F909371
:1015D000A30102C09F3FD1F7002359F00E94F608F3
:1015E0009FEF10160CF491E0899F802D11248093B9
:1015F000AA01112359F00E94F6089FEF11160CF46E
:1016000091E0899F802D11248093AB013091AA0134
:10161000332309F460CF2091AB01222309F45BCF7F
:1016200045EB3403C0011124992359F09093AA018A
:1016300045EB240390011124332339F03093AB019F
:101640004ACF81E08093AA01F3CF81E08093AB0180
:1016500042CF86E0E6EAF1E0DF011D928A95E9F7E4
:101660001092A4011092A3011092A5010895EF9287
:10167000FF920F931F93CF93DF93EB01E82FD111CC
:1016800010C0442321F0F0E0E45DFD4FE4916E2FA3
:101690007E2F8E2FDF91CF911F910F91FF90EF90B2
:1016A00008950D2F10E0282F30E0442329F0245D09
:1016B0003D4FF901249130E0F6E0CF9FC0011124A5
:1016C000EFEFF0E0BF010E94F324AB018C2F90E01C
:1016D000880F991FA5E5A49FB001A59F700D112447
:1016E000861B970B982F990F980FBF01601B710BEA
:1016F000629FD001639FB00D729FB00D11248B2F9C
:101700009D9FB0011124672F7727EF01C61BD70BD0
:10171000BE01629FE001639FD00D729FD00D112426
:101720007F01E91AF108E09EB001E19E700DF09E84
:10173000700D1124672F7727E61BF70BE29F8001BE
:10174000E39F100DF29F100D1124E12F722F4230F4
:10175000510599F048F44115510569F041305105A2
:1017600081F0EB2F8D2F07C04430510569F080F0D8
:1017700046305105B1F76E2F8DCFE22F7B2F812F91
:10178000FACFE22F7D2FF7CFEB2F822F712FF3CFE0
:101790007B2F822FED2FEFCF41E00C94370B0C9471
:1017A000CC0BCF93DF93762FE901682F842F0E9413
:1017B000CF0B798368838A83DF91CF9108958091DD
:1017C0008402982F9E7F39F4809184028170826018
:1017D0008093840208958430B8F7089588E090E0FB
:1017E0000C942925CF92DF92EF92FF926B017C013E
:1017F0000E94DF0BB701A60188E090E0FF90EF9018
:10180000DF90CF900C944725E4E8F2E083E08083FA
:1018100011828FEF82838383148260817181828140
:1018200093810C94F20B90918802933018F49F5F8F
:1018300090938802882351F0609184027091850210
:1018400080918602909187020C94F20B089581E0BA
:101850000C94130C90918802992319F09150909355
:101860008802882351F060918402709185028091F2
:101870008602909187020C94F20B089581E00C94FB
:101880002A0C70E00C942A0E609109018091840268
:1018900080FF0AC08091080123E0829FC0011124CB
:1018A00087579D4F0C94410C80910A0190910B0138
:1018B00023E0829FF0011124E757FD4F891750F76D
:1018C0001182108212828F5F3396F8CFE4E8F2E043
:1018D00080818E7F808360817181828193810E946B
:1018E000F20B2FEF80E792E0215080409040E1F72B
:1018F00000C000000C94440C9091840290FF14C02E
:1019000090910A0120910B0133E0939FF001112483
:10191000E757FD4F921710F00C94440C81836083BD
:1019200042839F5F3396F6CF0895EF92FF920F9315
:101930001F93CF93DF9300D00F92CDB7DEB7F82E71
:10194000062F142FE22E8091840280FF28C0E82FFA
:10195000E695F0E0EB59FE4F90819093AD018E7FBC
:10196000823059F49E012F5F3F4F8F2D0E94D10B83
:101970004B8169818A810E947C0CF09285020093E0
:10198000860210938702EE2051F0609184027091DC
:10199000850280918602909187020E94F20B0F903F
:1019A0000F900F90DF91CF911F910F91FF90EF90CB
:1019B0000895E4E8F2E09181282F4381628188E074
:1019C000890F0C94950C81E00C94D90CE4E8F2E0BA
:1019D0009181282F4381628188EF890F0C94950CA7
:1019E00081E00C94E60CE4E8F2E0628121E1620F10
:1019F00008F46FEF282F438181810C94950C81E0CE
:101A00000C94F30CE4E8F2E0628121E1621B08F43B
:101A100060E0282F438181810C94950C81E00C9427
:101A2000020DE4E8F2E0438121E1420F08F44FEFB8
:101A3000282F628181810C94950C81E00C94110D0A
:101A4000E4E8F2E0438121E1421B08F440E0282F62
:101A5000628181810C94950C81E00C94200D20E032
:101A60000C94950C8091840280FF18C08170826074
:101A700080938402662351F0609184027091850204
:101A800080918602909187020E94F20B409187021A
:101A900060918602809185020C942F0D0895682F25
:101AA00081E00C94320D81E00C944F0D682F9091E1
:101AB000840296958FEF890F09F481E00C94320D22
:101AC00081E00C94560D61E00C94320DE4E8F2E0F4
:101AD00080818160808386950C94630D809184025F
:101AE00080FD0C94660C0C94660D60E00C94320D35
:101AF0008091AC0181112CC00E94D61B811104C0C1
:101B00000E947B1C0E94040C0E94EE0B60938402D6
:101B10007093850280938602909387026E7F61F4B2
:101B20000E94040C0E94EE0B609384027093850265
:101B300080938602909387020E94DF0B809184023B
:101B400080FF03C086950E94750D81E08093AC01F3
:101B50000895FA01811101C0FB0109940F931F93AD
:101B6000CF938C01FB01C281CC2309F471C00E9488
:101B7000111B82720A3CFCE51F0709F460C048F59E
:101B8000063CECE51E0709F455C078F4043C9CE5DE
:101B9000190709F443C008F048C0033C1C45D9F1BB
:101BA0008C2FCF911F910F9108954EE05DE06FEF64
:101BB0007CE0083C9CE51907A9F143EE5CE060EF8E
:101BC0007CE0093C1C4570F14FEF5CE06EE07DE08D
:101BD00029C00E3CFCE51F07B9F1A0F44EE35CE020
:101BE00067E27CE00C3CECE51E07E1F04DE15DE0D6
:101BF0006CE27DE00D3C1C45A8F047E25CE06EE342
:101C00007CE010C0073D8CE5180718F00E351D4527
:101C100039F6C0E0C5CF0E946E0DFBCF40E65DE017
:101C200063E57DE00E94A90DF4CF43E55DE060E649
:101C30007DE0F8CF40EF5CE063EE7CE0F3CF4CE278
:101C40005DE06DE17DE0EECF81E00E94630DE1CFCC
:101C5000C1E0A6CF509A4BB14E7F5BB15160EFB758
:101C6000F8949B01220F331F260F371F280F391FAF
:101C70002817390741F4EFBF8FE594E00197F1F79A
:101C800000C000000895DC016D91CD0178E05BB9E2
:101C9000000000C067FF4BB9660F000000C000C025
:101CA00000C04BB900C07A9591F7E2CF0F931F9314
:101CB000CF93DF93C42FD22FFC0182818823C9F0F8
:101CC0004093B1010E94C11D9093B0018093AF0178
:101CD00080E28C0F883008F050C0C77081E001C0EE
:101CE000880FCA95EAF7DF91CF911F910F910C945D
:101CF000F8121091B101141335C08091AF01909189
:101D0000B0010E94D91D883C910560F5C0E2CD0F5D
:101D10001D17B9F080E2810F883040F4177081E020
:101D200001C0880F1A95EAF70E94FF12C83048F4E4
:101D300081E09D2F977001C0880F9A95EAF70E9465
:101D4000F812802F0E94F012C830B8F4D77081E0EA
:101D500001C0880FDA95EAF7DF91CF911F910F91BB
:101D60000C94FF1280E28C0F883038F4C77081E049
:101D700001C0880FCA95EAF7EFCFDF91CF911F918D
:101D80000F9108950F939C01CB01243F4CE534073C
:101D900059F1A8F4293DFCE53F0701F12A3D4CE546
:101DA0003407D1F1283D3C4591F406E221EE41EEA5
:101DB00068ED7CE50E94560E80E00F910895263F65
:101DC000FCE53F07E9F0B0F0273F3C45F9F0FC01A6
:101DD0008281882339F11092B101EFCF07E225EE1D
:101DE00045EE69ED7CE5E6CF06E221EE40EE64EFDC
:101DF0007CE5E0CF07E225EE44EE65EF7CE5DACF47
:101E000006E221EE42EE66EF7CE5D4CF07E225EE56
:101E100046EE67EF7CE5CECF08E221E045EE6AEDC5
:101E20007CE5C8CF81E0C9CFCF93DF93EC01FB0104
:101E30008281882309F419C1C230FCE5DF07C0F1B3
:101E4000C6319CE5D90730F09E012B5F3C45293017
:101E5000310570F50E94E91B909373028093720222
:101E6000C031ECE5DE0709F4CFC008F05BC0C83034
:101E70008CE5D80709F4B6C088F5C430ECE5DE0778
:101E800009F4A8C0C0F4C2308CE5D80709F49CC09E
:101E9000809172028260C330DC4509F498C0809161
:101EA0007202909173020E94F71B0E94711580E0EC
:101EB000DF91CF910895809172028061C630ECE588
:101EC000DE0709F484C0809172028860C730DC4567
:101ED00008F47DC080917202806279C0CC308CE5BC
:101EE000D80709F489C070F4809172028C60CA30FE
:101EF000ECE5DE0709F46BC008F478C0809172024B
:101F00008E7F65C0CE308CE5D80709F479C080910A
:101F100072028B7FCF30DC4508F459C08091720289
:101F20008F7E55C0CC3FECE5DE0709F457C030F595
:101F3000C3318CE5D80709F46FC078F4C131ECE502
:101F4000DE0709F465C0C231DC4509F0A8CF0E9464
:101F50007115809172028F773AC0C5318CE5D80730
:101F600009F462C008F476C0809173028160CB3FAF
:101F7000DC4509F094CF8093730291CFC115FDE544
:101F8000DF0709F44DC088F4809173028D7FCE3F46
:101F90009CE5D90781F3809173028E7FCF3FDC45AA
:101FA00050F3809173028360E6CFC230FDE5DF0716
:101FB00009F459C008F444C080E0C330DD4509F09D
:101FC0006ECF0E947D1C6BCF8091720281608093E6
:101FD000720265CF809172028460F9CF80917302A2
:101FE0008260C9CF809172028064F1CF0E94711526
:101FF000809172028068EBCF809172028D7FE7CF73
:1020000080917202877FE3CF809172028F7DDFCF54
:10201000809172028F7BDBCF80917202837FD7CF5A
:10202000809173028C7FA7CF8091720282FB9927E7
:1020300090F921E0922790FB82F990FB83F9C7CFBA
:1020400080917302982F909591708E7F892B90FBD1
:1020500081F991CF0E94711590917202892F97FB9F
:1020600087F98058B4CF81E0ACCF81E021CFCF9306
:10207000DF93EB0186319C4511F50E94111B9A817B
:10208000992399F08A7A91E009F490E09093B20153
:10209000811109C089E20E94CB1A0E94611B80E075
:1020A000DF91CF91089585E3F6CF8091B201811140
:1020B00004C089E20E94D21AF0CF85E3FBCF81E011
:1020C000EFCF9093B8018093B7010895E091B701E5
:1020D000F091B801309721F00190F081E02D099442
:1020E00080E00895E091B701F091B801309799F040
:1020F00020911901222359F02091720227FF07C075
:10210000DC012C9111962C93119725E02C930280E1
:10211000F381E02D09940895E091B701F091B801A1
:10212000309739F022E0DC012C930480F581E02D1A
:10213000099408952091B5013091B6012817390707
:1021400071F09093B6018093B501E091B701F091E1
:10215000B801309721F00680F781E02D09940895A9
:102160002091B3013091B4012817390771F0909391
:10217000B4018093B301E091B701F091B8013097B9
:1021800021F00084F185E02D099408950E94CD1D71
:102190006093C6017093C7018093C8019093C901F1
:1021A0006093C2017093C3018093C4019093C501F1
:1021B000089585B7806885BF85B7806885BF089515
:1021C000089508950C94E01008950C94E4100E9472
:1021D000D9108EEC9BE10E94301E0E94E1100C94FD
:1021E000E21081E008950C94F110089508950E9482
:1021F000F5100C94F6100E94B81D0E94DE050E9496
:10220000780D0C94E5108F929F92AF92BF92CF926F
:10221000DF92EF92FF920F931F93CF93DF93CDB78F
:10222000DEB72A970FB6F894DEBF0FBECDBF0E946F
:102230001C0681110E94C6105AEB852E51E0952E86
:1022400010E000E0A02E802F0E94B5056C01F40183
:10225000E190F1904F01E816F90609F45CC0809115
:102260004E0281FD0E94BE05C7018C259D25B12C23
:10227000EE24E394F12C9C012E213F21232B09F421
:1022800044C00E94F3108823A9F0BE82AF82CE2002
:10229000DF2081E0CD2809F480E088870E94C11DFD
:1022A0008160782F9A8789874E815F8168858A85CA
:1022B0000E94B511000F111FF801E654FE4F8081F6
:1022C0009181E826F926F182E0820E941D0A0E948F
:1022D00066109091B9018917A9F10E946610809348
:1022E000B9012A960FB6F894DEBF0FBECDBFDF91BD
:1022F000CF911F910F91FF90EF90DF90CF90BF9003
:10230000AF909F908F900C945C03B394EE0CFF1CE5
:10231000FCE0BF12B0CF0F5F1F4F0430110509F072
:1023200091CF8FEF89838A831B820E94C11D8160B8
:10233000782F9D838C8349815A816B818D810E9486
:10234000B511C3CF2A960FB6F894DEBF0FBECDBF2E
:10235000DF91CF911F910F91FF90EF90DF90CF9081
:10236000BF90AF909F908F900895DF92EF92FF9271
:102370000F931F93CF93DF93CDB7DEB72B970FB695
:10238000F894DEBF0FBECDBF7A878B87F42E052F62
:10239000162FE72ED82E61110E94311B1E821D823E
:1023A0007E2DEC82DD824F2D502F612F8D2D9E8151
:1023B0002B960FB6F894DEBF0FBECDBFDF91CF9145
:1023C0001F910F91FF90EF90DF900C94E717FC01A5
:1023D000808191810C949D1ACF93C82F882309F492
:1023E00090C08238C1F40E94661081FD8AC089E3E2
:1023F0000E94CB1A0E94611B2FEF81EE94E02150C6
:1024000080409040E1F700C0000089E30E94D21AAA
:10241000CF910C94611B8338A1F40E94661080FD5B
:1024200070C083E50E94CB1A0E94611B2FEF81EEE2
:1024300094E0215080409040E1F700C0000083E527
:10244000E5CF8438A1F40E94661082FD5AC087E46B
:102450000E94CB1A0E94611B2FEF81EE94E0215065
:1024600080409040E1F700C0000087E4CFCF8CEFC0
:102470008C0F813AB8F48C2F0E942308811141C03F
:102480006C2F80910D0190910E010E94961C882363
:1024900029F08C2F0E94D21A0E94611B8C2F0E945F
:1024A000CB1AB6CF80E28C0F883048F4C77081E039
:1024B00001C0880FCA95EAF70E94141BA9CFEBE56B
:1024C000EC0FE33040F4F0E0EB56FE4F808190E0FB
:1024D000CF910C949A10E8E5EC0FE73150F4F0E05E
:1024E000EE0FFF1FE959FE4F80819181CF910C942F
:1024F000B010CD3E30F08C2F0E942F09CF910C945C
:10250000020ACF910895882309F452C0823871F4E9
:102510000E94661081FF4CC089E30E94CB1A0E9482
:10252000611B89E30E94D21A0C94611B833859F411
:102530000E94661080FF3CC083E50E94CB1A0E9477
:10254000611B83E5EFCF843859F40E94661082FF47
:102550002FC087E40E94CB1A0E94611B87E4E2CF60
:102560009CEF980F913AF0F290E2980F983050F467
:10257000877091E001C0990F8A95EAF7892F0E9430
:102580001A1BD2CF9BE5980F933020F490E080E0A7
:102590000C949A1098E5980F973120F490E080E021
:1025A0000C94B0108D3E20F00E9489090C94020A10
:1025B00008951F93CF93DF93182FEB010E94EC1126
:1025C000209731F4812FDF91CF911F910C948312CA
:1025D0008FE99FE00197F1F700C000002197F0CF4D
:1025E00070E060E0893311F460E570E00C94D9127A
:1025F000882321F00E94141B0C94611B08958823EA
:1026000021F00E941A1B0C94611B0895BF92CF9277
:10261000DF92EF92FF920F931F93CF93DF936C01A2
:10262000D62FC72FFC011281058102950F700E94E1
:10263000E91AE82E8823A1F0E12E112389F08C2FCE
:10264000807F803429F080E28D0FE12C883040F0CB
:1026500082E00E94B21B0E94E91A91E0E82EE9266E
:10266000BC2EB2949FE0B922EB2DF0E0E655FA4D76
:102670000C941B250C2F0F70C07F11F00295007F6A
:102680001123A9F0002359F080E28D0F883010F05B
:10269000D11109C0802F0E94141B0E94611B8D2F35
:1026A0000E94EC1114C0802F0E94241BF6CF8D2FA6
:1026B0000E948312002359F080E28D0F883010F0C1
:1026C000D1112CC0802F0E941A1B0E94611B2B2D40
:1026D0002850330B2430310520F40E9466100E94EC
:1026E0005C03EE2009F49EC10E94E51A80FD9AC1A8
:1026F000F60112820E94DF1A0E946B19C6010E9425
:1027000033150E94DF1ADF91CF911F910F91FF9037
:10271000EF90DF90CF90BF900C948C19802F0E9487
:102720002A1BD3CFFC2FFF70FF2EC07FC03219F0C1
:10273000F29480EFF822DD2369F0D13049F11123C2
:1027400091F1002351F1F601858180FFA8CF8F70B0
:10275000858323C0112381F0011106C00E94441B10
:102760008F290E94F812B3CF0130C1F70E94441B99
:102770008F290E944A1BABCF011106C00E94571B34
:102780008F2D0E94FF12A3CF013009F4A0CFF6CF06
:10279000112329F0063008F09ACF8F2DE2CF0530B3
:1027A00008F095CFEDCF002359F3D93349F4FFEF6B
:1027B00027EE33E0F15020403040E1F700C0000048
:1027C0008D2F0E94831283CF8C2F869586958370E0
:1027D00069F0813009F07BCF8D2F9C2F9370111100
:1027E00002C090E080E00E94B01071CF8D2F9C2F2E
:1027F0009370111102C090E080E00E949A1067CFA0
:102800008D2F112329F00E942F090E94020A5FCF09
:102810000E948909FACF8C2F837009F041C01111F1
:1028200056CF4D2F429546954770440F440F0D2FBC
:102830000F7010E030E020E0042E04C0000F111FE4
:10284000221F331F0A94D2F760E070E0CB01D4FF5F
:102850000FC06FE070E080E090E004C0660F771F6B
:10286000881F991F4A95D2F760957095809590952D
:10287000C695C695C370602B712B822B932BC230EB
:1028800049F058F4C13019F00E941D1920CF0E9460
:102890000B191DCF0E942F191ACF0E94091917CFAB
:1028A0008695112311F08C2F8170882309F40FCFA6
:1028B0004D2F429546954770440F440F0D2F0F70D2
:1028C00010E030E020E0042E04C0000F111F221F92
:1028D000331F0A94D2F760E070E0CB01D4FF0FC041
:1028E0006FE070E080E090E004C0660F771F881F03
:1028F000991F4A95D2F76095709580959095C695E9
:10290000C695C370602B712B822B932BC23049F07C
:1029100058F4C13019F00E94E219D9CE0E94D019A2
:10292000D6CE0E94F419D3CE0E944519D0CECF70D6
:10293000112329F08C2F0E946B198D2F12CF8D2F10
:102940000E94FF128C2F0E948C19C1CED23F89F1B8
:1029500060F4D03FC9F0D13F29F1112309F442C0FE
:1029600001119DCE8C2F8F7121C0D33F39F1D43FFF
:10297000A1F7112369F1CF718C2F0E946B1963E0CD
:102980008C2F0E94971BA3CE112341F0053008F035
:102990009ECE8C2F8F710E94AF1999CE063008F011
:1029A00096CEF7CF8C2F8F71112369F20E946B198D
:1029B0008ECE8C2F8F711123C9F3C5CF112329F02F
:1029C0008C2F8F710E94561982CE0E9451197FCE92
:1029D00081E00E94B21B023008F479CE82E00E94AE
:1029E000B21B75CE002359F0D93309F0E9CE8FEF31
:1029F00097EEE3E081509040E040E1F7DFCE8C2F8E
:102A00008F71A1CF4C2F4F706D2FC6010E946403B0
:102A10000E9481185CCE4C2F4F706D2FC6010E9412
:102A2000670355CEDF91CF911F910F91FF90EF90EB
:102A3000DF90CF90BF9008950F931F93CF93DF93B4
:102A4000EC01688179818A810E94A71A8C010E9419
:102A5000061A0E940819B801CE01DF91CF911F918B
:102A60000F910C940613CF93DF93EC018B819C8123
:102A7000892B29F08881998189238F3F59F4DF912F
:102A8000CF910895CE010E941C15CE01DF91CF9108
:102A90000C94DC02CE010E94FD028111F3CF0E9452
:102AA000E91A882361F38A81882349F382E0DF9160
:102AB000CF910C94B21B90E080E00E949A1090E0BD
:102AC00080E00E94B0100E94311B0E94411B0E94B6
:102AD000611B0E94290B0C94020A0E94D91A0C94C3
:102AE0005B150E94211B0C946D15E92FE295EF7088
:102AF000E250EE3070F4F0E0E654FA4D0C941B25F1
:102B0000803F19F020F4883E20F481E00895843F4E
:102B1000E1F380E00895883EC0F3813FD1F7F5CF1F
:102B200093FB882780F908950E949D1A0C947515CF
:102B3000CF93DF9300D000D00F92CDB7DEB70F90C8
:102B40000F900F900F900F90DF91CF910895CF933A
:102B5000DF9300D000D000D0CDB7DEB726960FB6F9
:102B6000F894DEBF0FBECDBFDF91CF9108951F93C4
:102B7000CF93DF93C091CB0116E08091CC018C13F1
:102B800004C0DF91CF911F910895D0E01C9FF00108
:102B90001D9FF00D1124E353FE4F4081518162814E
:102BA0007381848195810E94A7152196C770E5CF16
:102BB0004091FD015091FE016091FF017091000272
:102BC00080910102909102020C94A7151F93CF935C
:102BD000DF9380910202807FA9F48091FF01882316
:102BE00089F08091CB01C091CC016091FD01709181
:102BF000FE01A0910002B0910102D62FD72316E06A
:102C0000C81304C0DF91CF911F91089590E01097F1
:102C100011F0DF3F19F401968770F2CF189F9001F1
:102C2000199F300D1124F901E353FE4F41814713E1
:102C3000F2CF40814613EFCF42814111ECCF438167
:102C400054814A1B5B0B483C510528F780910202D6
:102C50008F70806180930202F901EE52FE4F8081F5
:102C60008F70806180838DEF91E00E943315DF913A
:102C7000CF911F910C94B715AF92BF92CF92DF9274
:102C8000EF92FF920F931F93CF93DF93CDB7DEB7F1
:102C900061970FB6F894DEBF0FBECDBF8C0185E003
:102CA000F801DE011D9601900D928A95E1F7F80179
:102CB00040815181E2808DEFC82E81E0D82E609155
:102CC0000002709101026115710509F461C19091D2
:102CD000FD012091FE01892F82238F3F09F458C105
:102CE000A380B480F090FF01F501E61BF70BFF20F5
:102CF00009F4FCC080910202382F307FE83CF105D6
:102D000008F0B2C0311179C0FE2C251323C09413F2
:102D100021C0E1101FC08F708061809302020E9469
:102D2000D815C6010E94331580910202F8018583EF
:102D30008F2D61960FB6F894DEBF0FBECDBFDF9129
:102D4000CF911F910F91FF90EF90DF90CF90BF90A8
:102D5000AF900895AB2829F0842F85238F3F09F089
:102D600033C180E0F82FF170DF2E80FF3CC08091EE
:102D7000CB012091CC0136E0821315C04D875E87D0
:102D80008D859E850E949D1A292F22952F702230B5
:102D9000F0F0243018F59F70F1F0F8019581907FE4
:102DA000D1F4D12C1EC090E0389FF001399FF00D76
:102DB0001124E353FE4F6181651306C060816413E3
:102DC00003C062816E110FC001968770D5CF9F70CE
:102DD00011F0882331F3805E883018F3C8010E9417
:102DE0003315FD2CA5CFEE2009F4A2CF809102026D
:102DF000816080930202F12C9BCF251306C09413AF
:102E000004C0F801EE2009F48DC04D875E878D85E2
:102E10009E850E949415882319F1EE2009F1809176
:102E20000202803270F02091FD013091FE0138875E
:102E30002F831986BB86AA868C87CE0107960E94AF
:102E4000331586E0F801ADEFB1E001900D928A955F
:102E5000E1F70E94E6150E94D815FF24F39468CF8D
:102E6000C8010E943315F9CF311113C07A2DB98AE8
:102E7000A88A6E2D89890E9498158DEF91E00E9495
:102E8000331586E0F60111928A95E9F70E94D8156C
:102E9000B2CF25130FC094130DC0E1100BC0F80181
:102EA0008583C8010E94331586E0F60111928A9548
:102EB000E9F73ECF4D875E878D859E850E949415EC
:102EC000882371F2EE2061F280910202803208F4D0
:102ED000B8CF2091FD013091FE013A8329831B82F6
:102EE000BD82AC828E83CE010196A9CFE83CF1056C
:102EF00008F041C0FE2CEE2009F4B2CF25132AC001
:102F0000941328C08091020280FD1BC0982F907FEF
:102F1000C1F0F8018583903F31F0982F907F905F4A
:102F20008F70892B8583C8010E94331586E0F801D4
:102F3000ADEFB1E001900D928A95E1F70E94D815AE
:102F4000F7CE86E0F801ADEFB1E001900D928A95E1
:102F5000E1F7EECE4D875E878D859E850E949415A4
:102F600081116FCF80910202816080930202C801BB
:102F70000E943315DDCE7A2DB98AA88A6E2D8989F3
:102F80000E94981586E0F60111928A95E9F7D6CF4E
:102F9000EE2009F465CF4D875E878D859E850E9462
:102FA0009415F82E882309F45BCF86E0F801ADEF85
:102FB000B1E001900D928A95E1F78DEF91E00E94CA
:102FC000E7110E94E615BACF81E08E25CBCE1F9384
:102FD000CF93DF93CDB7DEB72C970FB6F894DEBF53
:102FE0000FBECDBF4F83588769877A878B879C87B1
:102FF000CE0107960E943C16882369F08A859B853E
:10300000892B39F04F815885842F85238F3F09F014
:1030100071C016E05FC086E0FE013796DE011196B2
:1030200001900D928A95E1F78A859B85892B89F31A
:103030008F81988589238F3F61F32091CC0130E007
:10304000C9010196877099274091CB01481719064D
:1030500071F40E9471151092CC011092CB0186E0A0
:10306000EDEFF1E0DF011D928A95E9F7D2CF96E00E
:10307000929FD001939FB00D1124A353BE4FFE0128
:10308000319601900D929A95E1F78093CC010E94C0
:10309000B715BFCF819FC001112483539E4F0E945B
:1030A0003C168823E9F0E091CB011E9FF00111242A
:1030B000E353FE4F40815181628173818481958108
:1030C0000E94A7158091CB0190E001968770992707
:1030D0008093CB018091CB019091CC018913DACF01
:1030E0002C960FB6F894DEBF0FBECDBFDF91CF9107
:1030F0001F91089569857A858B859C850E94A71507
:1031000088CFEF92FF920F931F93CF93DF938C01A1
:10311000892B81F0F12CEE24E394E8012196F8014B
:103120008491843770F4843008F05FC08130B1F04E
:103130008230A1F1DF91CF911F910F91FF90EF901D
:103140000895853709F44CC008F43DC09CE7980FFA
:10315000903780F78F770E94831249C00E5F1F4F10
:10316000FE01849190E2980F983060F48770FE2DF4
:1031700001C0FF0F8A95EAF78F2F0E94341B0E942F
:10318000611B02C00E94EC118F2D815030F2EFE9DB
:10319000FFE03197F1F700C00000F7CF0E5F1F4F3F
:1031A000FE01849190E2980F983050F48770FE2DC4
:1031B00001C0FF0F8A95EAF78F2F0E943A1BDFCFDD
:1031C0000E948312E1CF0E5F1F4FFE01C491C150D8
:1031D000D8F28FE99FE00197F1F700C00000F7CF28
:1031E0000E5F1F4FFE01F490CFCF0E94EC118E01B5
:1031F000CBCF08950C94F9180E94FA186093250219
:103200007093260280932702909328020C945B15FA
:1032100008950C94FC180F931F93009125021091B0
:1032200026022091270230912802602B712B822BDD
:10323000932B1F910F910C94FC180F931F930091E7
:103240002502109126022091270230912802602346
:103250007123822393231F910F910C94FC180F93D9
:103260001F93009125021091260220912702309190
:10327000280260277127822793271F910F910C94B2
:10328000FC180C94F9180C9441190E94431960938E
:1032900021027093220280932302909324020C94C3
:1032A0005B1560E070E0CB010C9445190F931F9300
:1032B00041E050E060E070E08A019B0104C0000F33
:1032C000111F221F331F8A95D2F7C901B8011F9120
:1032D0000F910C9445190F931F9341E050E060E06B
:1032E00070E004C0440F551F661F771F8A95D2F700
:1032F0008091210290912202A0912302B091240298
:103300008A019B01082B192B2A2B3B2BC901B801E1
:103310001F910F910C9445190F931F9341E050E0BA
:1033200060E070E004C0440F551F661F771F8A9548
:10333000D2F7CB01BA016095709580959095009178
:103340002102109122022091230230912402602355
:103350007123822393231F910F910C9445190F938E
:103360001F9341E050E060E070E004C0440F551F3F
:10337000661F771F8A95D2F78091210290912202D1
:10338000A0912302B09124028A019B0108271927EA
:103390002A273B27C901B8011F910F910C944519A9
:1033A0000F931F930091210210912202209123027A
:1033B00030912402602B712B822B932B1F910F9144
:1033C0000C9445190F931F93009121021091220232
:1033D00020912302309124026023712382239323BE
:1033E0001F910F910C9445190F931F930091210287
:1033F000109122022091230230912402602771272C
:10340000822793271F910F910C94451908952CE062
:10341000929F800D1124982F977041E001C0440FB6
:103420009A95EAF786958695869595E0899FF001AD
:103430001124ED5FFD4F90E080E070E05191DF01DD
:1034400011979B01082E02C0369527950A94E2F742
:10345000217021952527242325272C93019685303B
:10346000910561F708952CE0929F800D1124982F0B
:10347000977086958695869525E0829FF0011124A8
:10348000ED5FFD4F50E040E080E0219130E0092EFB
:1034900002C0369527950A94E2F721703327042E4F
:1034A00001C0220F0A94EAF7822B4F5F5F4F45302D
:1034B000510559F70895BF92CF92DF92EF92FF9294
:1034C0000F931F93CF93DF938C01C0902102D09074
:1034D0002202E0902302F090240280912502909134
:1034E0002602A0912702B0912802C82AD92AEA2AE6
:1034F000FB2ACFE1D0E0BC2ED701C6010C2E04C0C0
:10350000B695A795979587950A94D2F780FD0EC03A
:10351000219788F7B12C8B2DDF91CF911F910F91BF
:10352000FF90EF90DF90CF90BF900895B8018C2F5F
:103530000E948403019761F3EECFCF93DF93EC01F8
:103540000E945B1ABE01DF91CF910C9484031F93FC
:10355000CF93DF93EB019091CA01992331F0CB0116
:10356000DF91CF911F910C949D1A882379F0CB01A4
:103570000E945B1A182F682FCE010E94071ABE0105
:10358000812FDF91CF911F910C948403CB010E9476
:10359000331A182FF4CF682F80910D0190910E01EE
:1035A0000C94161D682F80910D0190910E010C94C2
:1035B000211D80910D0190910E010C942C1D809184
:1035C00029028595859585950895809129028770B2
:1035D000089590912902977081E009F480E00895A0
:1035E0009091730292FB222720F9281751F080FB5B
:1035F00092F99093730280917202909173020C94ED
:10360000F71B08958091730282FB882780F991E06F
:1036100089270C94F01A81E00C94F01A80E00C9445
:10362000F01A80914D02089590914D02892B80935C
:103630004D020895809590914D02982390934D02EC
:10364000089510924D02089590914C02892B809319
:103650004C020895809590914C02982390934C02CF
:10366000089510924C02089590914B02892B8093FB
:103670004B020895809590914B02982390934B02B2
:10368000089510924B02089580912A02089508959A
:103690000C94471B9091730292FD08C090912A02EE
:1036A000981721F080932A020C94481B089580916A
:1036B0002A02882329F010922A0280E00C94481BE9
:1036C0000895E0910D01F0910E0180914D028083EB
:1036D000E0910D01F0910E01808190914C02892BB7
:1036E0008083E0910D01F0910E01808190914B0259
:1036F000892B808390912A02992381F0E0910D011A
:10370000F0910E018081892B808380910D01909131
:103710000E010E94821C81110E94571B80910D0195
:1037200090910E010C94721008950C94941B90913A
:10373000730292FD10C098E0899F90011124622BC2
:10374000609329020E946B198091290285958595C5
:1037500085950C94951B0C946B191092290280E0AE
:103760000C94951B909129028095892380932902BE
:10377000282F277039F4282F082E000C330B9217AE
:10378000130621F49091730292FF07C085958595E9
:1037900085950E948C190C94AD1B089580E00895C6
:1037A0006FEF7FEF90E080E00C94532590E080E095
:1037B0000E942F2521E08A3E9E4F09F020E0822FB3
:1037C000089582E090E00C94212583E090E00C9431
:1037D0002125CF9384E090E00E942125C82F82E22A
:1037E00090E00E942125982F8C2FCF910895CF93A0
:1037F000C92F682F84E090E00E9435256C2F82E26B
:1038000090E0CF910C943525AB01BC018FE090E0A6
:103810000C944725AB01BC0183E190E00C94472553
:1038200060E070E0CB010C940A1C60E070E0CB011A
:103830000E94041C0C94101C6AEE7EEF90E080E065
:103840000E94532560E082E090E00E94352560E010
:1038500083E090E00E943525109225021092260206
:10386000109227021092280260E084E090E00E940B
:10387000352560E082E290E00E94352560E085E039
:1038800090E00E94352560E086E090E00E943525BA
:103890006FEF87E090E00E94352540E050E0BA01EC
:1038A00088E090E00E94472560E08DE090E00E9473
:1038B000352540E050E0BA0188E190E00E944725BC
:1038C00060E087E190E00E94352540E050E0BA01D9
:1038D0008CE190E00E94472570E060E080E290E09B
:1038E0000E94532540E050E0BA0188E190E00E9438
:1038F00047250C94151C0C941C1C682F8EE090E03E
:103900000C943525FC01329680911901882321F011
:10391000809172029EE187FF96E080E0915008F46A
:10392000089521912223D1F38F5FF8CF662301F10F
:10393000209119012223F1F02091720227FF1AC071
:10394000462F4695469546954E3190F4677021E096
:1039500030E002C0220F331F6A95E2F7840F911DF9
:10396000FC01828190E02823392381E0232B69F434
:1039700080E00895FC01329608962191261721F0E7
:10398000E817F907D1F7F4CF81E008959C01FC0115
:1039900032969FEF80E04191461751F09F3F19F416
:1039A000411101C0982F8F5F8630A9F79F3F09F41E
:1039B0000895290F311D97FD3A95F9016283089505
:1039C000FC01329608962191261303C0DF0111975E
:1039D0001C92E817F907B9F70895E62FE695E695E2
:1039E000E695EE3168F4E80FF92FF11D677021E0DC
:1039F00030E001C0220F6A95EAF78281822B828330
:103A00000895E62FE695E695E695EE3170F4E80F19
:103A1000F92FF11D677021E030E001C0220F6A9597
:103A2000EAF72095828128232283089520911901A5
:103A3000222329F02091720227FD0C94ED1C0C9496
:103A4000C61C20911901222329F02091720227FD22
:103A50000C94011D0C94E01CFC013296809119011C
:103A6000882351F08091720287FF06C08EE1DF014A
:103A70001D928A95E9F7089586E0F9CF0895089593
:103A80000C943F1D8091CD02843049F10E94401D6D
:103A900080E00E945C0310924F0288E190E020E4F5
:103AA0000FB6F894A895809360000FBE2093600035
:103AB00083B7817F846083BF83B7816083BF78943D
:103AC000889583B78E7F83BF0FB6F894A8958091B1
:103AD0006000886180936000109260000FBE0895BE
:103AE0000895CF930E943E1D0E941C060E94701DE7
:103AF000C0E08C2F0E94B505892B31F4CF5FC43014
:103B0000C1F780E0CF91089581E0FCCF08950C9437
:103B1000861D0E9471150E9466100E945C030C9421
:103B2000871D1F921FB61F9211248F939F93AF93EF
:103B3000BF9380914F02811113C08091C502909173
:103B4000C602A091C702B091C8024196A11DB11D45
:103B50008093C5029093C602A093C702B093C80297
:103B6000BF91AF919F918F911F901FBE1F9018958D
:103B700082E084BD93E095BD9AEF97BD80936E007F
:103B800008952FB7F8948091C5029091C602A09134
:103B9000C702B091C8022FBF08952FB7F894609163
:103BA000C5027091C6028091C7029091C8022FBFD2
:103BB00008959C014FB7F8948091C5029091C60278
:103BC000A091C702B091C8024FBF821B930B08950A
:103BD00078941F921FB61F9211248F939F93AF93D7
:103BE000BF938091C5029091C602A091C702B09187
:103BF000C8020196A11DB11D8093C5029093C60213
:103C0000A093C702B093C802BF91AF919F918F91CB
:103C10001F901FBE1F90189581E08093E00080E206
:103C20008093D8001092C9008FE19EE40197F1F7CC
:103C300000C0000087E090EBDC018093D6029093F7
:103C4000D702A093D802B093D90288E19CE00FB6C6
:103C5000F894A895809360000FBE90936000FFCF0A
:103C6000909399018093980108958091700208952E
:103C7000CF93DF9300D00F92CDB7DEB79091CD02F6
:103C8000943019F589837B836A8382E08093E9000D
:103C90008FEF9091E800815095FD06C095ED9A95C3
:103CA000F1F700008111F5CF8091E80085FF0DC08C
:103CB00050E040E063E070E0CE0101960E94622097
:103CC0008091E8008E778093E8000F900F900F901E
:103CD000DF91CF910895BC0184E00C94381EBC01A3
:103CE00083E00C94381E9C0182E08093E9009FEFF2
:103CF0008091E800915085FD06C085ED8A95F1F729
:103D000000009111F5CF8091E80085FF0CC050E0D4
:103D100040E066E070E0C9010E9462208091E80006
:103D20008E778093E8000895CF93DF93EC01809124
:103D300019018823B1F18091720287FF32C060E2DD
:103D400082E08093E9008FEF9091E800815095FD2B
:103D500006C095ED9A95F1F700008111F5CF80919D
:103D6000E80085FF1BC08091190170E050E040E041
:103D7000811104C050E040E068E070E0CE010E9494
:103D800062208091E8008E778093E80080E2FE0157
:103D9000A0E5B2E001900D928A95E1F7DF91CF9115
:103DA000089568E081E0CDCF8091CC02811109C0F7
:103DB0000E94F2210E944F228091E2008460809351
:103DC000E20008951092CC02089508950895089590
:103DD00042E061EC81E00E946E2142E261EC82E00F
:103DE0000C946E218091CF02833009F45FC030F4CF
:103DF0008130C1F1823009F49BC008958A3009F402
:103E000087C08B3009F46DC0893009F04EC08091B5
:103E1000CE02813209F049C08091D2029091D30242
:103E2000029708F042C08091E800877F8093E80005
:103E30008091E80082FF35C09091F3008091F200FC
:103E4000029729F48091F1008B7F813021F48091D9
:103E5000F100809370028091E8008B778093E800F6
:103E60000C94A2218091CE02813AF9F48091E8006D
:103E7000877F8093E8008091D2029091D302892BB2
:103E800061F460E280E592E070E00E94B1208091F0
:103E9000E8008B778093E800089560E090E080E090
:103EA000F3CF8091CD028111C3CF08958091CE02CE
:103EB000813AD9F78091D2029091D302892BA9F748
:103EC0008091E800877F8093E8008091E80080FF80
:103ED000FCCF809119018093F1008091E8008E77EA
:103EE000BDCF8091CE02813201F78091D2029091B4
:103EF000D302892BD1F68091E800877F8093E80078
:103F00000E94A2218091D002809319010C94711516
:103F10008091CE02813249F68091E800877F8093BC
:103F2000E8000E94A2218091D1028093710208953D
:103F30008091CE02813A09F0B8CF8091E800877F66
:103F40008093E8008091E80080FFFCCF80917102AF
:103F5000C2CF84B7877F84BF0FB6F894A8958091AD
:103F60006000886180936000109260000FBE80E85E
:103F700090E00FB6F89480936100909361000FBEBB
:103F80000E94E7100E94F2210E944F228091E200DD
:103F900084608093E20078940E94D8240E94FB10F1
:103FA0008FE091E00E9461108091CD02853099F000
:103FB0000E9403110E94F710F7CF0E94421D8091CA
:103FC000CB02882341F00E94711D882321F00E94BA
:103FD0004C200E9471158091CD02853071F30E94B2
:103FE000891DE6CF0C94F41F292F33272330310588
:103FF00019F168F42130310509F444C0223031054B
:1040000009F445C090E080E030E020E025C0213296
:10401000310549F122323105A9F780E490E02BE522
:1040200034E061157105C1F086EB90E025EA33E0DC
:104030006130710589F0E6CF99278130910581F0D3
:10404000009729F00297F1F6ECE2F3E002C0E4E514
:10405000F3E0849190E09F01FA0131832083089579
:10406000EEE3F3E0F6CF89E090E02AE633E0611575
:10407000710591F389E090E023E833E06130710548
:1040800059F3C0CF82E190E023E933E0E5CF8BE341
:1040900090E028E533E0E0CF80E189BD82E189BD91
:1040A00009B400FEFDCF8091D8008F7D8093D800A9
:1040B0008091E00082608093E0008091E00081FDCB
:1040C000FCCF0895AF92BF92CF92DF92FF920F93F1
:1040D0001F93CF93DF936C01EB018A010E94C121F2
:1040E000F82E811123C00115110539F0F8018081E6
:1040F0009181C81BD90BC80ED91EB12CA12C2097B9
:10410000A9F08091E80085FD22C08091E8008E77BB
:104110008093E80001151105A1F0F80180819181DB
:10412000A80EB91EB182A08285E0F82E8F2DDF91F6
:10413000CF911F910F91FF90DF90CF90BF90AF90E4
:1041400008950E94C1218823D1F2F82EEFCFF60105
:1041500081916F018093F1002197FFEFAF1ABF0AA1
:10416000CECFFC018091D4029091D502861797079B
:10417000A0F06115710529F49091E8009E77909365
:10418000E80090E06115710551F4911108C080912B
:10419000E80082FF34C080E00895BC01F2CF809136
:1041A000CD028823C1F18530C1F18091E80083FD03
:1041B00030C08091E80082FDEACF8091E80080FF66
:1041C000E1CF8091F3002091F200382F6115710545
:1041D00019F02830310558F091E02830310509F008
:1041E00090E02091E8002E772093E800CBCF8191DA
:1041F0008093F100615071092F5F3F4FE7CF8091AD
:10420000CD02882341F0853041F08091E80083FFA2
:10421000BECF81E0089582E0089583E00895FC0117
:104220008091D4029091D50286179707A0F061156E
:10423000710529F48091E8008E778093E80090E082
:104240006115710551F4911108C08091E80082FF59
:1042500035C080E00895BC01F2CF8091CD02882363
:10426000C9F18530C9F18091E80083FD31C08091AA
:10427000E80082FDEACF8091E80080FFE1CF8091E5
:10428000F3002091F200382F6115710519F02830E4
:10429000310558F091E02830310509F090E0809127
:1042A000E8008E778093E800CBCF84918093F10073
:1042B0003196615071092F5F3F4FE6CF8091CD025B
:1042C000882341F0853041F08091E80083FFBDCF25
:1042D00081E0089582E0089583E00895982F973053
:1042E00028F08F708093E90081E008959093E900B1
:1042F000242F762F50E0981731F07091EC00209128
:10430000ED005091F00021FD02C09F5FE8CF309199
:10431000EB003E7F3093EB003091ED003D7F30931A
:10432000ED003091EB0031603093EB007093EC00C6
:104330002093ED005093F0002091EE0027FDE5CF93
:1043400080E008958091CE0287FF13C08091E8003D
:1043500082FF06C08091E8008B778093E80004C05C
:104360008091CD028111F2CF08958091CD028823F2
:10437000D9F38091E80080FFF8CF8091E8008E7734
:10438000ECCF2091E4003091E50095E6A901209161
:10439000EC00822F817020FF06C08091E80080FF32
:1043A00006C080E008952091E80022FD1AC08091A7
:1043B000CD02882389F0853089F08091EB0085FD5E
:1043C0000FC02091E4003091E50042175307F9F245
:1043D0009150E1F684E0089582E0089583E0089525
:1043E00081E008950E9460220E946822E0EEF0E0E1
:1043F000808181608083E8EDF0E080818F77808329
:1044000019BCA7EDB0E08C918E7F8C9380818F7E5C
:1044100080831092CC0208950F931F93CF93DF9364
:104420000E9460220E946822C8EDD0E088818F77C8
:10443000888388818068888388818F7D888319BC80
:104440001092CD021092C9021092CB021092CA02B1
:1044500000EE10E0F80180818B7F8083888181608D
:10446000888342E060E080E00E946E21E1EEF0E0AF
:1044700080818E7F8083E2EEF0E0808181608083A6
:10448000808188608083F80180818E7F808388812D
:1044900080618883DF91CF911F910F910895E8ED9E
:1044A000F0E080818F7E8083E7EDF0E080818160A5
:1044B000808384E082BF81E08093CC020C940C2244
:1044C000E8EDF0E080818E7F80831092E200089515
:1044D0001092DA001092E10008951F920F920FB629
:1044E0000F9211242F933F934F935F936F937F937A
:1044F0008F939F93AF93BF93EF93FF938091E100CE
:1045000082FF0BC08091E20082FF07C08091E10032
:104510008B7F8093E1000E94D7248091DA0080FF96
:1045200019C08091D80080FF15C08091DA008E7F7D
:104530008093DA008091D90080FF96C080E189BD28
:1045400082E189BD09B400FEFDCF81E08093CD02F8
:104550000E94D41E8091E10080FF19C08091E2008A
:1045600080FF15C08091E2008E7F8093E2008091F1
:10457000E20080618093E2008091D80080628093A5
:10458000D80019BC85E08093CD020E94E61E809180
:10459000E10084FF2BC08091E20084FF27C080E10E
:1045A00089BD82E189BD89B5982F917080FFFBCFCD
:1045B0008091D8008F7D8093D8008091E1008F7E1C
:1045C0008093E1008091E2008F7E8093E2008091F1
:1045D000E20081608093E2008091C902882309F49F
:1045E00049C084E08093CD020E94E71E8091E100E3
:1045F00083FF29C08091E20083FF25C08091E10004
:10460000877F8093E10082E08093CD021092C902FF
:104610008091E1008E7F8093E1008091E2008E7FA7
:104620008093E2008091E20080618093E20042E0AA
:1046300060E080E00E946E218091F00088608093AD
:10464000F0000E94E51EFF91EF91BF91AF919F9105
:104650008F917F916F915F914F913F912F910F902B
:104660000FBE0F901F90189519BC1092CD020E949A
:10467000E21E70CF8091E30087FD93E09093CD021E
:10468000B3CF1F920F920FB60F9211242F933F9327
:104690004F935F936F937F938F939F93AF93BF934A
:1046A000CF93DF93EF93FF93D091E900DF70809178
:1046B000EC00C82FC17080FDC0E81092E900809125
:1046C000F000877F8093F00078940E9485231092F9
:1046D000E9008091F00088608093F000CD2BCF70CE
:1046E000C093E900FF91EF91DF91CF91BF91AF911E
:1046F0009F918F917F916F915F914F913F912F91FA
:104700000F900FBE0F901F9018951F93CF93DF93BC
:10471000CDB7DEB7AA970FB6F894DEBF0FBECDBFF8
:104720008EEC92E02091F100FC012193CF01F2E0A8
:10473000863D9F07B9F70E94F21E8091E80083FF33
:104740001EC18091CE029091CF029A3008F017C11D
:10475000E92FF0E0E853FA4D0C941B25803899F0CE
:10476000823809F00CC18091D2028F70873008F036
:1047700006C18093E9008091EB0085FB882780F9D2
:104780001092E90006C08091CA029091CB0291116B
:1047900082609091E800977F9093E8008093F10009
:1047A0001092F1008091E8008E77E5C0882309F42B
:1047B000D3C0823009F0E3C08091D0028111D6C00D
:1047C0008091D2028F702FEF280F263008F0D7C0CB
:1047D0008093E9002091EB0020FFC8C0933031F4B2
:1047E0008091EB0080628093EB00C0C09091EB0061
:1047F00090619093EB0021E030E001C0220F8A9598
:10480000EAF72093EA001092EA008091EB008860BA
:10481000EACF8111B4C01091D0021F778091E300DC
:104820008078812B8093E3008091E800877F8093DC
:10483000E8000E94A2218091E80080FFFCCF8091D7
:10484000E30080688093E30082E0111183E08093AD
:10485000CD0295C08058823008F091C08091D0027E
:104860009091D1028C3D23E09207A1F583E08A83E9
:104870008AE289834FB7F894DE01139620E03EE088
:1048800051E2E32FF0E050935700E49120FF03C082
:10489000E295EF703F5FEF708E2F90E0EA30C0F04E
:1048A000C7968D939D932F5F243159F74FBF809109
:1048B000E800877F8093E8006AE270E0CE0101960D
:1048C0000E94B1208091E8008B778093E80057C068
:1048D000C096E7CF6091D2027091D302AE014F5FD4
:1048E0005F4F0E94F21FBC01892B09F448C09091D0
:1048F000E800977F9093E80089819A810E940F21B8
:10490000E1CF8038E1F58091E800877F8093E8006F
:104910008091C9028093F10045CF811130C0909100
:10492000D002923060F58091E800877F8093E800A4
:104930009093C9020E94A2218091C902882311F09C
:1049400084E005C08091E30087FDFACF81E0809389
:10495000CD020E94E81E13C08091D002813079F40C
:1049600081E0933009F080E08093CB021092E9005F
:104970008091E800877F8093E8000E94A2218091C7
:10498000E80083FF0AC08091E800877F8093E800F9
:104990008091EB0080628093EB00AA960FB6F894AA
:1049A000DEBF0FBECDBFDF91CF911F910895089557
:1049B000CF938091CD028823A1F0C091E900CF7000
:1049C0009091EC00892F817090FD80E8C82B1092A7
:1049D000E9008091E80083FD0E948523CF70C09399
:1049E000E900CF910895AA1BBB1B51E107C0AA1F84
:1049F000BB1FA617B70710F0A61BB70B881F991F80
:104A00005A95A9F780959095BC01CD01089597FB23
:104A1000072E16F4009407D077FD09D00E94F324E6
:104A200007FC05D03EF4909581959F4F08957095B1
:104A300061957F4F0895EE0FFF1F0590F491E02DD3
:104A40000994F999FECF92BD81BDF89A992780B556
:104A50000895A6E1B0E044E050E00C945B25A8E1A5
:104A6000B0E042E050E00C945B25262FF999FECF90
:104A700092BD81BDF89A019700B4021639F01FBAB1
:104A800020BD0FB6F894FA9AF99A0FBE08950396CE
:104A9000272F0E9436250E943525252F0E94362576
:104AA000242F0C9436250196272F0E9436250C942E
:104AB0003525DC01CB01FC01F999FECF06C0F2BD22
:104AC000E1BDF89A319600B40D9241505040B8F7CC
:104AD0000895F894FFCFCA07C107CD07BF07120892
:104AE0001208BF0712081208E9071208F407FF07A7
:104AF0001208120812081208BF0712081208BF078E
:104B00001208DB0712081208100810081008100815
:104B1000100810081008100810080A081208CA0720
:104B2000BD0712081208120812081208120812080B
:104B30001208120812080A0812081208BF07120801
:104B40000E080E080E080E080E080E080E080E08B5
:104B50000E080A083A133A1392139213E41300143E
:104B6000671367130B149714A614A6140215671382
:104B700067130B1580158015891589158B158915F7
:104B80008915891580158015901589158915901539
:104B9000AE23D623BF24D623BF2409242A24BF242E
:044BA00081248D24BB
:104BA4002808641E140A321E00140014142B023543
:104BB4001E941E731E6F1E6B1E01E200E900EA00C4
:104BC400B500B600B700CD008301CC008A01920184
:104BD40094012102230224022502260227022A022A
:104BE400B300B4006F007000818283929395963471
:104BF40036F6F5F4F1F0339735F794010203040522
:104C040006070809000001E200E900EA00B500B661
:104C140000B700CD008301CC008A019201940121E8
:104C240002230224022502260227022A02B300B428
:084C3400006F00700081828313
:00000001FF
