:100000000C94D3010C941A020C941A020C941A0248
:100010000C940E0B0C941A020C941A020C941A02F3
:100020000C941A020C941A020C947C210C94502209
:100030000C94BE180C941A020C941A020C941A0216
:100040000C941A020C941A020C941A020C941A02C0
:100050000C941A020C9409190C941A020C941A02AA
:100060000C941A020C941A020C941A020C941A02A0
:100070000C941A020C941A020C941A020C941A0290
:100080000C941A020C941A020C941A020C941A0280
:100090000C941A020C941A020C941A020C941A0270
:1000A0000C941A020C941A020C941A0214001A00EE
:1000B00008001500170000000400160007000900E2
:1000C0000A0000001D001B00060019000500AE001C
:1000D000E000E200E3000251E10000001300120022
:1000E0000C0018001C00000028000F000E000D007E
:1000F0000B0000002A0037003600100011004600F7
:10010000E400E600E70001512C0000001E021F027F
:10011000200221022202000035024A004E004B005C
:100120004D00000001000100010031022D0201001C
:100130000100010001000100010000002702260269
:10014000250224022302000001003402330230029F
:100150002F02000001000100010001000100010068
:100160000100010003510100010000001E001F00FA
:100170002000210022000000290050005100520000
:100180004F0000002B0039004C0031002D00010011
:1001900001000100E300010001000000270026002B
:1001A000250024002300000001003400330030004B
:1001B0002F00000001000100010038002E020100A4
:1001C00001000100E70001000100000014001A0016
:1001D00008001500170000000400160007000900C1
:1001E0000A0000001D001B00060019000500AE00FB
:1001F000E000E200035102512C0000001300120045
:100200000C0018001C00000028000F000E000D005C
:100210000B0000002A0037003600100011004600D5
:10022000E400E60003510151E100000014037400F2
:100230007200610069006C0020006D0069007800A8
:10024000000014037200610069006E006B0065001D
:1002500065006200730000000403090409023B000A
:10026000020100A0FA0904000001030101000921B4
:10027000110100012240000705810308000A09045A
:100280000100010300000009211101000122BC004E
:100290000705820320000A12011001000000086B0C
:1002A00072637301000102000105010902A10185C9
:1002B000020901A10005091901290515002501956B
:1002C0000575018102950175038101050109300958
:1002D000311581257F95027508810609381581251C
:1002E0007F950175088106050C0A38021581257F66
:1002F000950175088106C0C005010980A10185032B
:1003000019012AB700150126B70095017510810063
:10031000C0050C0901A101850419012AA0021501DB
:1003200026A002950175108100C005010906A101F2
:100330008505050719E029E71500250195087501D0
:1003400081020507190029EF1500250195F07501B7
:10035000810205081901290595057501910295018C
:1003600075039101C005010906A101050719E029DE
:10037000E715002501950875018102950175088131
:10038000010507190029FF150026FF0095067508CD
:10039000810005081901290595057501910295014E
:1003A00075039101C00011241FBECFEFDAE0DEBF5C
:1003B000CDBF04B603FE27C08091A6029091A7028C
:1003C000A091A802B091A9028730904BA740B04BF2
:1003D000D1F41092A6021092A7021092A8021092D5
:1003E000A90214BE84B7877F84BF0FB6F894A8957E
:1003F00080916000886180936000109260000FBE61
:10040000E0E0F8E3099511E0A0E0B1E0E8E3F9E409
:1004100002C005900D92A63AB107D9F722E0A6EAEC
:10042000B1E001C01D92A63AB207E1F70E94BE1EDC
:100430000C9472240C9400000895089581E00895AE
:10044000CF93DF93D82FC62F60912302709124029F
:1004500080912502909126020E94AC16813041F1D4
:10046000882339F08230B1F0833081F1DF91CF9170
:100470000895D11108C089EAC11101C08AEADF914B
:10048000CF910C94E90DD13089F78AEFC111F7CFE4
:1004900089EFF5CFD11105C08BEAC111F0CF8CEAFD
:1004A000EECFD13019F78CEFC111E9CF8BEFE7CF49
:1004B000D11105C08BE4C111E2CF8EE4E0CFD13081
:1004C000A9F68DE4C111DBCF8AE4D9CFD11105C0E3
:1004D00083EFC111D4CF82EFD2CFD13039F681EF83
:1004E000C111CDCF80EFCBCF81E008950C941E02D7
:1004F00008950C9478021F93CF93DF9300D000D01F
:100500000F92CDB7DEB749835A836B833091CC010C
:1005100089819A8131111DC06623B9F02223A9F087
:100520000E946815182F682F89819A810E941115E1
:1005300069817A81812F0F900F900F900F900F900B
:10054000DF91CF911F910C942B030E943F15182F20
:10055000EFCF0E94681569817A81EDCFFC01262FCB
:10056000408151816281738184810C947B02CF939D
:10057000DF93EC0160E00E94AE02BE01DF91CF91FB
:100580000C9479020E94F916811102C00E94A717EB
:100590000C9436050C94380508950E9478100E943A
:1005A000CC022FEF84E39CE0215080409040E1F7A3
:1005B00000C000000C942D190F931F93CF93DF936D
:1005C000EC0161E00E94AE028C01BE010E94760245
:1005D000882329F1BE01C8010E94BF088823F9F0D1
:1005E000BE01C8010E9411098823C9F0BE01C801DB
:1005F0000E94340A882399F08A81882339F00115F2
:100600008CE5180751F00F3D1C4579F0CE01DF91C4
:10061000CF911F910F910C9474020E94CD0280E043
:10062000DF91CF911F910F9108950E94A717F7CFE7
:1006300008950C94180381E008950C941B03CF9344
:10064000C82F0E9419038C2FCF910C941D0390E0AA
:1006500080E008950895972F70E026E0929F600D46
:10066000711D1124FB0190E3899FE00DF11D112400
:10067000EE0FFF1FE455FF4F859194910895FC0103
:10068000EE0FFF1FE45DFD4F859194910895CF9388
:10069000DF930E942B030E945C04EC01811520E58E
:1006A000920708F042C0811530E4930708F0BDC0FE
:1006B000883E910528F5803E910508F09DC0883A56
:1006C000910588F4853A910508F08FC08130910535
:1006D00009F492C0009709F48FC0049708F08CC009
:1006E000D0E0C0E089C08F3B910508F489C0805CF0
:1006F0009109C03CD105A0F30E943F03EC017CC0EE
:100700008115904250F4C11581E0D80708F074C0FB
:10071000C03FD10528F3D0656FC0C11590E3D9075C
:1007200008F079C0CE019F70E7CF811525E59207CB
:1007300058F5811534E5930708F0A6C0811542E508
:10074000940750F4C11581E5D80708F471C0DC2F77
:10075000CC27C16FD06A50C0982F969596959E0170
:1007600023703327C115D34508F07FC0C1E0D0E026
:1007700002C0CC0FDD1F2A95E2F720E2929FC00154
:100780001124C82BD92B6FC0C11589E5D807A8F44F
:10079000C11598E5D90708F07CC0C11526E5D20738
:1007A00008F09ECF8C2F0E94F304C82FD0E0DC2FDE
:1007B000CC27CC27DF71D0621FC0C1153AE5D30723
:1007C00008F46CC0CE0190568115904208F088CF95
:1007D0008D2F8F710E94F30490E0982F882788272F
:1007E0009F719C012C2BE901E6CFC55AD0E0CE5970
:1007F000DE4FC881D0E0D064CE01DF91CF91089563
:10080000C85AD0E0CC0FDD1FCC5CDE4F0990D881F8
:10081000C02DD464F1CFCE019927D3FF03C0EC01E2
:10082000D86CEACFEC01D06CE7CFDF70D06AE4CFB0
:10083000CE01E4E096958795EA95E1F783702C2F39
:1008400026952695237090E2299F90011124382B3C
:100850008C2F8370C1E0D0E002C0CC0FDD1F8A95E1
:10086000E2F7C22BD32BDC68C7CFC1E0D0E002C0D7
:10087000CC0FDD1F2A95E2F730E2939FC0011124CF
:10088000C82BD92BDA68B8CFD82FCC27C46FD06A41
:10089000B3CFDC2FCC27C06FD06AAECF8C2F8F7038
:1008A0000E94F30434E0D695C7953A95E1F7CF70EE
:1008B0009C2FEC01D069A0CF82389105B1F1B0F442
:1008C0008133910509F475C048F48932910509F422
:1008D00069C08A32910509F473C008958533910582
:1008E00009F459C08933910501F10895833E9105BA
:1008F000A9F138F4803E9105F9F0823E910549F165
:100900000895863E9105A9F1873E9105C9F1843E7F
:10091000910519F52091980221FF1FC0809197023F
:1009200084FD14C087EE90E0089520919702237013
:10093000A1F080EE90E008952091970220FD47C03D
:100940003091980230FF09C024FF44C090E080E05D
:1009500004C02091970222FDF7CF089520919702BD
:1009600022FD3BC03091980230FDE3CF24FFF5CF4C
:10097000EDCF2091970223FFF0CF24FDE7CFD2CF18
:100980002091970223FD2CC03091980231FFEECFC9
:1009900084EE90E008952091970225FFDECF89E252
:1009A00090E008952091970225FFD7CF85E390E04E
:1009B00008952091970226FFD0CF8AE290E0089513
:1009C0002091970226FFC9CF81E390E0089589E343
:1009D00090E0089583EE90E0089582EE90E008950F
:1009E00086EE90E008959091970292FF06C0282F1E
:1009F00028712830F9F4877F846093FF06C0282F80
:100A000028712831F1F4877E84612091980220FFBB
:100A100006C0382F38713830D9F4877F816021FFC4
:100A200006C0282F28712831D1F4877E816194FD7A
:100A3000877E0895282F24712430F9F68B7F8860F3
:100A4000DCCF282F2471243101F78B7E8861DDCF24
:100A5000382F3171313019F78E7F8860E0CF282F21
:100A60002171213121F78E7E8861E1CF0C941C0227
:100A70000C941D02E82FF0E0E757FD4F80810895A8
:100A8000089580EA8A95F1F70895F894E82FE295A1
:100A9000EF70F0E031A1282F2F7081E090E001C0CD
:100AA000880F2A95EAF7982F9095932391A392A106
:100AB000892B82A37894089508950F931F93CF9361
:100AC000DF93CDB7DEB72E970FB6F894DEBF0FBE1B
:100AD000CDBF0E94E40680910E0181112DC01D82C0
:100AE0001E821F82188681E9898387E98A8387EFBE
:100AF0008B8386E68C83CE010196E6E0F1E09E01D1
:100B0000275F3F4FDC014D91CD014193A217B30701
:100B1000C9F726E0EEE2F1E0DE01199601900D92B0
:100B20002A95E1F7FC01A0E0B1E0CE010F962191FA
:100B30002D93E817F907D9F780910E0194E0811100
:100B400090E09093920284E0891B8093910206E0EA
:100B500011E0F80181918F010E944505F1E00A3012
:100B60001F07B9F700E011E0D8018D918D010E94B7
:100B70004505B1E006301B07B9F7E1E8F2E0A9E866
:100B8000B2E011921D9282E0E938F807D1F784E0D3
:100B90000E9482060E94C2022E960FB6F894DEBF13
:100BA0000FBECDBFDF91CF911F910F910C94EE0638
:100BB0000E94CE068823F1F08091910290E0875741
:100BC0009D4F0E940107811112C08091A6018F5F85
:100BD0008093A601863048F0E0919102F0E0E7575B
:100BE000FD4F10821182128213820C94CA0210925D
:100BF000A601FBCF8091920290E087579D4F0E9403
:100C00001E070C945C05AF92BF92CF92DF92EF92D9
:100C1000FF920F931F93CF93DF93C6E0D1E001E8DB
:100C200012E08AE0C82E81E0D82EB12CEE24E394A5
:100C3000F12C8991F894E82FE295EF70F0E021A172
:100C40008F70A70102C0440F551F8A95E2F7CA01B1
:100C5000922F982B91A392A18095892382A37894B7
:100C60000E944105E0E0F1E030E020E0A12C41915C
:100C7000A42FA295AF70B0E090968C9190E04F7049
:100C800002C0959587954A95E2F780FD37C08E2D75
:100C9000022E01C0880F0A94EAF7A82A2F5F3F4F5F
:100CA0002630310521F7FE01319780810E944505EC
:100CB000F8018081A81621F1A08281E0B82A0F5F97
:100CC0001F4FCC16DD0609F0B4CF6091920270E0A0
:100CD00067577D4F2B2D44E081E892E00E94830608
:100CE0000E94D8058B2DDF91CF911F910F91FF901E
:100CF000EF90DF90CF90BF90AF90089580E0CDCF80
:100D000080E0DCCF0895FF920F931F93CF93DF9382
:100D1000F82E092F162FD72FC42F222349F081E058
:100D20008093A9010E94EE189093A8018093A701D7
:100D30008091A9018823A1F08091A7019091A80139
:100D40000E94FA18069760F0EF2DF02FA12FBD2F0B
:100D5000CE0FDF2FD11DEC17FD0741F41092A90132
:100D6000DF91CF911F910F91FF90089581918D9305
:100D7000F2CF88EC9091E30097FD0EC0EFE3FCE921
:100D80003197F1F700C000008150A1F70E940121C6
:100D900010929D0280E0089581E008958091AA015B
:100DA000811107C00E94B90681110AC082E08093B8
:100DB000AA0181E09091AA01913009F080E00895A4
:100DC00081E0F5CF0C94CE060E94E20680930E01DE
:100DD0000E94CE0681110C94F50608950E94CE065D
:100DE000811102C00C94FB06089561E070E08FE071
:100DF00091E00C94BF0A61E070E08FE091E00C9408
:100E0000C60ACF93DF93D82FC92F0E94600B00979B
:100E100099F4ED2FFC2FDC01A455BE4F2C912193AA
:100E2000019684309105B9F780EB91E00E940108AA
:100E300081E0DF91CF91089580E0FBCF30E020E0AA
:100E4000FC014191CF01F901E455FE4F40832F5F32
:100E50003F4F24303105A1F780EB91E00C94F80767
:100E60000C94200280910E01811106C082E38093D0
:100E7000180184E38093170120911801A22FA295F5
:100E8000AF70B0E091963C9191972F7081E090E027
:100E9000BC01022E01C0660F0A94EAF7462F409566
:100EA000432391964C93919792963C919297362B2F
:100EB00092963C93929740911701E42FE295EF7040
:100EC000F0E031A14F70042E01C0880F0A94EAF7B8
:100ED000982F9095932391A392A1892B82A390960A
:100EE0008C9190E002C0959587952A95E2F78170E4
:100EF00020A130E002C0359527954A95E2F792E0AF
:100F000020FF90E0892B8093B60190910E0181E043
:100F100098279093B201891B8093B1010895CF93D4
:100F2000E091B601EE0FEE0F20911801A22FA295CD
:100F3000AF70B0E090968C9190E02F7002C09595C4
:100F400087952A95E2F78170992740911701A42F80
:100F5000A295AF70B0E090962C9130E04F7002C037
:100F6000359527954A95E2F7A9014170552720FF4D
:100F700002C042E050E0842BE82BE093B601C09120
:100F8000B201EF70F0E0EB59FE4F80819091B50116
:100F9000890F8093B50184306CF0EC2F0C2E000C7F
:100FA000FF0BED54FE4F80818F5F808360E08C2FBC
:100FB0000E9430078091B5018D3F6CF4EC2F0C2E10
:100FC000000CFF0BED54FE4F80818150808361E067
:100FD0008C2F0E9430078091B501082E000C990BD0
:100FE00064E070E00E9402248093B501CF910895DF
:100FF000E091B201F0E0ED54FE4F2081FC0120832E
:101000000895FF920F931F93CF93DF93D091B10177
:101010000D2F10E00D541E4FFC01C081F80180819E
:10102000C81BFC2E1F1464F08C2FC7FD80E0C81B6A
:10103000C11110C0DF91CF911F910F91FF900895C2
:10104000FA94F80180818F5F808360E08D2F0E9489
:101050003007E8CFCF5FF80180818150808361E065
:101060008D2F0E943007E4CFAF92BF92CF92DF92D4
:10107000EF92FF920F931F93CF93DF937C015B015D
:10108000C42FD22FFC0182818823F9F04093B9014B
:101090000E94EE189093B8018093B70180E28C0F04
:1010A000883008F061C0C77081E001C0880FCA9520
:1010B000EAF7DF91CF911F910F91FF90EF90DF90B2
:1010C000CF90BF90AF900C94FC0D1091B901141308
:1010D00040C08091B7019091B8010E94FA186C014C
:1010E000B701C5010E94EE12C816D90690F5C0E2FC
:1010F000CD0F1D17B9F080E2810F883040F41770D2
:1011000081E001C0880F1A95EAF70E94030EC830EB
:1011100048F481E09D2F977001C0880F9A95EAF7F7
:101120000E94FC0D802F0E94E90DC830E8F4D770B2
:1011300081E001C0880FDA95EAF7DF91CF911F9126
:101140000F91FF90EF90DF90CF90BF90AF900C94F5
:10115000030E80E28C0F883038F4C77081E001C044
:10116000880FCA95EAF7E9CFDF91CF911F910F91D0
:10117000FF90EF90DF90CF90BF90AF9008950F93C6
:101180009C01CB01243F4CE5340759F1A8F4293DDB
:10119000FCE53F0701F12A3D4CE53407D1F1283D3C
:1011A0003C4591F406E221EE41EE68ED7CE50E94BB
:1011B000340880E00F910895263FFCE53F07E9F0F1
:1011C000B0F0273F3C45F9F0FC018281882339F1DA
:1011D0001092B901EFCF07E225EE45EE69ED7CE50F
:1011E000E6CF06E221EE40EE64EF7CE5E0CF07E2D9
:1011F00025EE44EE65EF7CE5DACF06E221EE42EE25
:1012000066EF7CE5D4CF07E225EE46EE67EF7CE59E
:10121000CECF08E221E045EE6AED7CE5C8CF81E063
:10122000C9CFCF93DF93EC01FB018281882309F4BE
:1012300019C1C230FCE5DF07C0F1C6319CE5D90712
:1012400030F09E012B5F3C452930310570F50E943E
:1012500016179093980280939702C031ECE5DE0751
:1012600009F4CFC008F05BC0C8308CE5D80709F49A
:10127000B6C088F5C430ECE5DE0709F4A8C0C0F4B8
:10128000C2308CE5D80709F49CC080919702826037
:10129000C330DC4509F498C0809197029091980280
:1012A0000E9424170E94781080E0DF91CF9108956A
:1012B000809197028061C630ECE5DE0709F484C0B6
:1012C000809197028860C730DC4508F47DC080912A
:1012D0009702806279C0CC308CE5D80709F489C0C8
:1012E00070F4809197028C60CA30ECE5DE0709F457
:1012F0006BC008F478C0809197028E7F65C0CE30B5
:101300008CE5D80709F479C0809197028B7FCF30A4
:10131000DC4508F459C0809197028F7E55C0CC3FC0
:10132000ECE5DE0709F457C030F5C3318CE5D8078A
:1013300009F46FC078F4C131ECE5DE0709F465C04B
:10134000C231DC4509F0A8CF0E9478108091970245
:101350008F773AC0C5318CE5D80709F462C008F42C
:1013600076C0809198028160CB3FDC4509F094CF34
:101370008093980291CFC115FDE5DF0709F44DC0B8
:1013800088F4809198028D7FCE3F9CE5D90781F348
:10139000809198028E7FCF3FDC4550F38091980278
:1013A0008360E6CFC230FDE5DF0709F459C008F4D9
:1013B00044C080E0C330DD4509F06ECF0E94A9171C
:1013C0006BCF8091970281608093970265CF809167
:1013D00097028460F9CF809198028260C9CF809192
:1013E00097028064F1CF0E94781080919702806804
:1013F000EBCF809197028D7FE7CF80919702877F17
:10140000E3CF809197028F7DDFCF809197028F7B12
:10141000DBCF80919702837FD7CF809198028C7F1A
:10142000A7CF8091970282FB992790F921E092271C
:1014300090FB82F990FB83F9C7CF80919802982F97
:10144000909591708E7F892B90FB81F991CF0E94AE
:10145000781090919702892F97FB87F98058B4CF25
:1014600081E0ACCF81E021CFCF93DF93EB018631D8
:101470009C4511F50E94FD159A81992399F08A7A6D
:1014800091E009F490E09093BA01811109C089E2DA
:101490000E94D8150E94491680E0DF91CF910895EF
:1014A00085E3F6CF8091BA01811104C089E20E94E0
:1014B000DF15F0CF85E3FBCF81E0EFCF8EE14B9BD3
:1014C00002C08150E1F74B9BFECF08955B9880E20C
:1014D0008A95F1F75B9A0895FC013BE03A95F1F7A4
:1014E00098E020E080E031E040E14A95F1F7880F94
:1014F0004B9B02C08160232742E04A95F1F7000030
:1015000040E14A95F1F7915079F790E19A95F1F71A
:1015100099B132E03A95F1F7000040E14A95F1F7D0
:1015200093FB992790F992272081920F9083089539
:10153000EF92FF920F931F93CF93DF930F92CDB74C
:10154000DEB719828C017C01E60EF11C0E151F0519
:1015500061F481E09981911180E00F90DF91CF914A
:101560001F910F91FF90EF9008950E945E0ACE01A7
:1015700001960E946C0AF80181938F01E7CF909346
:10158000BC018093BB01539A5B9A08959093BC0170
:101590008093BB0153985B9AEB9AE9E6F0E0808177
:1015A0008F73808308956150770B91E001C0990F8C
:1015B0006A95EAF720E031E0911108C0222391F00A
:1015C0005B9A80E28A95F1F75B980895492F48234A
:1015D00039F05B9A232740E24A95F1F79695ECCFD4
:1015E0005B98F9CF5B98EDCFFF920F931F93CF934A
:1015F000DF93EC018C01060F111DC017D10731F4E8
:10160000DF91CF911F910F91FF900895F9900E9463
:10161000660A68E08F2D0E94D30AEFCF1F920F92C7
:101620000FB60F9211242F933F934F935F936F93B5
:101630007F938F939F93AF93BF93CF93DF93EF935A
:10164000FF935B98539AC091BB01D091BC016D810F
:10165000662321F08E819F810E94F40A0E94660A0F
:1016600080E18A95F1F75B9853985B9A80E18A95BF
:10167000F1F76A81662309F18B819C810E94980AA7
:10168000E881F981882311F088E001C082E080833D
:101690000E945E0AFF91EF91DF91CF91BF91AF91D0
:1016A0009F918F917F916F915F914F913F912F917A
:1016B0000F900FBE0F901F901895E881F981E4CF2D
:1016C000CF93DF93C091BB01D091BC01F894539AA2
:1016D0005B9885E08A95F1F7000053985B9A80E269
:1016E0008A95F1F74B9B0CC0539A5B9AE881F9817C
:1016F00081E08083789481E090E0DF91CF9108953C
:101700006D81662381F08E819F810E94980A8111EC
:101710000AC0539A5B9AE881F98182E080837894C9
:1017200082E090E0EACF0E945E0A80E28A95F1F7BB
:101730005B98539A80E18A95F1F76A81662321F0DC
:101740008B819C810E94F40A0E94660AE881F981DB
:101750001082789490E080E0D0CF9093C201809383
:10176000C1010895E091C101F091C201309721F0CB
:101770000190F081E02D099480E00895E091C1018D
:10178000F091C201309799F020912D01222359F058
:101790002091970227FF07C0DC012C9111962C9312
:1017A000119725E02C930280F381E02D0994089590
:1017B000E091C101F091C201309739F022E0DC01E3
:1017C0002C930480F581E02D099408952091BF01A8
:1017D0003091C0012817390771F09093C0018093B0
:1017E000BF01E091C101F091C201309721F0068064
:1017F000F781E02D099408952091BD013091BE013B
:101800002817390771F09093BE018093BD01E091D4
:10181000C101F091C201309721F00084F185E02DE3
:101820000994089585B7806885BF85B7806885BFAE
:101830000895089508950C94190C08950C941D0CA6
:101840000E94120C0E941A0C0C941B0C0C94CE06D5
:10185000089508950E94E5180E945D050E9481196F
:101860000E9432070C941E0CBF92CF92DF92EF922F
:10187000FF920F931F93CF93DF93CDB7DEB72A97D5
:101880000FB6F894DEBF0FBECDBF0E94280C0E9499
:10189000290C0E9403060E94260C882309F461C0CB
:1018A00084ECC82E81E0D82E10E000E0B02E802F0E
:1018B0000E943A05E82EF601F1906F01F81609F43E
:1018C0004AC08091500281FD0E9440059F2D9E25B7
:1018D00080E0FF24F394292F2F21C1F18E83BF8252
:1018E000EF2081E009F480E088870E94EE18816093
:1018F000782F9A8789874E815F8168858A850E94C3
:10190000D20CF801EC53FE4F8081F826F0820E9441
:101910008F070E942F1C0E94B20B9091C301891760
:1019200089F10E94B20B8093C3012A960FB6F894F6
:10193000DEBF0FBECDBFDF91CF911F910F91FF9002
:10194000EF90DF90CF90BF900C941F038F5FFF0C40
:10195000863009F0C0CF0F5F1F4F0830110509F026
:10196000A5CF8FEF89838A831B820E94EE18816046
:10197000782F9D838C8349815A816B818D810E9450
:10198000D20CC5CF2A960FB6F894DEBF0FBECDBFDE
:10199000DF91CF911F910F91FF90EF90DF90CF904B
:1019A000BF900895CF93DF93CDB7DEB72B970FB6D7
:1019B000F894DEBF0FBECDBF4F83588769877A8703
:1019C0008B871E821D8285E0FE013796DE0111960F
:1019D00001900D928A95E1F749815A816B817C8152
:1019E0008D819E812B960FB6F894DEBF0FBECDBFC2
:1019F000DF91CF910C94F112FC01808191810C94C4
:101A0000AA15CF93C82F882309F48BC08238C1F45C
:101A10000E94B20B81FD85C089E30E94D8150E9407
:101A200049162FEF81EE94E0215080409040E1F77D
:101A300000C0000089E30E94DF15CF910C94491685
:101A40008338A1F40E94B20B80FD6BC083E50E9435
:101A5000D8150E9449162FEF81EE94E02150804066
:101A60009040E1F700C0000083E5E5CF8438A1F4A1
:101A70000E94B20B82FD55C087E40E94D8150E94D7
:101A800049162FEF81EE94E0215080409040E1F71D
:101A900000C0000087E4CFCF8CEF8C0F813A90F428
:101AA0006C2F8091190190911A010E94C21788230E
:101AB00029F08C2F0E94DF150E9449168C2F0E945E
:101AC000D815BBCF80E28C0F883048F4C77081E016
:101AD00001C0880FCA95EAF70E940016AECFEBE569
:101AE000EC0FE33040F4F0E0ED55FE4F808190E0E4
:101AF000CF910C94E60BE8E5EC0FE73150F4F0E001
:101B0000EE0FFF1FEB58FE4F80819181CF910C9417
:101B1000FC0BC03F30F08C2F0E94291BCF910C94FE
:101B2000141CCF910895882309F452C0823871F4AF
:101B30000E94B20B81FF4CC089E30E94D8150E941D
:101B4000491689E30E94DF150C944916833859F42D
:101B50000E94B20B80FF3CC083E50E94D8150E9412
:101B6000491683E5EFCF843859F40E94B20B82FF07
:101B70002FC087E40E94D8150E94491687E4E2CF5F
:101B80009CEF980F913AF0F290E2980F983050F451
:101B9000877091E001C0990F8A95EAF7892F0E941A
:101BA0000616D2CF9BE5980F933020F490E080E0AA
:101BB0000C94E60B98E5980F973120F490E080E0C4
:101BC0000C94FC0B803F20F00E94911B0C94141C81
:101BD0000895CF93C82F0E94010DC93349F42FEF08
:101BE00087EE93E0215080409040E1F700C0000074
:101BF0008C2FCF910C94930D882321F00E94001616
:101C00000C9449160895882321F00E9406160C941E
:101C100049160895BF92CF92DF92EF92FF920F93F1
:101C20001F93CF93DF936C01D62FC72FFC01058143
:101C300002950F70128111110E941D160E94F61557
:101C4000E82E882391F01123D1F08C2F807F8034EF
:101C500021F080E28D0F883090F082E00E9494168F
:101C60000E94F61591E0E82EE926BC2EB2949FE082
:101C7000B922EB2DF0E0EC58FB4D0C941624E12C2E
:101C8000F4CF0C2F0F70C07F11F00295007F11234D
:101C9000A9F0002359F080E28D0F883010F0D111A7
:101CA00009C0802F0E9400160E9449168D2F0E94A5
:101CB000010D14C0802F0E941016F6CF8D2F0E94A8
:101CC000930D002359F080E28D0F883010F0D11170
:101CD0002CC0802F0E9406160E9449162B2D2850DA
:101CE000330B2430310520F40E94B20B0E941F03F5
:101CF000EE2009F49EC10E94F21580FD9AC1F60102
:101D000012820E94EC150E947514C6010E943A10BE
:101D10000E94EC15DF91CF911F910F91FF90EF90F2
:101D2000DF90CF90BF900C949614802F0E941616CF
:101D3000D3CFFC2FFF70FF2EC07FC03219F0F2947A
:101D400080EFF822DD2369F0D13049F1112391F1C0
:101D5000002351F1F601858180FFA8CF8F70858324
:101D600023C0112381F0011106C00E9430168F2973
:101D70000E94FC0DB3CF0130C1F70E9430168F29AD
:101D80000E943616ABCF011106C00E943F168F2D60
:101D90000E94030EA3CF013009F4A0CFF6CF112388
:101DA00029F0063008F09ACF8F2DE2CF053008F0E9
:101DB00095CFEDCF002359F3D93349F4FFEF27EE48
:101DC00033E0F15020403040E1F700C000008D2F9B
:101DD0000E94930D83CF8C2F86958695837069F032
:101DE000813009F07BCF8D2F9C2F9370111102C091
:101DF00090E080E00E94FC0B71CF8D2F9C2F9370A0
:101E0000111102C090E080E00E94E60B67CF8D2F99
:101E1000112329F00E94291B0E94141C5FCF0E94ED
:101E2000911BFACF8C2F837009F041C0111156CF4E
:101E30004D2F429546954770440F440F0D2F0F705C
:101E400010E030E020E0042E04C0000F111F221F1C
:101E5000331F0A94D2F760E070E0CB01D4FF0FC0CB
:101E60006FE070E080E090E004C0660F771F881F8D
:101E7000991F4A95D2F76095709580959095C69573
:101E8000C695C370602B712B822B932BC23049F007
:101E900058F4C13019F00E94271420CF0E94151465
:101EA0001DCF0E9439141ACF0E94131417CF8695A4
:101EB000112311F08C2F8170882309F40FCF4D2F3F
:101EC000429546954770440F440F0D2F0F7010E058
:101ED00030E020E0042E04C0000F111F221F331F2A
:101EE0000A94D2F760E070E0CB01D4FF0FC06FE03E
:101EF00070E080E090E004C0660F771F881F991F94
:101F00004A95D2F76095709580959095C695C6953F
:101F1000C370602B712B822B932BC23049F058F485
:101F2000C13019F00E94EC14D9CE0E94DA14D6CE3A
:101F30000E94FE14D3CE0E944F14D0CECF70112336
:101F400029F08C2F0E9475148D2F12CF8D2F0E9497
:101F5000030E8C2F0E949614C1CED23F89F160F4FB
:101F6000D03FC9F0D13F29F1112309F442C001113A
:101F70009DCE8C2F8F7121C0D33F39F1D43FA1F773
:101F8000112369F1CF718C2F0E94751463E08C2F9F
:101F90000E947F16A3CE112341F0053008F09ECE9B
:101FA0008C2F8F710E94B91499CE063008F096CE0E
:101FB000F7CF8C2F8F71112369F20E9475148ECE8A
:101FC0008C2F8F711123C9F3C5CF112329F08C2FCA
:101FD0008F710E94601482CE0E945B147FCE81E0DC
:101FE0000E949416023008F479CE82E00E94941682
:101FF00075CE002359F0D93309F0E9CE8FEF97EE73
:10200000E3E081509040E040E1F7DFCE8C2F8F710C
:10201000A1CF4C2F4F706D2FC6010E9427030E9445
:102020008B135CCE4C2F4F706D2FC6010E942A037C
:1020300055CEDF91CF911F910F91FF90EF90DF90E0
:10204000CF90BF9008950F931F93CF93DF93EC0130
:10205000688179818A810E94B4158C010E941015D3
:102060000E941214B801CE01DF91CF911F910F9100
:102070000C940A0ECF93DF93EC018B819C81892B0A
:1020800029F08881998189238F3F59F4DF91CF917D
:102090000895CE010E942310CE01DF91CF910C94C0
:1020A000B702CE010E94DC028111F3CF0E94F61527
:1020B000882361F38A81882349F382E0DF91CF91FD
:1020C0000C9494160E941D160E942D160E9449160B
:1020D0000E943B1D0E94141C90E080E00E94E60BD1
:1020E00090E080E00C94FC0B0E94E6150C946210CA
:1020F0000E940D160C947410E92FE295EF70E250D7
:10210000EE3070F4F0E0EC57FB4D0C941624803F59
:1021100019F020F4883E20F481E00895843FE1F333
:1021200080E00895883EC0F3813FD1F7F5CF93FB5F
:10213000882780F908950E94AA150C947C10CF93EB
:10214000DF9300D000D00F92CDB7DEB70F900F9085
:102150000F900F900F90DF91CF910895CF93DF9361
:1021600000D000D000D0CDB7DEB726960FB6F894D9
:10217000DEBF0FBECDBFDF91CF9108951F93CF93E8
:10218000DF93C091CD0116E08091CE018C1304C085
:10219000DF91CF911F910895D0E01C9FF0011D9F0A
:1021A000F00D1124E153FE4F408151816281738112
:1021B000848195810E94AE102196C770E5CF409131
:1021C000FF01509100026091010270910202809122
:1021D0000302909104020C94AE101F93CF93DF93EF
:1021E00080910402807FA9F480910102882389F004
:1021F0008091CD01C091CE016091FF0170910002EC
:10220000A0910202B0910302D62FD72316E0C81383
:1022100004C0DF91CF911F91089590E0109711F0C5
:10222000DF3F19F401968770F2CF189F9001199F34
:10223000300D1124F901E153FE4F41814713F2CFD4
:1022400040814613EFCF42814111ECCF438154814D
:102250004A1B5B0B483C510528F7809104028F70A4
:10226000806180930402F901EC52FE4F80818F70EF
:10227000806180838FEF91E00E943A10DF91CF91CF
:102280001F910C94BE10AF92BF92CF92DF92EF924B
:10229000FF920F931F93CF93DF93CDB7DEB7619774
:1022A0000FB6F894DEBF0FBECDBF8C0185E0F801FC
:1022B000DE011D9601900D928A95E1F7F8014081AB
:1022C0005181E2808FEFC82E81E0D82E609102020A
:1022D000709103026115710509F461C19091FF01CC
:1022E00020910002892F82238F3F09F458C1A380D7
:1022F000B480F0900102F501E61BF70BFF2009F412
:10230000FCC080910402382F307FE83CF10508F0D2
:10231000B2C0311179C0FE2C251323C0941321C003
:10232000E1101FC08F708061809304020E94DF1053
:10233000C6010E943A1080910402F80185838F2D16
:1023400061960FB6F894DEBF0FBECDBFDF91CF917F
:102350001F910F91FF90EF90DF90CF90BF90AF90C3
:102360000895AB2829F0842F85238F3F09F033C1CE
:1023700080E0F82FF170DF2E80FF3CC08091CD010E
:102380002091CE0136E0821315C04D875E878D8582
:102390009E850E94AA15292F22952F702230F0F0D9
:1023A000243018F59F70F1F0F8019581907FD1F4F9
:1023B000D12C1EC090E0389FF001399FF00D112400
:1023C000E153FE4F6181651306C06081641303C051
:1023D00062816E110FC001968770D5CF9F7011F08A
:1023E000882331F3805E883018F3C8010E943A10C8
:1023F000FD2CA5CFEE2009F4A2CF809104028160CC
:1024000080930402F12C9BCF251306C0941304C0C3
:10241000F801EE2009F48DC04D875E878D859E857D
:102420000E949B10882319F1EE2009F1809104028B
:10243000803270F02091FF013091000238872F83A5
:102440001986BB86AA868C87CE0107960E943A1011
:1024500086E0F801AFEFB1E001900D928A95E1F7C7
:102460000E94ED100E94DF10FF24F39468CFC80192
:102470000E943A10F9CF311113C07A2DB98AA88A77
:102480006E2D89890E949F108FEF91E00E943A1073
:1024900086E0F60111928A95E9F70E94DF10B2CF2B
:1024A00025130FC094130DC0E1100BC0F8018583F4
:1024B000C8010E943A1086E0F60111928A95E9F768
:1024C0003ECF4D875E878D859E850E949B10882319
:1024D00071F2EE2061F280910402803208F4B8CFEC
:1024E0002091FF01309100023A8329831B82BD8233
:1024F000AC828E83CE010196A9CFE83CF10508F0AD
:1025000041C0FE2CEE2009F4B2CF25132AC094134B
:1025100028C08091040280FD1BC0982F907FC1F0DD
:10252000F8018583903F31F0982F907F905F8F70F6
:10253000892B8583C8010E943A1086E0F801AFEF2D
:10254000B1E001900D928A95E1F70E94DF10F7CE7D
:1025500086E0F801AFEFB1E001900D928A95E1F7C6
:10256000EECE4D875E878D859E850E949B108111E2
:102570006FCF80910402816080930402C8010E94A1
:102580003A10DDCE7A2DB98AA88A6E2D89890E94EB
:102590009F1086E0F60111928A95E9F7D6CFEE20DA
:1025A00009F465CF4D875E878D859E850E949B10BF
:1025B000F82E882309F45BCF86E0F801AFEFB1E095
:1025C00001900D928A95E1F78FEF91E00E94FC0C4B
:1025D0000E94ED10BACF81E08E25CBCE88EC90E042
:1025E00008951F93CF93DF93CDB7DEB72C970FB627
:1025F000F894DEBF0FBECDBF4F83588769877A87B7
:102600008B879C87CE0107960E944311882369F02F
:102610008A859B85892B39F04F815885842F8523A6
:102620008F3F09F071C016E05FC086E0FE0137966B
:10263000DE01119601900D928A95E1F78A859B85BE
:10264000892B89F38F81988589238F3F61F32091AE
:10265000CE0130E0C9010196877099274091CD01E4
:102660004817190671F40E9478101092CE0110924A
:10267000CD0186E0EFEFF1E0DF011D928A95E9F7E9
:10268000D2CF96E0929FD001939FB00D1124A15319
:10269000BE4FFE01319601900D929A95E1F780931D
:1026A000CE010E94BE10BFCF819FC0011124815373
:1026B0009E4F0E9443118823E9F0E091CD011E9FB7
:1026C000F0011124E153FE4F4081518162817381F9
:1026D000848195810E94AE108091CD0190E0019699
:1026E000877099278093CD018091CD019091CE0183
:1026F0008913DACF2C960FB6F894DEBF0FBECDBF8C
:10270000DF91CF911F91089569857A858B859C858E
:102710000E94AE1088CFEF92FF920F931F93CF933A
:10272000DF938C01892B81F0F12CEE24E394E801F6
:102730002196F8018491843770F4843008F05FC0EA
:102740008130B1F08230A1F1DF91CF911F910F91D3
:10275000FF90EF900895853709F44CC008F43DC010
:102760009CE7980F903780F78F770E94930D49C0B0
:102770000E5F1F4FFE01849190E2980F983060F435
:102780008770FE2D01C0FF0F8A95EAF78F2F0E94F8
:1027900020160E94491602C00E94010D8F2D815003
:1027A00030F2EFE9FFE03197F1F700C00000F7CF1A
:1027B0000E5F1F4FFE01849190E2980F983050F405
:1027C0008770FE2D01C0FF0F8A95EAF78F2F0E94B8
:1027D0002616DFCF0E94930DE1CF0E5F1F4FFE0143
:1027E000C491C150D8F28FE99FE00197F1F700C082
:1027F0000000F7CF0E5F1F4FFE01F490CFCF0E9475
:10280000010D8E01CBCF08950C9403140E94041483
:1028100060932702709328028093290290932A02E2
:102820000C94621008950C9406140F931F9300915A
:102830002702109128022091290230912A02602B50
:10284000712B822B932B1F910F910C9406140F93D5
:102850001F930091270210912802209129023091A4
:102860002A0260237123822393231F910F910C94DA
:1028700006140F931F9300912702109128022091B4
:10288000290230912A0260277127822793271F91FE
:102890000F910C9406140C9403140C944B140E9486
:1028A0004D14609323027093240280932502909329
:1028B00026020C94621060E070E0CB010C944F147F
:1028C0000F931F9341E050E060E070E08A019B01AC
:1028D00004C0000F111F221F331F8A95D2F7C901B0
:1028E000B8011F910F910C944F140F931F9341E067
:1028F00050E060E070E004C0440F551F661F771F72
:102900008A95D2F78091230290912402A09125020A
:10291000B09126028A019B01082B192B2A2B3B2BF5
:10292000C901B8011F910F910C944F140F931F937D
:1029300041E050E060E070E004C0440F551F661FA6
:10294000771F8A95D2F7CB01BA0160957095809573
:10295000909500912302109124022091250230913C
:10296000260260237123822393231F910F910C94DD
:102970004F140F931F9341E050E060E070E004C0FB
:10298000440F551F661F771F8A95D2F78091230247
:1029900090912402A0912502B09126028A019B0108
:1029A000082719272A273B27C901B8011F910F9132
:1029B0000C944F140F931F93009123021091240243
:1029C0002091250230912602602B712B822B932BB4
:1029D0001F910F910C944F140F931F93009123029A
:1029E0001091240220912502309126026023712348
:1029F000822393231F910F910C944F140F931F93D5
:102A00000091230210912402209125023091260288
:102A100060277127822793271F910F910C944F14E1
:102A20000895E92FEE0FE90FEE0F8E0F982F977094
:102A300041E001C0440F9A95EAF786958695869500
:102A400095E0899FF0011124EB5FFD4F30E020E01D
:102A500070E05191DF011197CB01022E02C09695D3
:102A600087950A94E2F781708195852784238527CD
:102A70008C932F5F3F4F2530310559F70895E92F8B
:102A8000EE0FE90FEE0F8E0F982F977086958695B3
:102A9000869525E0829FF0011124EB5FFD4F50E009
:102AA00040E080E0219130E0092E02C03695279564
:102AB0000A94E2F721703327042E01C0220F0A94F2
:102AC000EAF7822B4F5F5F4F4530510559F7089564
:102AD000BF92CF92DF92EF92FF920F931F93CF930B
:102AE000DF938C01C0902302D0902402E090250255
:102AF000F09026028091270290912802A09129024D
:102B0000B0912A02C82AD92AEA2AFB2ACFE1D0E0CA
:102B1000BC2ED701C6010C2E04C0B695A79597957B
:102B200087950A94D2F780FD0EC0219788F7B12CC3
:102B30008B2DDF91CF911F910F91FF90EF90DF9040
:102B4000CF90BF900895B8018C2F0E944703019742
:102B500061F3EECFCF93DF93EC010E946815BE01C5
:102B6000DF91CF910C9447031F93CF93DF93EB0139
:102B70009091CC01992331F0CB01DF91CF911F913E
:102B80000C94AA15882379F0CB010E946815182FA0
:102B9000682FCE010E941115BE01812FDF91CF91C8
:102BA0001F910C944703CB010E943F15182FF4CFBF
:102BB000682F8091190190911A010C944218682F86
:102BC0008091190190911A010C944D18809119016E
:102BD00090911A010C94581880912B028595859537
:102BE0008595089580912B028770089590912B020E
:102BF000977081E009F480E0089580914F02089574
:102C000090914F02892B80934F0208958095909167
:102C10004F02982390934F02089510924F02089507
:102C200090914E02892B80934E0208958095909149
:102C30004E02982390934E02089510924E020895EA
:102C400090914D02892B80934D020895809590912B
:102C50004D02982390934D02089510924D020895CD
:102C600080912C02089508950C94331690912C02B3
:102C7000981721F080932C020C94341608958091BB
:102C80002C02882329F010922C0280E00C94341638
:102C90000895E0911901F0911A0180914F0280830B
:102CA000E0911901F0911A01808190914E02892BD7
:102CB0008083E0911901F0911A01808190914D0279
:102CC000892B808390912C02992381F0E091190146
:102CD000F0911A018081892B808380911901909154
:102CE0001A010E94AE1781110E943F1680911901AE
:102CF00090911A010C94BE0B08950C947C1698E0E8
:102D0000899F90011124622B60932B020E947514FD
:102D100080912B028595859585950C947D16109252
:102D20002B0280E00C947D1690912B0280958923D4
:102D300080932B02282F277071F4282F082E000C67
:102D4000330B9217130639F08595859585950E946A
:102D500096140C948F160895CF92DF92EF92FF9203
:102D60006C01EE24FF2420E0C114D104E104F1043D
:102D700019F0C701B60120E1C72ED82EE92EFF2495
:102D8000C114D104E104F10419F0285FC701B601B0
:102D90006B017C0154E0F694E794D794C7945A955C
:102DA000D1F7C114D104E104F10419F02C5FC7017B
:102DB000B6016B017C0142E0F694E794D794C79486
:102DC0004A95D1F7C114D104E104F10419F02E5F42
:102DD000C701B6019695879577956795672B682B00
:102DE000692B09F02F5F822FFF90EF90DF90CF903B
:102DF000089590E080E00E94382421E08C3E9E4FB0
:102E000009F020E0822F089582E090E00C943024B5
:102E1000682F82E090E00C943E2483E090E00C94D4
:102E20003024682F83E090E00C943E24CF9384E01C
:102E300090E00E943024C82F81E290E00E9430246C
:102E4000982F8C2FCF910895CF93C92F682F84E0AE
:102E500090E00E943E246C2F81E290E0CF910C9490
:102E60003E24AB01BC018FE090E00C945024AB01F8
:102E7000BC0183E190E00C94502460E070E0CB0151
:102E80000C94371760E070E0CB010E9431170C946E
:102E90003D176CEE7EEF90E080E00E945C2460E0E5
:102EA00082E090E00E943E2460E083E090E00E9497
:102EB0003E241092270210922802109229021092AA
:102EC0002A0260E084E090E00E943E2460E081E21B
:102ED00090E00E943E2460E085E090E00E943E2465
:102EE00060E086E090E00E943E246FEF87E090E093
:102EF0000E943E2440E050E0BA0188E090E00E9449
:102F0000502460E08DE090E00E943E2440E050E0DC
:102F1000BA0188E190E00E94502460E087E190E0EF
:102F20000E943E2440E050E0BA018CE190E00E9413
:102F3000502460E080E290E00E943E2440E050E0B7
:102F4000BA0188E190E00E9450240C9442170C943E
:102F50004917682F8EE090E00C943E24FC013296D5
:102F600080912D01882321F0809197029EE187FFB7
:102F700096E080E0915008F4089521912223D1F346
:102F80008F5FF8CF662301F120912D012223F1F00C
:102F90002091970227FF1AC0462F469546954695E1
:102FA0004E3190F4677021E030E002C0220F331FF1
:102FB0006A95E2F7840F911DFC01828190E028233D
:102FC000392381E0232B69F480E00895FC013296D7
:102FD00008962191261721F0E817F907D1F7F4CFC9
:102FE00081E008959C01FC0132969FEF80E04191C1
:102FF000461751F09F3F19F4411101C0982F8F5F80
:103000008630A9F79F3F09F40895290F311D97FDD8
:103010003A95F90162830895FC0132960896219150
:10302000261303C0DF0111971C92E817F907B9F7BF
:103030000895E62FE695E695E695EE3168F4E80FFB
:10304000F92FF11D677021E030E001C0220F6A9571
:10305000EAF78281822B82830895E62FE695E69532
:10306000E695EE3170F4E80FF92FF11D677021E05D
:1030700030E001C0220F6A95EAF72095828128236B
:103080002283089520912D01222329F02091970277
:1030900027FD0C9419180C94F21720912D0122236E
:1030A00029F02091970227FD0C942D180C940C18F0
:1030B000FC01329680912D01882351F08091970276
:1030C00087FF06C08EE1DF011D928A95E9F708951A
:1030D00086E0F9CF089508950C946B180E946C183F
:1030E00080919D02843049F11092510288E190E074
:1030F00020E40FB6F894A895809360000FBE20934B
:10310000600080E00E941F030E946C1883B7817FDB
:10311000846083BF83B7816083BF7894889583B7C9
:103120008E7F83BF0FB6F894A89580916000886168
:1031300080936000109260000FBE08950895CF93B1
:103140000E946A180E9403060E949E18C0E08C2FFD
:103150000E943A05811105C0CF5FC830C1F7CF91F9
:10316000089581E0FCCF08950C94B3180E94781064
:103170000E94B20B0E941F030C94B4181F921FB63A
:103180001F9211248F939F93AF93BF93809151020D
:10319000811113C08091930290919402A0919502A5
:1031A000B09196024196A11DB11D80939302909318
:1031B0009402A0939502B0939602BF91AF919F9114
:1031C0008F911F901FBE1F90189582E084BD93E0E1
:1031D00095BD9AEF97BD80936E0008952FB7F89430
:1031E0008091930290919402A0919502B0919602E1
:1031F0002FBF08959C014FB7F8948091930290914E
:103200009402A0919502B09196024FBF821B930B3E
:10321000089578941F921FB61F9211248F939F9345
:10322000AF93BF938091930290919402A0919502E5
:10323000B09196020196A11DB11D809393029093C7
:103240009402A0939502B0939602BF91AF919F9183
:103250008F911F901FBE1F90189587E797E7909357
:1032600001088093000888E19AE00FB6F894A895C9
:10327000809360000FBE90936000FFCFCF92DF92EB
:10328000EF92FF920F931F93CF93C0E0E82EF12CA3
:103290008C2F0E943A0510E000E0C82ED12CC60108
:1032A000002E02C0959587950A94E2F780FD11C023
:1032B0000F5F1F4F0630110591F7CF5FC83041F700
:1032C00080E0CF911F910F91FF90EF90DF90CF9012
:1032D0000895602F7C2F80E00E942B03E816F906EA
:1032E00039F781E0EECFCF93C82F8CE20E943E19D0
:1032F000882321F08C2FCF910C943E1980E0CF9140
:103300000895CF930E94F916811102C00E94A71759
:10331000C5E608C00E9403068FE39CE90197F1F718
:1033200000C00000C150B1F789E20E9473198111F9
:103330000BC18AE20E94731981110E94A71785E0D0
:103340000E94731981110E942D190E940417809305
:10335000500287E00E947319882371F08BE10E946C
:103360007319882309F4CDC090915002892F8D7F65
:1033700091FF826080935002809150020E94081752
:103380000E941617909398028093970280EE0E94F5
:103390007319882341F090919702892F8E7F90FFB7
:1033A00081608093970289E30E947319882341F01A
:1033B00090919702892F8D7F91FF82608093970271
:1033C00082EE0E947319882341F090919702892F11
:1033D0008B7F92FF84608093970286EE0E94731920
:1033E000882341F090919702892F877F93FF88600F
:1033F0008093970283EE0E947319882341F0909185
:103400009702892F8F7E94FF80618093970285E3D6
:103410000E947319882341F090919702892F8F7D24
:1034200095FF80628093970281E30E94731988233D
:1034300041F090919702892F8F7B96FF8064809353
:10344000970281E10E947319882341F090919702BD
:10345000892F97FB87F98058809397028091970274
:10346000909198020E94241787E20E947319C82F36
:103470008EE10E9473198111C2608FE10E9473195D
:103480008111C46080E20E9473198111C86081E2D9
:103490000E9473198111C06182E20E947319811127
:1034A000C06283E20E9473198111C06484E20E94A9
:1034B0007319882309F442C0C0688C2F0E94111729
:1034C0006C2F70E090E080E00E9413146091230262
:1034D0007091240280912502909126020E944D1441
:1034E0008FE00E947319882319F081E00E94A917C8
:1034F00085E10E947319882339F180E0CF910C9403
:10350000A9178EE00E947319882339F09091500218
:10351000892F8B7F92FF84602DCF80E10E947319E9
:1035200090915002882329F0892F877F93FF88602C
:1035300021CF892F8E7F90FF81601CCFC111BDCF1D
:103540000E940D17682FBDCFCF910895809158022A
:1035500080FF12C06091200185E0689FB0011124B6
:10356000759567957595679560387105A8F561152E
:103570007105A1F1862F089581FF09C06091200196
:1035800085E0689FB001112475956795EDCF609136
:10359000200182FD0AC0809157028823D1F09091CA
:1035A0001F0160912001891728F085E0689FB00114
:1035B0001124DACF869FB001112485E0869F900107
:1035C000879F300D1124692F70E0C9010E940224E9
:1035D000CBCF65E070E0CECF8FE7089581E008950E
:1035E0008091580280FF0CC060911C0170E07595BD
:1035F0006795759567956115710549F1862F089551
:1036000081FF06C060911C0170E075956795F3CF4E
:1036100060911C0182FD0BC0909156029923A1F08C
:1036200060911B0180911C01961738F0682F70E0A3
:103630006038710500F38FE70895899FC001112458
:1036400070E00E940224F4CF61E070E0D7CF81E007
:103650000895803F31F40E94A61A819580935C0200
:103660000895813F19F40E94A61AF8CF823F31F4E1
:103670000E94A61A819580935B020895833F19F4F6
:103680000E94A61AF8CF893F29F40E94F01A80936D
:103690005D0208958A3F21F40E94F01A8195F7CFC8
:1036A0008B3F31F40E94F01A819580935E02089559
:1036B0008C3F19F40E94F01AF8CF843F31F48091C6
:1036C0005A02816080935A020895853F21F48091C7
:1036D0005A028260F7CF863F21F480915A028460BB
:1036E000F1CF873F21F480915A028860EBCF883F69
:1036F00021F480915A028061E5CF8D3F31F48091B1
:10370000580281608093580208958E3F21F4809181
:1037100058028260F7CF8F3FB9F7809158028460DA
:10372000F1CF90915B02803F59F480915C0287FF5A
:103730000DC010925C0291110BC01092570208C08C
:10374000813F81F480915C0218169CF3992381F0EB
:1037500080915D0290915E02892B09F064C0109205
:1037600056020895823F49F497FFF0CF10925B0212
:1037700080915C028111ECCFE0CF833F19F41916E0
:10378000ACF3E4CF20915D02893F29F41216F4F6E0
:1037900010925D02DBCF8A3F19F427FFD7CFF8CF15
:1037A00020915E028B3F29F427FFD0CF10925E025A
:1037B000CDCF8C3F19F41216CCF3C8CF843F31F42F
:1037C00080915A028E7F80935A02C0CF853F21F4A8
:1037D00080915A028D7FF7CF863F21F480915A0263
:1037E0008B7FF1CF873F21F480915A02877FEBCF07
:1037F000883F21F480915A028F7EE5CF8D3F31F4CE
:10380000809158028E7F80935802A0CF8E3F21F482
:10381000809158028D7FF7CF8F3F09F097CF80912D
:1038200058028B7FF0CF08950E94EE189C01909172
:103830005B0280915C02982B21F03093550220931B
:10384000540290915D0280915E02982B21F030939A
:1038500053022093520289E592E00C94D80BEF9228
:10386000FF920F931F93CF93DF9300D000D000D02F
:10387000CDB7DEB786E0E9E5F2E0DE011196019012
:103880000D928A95E1F7E0905B02F0905C02009166
:103890005D0210915E0210925B0210925C02109227
:1038A0005D0210925E028E2D8F2991F0809154025C
:1038B000909155020E94FA18AC01909157029923F9
:1038C00009F43FC0809121018417150608F447C010
:1038D000802F812B91F080915202909153020E948F
:1038E000FA18AC0190915602992309F477C080919F
:1038F0001D018417150608F47FC080915B0290912A
:103900005C02892B90915D02892B90915E02892B3C
:1039100011F00E94141C86E0FE013196A9E5B2E088
:1039200001900D928A95E1F726960FB6F894DEBFC6
:103930000FBECDBFDF91CF911F910F91FF90EF9000
:103940000895209122018AE0289F900111242417D4
:10395000350708F0BDCF9F5F9093570202C09F3F8D
:10396000D1F7EE2059F00E94A61A9FEF1E140CF416
:1039700091E0899F802D112480935B02FF2059F0F4
:103980000E94A61A9FEF1F140CF491E0899F802DCE
:10399000112480935C0230915B02332309F498CFA9
:1039A00020915C02222309F493CF45EB3403C0013C
:1039B0001124992359F090935B0245EB2403900165
:1039C0001124332339F030935C0282CF81E080935D
:1039D0005B02F3CF81E080935C027ACF20911E01DD
:1039E0008AE0289F900111242417350708F085CF1D
:1039F0009F5F9093560202C09F3FD1F7002359F07A
:103A00000E94F01A9FEF10160CF491E0899F802D10
:103A1000112480935D02112359F00E94F01A9FEF48
:103A200011160CF491E0899F802D112480935E0281
:103A300030915D02332309F460CF20915E0222238E
:103A400009F45BCF45EB3403C0011124992359F0ED
:103A500090935D0245EB240390011124332339F048
:103A600030935E024ACF81E080935D02F3CF81E024
:103A700080935E0242CF86E0E9E5F2E0DF011D922D
:103A80008A95E9F710925702109256021092580246
:103A9000089580917F020895CF93DF9300D00F9215
:103AA000CDB7DEB790919D02943019F589837B8361
:103AB0006A8382E08093E9008FEF9091E800815063
:103AC00095FD06C095ED9A95F1F700008111F5CFAF
:103AD0008091E80085FF0DC050E040E063E070E0B9
:103AE000CE0101960E94711F8091E8008E7780932D
:103AF000E8000F900F900F90DF91CF910895BC01D7
:103B000084E00C944C1DBC0183E00C944C1D9C0182
:103B100082E08093E9009FEF8091E800915085FD5D
:103B200006C085ED8A95F1F700009111F5CF8091DF
:103B3000E80085FF0CC050E040E066E070E0C9019D
:103B40000E94711F8091E8008E778093E8000895AD
:103B5000CF93DF93EC0180912D018823B1F1809107
:103B6000970287FF32C060E282E08093E9008FEF26
:103B70009091E800815095FD06C095ED9A95F1F77A
:103B800000008111F5CF8091E80085FF1BC0809176
:103B90002D0170E050E040E0811104C050E040E0B1
:103BA00068E070E0CE010E94711F8091E8008E777E
:103BB0008093E80080E2FE01AFE5B2E001900D9253
:103BC0008A95E1F7DF91CF91089568E081E0CDCF4C
:103BD00080919C02811109C00E9401210E945E21F6
:103BE0008091E20084608093E200089510929C022C
:103BF0000895089508950C94B61842E061EC81E0B0
:103C00000E947D2042E261EC82E00C947D20809154
:103C10009F02833009F45FC030F48130C1F18230FB
:103C200009F49BC008958A3009F487C08B3009F4E9
:103C30006DC0893009F04EC080919E02813209F03A
:103C400049C08091A2029091A302029708F042C05D
:103C50008091E800877F8093E8008091E80082FFF0
:103C600035C09091F3008091F200029729F4809181
:103C7000F1008B7F813021F48091F10080937F02ED
:103C80008091E8008B778093E8000C94B1208091BC
:103C90009E02813AF9F48091E800877F8093E800E2
:103CA0008091A2029091A302892B61F460E28FE5DA
:103CB00092E070E00E94C01F8091E8008B778093B3
:103CC000E800089560E090E080E0F3CF80919D02ED
:103CD0008111C3CF089580919E02813AD9F78091D6
:103CE000A2029091A302892BA9F78091E800877F17
:103CF0008093E8008091E80080FFFCCF80912D0147
:103D00008093F1008091E8008E77BDCF80919E0274
:103D1000813201F78091A2029091A302892BD1F602
:103D20008091E800877F8093E8000E94B120809115
:103D3000A00280932D010C94781080919E02813214
:103D400049F68091E800877F8093E8000E94B120C7
:103D50008091A10280938002089580919E02813A11
:103D600009F0B8CF8091E800877F8093E8008091C8
:103D7000E80080FFFCCF80918002C2CF84B7877FAC
:103D800084BF0FB6F894A8958091600088618093F5
:103D90006000109260000FBE80E890E00FB6F894CB
:103DA00080936100909361000FBE0E94200C0E94DE
:103DB00001210E945E218091E20084608093E200F4
:103DC00078940E94E7230E942A0C83E291E00E94EB
:103DD000AD0B80919D02853039F00E94340C0E9419
:103DE000280C0E94290CF5CF0E946E1880919B022E
:103DF000882379F30E949F18882359F30E945B1F40
:103E0000E8CF0C94031F292F33272330310519F1F4
:103E100068F42130310509F444C02230310509F439
:103E200045C090E080E030E020E025C0213231053F
:103E300049F122323105A9F780E490E025E633E02C
:103E400061157105C1F08CEB90E029EA32E0613038
:103E5000710589F0E6CF99278130910581F00097AF
:103E600029F00297F1F6ECE2F2E002C0E8E5F2E0B8
:103E7000849190E09F01FA01318320830895E2E468
:103E8000F2E0F6CF89E090E02EE632E061157105B0
:103E900091F389E090E027E832E06130710559F351
:103EA000C0CF82E190E027E932E0E5CF8BE390E0FC
:103EB0002CE532E0E0CF80E189BD82E189BD09B423
:103EC00000FEFDCF8091D8008F7D8093D800809137
:103ED000E00082608093E0008091E00081FDFCCFF3
:103EE0000895AF92BF92CF92DF92FF920F931F93EC
:103EF000CF93DF936C01EB018A010E94D020F82E52
:103F0000811123C00115110539F0F80180819181DB
:103F1000C81BD90BC80ED91EB12CA12C2097A9F013
:103F20008091E80085FD22C08091E8008E77809323
:103F3000E80001151105A1F0F80180819181A80E1A
:103F4000B91EB182A08285E0F82E8F2DDF91CF912E
:103F50001F910F91FF90DF90CF90BF90AF90089589
:103F60000E94D0208823D1F2F82EEFCFF601819164
:103F70006F018093F1002197FFEFAF1ABF0ACECFF8
:103F8000FC018091A4029091A50286179707A0F0EA
:103F90006115710529F49091E8009E779093E800EF
:103FA00090E06115710551F4911108C08091E8000D
:103FB00082FF34C080E00895BC01F2CF80919D0261
:103FC0008823C1F18530C1F18091E80083FD30C0C4
:103FD0008091E80082FDEACF8091E80080FFE1CF88
:103FE0008091F3002091F200382F6115710519F0CE
:103FF0002830310558F091E02830310509F090E083
:104000002091E8002E772093E800CBCF8191809318
:10401000F100615071092F5F3F4FE7CF80919D0202
:10402000882341F0853041F08091E80083FFBECFC6
:1040300081E0089582E0089583E00895FC01809175
:10404000A4029091A50286179707A0F0611571054B
:1040500029F48091E8008E778093E80090E0611564
:10406000710551F4911108C08091E80082FF35C0BC
:1040700080E00895BC01F2CF80919D028823C9F1B0
:104080008530C9F18091E80083FD31C08091E8005E
:1040900082FDEACF8091E80080FFE1CF8091F300BC
:1040A0002091F200382F6115710519F02830310583
:1040B00058F091E02830310509F090E08091E80057
:1040C0008E778093E800CBCF84918093F100319676
:1040D000615071092F5F3F4FE6CF80919D02882389
:1040E00041F0853041F08091E80083FFBDCF81E051
:1040F000089582E0089583E00895982F973028F07E
:104100008F708093E90081E008959093E900242F57
:10411000762F50E0981731F07091EC002091ED006F
:104120005091F00021FD02C09F5FE8CF3091EB007D
:104130003E7F3093EB003091ED003D7F3093ED00FA
:104140003091EB0031603093EB007093EC002093E2
:10415000ED005093F0002091EE0027FDE5CF80E0C8
:10416000089580919E0287FF13C08091E80082FF2E
:1041700006C08091E8008B778093E80004C08091AE
:104180009D028111F2CF089580919D028823D9F379
:104190008091E80080FFF8CF8091E8008E77ECCF27
:1041A0002091E4003091E50095E6A9012091EC0012
:1041B000822F817020FF06C08091E80080FF06C03A
:1041C00080E008952091E80022FD1AC080919D02B0
:1041D000882389F0853089F08091EB0085FD0FC040
:1041E0002091E4003091E50042175307F9F2915015
:1041F000E1F684E0089582E0089583E0089581E087
:1042000008950E946F210E947721E0EEF0E0808106
:1042100081608083E8EDF0E080818F77808319BC36
:10422000A7EDB0E08C918E7F8C9380818F7E808310
:1042300010929C0208950F931F93CF93DF930E94D7
:104240006F210E947721C8EDD0E088818F77888325
:1042500088818068888388818F7D888319BC1092CB
:104260009D021092990210929B0210929A0200EE07
:1042700010E0F80180818B7F808388818160888352
:1042800042E060E080E00E947D20E1EEF0E080818D
:104290008E7F8083E2EEF0E0808181608083808188
:1042A00088608083F80180818E7F8083888180612F
:1042B0008883DF91CF911F910F910895E8EDF0E091
:1042C00080818F7E8083E7EDF0E080818160808354
:1042D00084E082BF81E080939C020C941B21E8ED76
:1042E000F0E080818E7F80831092E200089510922A
:1042F000DA001092E10008951F920F920FB60F920C
:1043000011242F933F934F935F936F937F938F93DA
:104310009F93AF93BF93EF93FF938091E10082FF50
:104320000BC08091E20082FF07C08091E1008B7F8B
:104330008093E1000E94E6238091DA0080FF19C09B
:104340008091D80080FF15C08091DA008E7F809325
:10435000DA008091D90080FF96C080E189BD82E1BA
:1043600089BD09B400FEFDCF81E080939D020E94CB
:10437000E81D8091E10080FF19C08091E20080FF7C
:1043800015C08091E2008E7F8093E2008091E20070
:1043900080618093E2008091D80080628093D80091
:1043A00019BC85E080939D020E94FA1D8091E10076
:1043B00084FF2BC08091E20084FF27C080E189BD8B
:1043C00082E189BD89B5982F917080FFFBCF8091E4
:1043D000D8008F7D8093D8008091E1008F7E8093FC
:1043E000E1008091E2008F7E8093E2008091E20004
:1043F00081608093E20080919902882309F449C08A
:1044000084E080939D020E94FB1D8091E10083FF68
:1044100029C08091E20083FF25C08091E100877F61
:104420008093E10082E080939D0210929902809136
:10443000E1008E7F8093E1008091E2008E7F809387
:10444000E2008091E20080618093E20042E060E05F
:1044500080E00E947D208091F00088608093F000D1
:104460000E94F91DFF91EF91BF91AF919F918F91A4
:104470007F916F915F914F913F912F910F900FBE60
:104480000F901F90189519BC10929D020E94F61D66
:1044900070CF8091E30087FD93E090939D02B3CFAE
:1044A0001F920F920FB60F9211242F933F934F93A9
:1044B0005F936F937F938F939F93AF93BF93CF93AC
:1044C000DF93EF93FF93D091E900DF708091EC00D0
:1044D000C82FC17080FDC0E81092E9008091F00003
:1044E000877F8093F00078940E9494221092E900D4
:1044F0008091F00088608093F000CD2BCF70C09346
:10450000E900FF91EF91DF91CF91BF91AF919F9122
:104510008F917F916F915F914F913F912F910F906C
:104520000FBE0F901F9018951F93CF93DF93CDB7B9
:10453000DEB7AA970FB6F894DEBF0FBECDBF8EE9E7
:1045400092E02091F100FC012193CF01F2E0863A44
:104550009F07B9F70E94071E8091E80083FF1EC1E4
:1045600080919E0290919F029A3008F017C1E92F26
:10457000F0E0EE56FB4D0C941624803899F082380A
:1045800009F00CC18091A2028F70873008F006C13B
:104590008093E9008091EB0085FB882780F91092D9
:1045A000E90006C080919A0290919B02911182606D
:1045B0009091E800977F9093E8008093F10010922B
:1045C000F1008091E8008E77E5C0882309F4D3C01C
:1045D000823009F0E3C08091A0028111D6C08091A1
:1045E000A2028F702FEF280F263008F0D7C08093DB
:1045F000E9002091EB0020FFC8C0933031F4809196
:10460000EB0080628093EB00C0C09091EB00906162
:104610009093EB0021E030E001C0220F8A95EAF789
:104620002093EA001092EA008091EB008860EACFC4
:104630008111B4C01091A0021F778091E3008078AF
:10464000812B8093E3008091E800877F8093E800CE
:104650000E94B1208091E80080FFFCCF8091E300B0
:1046600080688093E30082E0111183E080939D02D3
:1046700095C08058823008F091C08091A00290913E
:10468000A1028C3D23E09207A1F583E08A838AE2B0
:1046900089834FB7F894DE01139620E03EE051E2A3
:1046A000E32FF0E050935700E49120FF03C0E29520
:1046B000EF703F5FEF708E2F90E0EA30C0F0C7964A
:1046C0008D939D932F5F243159F74FBF8091E80060
:1046D000877F8093E8006AE270E0CE0101960E9435
:1046E000C01F8091E8008B778093E80057C0C09688
:1046F000E7CF6091A2027091A302AE014F5F5F4FBE
:104700000E94011FBC01892B09F448C09091E80068
:10471000977F9093E80089819A810E941E20E1CFC3
:104720008038E1F58091E800877F8093E8008091F0
:1047300099028093F10045CF811130C09091A00281
:10474000923060F58091E800877F8093E800909335
:1047500099020E94B12080919902882311F084E08F
:1047600005C08091E30087FDFACF81E080939D0230
:104770000E94FD1D13C08091A002813079F481E078
:10478000933009F080E080939B021092E9008091C1
:10479000E800877F8093E8000E94B1208091E800C4
:1047A00083FF0AC08091E800877F8093E8008091B2
:1047B000EB0080628093EB00AA960FB6F894DEBF00
:1047C0000FBECDBFDF91CF911F9108950895CF9374
:1047D00080919D028823A1F0C091E900CF70909153
:1047E000EC00892F817090FD80E8C82B1092E900C1
:1047F0008091E80083FD0E949422CF70C093E9006D
:10480000CF91089597FB072E16F4009407D077FDFB
:1048100009D00E941C2407FC05D03EF49095819598
:104820009F4F0895709561957F4F0895EE0FFF1F7C
:104830000590F491E02D0994AA1BBB1B51E107C020
:10484000AA1FBB1FA617B70710F0A61BB70B881F20
:10485000991F5A95A9F780959095BC01CD010895AF
:10486000F999FECF92BD81BDF89A992780B5089538
:10487000A8E1B0E042E050E00C946424262FF999BE
:10488000FECF92BD81BDF89A019700B4021639F0AF
:104890001FBA20BD0FB6F894FA9AF99A0FBE089580
:1048A0000396272F0E943F240E943E24252F0E941A
:1048B0003F24242F0C943F240196272F0E943F244D
:1048C0000C943E24DC01CB01FC01F999FECF06C01B
:1048D000F2BDE1BDF89A319600B40D9241505040BE
:1048E000B8F70895F894FFCF410E410E990E990E36
:1048F000EB0E070F6E0E6E0E120F9E0FAD0FAD0F6B
:1049000009106E0E6E0E1210871087109010901006
:1049100092109010901090108710871097109010A0
:1049200090109710BD22E522CE23E522CE23182336
:084930003923CE2390239C23C0
:10493800F694F590F4369197F7660000000001AB05
:104948000100AC0105AC0134322D022808641E14A4
:104958000A321E491DA81D871D831D7F1D01F6945F
:10496800F590F436E200E900EA00B500B600B700B9
:10497800CD008301CC008A01920194012102230217
:1049880024022502260227022A02B300B4006F007F
:10499800700081828300FF0100010000FFFF00001A
:1049A800010001FF00E200E900EA00B500B600B727
:1049B80000CD008301CC008A0192019401210223D9
:1049C8000224022502260227022A02B300B4006F3D
:0649D800007000818283E3
:00000001FF
