:100000000C94CC010C9413020C9413020C94130264
:100010000C942F0E0C9413020C9413020C941302E4
:100020000C9413020C9413020C9418210C94EC21E0
:100030000C94D11B0C9413020C9413020C94130215
:100040000C9413020C9413020C9413020C941302DC
:100050000C9413020C94281C0C9413020C9413029D
:100060000C9413020C9413020C9413020C941302BC
:100070000C9413020C9413020C9413020C941302AC
:100080000C9413020C9413020C9413020C9413029C
:100090000C9413020C9413020C9413020C9413028C
:1000A0000C9413020C9413020C94130229001400F4
:1000B0001A000800150017002B00040016000700A6
:1000C00009000A00E1001D001B00060019000500E0
:1000D000E000E300E2000000025100001C001800F4
:1000E0000C00120013002A0000000B000D000E008F
:1000F0000F002800000011001000360037000151E9
:1001000000002C000000E600E700E40035021E02BB
:100110001F02200221022202010000000000000054
:1001200000002D020100005C0000000000002E0213
:100130000100010001000000010000002302240270
:10014000250226022702010000002F02300234029D
:1001500033020100000031023802010001000100F9
:1001600000000100000001000100010035001E0038
:100170001F00200021002200010050005100520009
:100180004F002D00010000000000000000002E00C4
:100190000100010001000000010000002300240014
:1001A000250026002700010000002F003000340049
:1001B000330001000000310038000100010001009F
:1001C0000000010000000100010001000100010029
:1001D0000100010001000100010001000100010017
:1001E0000100010001000100010001000100010007
:1001F00001000100010000000100000001000100F9
:1002000001000100010001000000010001000100E7
:1002100001000100000001000100010001000100D7
:100220000000010000000100010001000C03540067
:1002300077006F0079006F00000014037200610006
:1002400069006E006B0065006500620073000000CD
:100250000403090409023B00020100A0FA0904009A
:1002600000010301010009211101000122400007E2
:1002700005810308000A09040100010300000009C8
:10028000211101000122B6000705820320000A1295
:10029000011001000000086B726B61010001020097
:1002A0000105010902A10185020901A10005091941
:1002B000012908150025019508750181020501092C
:1002C0003009311581257F95027508810609381599
:1002D00081257F950175088106050C0A3802158174
:1002E000257F950175088106C0C005010980A1011F
:1002F000850319012AB700150126B700950175106D
:100300008100C0050C0901A101850419012AA00280
:10031000150126A002950175108100C0050109068E
:10032000A1018505050719E029E7150025019508B4
:10033000750181020507190029EF1500250195F0C7
:1003400075018102050819012905950575019102BC
:10035000950175039101C005010906A10105071961
:10036000E029E715002501950875018102950175C1
:100370000881010507190029FF150026FF009506D1
:100380007508810005081901290595057501910277
:10039000950175039101C00011241FBECFEFDAE073
:1003A000DEBFCDBF04B603FE27C08091BC02909192
:1003B000BD02A091BE02B091BF028730904BA74012
:1003C000B04BD1F41092BC021092BD021092BE024A
:1003D0001092BF0214BE84B7877F84BF0FB6F89413
:1003E000A895809160008861809360001092600001
:1003F0000FBEE0E0F8E3099511E0A0E0B1E0E0E72E
:10040000F8E402C005900D92A63AB107D9F722E0B0
:10041000A6EAB1E001C01D92AC3BB207E1F70E9431
:10042000521E0C940E240C940000CF93DF93C82F1F
:10043000D62F6091420270914302809144029091C4
:1004400045020E9403038130D1F0882339F08230C5
:1004500021F1833011F1DF91CF910895C11108C0CE
:1004600089EAD11101C08AEADF91CF910C945E1123
:10047000C13089F78AEFD111F7CF89EFF5CFC111DC
:1004800005C08BEAD111F0CF8CEAEECFC13019F75D
:100490008CEFD111E9CF8BEFE7CFC11105C08BE411
:1004A000D111E2CF8EE4E0CFC130A9F68DE4D111B5
:1004B000DBCF8AE4D9CF81E0089581E008950C94E0
:1004C0005D0208950C9461021F93CF93DF9300D0D7
:1004D00000D00F92CDB7DEB749835A836B8330913A
:1004E000EB0189819A8131111DC06623B9F0222365
:1004F000A9F00E94CC18182F682F89819A810E9438
:10050000751869817A81812F0F900F900F900F904D
:100510000F90DF91CF911F910C9463030E94A31859
:10052000182FEFCF0E94CC1869817A81EDCFFC01A2
:10053000262F408151816281738184810C946402F1
:10054000CF93DF93EC0160E00E949702BE01DF9140
:10055000CF910C9462020E94A51C0E94181A81116E
:1005600002C00E94BC1A0C946F050C947205089589
:100570000E94DF130E94B7022FEF84E39CE021501A
:1005800080409040E1F700C000000C948D1C0F9358
:100590001F93CF93DF93EC0161E00E9497028C01DF
:1005A000BE010E945F02882329F1BE01C8010E949A
:1005B000880B8823F9F0BE01C8010E94DA0B88235A
:1005C000C9F0BE01C8010E94FD0C882399F08A8100
:1005D000882339F001158CE5180751F00F3D1C45B3
:1005E00079F0CE01DF91CF911F910F910C945B02B6
:1005F0000E94B80280E0DF91CF911F910F91089582
:100600000E94BC1AF7CFCF92DF92EF92FF926C015B
:10061000EE24FF2420E0C114D104E104F10419F018
:10062000C701B60120E1C72ED82EE92EFF24C11440
:10063000D104E104F10419F0285FC701B6016B0190
:100640007C0154E0F694E794D794C7945A95D1F777
:10065000C114D104E104F10419F02C5FC701B60103
:100660006B017C0142E0F694E794D794C7944A95D5
:10067000D1F7C114D104E104F10419F02E5FC701D0
:10068000B6019695879577956795672B682B692BAB
:1006900009F02F5F822FFF90EF90DF90CF900895A9
:1006A00008950C94500381E008950C945303CF9364
:1006B000C82F0E9451038C2FCF910C94550390E0CA
:1006C00080E008950895972F70E026E0929F600DD6
:1006D000711D1124FB0190E3899FE00DF11D112490
:1006E000EE0FFF1FE455FF4F859194910895FC0193
:1006F000EE0FFF1FE45DFD4F859194910895CF9318
:10070000DF930E9463030E949404EC01811520E5AD
:10071000920708F042C0811530E4930708F0BDC08D
:10072000883E910528F5803E910508F09DC0883AE5
:10073000910588F4853A910508F08FC081309105C4
:1007400009F492C0009709F48FC0049708F08CC098
:10075000D0E0C0E089C08F3B910508F489C0805C7F
:100760009109C03CD105A0F30E947703EC017CC045
:100770008115904250F4C11581E0D80708F074C08B
:10078000CD3ED10528F3D0656FC0C11590E3D907E0
:1007900008F079C0CE019F70E7CF811525E592075B
:1007A00058F5811534E5930708F0A6C0811542E598
:1007B000940750F4C11581E5D80708F471C0DC2F07
:1007C000CC27C16FD06A50C0982F969596959E0100
:1007D00023703327C115D34508F07FC0C1E0D0E0B6
:1007E00002C0CC0FDD1F2A95E2F720E2929FC001E4
:1007F0001124C82BD92B6FC0C11589E5D807A8F4DF
:10080000C11598E5D90708F07CC0C11526E5D207C7
:1008100008F09ECF8C2F0E942B05C82FD0E0DC2F34
:10082000CC27CC27DF71D0621FC0C1153AE5D307B2
:1008300008F46CC0CE0190568115904208F088CF24
:100840008D2F8F710E942B0590E0982F8827882785
:100850009F719C012C2BE901E6CFC55AD0E0CE59FF
:10086000DE4FC881D0E0D064CE01DF91CF910895F2
:10087000C85AD0E0CC0FDD1FCC5CDE4F0990D88188
:10088000C02DD464F1CFCE019927D3FF03C0EC0172
:10089000D86CEACFEC01D06CE7CFDF70D06AE4CF40
:1008A000CE01E4E096958795EA95E1F783702C2FC9
:1008B00026952695237090E2299F90011124382BCC
:1008C0008C2F8370C1E0D0E002C0CC0FDD1F8A9571
:1008D000E2F7C22BD32BDC68C7CFC1E0D0E002C067
:1008E000CC0FDD1F2A95E2F730E2939FC00111245F
:1008F000C82BD92BDA68B8CFD82FCC27C46FD06AD1
:10090000B3CFDC2FCC27C06FD06AAECF8C2F8F70C7
:100910000E942B0534E0D695C7953A95E1F7CF7044
:100920009C2FEC01D069A0CF82389105B1F1B0F4D1
:100930008133910509F475C048F48932910509F4B1
:1009400069C08A32910509F473C008958533910511
:1009500009F459C08933910501F10895833E910549
:10096000A9F138F4803E9105F9F0823E910549F1F4
:100970000895863E9105A9F1873E9105C9F1843E0F
:10098000910519F52091AE0221FF1FC08091AD02A3
:1009900084FD14C087EE90E008952091AD0223708D
:1009A000A1F080EE90E008952091AD0220FD47C0B7
:1009B0003091AE0230FF09C024FF44C090E080E0D7
:1009C00004C02091AD0222FDF7CF08952091AD0221
:1009D00022FD3BC03091AE0230FDE3CF24FFF5CFC6
:1009E000EDCF2091AD0223FFF0CF24FDE7CFD2CF92
:1009F0002091AD0223FD2CC03091AE0231FFEECF2D
:100A000084EE90E008952091AD0225FFDECF89E2CB
:100A100090E008952091AD0225FFD7CF85E390E0C7
:100A200008952091AD0226FFD0CF8AE290E008958C
:100A30002091AD0226FFC9CF81E390E0089589E3BC
:100A400090E0089583EE90E0089582EE90E008959E
:100A500086EE90E008959091AD0292FF06C0282F97
:100A600028712830F9F4877F846093FF06C0282F0F
:100A700028712831F1F4877E84612091AE0220FF35
:100A800006C0382F38713830D9F4877F816021FF54
:100A900006C0282F28712831D1F4877E816194FD0A
:100AA000877E0895282F24712430F9F68B7F886083
:100AB000DCCF282F2471243101F78B7E8861DDCFB4
:100AC000382F3171313019F78E7F8860E0CF282FB1
:100AD0002171213121F78E7E8861E1CF08950C9438
:100AE0006E0508950C947105E82FF0E0E556FD4F72
:100AF00080810895089580EA8A95F1F7089500C0ED
:100B000008950C947B05F894E82FE295EF70F0E0DF
:100B100031A1282F2F7081E090E001C0880F2A9525
:100B2000EAF7982F9095932391A392A1892B82A302
:100B30007894089508950F931F93CF93DF93CDB7C3
:100B4000DEB72E970FB6F894DEBF0FBECDBF0E9462
:100B50006C0780910E0181112DC01D821E821F82A3
:100B6000188684EF898387EF8A8386EF8B8386E3F9
:100B70008C83CE010196E6E0F1E09E01275F3F4FB6
:100B8000DC014D91CD014193A217B307C9F726E0CF
:100B9000EEE2F1E0DE01199601900D922A95E1F75F
:100BA000FC01A0E0B1E0CE010F9621912D93E81752
:100BB000F907D9F780910E0194E0811190E09093AC
:100BC000A40284E0891B8093A30206E011E0F801EF
:100BD00081918F010E948305F1E00A301F07B9F768
:100BE00000E011E0D8018D918D010E948305B1E0F4
:100BF00006301B07B9F7E3E9F2E0ABE9B2E0119286
:100C00001D9282E0EB39F807D1F784E00E940A07D1
:100C10000E94AB022E960FB6F894DEBF0FBECDBF7A
:100C2000DF91CF911F910F910C9476071F93CF9373
:100C3000DF9300D000D0CDB7DEB70E945607182F43
:100C40006091A402882309F44FC019821A821B8282
:100C50001C82862F90E0BE016F5F7F4F85569D4FAF
:100C60000E94330D811120C08091A8018F5F809375
:100C7000A8018630B8F1E091A302F0E0E556FD4FFF
:100C8000DE011196CE01059611921D92A817B907A3
:100C9000D9F70E94B502812F0F900F900F900F90FF
:100CA000DF91CF911F9108951092A801A091A30206
:100CB000B0E0A556BD4FBE016F5F7F4F9E012B5F19
:100CC0003F4F10E04D91FB019191BF01491731F069
:100CD000AD0141505109FA019083182F6217730733
:100CE00089F7D7CF10E0D5CF70E065567D4F809162
:100CF000A30290E085569D4F0E945E0D0E949A05CA
:100D0000CACFAF92BF92CF92DF92EF92FF920F9332
:100D10001F93CF93DF9306E011E083E9E82E82E092
:100D2000F82E9AE0A92E91E0B92EC0E0CC24C3940D
:100D3000D12CF80181918F01F894E82FE295EF70A2
:100D4000F0E021A18F70A60102C0440F551F8A95C3
:100D5000E2F7CA01922F982B91A392A18095892343
:100D600082A378940E947F05E0E0F1E030E020E08B
:100D7000D0E04191A42FA295AF70B0E090968C91F5
:100D800090E04F7002C0959587954A95E2F780FDF7
:100D90003DC08C2D022E01C0880F0A94EAF7D82B93
:100DA0002F5F3F4F2630310521F7F80131978081C1
:100DB0000E9483050E948105F7018081D81741F1C7
:100DC000D08381E0C82BFFEFEF1AFF0AA016B1060F
:100DD00009F0AFCF6091A40270E065567D4F2C2FD3
:100DE00044E083E992E00E940B070E941606C111BD
:100DF00001C0C82F8C2FDF91CF911F910F91FF90D1
:100E0000EF90DF90CF90BF90AF90089580E0C7CF74
:100E100080E0D8CF0895FF920F931F93CF93DF9375
:100E2000F82E092F162FD72FC42F222349F081E047
:100E30008093AB010E94011C9093AA018093A901A9
:100E40008091AB018823A1F08091A9019091AA0122
:100E50000E94191C069760F0EF2DF02FA12FBD2FD7
:100E6000CE0FDF2FD11DEC17FD0741F41092AB011F
:100E7000DF91CF911F910F91FF90089581918D93F4
:100E8000F2CF88EC9091E30097FD0EC0EFE3FCE910
:100E90003197F1F700C000008150A1F70E949D201A
:100EA0001092B30280E0089581E008958091AC0132
:100EB000811107C00E94410781110AC082E080931E
:100EC000AC0181E09091AC01913009F080E008958F
:100ED00081E0F5CF0C9456070E946A0780930E01BB
:100EE0000E94560781110C94270D08950E94560701
:100EF000811102C00C942D0D08958091B30180FFE3
:100F000012C06091140185E0689FB00111247595AD
:100F100067957595679560387105A8F56115710538
:100F2000A1F1862F089581FF09C06091140185E029
:100F3000689FB001112475956795EDCF60911401FC
:100F400082FD0AC08091B2018823D1F090911301F3
:100F500060911401891728F085E0689FB001112481
:100F6000DACF869FB001112485E0869F9001879F8C
:100F7000300D1124692F70E0C9010E949E23CBCF50
:100F800065E070E0CECF8FE7089581E0089580910D
:100F9000B30180FF0CC06091100170E075956795FA
:100FA000759567956115710549F1862F089581FF43
:100FB00006C06091100170E075956795F3CF609160
:100FC000100182FD0BC09091B1019923A1F06091B5
:100FD0000F0180911001961738F0682F70E060388B
:100FE000710500F38FE70895899FC001112470E017
:100FF0000E949E23F4CF61E070E0D7CF81E0089596
:101000008D3E31F40E947D0781958093B70108954C
:101010008E3E19F40E947D07F8CF8F3E31F40E9476
:101020007D0781958093B6010895803F19F40E9451
:101030007D07F8CF893F29F40E94C7078093B80144
:1010400008958A3F21F40E94C7078195F7CF8B3F0F
:1010500031F40E94C70781958093B90108958C3FB0
:1010600019F40E94C707F8CF9FE0980F983070F4EA
:10107000815F990B21E030E001C0220F8A95EAF7E9
:101080008091B501822B8093B50108958D3F31F495
:101090008091B30181608093B30108958E3F21F464
:1010A0008091B3018260F7CF8F3FB9F78091B30190
:1010B0008460F1CF4091B6018D3E59F48091B70123
:1010C00087FF0DC01092B70141110BC01092B20101
:1010D00008C08E3E81F48091B70118169CF344231A
:1010E00081F08091B8019091B901892B09F05AC023
:1010F0001092B10108958F3E49F447FFF0CF10924E
:10110000B6018091B7018111ECCFE0CF803F19F497
:101110001416ACF3E4CF9091B801893F29F4191665
:10112000F4F61092B801DBCF8A3F19F497FFD7CFBE
:10113000F8CF9091B9018B3F29F497FFD0CF10924F
:10114000B901CDCF8C3F19F41916CCF3C8CF9FE06D
:10115000980F983090F4815F990B21E030E0B9014D
:1011600002C0660F771F8A95E2F7CB0180959091B8
:10117000B50189238093B501B2CF8D3F31F48091C1
:10118000B3018E7F8093B301AACF8E3F21F480916B
:10119000B3018D7FF7CF8F3F09F0A1CF8091B301CD
:1011A0008B7FF0CF08950E94011C9C019091B601A5
:1011B0008091B701982B21F03093B0012093AF01BB
:1011C0009091B8018091B901982B21F03093AE0134
:1011D0002093AD0184EB91E00C94F90EEF92FF9215
:1011E0000F931F93CF93DF9300D000D000D0CDB7E3
:1011F000DEB786E0E4EBF1E0DE01119601900D929E
:101200008A95E1F7E090B601F090B7010091B8013E
:101210001091B9011092B6011092B7011092B80165
:101220001092B9018E2D8F2991F08091AF0190918C
:10123000B0010E94191CAC019091B201992309F4EC
:101240003FC0809115018417150608F447C0802F10
:10125000812B91F08091AD019091AE010E94191CFB
:10126000AC019091B101992309F477C080911101EB
:101270008417150608F47FC08091B6019091B701DC
:10128000892B9091B801892B9091B901892B11F08C
:101290000E94D30886E0FE013196A4EBB1E00190F4
:1012A0000D928A95E1F726960FB6F894DEBF0FBE31
:1012B000CDBFDF91CF911F910F91FF90EF900895D7
:1012C000209116018AE0289F9001112424173507E8
:1012D00008F0BDCF9F5F9093B20102C09F3FD1F74E
:1012E000EE2059F00E947D079FEF1E140CF491E050
:1012F000899F802D11248093B601FF2059F00E9410
:101300007D079FEF1F140CF491E0899F802D11241D
:101310008093B7013091B601332309F498CF20911F
:10132000B701222309F493CF45EB3403C001112404
:10133000992359F09093B60145EB240390011124B1
:10134000332339F03093B70182CF81E08093B60127
:10135000F3CF81E08093B7017ACF209112018AE028
:10136000289F900111242417350708F085CF9F5F2F
:101370009093B10102C09F3FD1F7002359F00E9422
:10138000C7079FEF10160CF491E0899F802D112460
:101390008093B801112359F00E94C7079FEF1116DF
:1013A0000CF491E0899F802D11248093B901309134
:1013B000B801332309F460CF2091B901222309F445
:1013C0005BCF45EB3403C0011124992359F090936E
:1013D000B80145EB240390011124332339F03093F5
:1013E000B9014ACF81E08093B801F3CF81E08093C7
:1013F000B90142CF86E0E4EBF1E0DF011D928A956E
:10140000E9F71092B2011092B1011092B301089560
:101410000C94150280910E01811106C081E9809320
:10142000180180E98093170120911801A22FA2953D
:10143000AF70B0E091963C9191972F7081E090E071
:10144000BC01022E01C0660F0A94EAF7462F4095B0
:10145000432391964C93919792963C919297362B79
:1014600092963C93929740911701E42FE295EF708A
:10147000F0E031A14F70042E01C0880F0A94EAF702
:10148000982F9095932391A392A1892B82A3909654
:101490008C9190E002C0959587952A95E2F781702E
:1014A00020A130E002C0359527954A95E2F792E0F9
:1014B00020FF90E0892B8093BF0190910E0181E085
:1014C00098279093BB01891B8093BA010895CF930D
:1014D000E091BF01EE0FEE0F20911801A22FA2950F
:1014E000AF70B0E090968C9190E02F7002C095950F
:1014F00087952A95E2F78170992740911701A42FCB
:10150000A295AF70B0E090962C9130E04F7002C081
:10151000359527954A95E2F7A9014170552720FF97
:1015200002C042E050E0842BE82BE093BF01C09161
:10153000BB01EF70F0E0EB59FE4F80819091BE014E
:10154000890F8093BE0120E0843074F0EC2F0C2EC4
:10155000000CFF0BE454FE4F80818F5F808360E0BE
:101560008C2F0E94080A21E08091BE018D3F74F407
:10157000EC2F0C2E000CFF0BE454FE4F80818150A9
:10158000808361E08C2F0E94080A21E08091BE01D7
:10159000082E000C990B64E070E00E949E2380935B
:1015A000BE01822FCF910895E091BB01F0E0E45499
:1015B000FE4F2081FC0120830895FF920F931F931B
:1015C000CF93DF93D091BA010D2F10E004541E4F3A
:1015D000FC01C081F8018081C81BFC2E80E01F1433
:1015E0007CF09C2FC7FD90E0C91BC11114C088235B
:1015F000E9F0DF91CF911F910F91FF900C94460F6E
:10160000FA94F80180818F5F808360E08D2F0E94C3
:10161000080A81E0E4CFCF5FF801808181508083A8
:1016200061E08D2F0E94080A81E0DFCFDF91CF912A
:101630001F910F91FF9008950F931F93CF93DF9306
:10164000C42FD22FFC0182818823C9F04093C201AC
:101650000E94011C9093C1018093C00180E28C0F15
:10166000883008F050C0C77081E001C0880FCA956B
:10167000EAF7DF91CF911F910F910C9466111091B1
:10168000C201141335C08091C0019091C1010E9424
:10169000191C883C910560F5C0E2CD0F1D17B9F00B
:1016A00080E2810F883040F4177081E001C0880F1C
:1016B0001A95EAF70E946D11C83048F481E09D2F19
:1016C000977001C0880F9A95EAF70E946611802FE3
:1016D0000E945E11C830B8F4D77081E001C0880F55
:1016E000DA95EAF7DF91CF911F910F910C946D116C
:1016F00080E28C0F883038F4C77081E001C0880F19
:10170000CA95EAF7EFCFDF91CF911F910F9108951E
:101710000F939C01CB01243F4CE5340759F1A8F409
:10172000293DFCE53F0701F12A3D4CE53407D1F1A5
:10173000283D3C4591F406E221EE41EE68ED7CE562
:101740000E941C0B80E00F910895263FFCE53F07A7
:10175000E9F0B0F0273F3C45F9F0FC018281882395
:1017600039F11092C201EFCF07E225EE45EE69EDA7
:101770007CE5E6CF06E221EE40EE64EF7CE5E0CFCB
:1017800007E225EE44EE65EF7CE5DACF06E221EED6
:1017900042EE66EF7CE5D4CF07E225EE46EE67EF3A
:1017A0007CE5CECF08E221E045EE6AED7CE5C8CFCE
:1017B00081E0C9CFCF93DF93EC01FB0182818823C5
:1017C00009F419C1C230FCE5DF07C0F1C6319CE560
:1017D000D90730F09E012B5F3C452930310570F56B
:1017E0000E942B1A9093AE028093AD02C031ECE5BB
:1017F000DE0709F4CFC008F05BC0C8308CE5D8071D
:1018000009F4B6C088F5C430ECE5DE0709F4A8C0D9
:10181000C0F4C2308CE5D80709F49CC08091AD02B9
:101820008260C330DC4509F498C08091AD0290918C
:10183000AE020E94391A0E94DF1380E0DF91CF913F
:1018400008958091AD028061C630ECE5DE0709F4B1
:1018500084C08091AD028860C730DC4508F47DC04B
:101860008091AD02806279C0CC308CE5D80709F454
:1018700089C070F48091AD028C60CA30ECE5DE075F
:1018800009F46BC008F478C08091AD028E7F65C00A
:10189000CE308CE5D80709F479C08091AD028B7FFA
:1018A000CF30DC4508F459C08091AD028F7E55C021
:1018B000CC3FECE5DE0709F457C030F5C3318CE5C9
:1018C000D80709F46FC078F4C131ECE5DE0709F4FC
:1018D00065C0C231DC4509F0A8CF0E94DF138091BA
:1018E000AD028F773AC0C5318CE5D80709F462C0E4
:1018F00008F476C08091AE028160CB3FDC4509F0F0
:1019000094CF8093AE0291CFC115FDE5DF0709F4B6
:101910004DC088F48091AE028D7FCE3F9CE5D90703
:1019200081F38091AE028E7FCF3FDC4550F38091F2
:10193000AE028360E6CFC230FDE5DF0709F459C08F
:1019400008F444C080E0C330DD4509F06ECF0E944A
:10195000BE1A6BCF8091AD0281608093AD0265CFDE
:101960008091AD028460F9CF8091AE028260C9CFD0
:101970008091AD028064F1CF0E94DF138091AD02AF
:101980008068EBCF8091AD028D7FE7CF8091AD0273
:10199000877FE3CF8091AD028F7DDFCF8091AD0255
:1019A0008F7BDBCF8091AD02837FD7CF8091AE025A
:1019B0008C7FA7CF8091AD0282FB992790F921E01F
:1019C000922790FB82F990FB83F9C7CF8091AE02FA
:1019D000982F909591708E7F892B90FB81F991CFF4
:1019E0000E94DF139091AD02892F97FB87F98058F1
:1019F000B4CF81E0ACCF81E021CFCF93DF93EB0177
:101A000086319C4511F50E9461199A81992399F0BC
:101A10008A7A91E009F490E09093C301811109C0A2
:101A200089E20E943C190E94AD1980E0DF91CF91BC
:101A3000089585E3F6CF8091C301811104C089E246
:101A40000E944319F0CF85E3FBCF81E0EFCF61E047
:101A500070E089E191E00C94E00D61E070E089E1D3
:101A600091E00C94E70DCF93DF93D62FC72F0E9400
:101A7000810E009709F5ED2FFC2FDC01A753BE4F17
:101A80002C912193019684309105B9F78DEC91E06A
:101A90000E94DD0A0E94721C6E5F7F4F8F4F9F4F26
:101AA0006093C5017093C6018093C7019093C801EC
:101AB00081E0DF91CF91089580E0FBCFCF93DF935A
:101AC000D62FC72F6091C5017091C6018091C701C3
:101AD0009091C8010E94551CED2FFC2F90E080E0F2
:101AE0002191DC01A753BE4F2C93019684309105C0
:101AF000B9F78DEC91E0DF91CF910C94D40A8EE18F
:101B00004B9B02C08150E1F74B9BFECF08955B9841
:101B100080E28A95F1F75B9A0895FC013BE03A95E3
:101B2000F1F798E020E080E031E040E14A95F1F7FC
:101B3000880F4B9B02C08160232742E04A95F1F752
:101B4000000040E14A95F1F7915079F790E19A95BC
:101B5000F1F799B132E03A95F1F7000040E14A958A
:101B6000F1F793FB992790F992272081920F9083A8
:101B70000895EF92FF920F931F93CF93DF930F92ED
:101B8000CDB7DEB719828C017C01E60EF11C0E1573
:101B90001F0561F481E09981911180E00F90DF9140
:101BA000CF911F910F91FF90EF9008950E947F0DAC
:101BB000CE0101960E948D0DF80181938F01E7CF30
:101BC0009093CF018093CE01539A5B9A089590939E
:101BD000CF018093CE0153985B9AEB9AE9E6F0E04F
:101BE00080818F73808308956150770B91E001C0ED
:101BF000990F6A95EAF720E031E0911108C022239D
:101C000091F05B9A80E28A95F1F75B980895492FED
:101C1000482339F05B9A232740E24A95F1F79695DD
:101C2000ECCF5B98F9CF5B98EDCFFF920F931F93AA
:101C3000CF93DF93EC018C01060F111DC017D10764
:101C400031F4DF91CF911F910F91FF900895F9909A
:101C50000E94870D68E08F2D0E94F40DEFCF1F9238
:101C60000F920FB60F9211242F933F934F935F93D0
:101C70006F937F938F939F93AF93BF93CF93DF9394
:101C8000EF93FF935B98539AC091CE01D091CF010F
:101C90006D81662321F08E819F810E94150E0E9426
:101CA000870D80E18A95F1F75B9853985B9A80E104
:101CB0008A95F1F76A81662309F18B819C810E94E4
:101CC000B90DE881F981882311F088E001C082E034
:101CD00080830E947F0DFF91EF91DF91CF91BF91A3
:101CE000AF919F918F917F916F915F914F913F91B4
:101CF0002F910F900FBE0F901F901895E881F981DA
:101D0000E4CFCF93DF93C091CE01D091CF01F8946F
:101D1000539A5B9885E08A95F1F7000053985B9A97
:101D200080E28A95F1F74B9B0CC0539A5B9AE8814D
:101D3000F98181E08083789481E090E0DF91CF9118
:101D400008956D81662381F08E819F810E94B90D77
:101D500081110AC0539A5B9AE881F98182E08083FD
:101D6000789482E090E0EACF0E947F0D80E28A952D
:101D7000F1F75B98539A80E18A95F1F76A816623BF
:101D800021F08B819C810E94150E0E94870DE881B5
:101D9000F9811082789490E080E0D0CF9093D501C3
:101DA0008093D4010895E091D401F091D50130974A
:101DB00021F00190F081E02D099480E00895E091F8
:101DC000D401F091D501309799F020912D01222373
:101DD00059F02091AD0227FF07C0DC012C9111962C
:101DE0002C93119725E02C930280F381E02D099428
:101DF0000895E091D401F091D501309739F022E0B7
:101E0000DC012C930480F581E02D09940895209144
:101E1000D2013091D3012817390771F09093D30183
:101E20008093D201E091D401F091D501309721F057
:101E30000680F781E02D099408952091D00130911A
:101E4000D1012817390771F09093D1018093D00107
:101E5000E091D401F091D501309721F00084F18513
:101E6000E02D099408950E940D1C6093E701709382
:101E7000E8018093E9019093EA016093E301709394
:101E8000E4018093E5019093E60108950E940D1C02
:101E90006093E7017093E8018093E9019093EA0170
:101EA0006093DF017093E0018093E1019093E20180
:101EB000089585B7806885BF85B7806885BF089518
:101EC000089508950C94600F08950C94640F0E9477
:101ED000590F80E19AE10E949E1C0E94610F0C94B0
:101EE000620F0C945607089508950E94F81B0E94F3
:101EF0004C1C0E949B050E94BC1C0E940A0A0C9468
:101F0000650FAF92BF92CF92DF92EF92FF920F9345
:101F10001F93CF93DF93CDB7DEB72A970FB6F89410
:101F2000DEBF0FBECDBF0E94730F0E94740F0E94D0
:101F3000810681110E94330F87EDA82E81E0B82E13
:101F400010E000E0C02E802F0E947405E82EF501FD
:101F5000F1905F01F81609F453C080916F0281FD82
:101F60000E947A058F2D8E25D12CFF24F394982F73
:101F70009F2109F440C00E94710F882399F0DE82EE
:101F8000CF82EF2081E009F480E088870E94011C65
:101F90008160782F9A8789874E815F8168858A85DD
:101FA0000E942810F801E952FE4F8081F826F08245
:101FB0000E94670A81110E94460F0E94EE080E944B
:101FC000D30E9091D601891791F10E94D30E809380
:101FD000D6012A960FB6F894DEBF0FBECDBFDF91B3
:101FE000CF911F910F91FF90EF90DF90CF90BF9016
:101FF000AF900C945703D394FF0CF6E0DF12B7CFE9
:102000000F5F1F4F0830110509F09CCF8FEF8983B8
:102010008A831B820E94011C8160782F9D838C83A0
:1020200049815A816B818D810E942810C1CF2A96E7
:102030000FB6F894DEBF0FBECDBFDF91CF911F91D9
:102040000F91FF90EF90DF90CF90BF90AF900895E9
:10205000DF92EF92FF920F931F93CF93DF93CDB751
:10206000DEB72B970FB6F894DEBF0FBECDBF7A87D1
:102070008B87F42E052F162FE72ED82E61110E9484
:1020800081191E821D827E2DEC82DD824F2D502F04
:10209000612F8D2D9E812B960FB6F894DEBF0FBE5B
:1020A000CDBFDF91CF911F910F91FF90EF90DF9007
:1020B0000C945516FC01808191810C940E19CF93DC
:1020C000C82F882309F48BC08238C1F40E94D30E34
:1020D00081FD85C089E30E943C190E94AD192FEF54
:1020E00081EE94E0215080409040E1F700C0000074
:1020F00089E30E944319CF910C94AD198338A1F460
:102100000E94D30E80FD6BC083E50E943C190E94A3
:10211000AD192FEF81EE94E0215080409040E1F71F
:1021200000C0000083E5E5CF8438A1F40E94D30EFF
:1021300082FD55C087E40E943C190E94AD192FEF23
:1021400081EE94E0215080409040E1F700C0000013
:1021500087E4CFCF8CEF8C0F813A90F46C2F809175
:102160002101909122010E94D71A882329F08C2FF7
:102170000E9443190E94AD198C2F0E943C19BBCFBD
:1021800080E28C0F883048F4C77081E001C0880F6E
:10219000CA95EAF70E946419AECFEBE5EC0FE33085
:1021A00040F4F0E0ED55FE4F808190E0CF910C942B
:1021B000070FE8E5EC0FE73150F4F0E0EE0FFF1FFA
:1021C000EB58FE4F80819181CF910C941D0FCD3E35
:1021D00030F08C2F0E940008CF910C94D308CF913F
:1021E0000895882309F452C0823871F40E94D30EF6
:1021F00081FF4CC089E30E943C190E94AD1989E31C
:102200000E9443190C94AD19833859F40E94D30EDF
:1022100080FF3CC083E50E943C190E94AD1983E514
:10222000EFCF843859F40E94D30E82FF2FC087E489
:102230000E943C190E94AD1987E4E2CF9CEF980FF1
:10224000913AF0F290E2980F983050F4877091E054
:1022500001C0990F8A95EAF7892F0E946A19D2CF97
:102260009BE5980F933020F490E080E00C94070FEA
:1022700098E5980F973120F490E080E00C941D0FC2
:102280008D3E20F00E945A080C94D30808951F93A5
:10229000CF93DF93182FEB010E945F10209731F44A
:1022A000812FDF91CF911F910C94F1108FE99FE066
:1022B0000197F1F700C000002197F0CF70E060E0D7
:1022C000893311F460E570E00C944711882321F004
:1022D0000E9464190C94AD190895882321F00E947E
:1022E0006A190C94AD190895BF92CF92DF92EF92C4
:1022F000FF920F931F93CF93DF936C01D62FC72FBD
:10230000FC011281058102950F700E945A19E82E76
:102310008823A1F0E12E112389F08C2F807F803457
:1023200029F080E28D0FE12C883040F082E00E949D
:10233000F8190E945A1991E0E82EE926BC2EB294B1
:102340009FE0B922EB2DF0E0E05FFB4D0C94B2234F
:102350000C2F0F70C07F11F00295007F1123A9F0A0
:10236000002359F080E28D0F883010F0D11109C0A0
:10237000802F0E9464190E94AD198D2F0E945F105A
:1023800014C0802F0E947419F6CF8D2F0E94F11077
:10239000002359F080E28D0F883010F0D1112CC04D
:1023A000802F0E946A190E94AD192B2D2850330BE3
:1023B0002430310520F40E94D30E0E945703EE20F2
:1023C00009F49EC10E94561980FD9AC1F60112823D
:1023D0000E9450190E94D917C6010E94A1130E94A1
:1023E0005019DF91CF911F910F91FF90EF90DF90E7
:1023F000CF90BF900C94FA17802F0E947A19D3CFF8
:10240000FC2FFF70FF2EC07FC03219F0F29480EFD6
:10241000F822DD2369F0D13049F1112391F1002335
:1024200051F1F601858180FFA8CF8F70858323C08D
:10243000112381F0011106C00E9494198F290E9476
:102440006611B3CF0130C1F70E9494198F290E9401
:102450009A19ABCF011106C00E94A3198F2D0E94BB
:102460006D11A3CF013009F4A0CFF6CF112329F0CD
:10247000063008F09ACF8F2DE2CF053008F095CFC7
:10248000EDCF002359F3D93349F4FFEF27EE33E0C2
:10249000F15020403040E1F700C000008D2F0E9435
:1024A000F11083CF8C2F86958695837069F08130EB
:1024B00009F07BCF8D2F9C2F9370111102C090E0FB
:1024C00080E00E941D0F71CF8D2F9C2F93701111F2
:1024D00002C090E080E00E94070F67CF8D2F11238C
:1024E00029F00E9400080E94D3085FCF0E945A087A
:1024F000FACF8C2F837009F041C0111156CF4D2FA8
:10250000429546954770440F440F0D2F0F7010E011
:1025100030E020E0042E04C0000F111F221F331FE3
:102520000A94D2F760E070E0CB01D4FF0FC06FE0F7
:1025300070E080E090E004C0660F771F881F991F4D
:102540004A95D2F76095709580959095C695C695F9
:10255000C370602B712B822B932BC23049F058F43F
:10256000C13019F00E948B1720CF0E9479171DCF20
:102570000E949D171ACF0E94771717CF86951123B7
:1025800011F08C2F8170882309F40FCF4D2F4295C5
:1025900046954770440F440F0D2F0F7010E030E048
:1025A00020E0042E04C0000F111F221F331F0A94C5
:1025B000D2F760E070E0CB01D4FF0FC06FE070E0B5
:1025C00080E090E004C0660F771F881F991F4A952E
:1025D000D2F76095709580959095C695C695C37015
:1025E000602B712B822B932BC23049F058F4C130F1
:1025F00019F00E945018D9CE0E943E18D6CE0E94E3
:102600006218D3CE0E94B317D0CECF70112329F019
:102610008C2F0E94D9178D2F12CF8D2F0E946D11F4
:102620008C2F0E94FA17C1CED23F89F160F4D03FBF
:10263000C9F0D13F29F1112309F442C001119DCE07
:102640008C2F8F7121C0D33F39F1D43FA1F71123D3
:1026500069F1CF718C2F0E94D91763E08C2F0E94F3
:10266000E319A3CE112341F0053008F09ECE8C2F44
:102670008F710E941D1899CE063008F096CEF7CFC4
:102680008C2F8F71112369F20E94D9178ECE8C2F57
:102690008F711123C9F3C5CF112329F08C2F8F71AE
:1026A0000E94C41782CE0E94BF177FCE81E00E9495
:1026B000F819023008F479CE82E00E94F81975CE3C
:1026C000002359F0D93309F0E9CE8FEF97EEE3E01C
:1026D00081509040E040E1F7DFCE8C2F8F71A1CF89
:1026E0004C2F4F706D2FC6010E945F030E94EF16A2
:1026F0005CCE4C2F4F706D2FC6010E94620355CEE9
:10270000DF91CF911F910F91FF90EF90DF90CF90CD
:10271000BF9008950F931F93CF93DF93EC016881CF
:1027200079818A810E9418198C010E9474180E9474
:102730007617B801CE01DF91CF911F910F910C94C4
:102740007411CF93DF93EC018B819C81892B29F04D
:102750008881998189238F3F59F4DF91CF91089522
:10276000CE010E948A13CE01DF91CF910C94A0027A
:10277000CE010E94C7028111F3CF0E945A1988230B
:1027800061F38A81882349F382E0DF91CF910C9431
:10279000F81990E080E00E94070F90E080E00E942E
:1027A0001D0F0E9481190E9491190E94AD190E946B
:1027B000FA090C94D3080E944A190C94C9130E9478
:1027C00071190C94DB13E92FE295EF70E250EE30B3
:1027D00070F4F0E0E05EFB4D0C94B223803F19F002
:1027E00020F4883E20F481E00895843FE1F380E006
:1027F0000895883EC0F3813FD1F7F5CF93FB88273A
:1028000080F908950E940E190C94E313CF93DF937F
:1028100000D000D00F92CDB7DEB70F900F900F9081
:102820000F900F90DF91CF910895CF93DF9300D059
:1028300000D000D0CDB7DEB726960FB6F894DEBF35
:102840000FBECDBFDF91CF9108951F93CF93DF933C
:10285000C091EC0116E08091ED018C1304C0DF9172
:10286000CF911F910895D0E01C9FF0011D9FF00DA6
:102870001124E251FE4F4081518162817381848134
:1028800095810E9415142196C770E5CF40911E02D4
:1028900050911F02609120027091210280912202CA
:1028A000909123020C9415141F93CF93DF93809182
:1028B0002302807FA9F480912002882389F08091EF
:1028C000EC01C091ED0160911E0270911F02A09178
:1028D0002102B0912202D62FD72316E0C81304C0DC
:1028E000DF91CF911F91089590E0109711F0DF3F95
:1028F00019F401968770F2CF189F9001199F300D3F
:102900001124F901E251FE4F41814713F2CF40817A
:102910004613EFCF42814111ECCF438154814A1BD2
:102920005B0B483C510528F7809123028F70806132
:1029300080932302F901ED50FE4F80818F708061FA
:1029400080838EE192E00E94A113DF91CF911F91CD
:102950000C942514AF92BF92CF92DF92EF92FF9228
:102960000F931F93CF93DF93CDB7DEB761970FB669
:10297000F894DEBF0FBECDBF8C0185E0F801DE010B
:102980001D9601900D928A95E1F7F80140815181E1
:10299000E2808EE1C82E82E0D82E609121027091F3
:1029A00022026115710509F461C190911E02209106
:1029B0001F02892F82238F3F09F458C1A380B4805E
:1029C000F0902002F501E61BF70BFF2009F4FCC094
:1029D00080912302382F307FE83CF10508F0B2C027
:1029E000311179C0FE2C251323C0941321C0E110AE
:1029F0001FC08F708061809323020E944614C6011D
:102A00000E94A11380912302F80185838F2D619686
:102A10000FB6F894DEBF0FBECDBFDF91CF911F91EF
:102A20000F91FF90EF90DF90CF90BF90AF900895FF
:102A3000AB2829F0842F85238F3F09F033C180E034
:102A4000F82FF170DF2E80FF3CC08091EC012091C7
:102A5000ED0136E0821315C04D875E878D859E851A
:102A60000E940E19292F22952F702230F0F0243069
:102A700018F59F70F1F0F8019581907FD1F4D12C79
:102A80001EC090E0389FF001399FF00D1124E251F3
:102A9000FE4F6181651306C06081641303C06281CB
:102AA0006E110FC001968770D5CF9F7011F08823EB
:102AB00031F3805E883018F3C8010E94A113FD2C09
:102AC000A5CFEE2009F4A2CF8091230281608093EC
:102AD0002302F12C9BCF251306C0941304C0F801E8
:102AE000EE2009F48DC04D875E878D859E850E94FE
:102AF0000214882319F1EE2009F18091230280321B
:102B000070F020911E0230911F0238872F831986A2
:102B1000BB86AA868C87CE0107960E94A11386E009
:102B2000F801AEE1B2E001900D928A95E1F70E94C2
:102B300054140E944614FF24F39468CFC8010E94E5
:102B4000A113F9CF311113C07A2DB98AA88A6E2D3D
:102B500089890E9406148EE192E00E94A11386E00A
:102B6000F60111928A95E9F70E944614B2CF251317
:102B70000FC094130DC0E1100BC0F8018583C8018C
:102B80000E94A11386E0F60111928A95E9F73ECFE3
:102B90004D875E878D859E850E940214882371F281
:102BA000EE2061F280912302803208F4B8CF2091A8
:102BB0001E0230911F023A8329831B82BD82AC82A0
:102BC0008E83CE010196A9CFE83CF10508F041C003
:102BD000FE2CEE2009F4B2CF25132AC0941328C08E
:102BE0008091230280FD1BC0982F907FC1F0F801D7
:102BF0008583903F31F0982F907F905F8F70892B65
:102C00008583C8010E94A11386E0F801AEE1B2E01D
:102C100001900D928A95E1F70E944614F7CE86E066
:102C2000F801AEE1B2E001900D928A95E1F7EECEA7
:102C30004D875E878D859E850E94021481116FCF1E
:102C400080912302816080932302C8010E94A11316
:102C5000DDCE7A2DB98AA88A6E2D89890E94061444
:102C600086E0F60111928A95E9F7D6CFEE2009F4B5
:102C700065CF4D875E878D859E850E940214F82E54
:102C8000882309F45BCF86E0F801AEE1B2E0019061
:102C90000D928A95E1F78EE192E00E945A100E940F
:102CA0005414BACF81E08E25CBCE1F93CF93DF9300
:102CB000CDB7DEB72C970FB6F894DEBF0FBECDBFF1
:102CC0004F83588769877A878B879C87CE010796C1
:102CD0000E94AA14882369F08A859B85892B39F084
:102CE0004F815885842F85238F3F09F071C016E0EE
:102CF0005FC086E0FE013796DE01119601900D92CD
:102D00008A95E1F78A859B85892B89F38F81988540
:102D100089238F3F61F32091ED0130E0C9010196D5
:102D2000877099274091EC014817190671F40E94A9
:102D3000DF131092ED011092EC0186E0EEE1F2E07B
:102D4000DF011D928A95E9F7D2CF96E0929FD001DC
:102D5000939FB00D1124A251BE4FFE0131960190F8
:102D60000D929A95E1F78093ED010E942514BFCF53
:102D7000819FC001112482519E4F0E94AA14882372
:102D8000E9F0E091EC011E9FF0011124E251FE4FA9
:102D90004081518162817381848195810E941514E3
:102DA0008091EC0190E00196877099278093EC0167
:102DB0008091EC019091ED018913DACF2C960FB63A
:102DC000F894DEBF0FBECDBFDF91CF911F91089564
:102DD00069857A858B859C850E94151488CFEF9232
:102DE000FF920F931F93CF93DF938C01892B81F078
:102DF000F12CEE24E394E8012196F80184918437C4
:102E000070F4843008F05FC08130B1F08230A1F1FD
:102E1000DF91CF911F910F91FF90EF90089585372B
:102E200009F44CC008F43DC09CE7980F903780F738
:102E30008F770E94F11049C00E5F1F4FFE018491F1
:102E400090E2980F983060F48770FE2D01C0FF0F5C
:102E50008A95EAF78F2F0E9484190E94AD1902C04B
:102E60000E945F108F2D815030F2EFE9FFE0319723
:102E7000F1F700C00000F7CF0E5F1F4FFE018491F5
:102E800090E2980F983050F48770FE2D01C0FF0F2C
:102E90008A95EAF78F2F0E948A19DFCF0E94F110DE
:102EA000E1CF0E5F1F4FFE01C491C150D8F28FE9F0
:102EB0009FE00197F1F700C00000F7CF0E5F1F4FB2
:102EC000FE01F490CFCF0E945F108E01CBCF08950A
:102ED0000C9467170E94681760934602709347022C
:102EE00080934802909349020C94C91308950C945E
:102EF0006A170F931F930091460210914702209189
:102F0000480230914902602B712B822B932B1F9129
:102F10000F910C946A170F931F9300914602109122
:102F20004702209148023091490260237123822395
:102F300093231F910F910C946A170F931F93009185
:102F400046021091470220914802309149026027C1
:102F50007127822793271F910F910C946A170C9465
:102F600067170C94AF170E94B117609342027093D9
:102F7000430280934402909345020C94C91360E08D
:102F800070E0CB010C94B3170F931F9341E050E016
:102F900060E070E08A019B0104C0000F111F221F36
:102FA000331F8A95D2F7C901B8011F910F910C9474
:102FB000B3170F931F9341E050E060E070E004C04E
:102FC000440F551F661F771F8A95D2F780914202E2
:102FD00090914302A0914402B09145028A019B0165
:102FE000082B192B2A2B3B2BC901B8011F910F91DC
:102FF0000C94B3170F931F9341E050E060E070E032
:1030000004C0440F551F661F771F8A95D2F7CB0166
:10301000BA0160957095809590950091420210914B
:1030200043022091440230914502602371238223A0
:1030300093231F910F910C94B3170F931F9341E0AB
:1030400050E060E070E004C0440F551F661F771F1A
:103050008A95D2F78091420290914302A091440256
:10306000B09145028A019B01082719272A273B278F
:10307000C901B8011F910F910C94B3170F931F93BF
:103080000091420210914302209144023091450286
:10309000602B712B822B932B1F910F910C94B317E4
:1030A0000F931F930091420210914302209144021A
:1030B0003091450260237123822393231F910F9146
:1030C0000C94B3170F931F93009142021091430287
:1030D000209144023091450260277127822793276F
:1030E0001F910F910C94B3170895E92FEE0FE90F7C
:1030F000EE0F8E0F982F977041E001C0440F9A9504
:10310000EAF786958695869595E0899FF0011124CA
:10311000EC5DFD4F30E020E070E05191DF01119750
:10312000CB01022E02C0969587950A94E2F7817032
:1031300081958527842385278C932F5F3F4F2530EA
:10314000310559F70895E92FEE0FE90FEE0F8E0FB5
:10315000982F977086958695869525E0829FF00139
:103160001124EC5DFD4F50E040E080E0219130E023
:10317000092E02C0369527950A94E2F7217033276D
:10318000042E01C0220F0A94EAF7822B4F5F5F4F93
:103190004530510559F70895BF92CF92DF92EF92D3
:1031A000FF920F931F93CF93DF938C01C090420245
:1031B000D0904302E0904402F09045028091460294
:1031C00090914702A0914802B0914902C82AD92A99
:1031D000EA2AFB2ACFE1D0E0BC2ED701C6010C2E93
:1031E00004C0B695A795979587950A94D2F780FD68
:1031F0000EC0219788F7B12C8B2DDF91CF911F91B5
:103200000F91FF90EF90DF90CF90BF900895B8019D
:103210008C2F0E947F03019761F3EECFCF93DF9352
:10322000EC010E94CC18BE01DF91CF910C947F037A
:103230001F93CF93DF93EB019091EB01992331F032
:10324000CB01DF91CF911F910C940E19882379F057
:10325000CB010E94CC18182F682FCE010E94751840
:10326000BE01812FDF91CF911F910C947F03CB0181
:103270000E94A318182FF4CF682F809121019091FC
:1032800022010C94571B682F8091210190912201FB
:103290000C94621B80912101909122010C946D1B72
:1032A00080914A02859585958595089580914A0279
:1032B0008770089590914A02977081E009F480E048
:1032C000089580916E02089590916E02892B8093EB
:1032D0006E020895809590916E02982390936E02ED
:1032E000089510926E02089590916D02892B80933B
:1032F0006D020895809590916D02982390936D02D0
:10330000089510926D02089590916C02892B80931C
:103310006C020895809590916C02982390936C02B2
:10332000089510926C02089580914B0208950895BB
:103330000C94971990914B02981721F080934B02AF
:103340000C949819089580914B02882329F01092CB
:103350004B0280E00C9498190895E0912101F091BE
:10336000220180916E028083E0912101F09122017F
:10337000808190916D02892B8083E0912101F091F1
:103380002201808190916C02892B808390914B0265
:10339000992381F0E0912101F09122018081892B14
:1033A000808380912101909122010E94C31A811192
:1033B0000E94A31980912101909122010C94DF0EAB
:1033C00008950C94E01998E0899F90011124622BD4
:1033D00060934A020E94D91780914A02859585958B
:1033E00085950C94E11910924A0280E00C94E11941
:1033F00090914A028095892380934A02282F277052
:1034000071F4282F082E000C330B9217130639F095
:103410008595859585950E94FA170C94F319089562
:1034200080E008956FEF7FEF90E080E00C94F82348
:1034300090E080E00E94D42321E08B3E9E4F09F073
:1034400020E0822F089582E090E00C94CC2383E06A
:1034500090E00C94CC23CF9384E090E00E94CC23A6
:10346000C82F81E290E00E94CC23982F8C2FCF911F
:103470000895CF93C92F682F84E090E00E94DA234B
:103480006C2F81E290E0CF910C94DA23AB01BC0168
:103490008FE090E00C94EC23AB01BC0183E190E061
:1034A0000C94EC2360E070E0CB010C944C1A60E0CB
:1034B00070E0CB010E94461A0C94521A6BEE7EEF1C
:1034C00090E080E00E94F82360E082E090E00E94BB
:1034D000DA2360E083E090E00E94DA231092460253
:1034E00010924702109248021092490260E084E074
:1034F00090E00E94DA2360E081E290E00E94DA230B
:1035000060E085E090E00E94DA2360E086E090E0F1
:103510000E94DA236FEF87E090E00E94DA2340E018
:1035200050E0BA0188E090E00E94EC2360E08DE07A
:1035300090E00E94DA2340E050E0BA0188E190E098
:103540000E94EC2360E087E190E00E94DA2340E0F3
:1035500050E0BA018CE190E00E94EC2360E080E250
:1035600090E00E94DA2340E050E0BA0188E190E068
:103570000E94EC230C94571A0C945E1A682F8EE06C
:1035800090E00C94DA23FC01329680912D0188237F
:1035900021F08091AD029EE187FF96E080E091509E
:1035A00008F4089521912223D1F38F5FF8CF662389
:1035B00001F120912D012223F1F02091AD0227FF8E
:1035C0001AC0462F4695469546954E3190F4677041
:1035D00021E030E002C0220F331F6A95E2F7840F2A
:1035E000911DFC01828190E02823392381E0232B67
:1035F00069F480E00895FC0132960896219126171F
:1036000021F0E817F907D1F7F4CF81E008959C0184
:10361000FC0132969FEF80E04191461751F09F3FA9
:1036200019F4411101C0982F8F5F8630A9F79F3F91
:1036300009F40895290F311D97FD3A95F901628328
:103640000895FC01329608962191261303C0DF01EC
:1036500011971C92E817F907B9F70895E62FE69538
:10366000E695E695EE3168F4E80FF92FF11D6770E5
:1036700021E030E001C0220F6A95EAF78281822BB7
:1036800082830895E62FE695E695E695EE3170F48F
:10369000E80FF92FF11D677021E030E001C0220F23
:1036A0006A95EAF720958281282322830895209144
:1036B0002D01222329F02091AD0227FD0C942E1B11
:1036C0000C94071B20912D01222329F02091AD029B
:1036D00027FD0C94421B0C94211BFC013296809117
:1036E0002D01882351F08091AD0287FF06C08EE145
:1036F000DF011D928A95E9F7089586E0F9CF0895D4
:1037000008950C94801B8091B302843049F10E948B
:10371000811B80E00E9457031092700288E190E0C4
:1037200020E40FB6F894A895809360000FBE209314
:10373000600083B7817F846083BF83B7816083BF6C
:103740007894889583B78E7F83BF0FB6F894A89539
:1037500080916000886180936000109260000FBECD
:1037600008950895CF930E947F1B0E9481060E94B6
:10377000B11BC0E08C2F0E947405811105C0CF5F82
:10378000C830C1F7CF91089581E0FCCF08950C9423
:10379000C61B0E94DF130E94D30E0E9457030C9495
:1037A000C71B1F921FB61F9211248F939F93AF9335
:1037B000BF9380917002811113C08091A5029091F6
:1037C000A602A091A702B091A8024196A11DB11D29
:1037D0008093A5029093A602A093A702B093A8029B
:1037E000BF91AF919F918F911F901FBE1F90189511
:1037F00082E084BD93E095BD9AEF97BD80936E0003
:1038000008952FB7F8948091A5029091A602A091F7
:10381000A702B091A8022FBF08952FB7F894609126
:10382000A5027091A6028091A7029091A8022FBFD5
:1038300008959C014FB7F8948091A5029091A6023B
:10384000A091A702B091A8024FBF821B930B0895CD
:1038500078941F921FB61F9211248F939F93AF935A
:10386000BF938091A5029091A602A091A702B0916A
:10387000A8020196A11DB11D8093A5029093A602F6
:10388000A093A702B093A802BF91AF919F918F918F
:103890001F901FBE1F9018951092A9021092AA02A5
:1038A0001092AB021092AC020895CF92DF92EF9289
:1038B000FF926B017C010E94560781110EC00E948D
:1038C0000D1CC61AD70AE80AF90AC092A902D092BA
:1038D000AA02E092AB02F092AC02FF90EF90DF9070
:1038E000CF9008950F931F930E945607882321F0CD
:1038F0001F910F910C940D1C0E940D1C0091A902A8
:103900001091AA022091AB023091AC02600F711F9E
:10391000821F931F1F910F91089587E797E7909358
:1039200001088093000888E19AE00FB6F894A89502
:10393000809360000FBE90936000FFCF9093A7012B
:103940008093A60108950C94121A0E9481062FEF0D
:1039500086E791E0215080409040E1F700C00000F0
:103960000E94810680E00E94740580FF04C00E94CE
:10397000A31C0C948D1C08950E94181A811102C07A
:103980000E94BC1A0E94231A80936F020E942B1A75
:103990009093AE028093AD020E94271A682F70E0C8
:1039A00090E080E00E94771760914202709143029C
:1039B00080914402909145020C94B117809191023C
:1039C0000895CF93DF9300D00F92CDB7DEB79091DB
:1039D000B302943019F589837B836A8382E08093F4
:1039E000E9008FEF9091E800815095FD06C095EDBC
:1039F0009A95F1F700008111F5CF8091E80085FFDD
:103A00000DC050E040E063E070E0CE0101960E94FE
:103A10000D1F8091E8008E778093E8000F900F9043
:103A20000F90DF91CF910895BC0184E00C94E11CCC
:103A3000BC0183E00C94E11C9C0182E08093E900CE
:103A40009FEF8091E800915085FD06C085ED8A9535
:103A5000F1F700009111F5CF8091E80085FF0CC0CF
:103A600050E040E066E070E0C9010E940D1F8091C7
:103A7000E8008E778093E8000895CF93DF93EC0100
:103A800080912D018823B1F18091AD0287FF32C072
:103A900060E282E08093E9008FEF9091E80081502E
:103AA00095FD06C095ED9A95F1F700008111F5CFCF
:103AB0008091E80085FF1BC080912D0170E050E0EF
:103AC00040E0811104C050E040E068E070E0CE01C9
:103AD0000E940D1F8091E8008E778093E80080E2BD
:103AE000FE01A1E7B2E001900D928A95E1F7DF9126
:103AF000CF91089568E081E0CDCF8091B20281112D
:103B000009C00E949D200E94FA208091E2008460FA
:103B10008093E20008951092B202089508950895E6
:103B2000089542E061EC81E00E94192042E261ECDC
:103B300082E00C9419208091B502833009F45FC0B3
:103B400030F48130C1F1823009F49BC008958A308D
:103B500009F487C08B3009F46DC0893009F04EC07C
:103B60008091B402813209F049C08091B8029091ED
:103B7000B902029708F042C08091E800877F8093E5
:103B8000E8008091E80082FF35C09091F3008091B9
:103B9000F200029729F48091F1008B7F813021F4AB
:103BA0008091F100809391028091E8008B7780935F
:103BB000E8000C944D208091B402813AF9F4809190
:103BC000E800877F8093E8008091B8029091B90265
:103BD000892B61F460E281E792E070E00E945C1F53
:103BE0008091E8008B778093E800089560E090E092
:103BF00080E0F3CF8091B3028111C3CF089580910B
:103C0000B402813AD9F78091B8029091B902892B18
:103C1000A9F78091E800877F8093E8008091E80011
:103C200080FFFCCF80912D018093F1008091E8000E
:103C30008E77BDCF8091B402813201F78091B802B6
:103C40009091B902892BD1F68091E800877F80930B
:103C5000E8000E944D208091B60280932D010C94C3
:103C6000DF138091B402813249F68091E800877FAA
:103C70008093E8000E944D208091B70280939202C9
:103C800008958091B402813A09F0B8CF8091E8009C
:103C9000877F8093E8008091E80080FFFCCF8091CF
:103CA0009202C2CF84B7877F84BF0FB6F894A895DD
:103CB00080916000886180936000109260000FBE68
:103CC00080E890E00FB6F8948093610090936100D3
:103CD0000FBE0E94670F0E949D200E94FA208091D3
:103CE000E20084608093E20078940E9483230E9423
:103CF000750F83E291E00E94CE0E8091B302853071
:103D0000A9F00E94810F0E94730F0E94740FF5CFDB
:103D10000E94831B8091B102882341F00E94B21B54
:103D2000882321F00E94F71E0E94DF138091B302C6
:103D3000853071F30E94C91BE4CF0C949F1E292F7C
:103D400033272330310519F168F42130310509F4A6
:103D500044C02230310509F445C090E080E030E0F5
:103D600020E025C02132310549F122323105A9F781
:103D700080E490E027E533E061157105C1F086EB42
:103D800090E021EA32E06130710589F0E6CF9927B1
:103D90008130910581F0009729F00297F1F6ECE26D
:103DA000F2E002C0E0E5F2E0849190E09F01FA01C8
:103DB000318320830895EAE3F2E0F6CF89E090E0D2
:103DC00026E632E06115710591F389E090E02FE776
:103DD00032E06130710559F3C0CF82E190E02FE805
:103DE00032E0E5CF8BE390E024E532E0E0CF80E104
:103DF00089BD82E189BD09B400FEFDCF8091D80064
:103E00008F7D8093D8008091E00082608093E000F5
:103E10008091E00081FDFCCF0895AF92BF92CF92D8
:103E2000DF92FF920F931F93CF93DF936C01EB010F
:103E30008A010E946C20F82E811123C00115110502
:103E400039F0F80180819181C81BD90BC80ED91EA9
:103E5000B12CA12C2097A9F08091E80085FD22C00B
:103E60008091E8008E778093E80001151105A1F09C
:103E7000F80180819181A80EB91EB182A08285E0EF
:103E8000F82E8F2DDF91CF911F910F91FF90DF9032
:103E9000CF90BF90AF9008950E946C208823D1F2FC
:103EA000F82EEFCFF60181916F018093F1002197F9
:103EB000FFEFAF1ABF0ACECFFC018091BA029091FA
:103EC000BB0286179707A0F06115710529F4909140
:103ED000E8009E779093E80090E06115710551F439
:103EE000911108C08091E80082FF34C080E00895FD
:103EF000BC01F2CF8091B3028823C1F18530C1F1BA
:103F00008091E80083FD30C08091E80082FDEACF17
:103F10008091E80080FFE1CF8091F3002091F200D2
:103F2000382F6115710519F02830310558F091E0EE
:103F30002830310509F090E02091E8002E77209399
:103F4000E800CBCF81918093F100615071092F5F20
:103F50003F4FE7CF8091B302882341F0853041F095
:103F60008091E80083FFBECF81E0089582E008954C
:103F700083E00895FC018091BA029091BB028617FC
:103F80009707A0F06115710529F48091E8008E77FC
:103F90008093E80090E06115710551F4911108C01B
:103FA0008091E80082FF35C080E00895BC01F2CF27
:103FB0008091B3028823C9F18530C9F18091E8006E
:103FC00083FD31C08091E80082FDEACF8091E80056
:103FD00080FFE1CF8091F3002091F200382F61152E
:103FE000710519F02830310558F091E0283031057D
:103FF00009F090E08091E8008E778093E800CBCFC5
:1040000084918093F1003196615071092F5F3F4F89
:10401000E6CF8091B302882341F0853041F0809152
:10402000E80083FFBDCF81E0089582E0089583E03A
:104030000895982F973028F08F708093E90081E0E1
:1040400008959093E900242F762F50E0981731F0CF
:104050007091EC002091ED005091F00021FD02C024
:104060009F5FE8CF3091EB003E7F3093EB003091C3
:10407000ED003D7F3093ED003091EB0031603093E7
:10408000EB007093EC002093ED005093F000209132
:10409000EE0027FDE5CF80E008958091B40287FF10
:1040A00013C08091E80082FF06C08091E8008B7702
:1040B0008093E80004C08091B3028111F2CF08958B
:1040C0008091B3028823D9F38091E80080FFF8CF74
:1040D0008091E8008E77ECCF2091E4003091E500EC
:1040E00095E6A9012091EC00822F817020FF06C087
:1040F0008091E80080FF06C080E008952091E800EC
:1041000022FD1AC08091B302882389F0853089F09E
:104110008091EB0085FD0FC02091E4003091E50017
:1041200042175307F9F29150E1F684E0089582E0D6
:10413000089583E0089581E008950E940B210E9474
:104140001321E0EEF0E0808181608083E8EDF0E013
:1041500080818F77808319BCA7EDB0E08C918E7F32
:104160008C9380818F7E80831092B20208950F938A
:104170001F93CF93DF930E940B210E941321C8ED60
:10418000D0E088818F778883888180688883888160
:104190008F7D888319BC1092B3021092AF021092E7
:1041A000B1021092B00200EE10E0F80180818B7F26
:1041B000808388818160888342E060E080E00E94A3
:1041C0001920E1EEF0E080818E7F8083E2EEF0E066
:1041D000808181608083808188608083F801808114
:1041E0008E7F8083888180618883DF91CF911F914A
:1041F0000F910895E8EDF0E080818F7E8083E7EDF8
:10420000F0E080818160808384E082BF81E08093E0
:10421000B2020C94B720E8EDF0E080818E7F8083BD
:104220001092E20008951092DA001092E1000895D1
:104230001F920F920FB60F9211242F933F934F931B
:104240005F936F937F938F939F93AF93BF93EF93FE
:10425000FF938091E10082FF0BC08091E20082FF1A
:1042600007C08091E1008B7F8093E1000E94822350
:104270008091DA0080FF19C08091D80080FF15C0BE
:104280008091DA008E7F8093DA008091D90080FFE0
:1042900096C080E189BD82E189BD09B400FEFDCFF1
:1042A00081E08093B3020E947D1D8091E10080FF38
:1042B00019C08091E20080FF15C08091E2008E7FDE
:1042C0008093E2008091E20080618093E20080911F
:1042D000D80080628093D80019BC85E08093B30237
:1042E0000E948F1D8091E10084FF2BC08091E2002D
:1042F00084FF27C080E189BD82E189BD89B5982FFF
:10430000917080FFFBCF8091D8008F7D8093D80083
:104310008091E1008F7E8093E1008091E2008F7EAA
:104320008093E2008091E20081608093E2008091BE
:10433000AF02882309F449C084E08093B3020E944D
:10434000901D8091E10083FF29C08091E20083FFEE
:1043500025C08091E100877F8093E10082E0809317
:10436000B3021092AF028091E1008E7F8093E10052
:104370008091E2008E7F8093E2008091E200806174
:104380008093E20042E060E080E00E94192080918A
:10439000F00088608093F0000E948E1DFF91EF91E5
:1043A000BF91AF919F918F917F916F915F914F914D
:1043B0003F912F910F900FBE0F901F90189519BC31
:1043C0001092B3020E948B1D70CF8091E30087FD95
:1043D00093E09093B302B3CF1F920F920FB60F9258
:1043E00011242F933F934F935F936F937F938F93FA
:1043F0009F93AF93BF93CF93DF93EF93FF93D091AE
:10440000E900DF708091EC00C82FC17080FDC0E82A
:104410001092E9008091F000877F8093F0007894FB
:104420000E9430221092E9008091F0008860809311
:10443000F000CD2BCF70C093E900FF91EF91DF9199
:10444000CF91BF91AF919F918F917F916F915F912C
:104450004F913F912F910F900FBE0F901F90189585
:104460001F93CF93DF93CDB7DEB7AA970FB6F8941B
:10447000DEBF0FBECDBF84EB92E02091F100FC01C6
:104480002193CF01F2E08C3B9F07B9F70E949B1D5F
:104490008091E80083FF1EC18091B4029091B50223
:1044A0009A3008F017C1E92FF0E0E25DFB4D0C9463
:1044B000B223803899F0823809F00CC18091B8029B
:1044C0008F70873008F006C18093E9008091EB007F
:1044D00085FB882780F91092E90006C08091B00220
:1044E0009091B102911182609091E800977F909332
:1044F000E8008093F1001092F1008091E8008E773F
:10450000E5C0882309F4D3C0823009F0E3C080916C
:10451000B6028111D6C08091B8028F702FEF280F9C
:10452000263008F0D7C08093E9002091EB0020FFEF
:10453000C8C0933031F48091EB0080628093EB002F
:10454000C0C09091EB0090619093EB0021E030E0CF
:1045500001C0220F8A95EAF72093EA001092EA0040
:104560008091EB008860EACF8111B4C01091B6024F
:104570001F778091E3008078812B8093E300809106
:10458000E800877F8093E8000E944D208091E8003A
:1045900080FFFCCF8091E30080688093E30082E09D
:1045A000111183E08093B30295C08058823008F0E7
:1045B00091C08091B6029091B7028C3D23E09207A2
:1045C000A1F583E08A838AE289834FB7F894DE01FC
:1045D000139620E03EE051E2E32FF0E050935700C5
:1045E000E49120FF03C0E295EF703F5FEF708E2FE4
:1045F00090E0EA30C0F0C7968D939D932F5F2431F1
:1046000059F74FBF8091E800877F8093E8006AE206
:1046100070E0CE0101960E945C1F8091E8008B77CC
:104620008093E80057C0C096E7CF6091B8027091C0
:10463000B902AE014F5F5F4F0E949D1EBC01892BE6
:1046400009F448C09091E800977F9093E800898131
:104650009A810E94BA1FE1CF8038E1F58091E8008D
:10466000877F8093E8008091AF028093F10045CF6F
:10467000811130C09091B602923060F58091E800CF
:10468000877F8093E8009093AF020E944D20809135
:10469000AF02882311F084E005C08091E30087FD1C
:1046A000FACF81E08093B3020E94911D13C08091E4
:1046B000B602813079F481E0933009F080E0809394
:1046C000B1021092E9008091E800877F8093E800B2
:1046D0000E944D208091E80083FF0AC08091E8008D
:1046E000877F8093E8008091EB0080628093EB00ED
:1046F000AA960FB6F894DEBF0FBECDBFDF91CF9163
:104700001F9108950895CF938091B3028823A1F05B
:10471000C091E900CF709091EC00892F817090FDDD
:1047200080E8C82B1092E9008091E80083FD0E9488
:104730003022CF70C093E900CF91089597FB072EE8
:1047400016F4009407D077FD09D00E94B82307FC27
:1047500005D03EF4909581959F4F08957095619591
:104760007F4F0895EE0FFF1F0590F491E02D0994FF
:10477000AA1BBB1B51E107C0AA1FBB1FA617B70787
:1047800010F0A61BB70B881F991F5A95A9F78095A3
:104790009095BC01CD010895F999FECF92BD81BDE0
:1047A000F89A992780B50895A8E1B0E042E050E07A
:1047B0000C940024262FF999FECF92BD81BDF89A62
:1047C000019700B4021639F01FBA20BD0FB6F89455
:1047D000FA9AF99A0FBE08950396272F0E94DB23B9
:1047E0000E94DA23252F0E94DB23242F0C94DB2345
:1047F0000196272F0E94DB230C94DA23DC01CB01E6
:10480000FC01F999FECF06C0F2BDE1BDF89A3196E0
:1048100000B40D9241505040B8F70895F894FFCF7E
:10482000A811A8110012001252126E12D511D51142
:1048300079120513141314137013D511D5117913AC
:10484000EE13EE13F713F713F913F713F713F71328
:10485000EE13EE13FE13F713F713FE135922812202
:104860006A2381226A23B422D5226A232C23382387
:104870009136323331F7F66694900000000001283B
:1048800008641E140A321EF5F4C40104C50105C9EA
:10489000014C02DE1C3D1D1C1D181D141D019466DB
:1048A00097C63435E200E900EA00B500B600B7006B
:1048B000CD008301CC008A019201940121022302E0
:1048C00024022502260227022A02B300B4006F0048
:1048D000700081828300FF0100010000FFFF0000E3
:1048E000010001FF00E200E900EA00B500B600B7F0
:1048F00000CD008301CC008A0192019401210223A2
:104900000224022502260227022A02B300B4006F05
:06491000007000818283AB
:00000001FF
