:100000000C9432030C9479030C9479030C947903C7
:100010000C9479030C9479030C9479030C94790370
:100020000C9479030C9479030C941A2B0C94EE2BFA
:100030000C9463250C9479030C9479030C94790344
:100040000C9479030C9479030C9479030C94790340
:100050000C9479030C94BA250C9479030C947903CD
:100060000C9479030C9479030C9479030C94790320
:100070000C9479030C9479030C9479030C94790310
:100080000C9479030C9479030C9479030C94790300
:100090000C9479030C9479030C9479030C947903F0
:1000A0000C9479030C9479030C94790314001A00CE
:1000B0000800150017001C0018000C0012001300A7
:1000C00004001600070009000A000B000D000E00D6
:1000D0000F0028001D001B0006001900050011007C
:1000E0001000360037002A00E000E2000151E10074
:1000F000AE002C002C000251E600E4001E001F00A0
:1001000020002100220023002400250026002700D3
:1001100029005000510052004F002D002E003400E5
:10012000330001002B004C0046002F00300031004E
:100130003800010001000100010001000100010080
:1001400001000100010001000100010001000100A7
:100150000100010001000100010001000100010097
:100160000100010001000100010001000100010087
:100170000100010001000100010001000100010077
:100180000100010001000100010001000100010067
:100190000100010001000100010001000100010057
:1001A0000100010001000100010001000100010047
:1001B0000100010001000100010001000100010037
:1001C0000100010001000100010001000100010027
:1001D0000100010001000100010001000100010017
:1001E0000100010001000100010001000000000009
:1001F000000000002A2B2800000000000000000082
:100200000000000000000029000000002C1E342027
:10021000212224342627252E362D3738271E1F204D
:100220002122232425263333362E37381F04050692
:100230000708090A0B0C0D0E0F10111213141516D6
:100240001718191A1B1C1D2F3130232D35040506D4
:100250000708090A0B0C0D0E0F10111213141516B6
:100260001718191A1B1C1D2F3130354C00000000C7
:10027000000000000000000000000000000000007E
:10028000000000000000000000000000000000006E
:100290007E0F00D4FFFFFFC7000000781E0F05008F
:1002A000047F3F1F643214643214783C1E1E140A0B
:1002B000052223252628292A2C2D2F3032333536A6
:1002C000383A3B3D3E4042434547494A4C4E5051E7
:1002D000535557595A5C5E6062646668696B6D6F0E
:1002E00071737577797B7D7F81838587898A8C8E11
:1002F00090929496989A9C9E9FA1A3A5A7A8AAAC19
:10030000AEAFB1B3B4B6B8B9BBBCBEBFC1C2C3C552
:10031000C6C7C9CACBCCCDCED0D1D2D2D3D4D5D6F4
:10032000D7D7D8D9D9DADADBDBDBDCDCDCDCDCDD27
:10033000DDDDDDDCDCDCDCDCDBDBDBDADAD9D9D80B
:10034000D7D7D6D5D4D3D2D2D1D0CECDCCCBCAC9A3
:10035000C7C6C5C3C2C1BFBEBCBBB9B8B6B4B3B1D2
:10036000AFAEACAAA8A7A5A3A19F9E9C9A9896946D
:1003700092908E8C8A89878583817F7D7B79777542
:1003800073716F6D6B6968666462605E5C5A595721
:10039000555351504E4C4A4947454342403E3D3BE0
:1003A0003A3836353332302F2D2C2A29282625236A
:1003B00022FFAA7F55400001010101010101010155
:1003C0000202020202020202020303030303030306
:1003D00003040404040404040505050505060606D3
:1003E0000606070707070708080808090909090A90
:1003F0000A0A0B0B0B0C0C0C0D0D0D0E0E0E0F0F35
:100400000F101011111112121313141415151616C2
:100410001717181819191A1A1B1B1C1D1D1E1E1F31
:100420002020212222232424252626272829292A80
:100430002B2C2D2D2E2F30313232333435363738A8
:10044000393A3B3C3D3E3F404142434445464748A4
:10045000494A4C4D4E4F50515354555658595A5B7A
:100460005D5E5F616264656668696B6C6D6F70721A
:10047000737577787A7B7D7E8082838587888A8C86
:100480008E8F91939596989A9C9EA0A2A3A5A7A9BA
:10049000ABADAFB1B3B5B7BABCBEC0C2C4C6C9CBB1
:1004A000CDCFD1D4D6D8DBDDDFE2E4E7E9EBEEF067
:1004B000F3F5F8FAFDFF0C03790061007300750095
:1004C0006900000014037200610069006E006B0097
:1004D000650065006200730000000403090409025E
:1004E0005B00030100A0FA09040000010301010000
:1004F0000921110100012240000705810308000ABB
:100500000904010002030000000921110100012279
:1005100022000705820320000107050303200001D4
:100520000904020001030000000921110100012259
:10053000B6000705840320000A1201100100000024
:10054000086B7273790100010200010660FF096106
:10055000A1010962150026FF009520750881020996
:1005600063150026FF00952075089102C00501095A
:1005700002A10185020901A1000509190129081537
:100580000025019508750181020501093009311521
:1005900081257F95027508810609381581257F958B
:1005A0000175088106050C0A38021581257F950121
:1005B00075088106C0C005010980A10185031901E4
:1005C0002AB700150126B700950175108100C005F6
:1005D0000C0901A101850419012AA002150126A018
:1005E00002950175108100C005010906A10185056C
:1005F000050719E029E71500250195087501810215
:100600000507190029EF1500250195F075018102F4
:1006100005081901290595057501910295017503D4
:100620009101C005010906A101050719E029E71597
:100630000025019508750181029501750881010564
:1006400007190029FF150026FF009506750881008F
:100650000508190129059505750191029501750394
:100660009101C00011241FBECFEFDAE0DEBFCDBF85
:1006700004B603FE27C080912A0390912B03A0911A
:100680002C03B0912D038730904BA740B04BD1F491
:1006900010922A0310922B0310922C0310922D0318
:1006A00014BE84B7877F84BF0FB6F894A895809155
:1006B0006000886180936000109260000FBEE0E0EF
:1006C000F8E3099511E0A0E0B1E0E6ECFEE502C038
:1006D00005900D92A63DB107D9F723E0A6EDB1E054
:1006E00001C01D92AA32B207E1F70E94D8270C94EC
:1006F000122F0C94000081E0089581E008950C947D
:100700007D0308950C9481031F93CF93DF9300D052
:1007100000D00F92CDB7DEB749835A836B833091F7
:10072000410289819A8131111DC06623B9F02223CB
:10073000A9F00E945D22182F682F89819A810E945A
:10074000092269817A81812F0F900F900F900F906D
:100750000F90DF91CF911F910C948C150E94352240
:10076000182FEFCF0E945D2269817A81EDCFFC01C5
:10077000262F408151816281738184810C9484038E
:10078000CF93DF93EC0160E00E94B703BE01DF91DD
:10079000CF910C9482038F929F92AF92BF92CF928F
:1007A000DF92EF92FF920F931F936B017C0181E028
:1007B00090E0A0E0B0E04C015D0104C0880C991C01
:1007C000AA1CBB1C4A95D2F7B501A4014C015D01DE
:1007D00004C0880C991CAA1CBB1C2A95D2F7482976
:1007E00059296A297B2904C0880F991FAA1FBB1F9A
:1007F0000A95D2F78A019B010C211D212E213F2150
:10080000041715072607370789F48C299D29AE2977
:10081000BF29BC01CD011F910F91FF90EF90DF9098
:10082000CF90BF90AF909F908F90089580959095B6
:10083000A095B0958C219D21AE21BF21EACF0F93C9
:10084000382F262F60919302709194028091950227
:1008500090919602042F432F0E94CB030F910C948A
:1008600047210E94F6250E94A923811102C00E94FF
:100870004D240C9471070C94740708950E94731D05
:100880000E943D042FEF84E39CE021508040904083
:10089000E1F700C000000C94DE250F931F93CF9367
:1008A000DF93EC0161E00E94B7038C01BE010E945E
:1008B0007313882389F1BE01C8010E947F03882336
:1008C00059F1BE01C8010E94C316882329F1BE0157
:1008D000C8010E9415178823F9F0BE01C8010E94C3
:1008E00038188823C9F0BE01C8010E947F128823EE
:1008F00099F08A81882339F001158CE5180751F0A9
:100900000E3D1C4579F0CE01DF91CF911F910F91E3
:100910000C947B030E943E0480E0DF91CF911F91F5
:100920000F9108950E944D24F7CFDF92EF92FF922E
:100930000F931F93CF93DF93E82FF0E0E451FE4F26
:10094000D490282F26952695269530E0F901E45776
:10095000FD4F0491877010E0082E02C01595079591
:100960000A94E2F701701127F901E458FD4FE49071
:10097000F12C082E02C0F594E7940A94E2F791E076
:10098000E922FF24F901E459FD4FC491D0E002C0EF
:10099000D595C7958A95E2F7C170DD270115110538
:1009A00019F081EE0E94F319E114F10419F086EEBA
:1009B0000E94F3198D2D0E94F21AEF2819F086EE8D
:1009C0000E94851A012B19F081EE0E94851ACD2B09
:1009D00051F08CE2DF91CF911F910F91FF90EF903A
:1009E000DF900C94F21ADF91CF911F910F91FF903D
:1009F000EF90DF900895EF92FF920F931F93CF93A4
:100A0000DF93EC01162F0AE08881882309F454C093
:100A1000813009F04EC08981813099F47E0122E055
:100A2000E20EF11C8A810E94F21AE7012196812FC1
:100A3000815050F3EFE9FFE03197F1F700C000007B
:100A4000F7CF823041F47E0182E0E80EF11C8A810A
:100A50000E94F319EACF833041F47E01E2E0EE0E0A
:100A6000F11C8A810E94851AE0CF843011F0219612
:100A7000DDCF2A81229690E080E0AE014F5F5F4F8C
:100A80002053330B2A30310548F0019778F2EFE913
:100A9000FFE03197F1F700C00000F7CF089FB001E9
:100AA000099F700D1124C901860F971F2981EA0142
:100AB000E4CF0E949504BACFDF91CF911F910F919F
:100AC000FF90EF90089560E00C94FB0408950C945F
:100AD000660581E008950C946905CF93C82F0E94A4
:100AE00067058C2FCF910C946B0590E080E0089502
:100AF0000895FC01EE0FFF1FE456FD4F8591949180
:100B00000895CF93DF930E948C150E949606EC0106
:100B1000811520E5920708F042C0811530E4930763
:100B200008F0BDC0883E910528F5803E910508F08B
:100B30009DC0883A910588F4853A910508F08FC0E8
:100B40008130910509F492C0009709F48FC0049791
:100B500008F08CC0D0E0C0E089C08F3B910508F45C
:100B600089C0805C9109C03CD105A0F30E94790541
:100B7000EC017CC08115904250F4C11581E0D8078A
:100B800008F074C0C03FD10528F3D0656FC0C1150F
:100B900090E3D90708F079C0CE019F70E7CF8115A7
:100BA00025E5920758F5811534E5930708F0A6C0AE
:100BB000811542E5940750F4C11581E5D80708F482
:100BC00071C0DC2FCC27C16FD06A50C0982F96958A
:100BD00096959E0123703327C115D34508F07FC039
:100BE000C1E0D0E002C0CC0FDD1F2A95E2F720E281
:100BF000929FC0011124C82BD92B6FC0C11589E564
:100C0000D807A8F4C11598E5D90708F07CC0C1152C
:100C100026E5D20708F09ECF8C2F0E942D07C82F03
:100C2000D0E0DC2FCC27CC27DF71D0621FC0C115EC
:100C30003AE5D30708F46CC0CE0190568115904276
:100C400008F088CF8D2F8F710E942D0790E0982F8C
:100C5000882788279F719C012C2BE901E6CFC55A74
:100C6000D0E0C65ADE4FC881D0E0D064CE01DF911B
:100C7000CF910895C85AD0E0CC0FDD1FC45DDE4F80
:100C80000990D881C02DD464F1CFCE019927D3FF2C
:100C900003C0EC01D86CEACFEC01D06CE7CFDF7079
:100CA000D06AE4CFCE01E4E096958795EA95E1F726
:100CB00083702C2F26952695237090E2299F900112
:100CC0001124382B8C2F8370C1E0D0E002C0CC0FF0
:100CD000DD1F8A95E2F7C22BD32BDC68C7CFC1E0BA
:100CE000D0E002C0CC0FDD1F2A95E2F730E2939FDF
:100CF000C0011124C82BD92BDA68B8CFD82FCC2744
:100D0000C46FD06AB3CFDC2FCC27C06FD06AAECF10
:100D10008C2F8F700E942D0734E0D695C7953A9599
:100D2000E1F7CF709C2FEC01D069A0CF82389105FC
:100D3000B1F1B0F48133910509F475C048F48932FA
:100D4000910509F469C08A32910509F473C00895C8
:100D50008533910509F459C08933910501F108954E
:100D6000833E9105A9F138F4803E9105F9F0823E69
:100D7000910549F10895863E9105A9F1873E9105B7
:100D8000C9F1843E910519F520911C0321FF1FC074
:100D900080911B0384FD14C087EE90E0089520919C
:100DA0001B032370A1F080EE90E0089520911B03B7
:100DB00020FD47C030911C0330FF09C024FF44C010
:100DC00090E080E004C020911B0322FDF7CF08953E
:100DD00020911B0322FD3BC030911C0330FDE3CF6B
:100DE00024FFF5CFEDCF20911B0323FFF0CF24FD8F
:100DF000E7CFD2CF20911B0323FD2CC030911C03E1
:100E000031FFEECF84EE90E0089520911B0325FF83
:100E1000DECF89E290E0089520911B0325FFD7CF14
:100E200085E390E0089520911B0326FFD0CF8AE24E
:100E300090E0089520911B0326FFC9CF81E390E045
:100E4000089589E390E0089583EE90E0089582EE9E
:100E500090E0089586EE90E0089590911B0392FF34
:100E600006C0282F28712830F9F4877F846093FF0B
:100E700006C0282F28712831F1F4877E84612091E3
:100E80001C0320FF06C0382F38713830D9F4877F13
:100E9000816021FF06C0282F28712831D1F4877E78
:100EA000816194FD877E0895282F24712430F9F6FE
:100EB0008B7F8860DCCF282F2471243101F78B7E53
:100EC0008861DDCF382F3171313019F78E7F88601E
:100ED000E0CF282F2171213121F78E7E8861E1CF6B
:100EE00008950C94700708950C947307E82FF0E0B0
:100EF000EE0FFF1FE451FD4F808191810895089509
:100F000080EA8A95F1F7089500C008950C9480074F
:100F1000F894E82FE295EF70F0E031A1282F2F70C0
:100F200081E090E001C0880F2A95EAF7982F90950C
:100F3000932391A392A1892B82A378940895CF93B0
:100F4000DF9384E90E94880786E60E94880785E38C
:100F50000E94880786EC0E948807CDE5D1E0899140
:100F60000E94880781E0C736D807C9F71092E502CA
:100F70001092E4021092ED021092EC021092E7023D
:100F80001092E6021092EF021092EE021092E90225
:100F90001092E8021092F1021092F0021092EB020D
:100FA0001092EA021092F3021092F20284E00E9480
:100FB0006108DF91CF910C943104AF92BF92CF9230
:100FC000DF92EF92FF920F931F93CF93DF9307E689
:100FD00011E0C4EED2E0C12CD12CEE24E394F12C2C
:100FE000F80181918F01F894E82FE295EF70F0E01D
:100FF00021A18F70A70102C0440F551F8A95E2F707
:10100000CA01922F982B91A392A18095892382A344
:1010100078940E948407EDE5F1E030E020E0B12C07
:10102000A12C4191A42FA295AF70B0E090968C9125
:1010300090E04F7002C0959587954A95E2F780FD44
:101040003BC0C701022E02C0880F991F0A94E2F725
:10105000A82AB92A2F5F3F4F2A30310511F7F8012E
:10106000319780810E94880753E0C5120E9486074D
:1010700088819981A816B90611F1B982A88281E008
:10108000D82AC394229684E0C812AACF2D2D44E01A
:101090006CEE72E084EE92E00E9462080E943B04D3
:1010A0008D2DDF91CF911F910F91FF90EF90DF90E9
:1010B000CF90BF90AF90089590E080E0C9CF80E0DE
:1010C000DFCF0895FF920F931F93CF93DF93F82EF6
:1010D000092F162FD72FC42F222349F081E08093A8
:1010E000DA010E9493259093D9018093D8018091D1
:1010F000DA018823A1F08091D8019091D9010E9452
:10110000AB25069760F0EF2DF02FA12FBD2F90E0BB
:1011100080E0D0E08C179D0744F01092DA01DF9157
:10112000CF911F910F91FF900895219131912D93AF
:101130003D930196EFCF8091E10180FF12C0609155
:10114000090185E0689FB001112475956795759533
:10115000679560387105A8F561157105A1F1862FB5
:10116000089581FF09C06091090185E0689FB00181
:10117000112475956795EDCF6091090182FD0AC034
:101180008091E0018823D1F09091080160910901DC
:10119000891728F085E0689FB0011124DACF869F77
:1011A000B001112485E0869F9001879F300D1124A6
:1011B000692F70E0C9010E94CE2DCBCF65E070E0B1
:1011C000CECF8FE7089581E008958091E10180FFFF
:1011D0000CC06091050170E07595679575956795F0
:1011E0006115710549F1862F089581FF06C0609150
:1011F000050170E075956795F3CF6091050182FD5B
:101200000BC09091DF019923A1F0609104018091BE
:101210000501961738F0682F70E06038710500F30B
:101220008FE70895899FC001112470E00E94CE2DA0
:10123000F4CF61E070E0D7CF81E00895803F31F4D2
:101240000E949B0881958093E5010895813F19F4E0
:101250000E949B08F8CF823F31F40E949B08819541
:101260008093E4010895833F19F40E949B08F8CF0E
:10127000893F29F40E94E5088093E60108958A3F9A
:1012800021F40E94E5088195F7CF8B3F31F40E944D
:10129000E50881958093E70108958C3F19F40E9439
:1012A000E508F8CF9CE0980F953070F4845F990BB7
:1012B00021E030E001C0220F8A95EAF78091E30136
:1012C000822B8093E30108958D3F31F48091E101F9
:1012D00081608093E10108958E3F21F48091E101C6
:1012E0008260F7CF8F3FB9F78091E1018460F1CF41
:1012F0004091E401803F59F48091E50187FF0DC0E2
:101300001092E50141110BC01092E00108C0813F2D
:1013100081F48091E50118169CF3442381F08091BB
:10132000E6019091E701892B09F05AC01092DF0184
:101330000895823F49F447FFF0CF1092E401809175
:10134000E5018111ECCFE0CF833F19F41416ACF323
:10135000E4CF9091E601893F29F41916F4F6109232
:10136000E601DBCF8A3F19F497FFD7CFF8CF9091F2
:10137000E7018B3F29F497FFD0CF1092E701CDCF43
:101380008C3F19F41916CCF3C8CF9CE0980F953018
:1013900090F4845F990B21E030E0B90102C0660F40
:1013A000771F8A95E2F7CB0180959091E30189231D
:1013B0008093E301B2CF8D3F31F48091E1018E7FC4
:1013C0008093E101AACF8E3F21F48091E1018D7FCE
:1013D000F7CF8F3F09F0A1CF8091E1018B7FF0CF54
:1013E00008950E9493259C019091E4018091E5016C
:1013F000982B21F03093DE012093DD019091E601DE
:101400008091E701982B21F03093DC012093DB01E0
:1014100082EE91E00C948D18EF92FF920F931F9340
:10142000CF93DF9300D000D000D0CDB7DEB786E0F9
:10143000E2EEF1E0DE01119601900D928A95E1F75E
:10144000E090E401F090E5010091E6011091E701E0
:101450001092E4011092E5011092E6011092E7016A
:101460008E2D8F2991F08091DD019091DE010E94F7
:10147000AB25AC019091E001992309F43FC0809124
:101480000A018417150608F447C0802F812B91F0BC
:101490008091DB019091DC010E94AB25AC01909121
:1014A000DF01992309F477C080910601841715069E
:1014B00008F47FC08091E4019091E501892B90911F
:1014C000E601892B9091E701892B11F00E94F10927
:1014D00086E0FE013196A2EEB1E001900D928A9570
:1014E000E1F726960FB6F894DEBF0FBECDBFDF91B1
:1014F000CF911F910F91FF90EF90089520910B01D4
:101500008AE0289F900111242417350708F0BDCFE9
:101510009F5F9093E00102C09F3FD1F7EE2059F00A
:101520000E949B089FEF1E140CF491E0899F802D70
:1015300011248093E401FF2059F00E949B089FEF43
:101540001F140CF491E0899F802D11248093E501F4
:101550003091E401332309F498CF2091E50122234F
:1015600009F493CF45EB3403C0011124992359F0BA
:101570009093E40145EB240390011124332339F0C7
:101580003093E50182CF81E08093E401F3CF81E0E5
:101590008093E5017ACF209107018AE0289F90018E
:1015A00011242417350708F085CF9F5F9093DF0142
:1015B00002C09F3FD1F7002359F00E94E5089FEF3A
:1015C00010160CF491E0899F802D11248093E60180
:1015D000112359F00E94E5089FEF11160CF491E0D9
:1015E000899F802D11248093E7013091E6013323F8
:1015F00009F460CF2091E701222309F45BCF45EB8A
:101600003403C0011124992359F09093E60145EB6E
:10161000240390011124332339F03093E7014ACF9A
:1016200081E08093E601F3CF81E08093E70142CF30
:1016300086E0E2EEF1E0DF011D928A95E9F7109273
:10164000E0011092DF011092E1010895EF92FF9204
:101650000F931F93CF93DF93EB01E82FD11110C0AD
:10166000442321F0F0E0EA54FC4FE4916E2F7E2FEA
:101670008E2FDF91CF911F910F91FF90EF900895E2
:101680000D2F10E0282F30E0442329F02A543C4F3E
:10169000F901249130E0F6E0CF9FC0011124EFEF73
:1016A000F0E0BF010E94BA2DAB018C2F90E0880FB3
:1016B000991FA5E5A49FB001A59F700D1124861B5D
:1016C000970B982F990F980FBF01601B710B629FAA
:1016D000D001639FB00D729FB00D11248B2F9D9F81
:1016E000B0011124672F7727EF01C61BD70BBE016E
:1016F000629FE001639FD00D729FD00D11247F0186
:10170000E91AF108E09EB001E19E700DF09E700DA7
:101710001124672F7727E61BF70BE29F8001E39FD9
:10172000100DF29F100D1124E12F722F4230510540
:1017300099F048F44115510569F04130510581F0A7
:10174000EB2F8D2F07C04430510569F080F04630F3
:101750005105B1F76E2F8DCFE22F7B2F812FFACF5E
:10176000E22F7D2FF7CFEB2F822F712FF3CF7B2F1F
:10177000822FED2FEFCF41E00C94260B08950C94AF
:10178000BB0BCF93DF93762FE901682F842F0E9444
:10179000BF0B798368838A83DF91CF91089580910D
:1017A000F402982F9E7F29F4817082608093F40266
:1017B00008958635E8F381708465F8CF88E090E07D
:1017C0000C94B32ECF92DF92EF92FF926B017C01CB
:1017D0000E94CF0BB701A60188E090E0FF90EF9048
:1017E000DF90CF900C94D12E6091F4027091F502AD
:1017F0008091F6029091F7020C94E20BE4EFF2E094
:1018000083E0808311828FEF8283838314826081DF
:101810007181828193810C94E20B8091F40280FFAC
:1018200002C08695089580E008959091F802933063
:1018300018F49F5F9093F802882351F06091F402AE
:101840007091F5028091F6029091F7020C94E20BF0
:10185000089581E00C94150C9091F802992319F0E9
:1018600091509093F802882351F06091F4027091A6
:10187000F5028091F6029091F7020C94E20B089524
:1018800081E00C942C0C8091F80208958093F8026A
:10189000662351F06091F4027091F5028091F60296
:1018A0009091F7020C94E20B089560E00C94460CC2
:1018B0008091F50208958091F60208958091F702D3
:1018C000089570E00C94EF12609110018091F40281
:1018D00080FF0AC080910F0123E0829FC001112484
:1018E00087509D4F0C94610C8091110190911201D1
:1018F00023E0829FF0011124E750FD4F891750F734
:101900001182108212828F5F3396F8CF9091F40289
:1019100090FF14C0909111012091120133E0939F28
:10192000F0011124E750FD4F921710F00C94640C55
:101930008183608342839F5F3396F6CF0895CF9370
:10194000DF9300D00F92CDB7DEB79091F40290FFF5
:101950000AC09E012F5F3F4F0E94C10B4B816981DE
:101960008A810E94860C0F900F900F90DF91CF918B
:101970000895CF93DF93EC01EC81F0E0EF54FD4F3D
:101980004491E4EFF2E0628181810E949F0C8C819E
:101990008F5F8C83DF91CF910895CF93DF93EC011C
:1019A000E4EFF2E0438162818C810E949F0C8C8184
:1019B0008F5F8C83DF91CF9108950F931F93CF9307
:1019C000DF9300D00F92CDB7DEB78C018091E80194
:1019D00081110AC09E012F5F3F4F4FEF6FEF0E94B2
:1019E000C10B8A818093E801F8016481613069F05C
:1019F0008091E80140E0662361F040E0623011F43C
:101A00004091E80180E060E004C06091E80140E0BE
:101A100080E00E94860CF801848190E0019663E0EA
:101A200070E00E94CE2D84830F900F900F90DF9175
:101A3000CF911F910F910895AF92BF92CF92DF92F5
:101A4000EF92FF920F931F93CF93DF9300D00F92EB
:101A5000CDB7DEB7182FF62E042FE22E9091F402A8
:101A600090FF29C0E92FE695AE2FB0E0A559BE4FF3
:101A70008C91809324029E7F923059F59E012F5FB6
:101A80003F4F812F0E94C10B4B8169818A810E9447
:101A9000860C1093F502F092F6020093F702EE2006
:101AA00051F06091F4027091F5028091F6029091EC
:101AB000F7020E94E20B0F900F900F90DF91CF91F1
:101AC0001F910F91FF90EF90DF90CF90BF90AF905C
:101AD0000895823019F40091F702DBCF863019F4B3
:101AE0001091F502D6CF8930D9F3893191F6E951B9
:101AF0008E2F8170D82EE695F0E0EF54FC4FA59024
:101B0000B490C12CBB2460911301C61618F00E943A
:101B1000640CBFCF2C2D30E0A29EC001A39E900D7F
:101B2000B29E900D112470E00E94BA2D812FD11029
:101B300013C0860F40911101420F532F511D9A017E
:101B4000220F331F240F351F27503D4F402F6F2D7D
:101B50000E94C10BC394D7CF861BECCFE4EFF2E019
:101B60009181282F4381628188E0890F0C941C0D9C
:101B700081E00C94AE0DE4EFF2E09181282F4381D7
:101B8000628188EF890F0C941C0D81E00C94BB0DD1
:101B9000E4EFF2E0628128E0620F08F46FEF282F93
:101BA000438181810C941C0D81E00C94C80DE4EFFD
:101BB000F2E0628128E0621B08F460E0282F438194
:101BC00081810C941C0D81E00C94D70DE4EFF2E0C0
:101BD000438128E0420F08F44FEF282F6281818172
:101BE0000C941C0D81E00C94E60DE4EFF2E04381CF
:101BF00028E0421B08F440E0282F628181810C9488
:101C00001C0D81E00C94F50D20E00C941C0DEF925E
:101C1000FF921F93CF93DF93EC0110E0EE24EA9440
:101C2000F12C60911301161770F00E94640C9A81D8
:101C30008C8190FF27C08F5F8C83DF91CF911F91A4
:101C4000FF90EF90089520911101422F410F5527E9
:101C5000551FCA019A01220F331F280F391F275021
:101C60003D4F70E0C7010E94CE2D962F8C81409190
:101C7000F7026091F602199F800D11240E94C10B9A
:101C80001F5FCFCF8150D8CFAF92BF92CF92DF925C
:101C9000EF92FF920F931F93CF93DF93FC0182810A
:101CA0000FEF80FF01E010E04AE0A42E80911301C5
:101CB0001817C8F00E94640C8091EA01013009F005
:101CC00055C0811102C08091130181508093EA01B7
:101CD000DF91CF911F910F91FF90EF90DF90CF9008
:101CE000BF90AF900895C0911101C12ED12CCC0DA1
:101CF000DD2DD11DCE01880F991FC80FD91FC750E8
:101D0000DD4F198218821A8234E0E32EF12CB12CB7
:101D10008091EA018B0D8B301CF16A2D0E94AC2D55
:101D2000892F082E000C990BC816D90691F48091C2
:101D3000F7028E9DA0018F9D500D1124559547955A
:101D4000559547959E016091F6028091F5020E949B
:101D5000C10BB00EF1E0EF1AF108D1F61F5FA6CF6C
:101D600087FFDFCF90911301890FDBCF90E00196C1
:101D70006091130170E00E94CE2DA8CF0F931F93A6
:101D8000CF93DF93809111019091120123E0829F04
:101D9000F0011124E750FD4F891740F1C0E0D3E076
:101DA00060911301C61740F10E94640C20910D014F
:101DB0008091E901820F8093E90190910E01920FC9
:101DC00090930E01191654F4082E000C990B4091B3
:101DD00013014150550B841795071CF02195209352
:101DE0000D01DF91CF911F910F9108951182108203
:101DF00012828F5F3396D0CF0C2F10E070E0C801B5
:101E00000E94CE2D20911101820F482F50E0209189
:101E1000E901022E000C330B02171307BCF02091CE
:101E20000E01022E000C330B201731077CF08D9F22
:101E30009001112427503D4F4091F7026091F60226
:101E40008091F5020E94C10BCF5FAACFFA01EE0F7D
:101E5000FF1FE40FF51FE750FD4F11821082128221
:101E6000F3CF8F929F92AF92BF92CF92DF92EF9279
:101E7000FF920F931F93CF93DF93EC014C81042FBC
:101E800010E09801D8010E94192E9B01AC010E941C
:101E90002F2E4B015C01E0E2F0E0E01BF10BA5E529
:101EA000B0E0AC019B010E942F2E6B017C019F01D1
:101EB000DF010E94112E9B01AC010E943A2E9B0172
:101EC000AC01280D391D4A1D5B1DC701B6010E94DA
:101ED000E22DF22E822F90E039E23F1560F143E0CF
:101EE000249F9001112435952795122F109500E01D
:101EF00085E5E82EEF1880911301081758F10E942C
:101F0000640C9C8181E0992319F0903219F48FEFD1
:101F100080930C0180910C01890F8C83DF91CF910C
:101F20001F910F91FF90EF90DF90CF90BF90AF90F7
:101F30009F908F90089525E530E0B901681B790BDB
:101F40009B01220F331F260F371F37FFCCCF2F5F88
:101F50003F4FC9CF8E2D01FD8F2D20911101622F92
:101F6000600F7727771F9B01220F331F260F371F24
:101F700027503D4F412F6091F6020E94C10B0F5F29
:101F8000BACF0F931F93CF93DF93EC0110E000E0E3
:101F9000909113019017110609F06CF40E94640CE3
:101FA0008C8190E00196817099278C83DF91CF918D
:101FB0001F910F91089520911101A801420F511D09
:101FC0009A01220F331F240F351F27503D4F4C819C
:101FD0006091F6028091F50296959017110651F0E6
:101FE0004CF0442349F04091F7020E94C10B0F5F6F
:101FF0001F4FCECF4423B9F340E0F7CF4F925F920B
:102000006F927F928F929F92AF92BF92CF92DF9208
:10201000EF92FF920F931F93CF93DF93FC016280A7
:10202000448081E08483E1EBF2E07490E0E3F3E04C
:10203000E491812C75E0972EF2E0CF2EDD24D3942D
:10204000AA24AA94B12C55245A94E7190E2F10E013
:1020500080911301881690F0DF91CF911F910F911D
:10206000FF90EF90DF90CF90BF90AF909F908F90B8
:102070007F906F905F904F900C94640CE82CF12C43
:1020800082E0861568F09E9CF0019F9CF00D112463
:10209000E551FE4F8091F50280838091F6028183A5
:1020A000411023C09E9CF0019F9CF00D1124E5512E
:1020B000FE4F1382128220911101C701820F911DE0
:1020C0009C01220F331F280F391F27503D4F9E9C24
:1020D000F0019F9CF00D1124E551FE4F428161817A
:1020E00080810E94C10B8394B3CF9E9CE0019F9C92
:1020F000D00D1124C551DE4F8B818823E9F081502A
:102100008B83859DC00111246C8170E00E94BA2DE3
:10211000FB01FF27EF54FD4F8491E82FE719E59D60
:10212000C0011124B8010E94BA2D8091F702689F66
:10213000B00111247A83BFCF0E948E2E2091F70226
:10214000269521582C9DA0012D9D500D1124452F21
:102150005527841795070CF0AECF82E0861588F4DA
:102160000E948E2EB5010E94CE2D88830E948E2E55
:102170002091F6022695622F70E00E94CE2D280F46
:1021800029839E9CF0019F9CF00D1124E551FE4F88
:1021900012828091F702893C58F088EC9E9CF001F5
:1021A0009F9CF00D1124E551FE4F8483838383CFE0
:1021B0008431A0F784E1F2CFE4EFF2E080818E7FFA
:1021C000808360817181828193810E94E20B1092F1
:1021D00025022FEF80E792E0215080409040E1F708
:1021E00000C000000C94640CE4EFF2E080818E7F6C
:1021F0008083109225022FEF80E792E021508040EB
:102200009040E1F700C000000C94640C6091F4026F
:10221000669570E04BE050E084E191E00E949E2ED4
:10222000892B19F481E0809325020E9493259093D5
:102230001E0280931D0208959091F40290FF35C014
:102240009170811128C092609093F402662351F03E
:102250006091F4027091F5028091F6029091F7027C
:102260000E94E20B6091F402669570E04BE050E052
:1022700084E191E00E949E2E892BA1F0109225020C
:1022800081E0809320024091F7026091F6028091F4
:10229000F5020C94040E8B3210F09465D5CF880FA4
:1022A000982BD2CF0E940611EBCF0895682F909102
:1022B000F402969581E0890F8B3208F081E00C944E
:1022C0001C1181E00C945611682F9091F4029695A0
:1022D0008FEF890F09F48AE20C941C1181E00C94B1
:1022E000641161E00C941C11E4EFF2E080818160E4
:1022F000808386950C9471118091F40280FD0C947A
:10230000DC100C94741160E00C941C118091230279
:1023100081112EC00E94A923811104C00E944D2466
:102320000E94FE0B0E94DE0B6093F4027093F50294
:102330008093F6029093F7026E7F61F40E94FE0B89
:102340000E94DE0B6093F4027093F5028093F60214
:102350009093F7020E94CF0B109225028091F40215
:1023600080FF03C086950E94831181E08093230241
:102370000895E4EFF2E080818160808386950C947B
:1023800083110F931F93CF93DF93809125028823AE
:1023900009F496C080912402E091F402E695E81BCE
:1023A000E0931F02823091F5F0E0E355FD4FE49198
:1023B000CE2FD0E009EB1CE080912002882361F051
:1023C000109220020E94932590931E0280931D027A
:1023D00010922202109221020E949325E0911D0288
:1023E000F0911E028E1B9F0B8F3F9F4708F068C025
:1023F000EC0FFD1FF0931E02E0931D028DE192E0B1
:10240000F801DF91CF911F910F910994863049F423
:10241000F0E0E655FD4FE491CE2FD0E00DEC1CE04E
:10242000CBCF893051F4E695F0E0E955FD4FE491CA
:10243000CE2FD0E007E01EE0BFCF8F3051F4E695FD
:10244000F0E0EC55FD4FE491CE2FD0E004E41EE027
:10245000B3CF853149F4F0E0EF55FD4FE491CE2F35
:10246000D0E00EEB1EE0A8CFC8E2D0E001E31FE011
:10247000883109F4A1CF833239F4EFE9F2E0C59154
:10248000D4910DED1CE098CFC4EFD1E001EC1FE03A
:10249000843209F491CFC0EDD7E00EEB1BE085321A
:1024A00009F08ACF8E2F63E00E94A02DE92FF0E083
:1024B000E456FD4FE491CE2FD0E00EEF1FE07CCF2D
:1024C000DF91CF911F910F910895FA01811101C001
:1024D000FB010994CF93DF93C82FD62F0E940D0CD8
:1024E0008C1740F00E940D0C8D1720F4DF91CF91D6
:1024F0000C9461118C2FDF91CF910C9471110F937B
:102500001F93CF938C01FB01C281CC2309F465C0DA
:102510000E94F2228272F801E25CFC45E431F1058E
:1025200038F4EC5EF04D0C94042E0E947C11C0E057
:102530008C2FCF911F910F9108954EE651E161E6E6
:1025400071E10E946512F3CF41E651E16EE671E15F
:10255000F8CF45EC5DE068EB7DE0F3CF48EB5DE064
:1025600065EC7DE0EECF43EE5DE064ED7DE0E9CF2C
:1025700044ED5DE063EE7DE0E4CF41E05EE062EFDC
:102580007DE0DFCF42EF5DE061E07EE0DACF40E466
:102590005CE069E27CE0D5CF49E25CE060E47CE0AD
:1025A000D0CF81E00E947111C2CF65E082E00E942D
:1025B0006A12BDCF68E086E0FACF6EE089E0F7CF1F
:1025C00064E18FE0F4CF67E185E1F1CF88E1EACF04
:1025D00062E289E1ECCF83E2E5CFC1E0A9CF519A75
:1025E0004BB14D7F5BB15260EFB7F8949B01220F66
:1025F000331F260F371F280F391F2817390741F4BB
:10260000EFBF8FE594E00197F1F700C00000089557
:10261000DC016D91CD0178E05BB9000000C067FF7F
:102620004BB9660F000000C000C000C04BB900C02D
:102630007A9591F7E2CF82E290E00E94AB2E813250
:1026400089F483E290E00E94AB2E863059F484E254
:1026500090E00E94AB2E91E0813209F090E0892F4A
:102660008170089580E0FCCFCF93DF93D82FCFEF18
:102670008111C1E26C2F82E290E00E94BF2E6FEFC9
:10268000D11166E083E290E00E94BF2E6C2F84E2BD
:1026900090E0DF91CF910C94BF2E80E00E94341324
:1026A0000C94A323089585E290E00E94AB2E682F3E
:1026B00070E090E080E0089585E290E00C94BF2EF9
:1026C0000E9452130E941B1381110CC060E070E045
:1026D000CB010E945C130E9404150E94F01581E05A
:1026E0000C9434130895CF93FB01C281CC2309F1DC
:1026F0009C0122513F452031310520F582510E9435
:102700000016C0E08C2FCF91089581E00E946D21CA
:1027100043E062E081E00E941F04F3CF81E00E9469
:102720008E2143E062E081E00E941F04EBCF82E053
:10273000F6CF8031FFE59F0789F381319F45B9F3DB
:10274000C1E0E0CF8031EFE59E07F9F281319F458E
:10275000C9F682E0DBCF2FEFFC0120830895CF93F1
:10276000DF93EC0188818138A9F028F4803871F07A
:10277000DF91CF910895823881F08338C9F70E94A4
:10278000580C89830E945B0C8A83F2CF0E945E0CF6
:102790008983EECF0E940D0CFBCF0E94430CF8CF33
:1027A000CF93DF93EC0188818138E1F028F4803801
:1027B00069F0DF91CF910895823811F18338C9F71C
:1027C0000E945E0C482F6A81898108C0D9810E94CD
:1027D0005B0CC82F0E94580C4D2F6C2FDF91CF91AE
:1027E0000C94040E89810E9483118981811104C097
:1027F000DF91CF910C94F410DF91CF910C94B9112B
:102800008981DF91CF910C94550CEF92FF920F9339
:102810001F93CF93DF93EC01062FDC01ED91CD01E7
:10282000E150E33108F0ADC0F0E0E85DF04D0C940C
:10283000042E198289E08A83602FCE01DF91CF9127
:102840001F910F91FF90EF900C94CD2689818230DB
:1028500069F0833071F08130D9F40E949F250E9485
:102860000A2E6A837B838C839D83E6CF0E94531359
:10287000F6CF7E0110E0812F0E947607F701928348
:1028800083831F5FF2E0EF0EF11C1430A1F7D4CF69
:10289000602FCE010E94AB13CFCF89818230C1F768
:1028A0006A817B818C819D810E940A2E0E945C132B
:1028B000C3CF4B816A8189810E94D61498278927CA
:1028C00098279D838C83B8CF2C813D813227232785
:1028D00032274B816A8189810E94EF14ADCF0E941B
:1028E0000415AACF0E94D013A7CF0E94AF13A4CF84
:1028F0000E94F40BA1CF0E94991589839DCF0E945D
:102900009B159827892798279A83898395CF6B8170
:1029100070E089819A81AE014C5F5F4F98278927CB
:1029200098270E949E1588CF6B8170E089819A81DB
:10293000AE014C5F5F4F9827892798270E94C515E5
:102940007BCF0E94F01578CF0E94C414D6CF6B8144
:1029500070E089819A81AE014C5F5F4F982789278B
:1029600098270E943C1568CF6B8170E089819A811D
:10297000AE014C5F5F4F9827892798270E94621508
:102980005BCF8FEF888358CF84E0089550E0440FE9
:10299000551F94E1699F400D511D112490E5899FB9
:1029A000400D511D1124CA01869608950F931F935F
:1029B000CF93DF930E94C6148C010E94AB2EC82FC8
:1029C000D0E0DC2FCC27C80101960E94AB2E9E01DF
:1029D000282BC901DF91CF911F910F9108950F937B
:1029E0001F93CF93DF93122F032F0E94C614EC0185
:1029F000602F0E94BF2E612FCE010196DF91CF91F3
:102A00001F910F910C94BF2EAF92BF92CF92DF9285
:102A1000EF92FF921F93CF93DF938CEAC82E80E052
:102A2000D82ED0E07601C0E014C0F5012591349194
:102A3000412F6C2F8D2F0E94EF1482E0A80EB11C45
:102A40001F5F1A3091F784E1E80EF11CCF5FC430AC
:102A500019F0570110E0E9CFDF5F80E5C80ED11C07
:102A6000D43001F7DF91CF911F91FF90EF90DF906D
:102A7000CF90BF90AF900895EF92FF920F931F9366
:102A8000CF93DF93EC018A017C01E60EF71ECE01A5
:102A90008696CE15DF0539F4DF91CF911F910F9106
:102AA000FF90EF900895C03421E0D20740F40E94D7
:102AB000AB2EF80180830F5F1F4F2196E8CFF801FE
:102AC0001082F9CFCF92DF92EF92FF920F931F9374
:102AD000CF93DF937C016A018C01060F171FEC0175
:102AE000CE018696C017D10749F4DF91CF911F918F
:102AF0000F91FF90EF90DF90CF900895C03421E0C8
:102B0000D20740F4FE01EE19FF09EC0DFD1D6081B6
:102B10000E94BF2E2196E4CF462F843038F47430C3
:102B200028F46A3018F4672F0C94D61490E080E0F3
:102B3000089580E108958AE992E00895EF92FF9266
:102B40000F931F93CF93DF93EC018A017C01E60E74
:102B5000F71ECE018A599E4FCE15DF0539F4DF915D
:102B6000CF911F910F91FF90EF900895CA3922E005
:102B7000D20740F40E94AB2EF80180830F5F1F4FF5
:102B80002196E7CFF8011082F9CFCF92DF92EF9232
:102B9000FF920F931F93CF93DF937C016A018C0107
:102BA000060F171FEC01CE018A599E4FC017D1079F
:102BB00049F4DF91CF911F910F91FF90EF90DF903B
:102BC000CF900895CA3922E0D20740F4FE01EE19F1
:102BD000FF09EC0DFD1D60810E94BF2E2196E3CF01
:102BE000CF93DF93C6E6D1E060E0CE010E94BF2E16
:102BF0002196C11584E0D807B9F7DF91CF910895E8
:102C0000DF92EF92FF920F931F93CF93DF9300D049
:102C100000D0CDB7DEB7F82E8FE08F1540F08FEFE4
:102C200093E00E94AB2E06E611E08823C1F00F90DE
:102C30000F900F900F90DF91CF911F910F91FF9008
:102C4000EF90DF900895011584E0180781F3C80123
:102C50000E94AB2E811101C0FA940F5F1F4FF1103B
:102C6000F2CF19821A821B821C82DD24D394780150
:102C70008FEFE81AF80AC8010E94AB2E89831A82E6
:102C80008823A9F29FEF980F933078F48A83D98232
:102C90000E5F1F4FC7010E94AB2E8B83882339F232
:102CA000CE0101960E946305E2CF8701F9CF0F9311
:102CB0001F93CF93DF93C42FD22FFC0182818823EF
:102CC000C9F0409328020E94932590932702809395
:102CD000260280E28C0F883008F050C0C77081E077
:102CE00001C0880FCA95EAF7DF91CF911F910F912C
:102CF0000C94FA1A10912802141335C08091260200
:102D0000909127020E94AB25883C910560F5C0E2B6
:102D1000CD0F1D17B9F080E2810F883040F4177095
:102D200081E001C0880F1A95EAF70E94011BC830A4
:102D300048F481E09D2F977001C0880F9A95EAF7BB
:102D40000E94FA1A802F0E94F21AC830B8F4D77085
:102D500081E001C0880FDA95EAF7DF91CF911F91EA
:102D60000F910C94011B80E28C0F883038F4C770EF
:102D700081E001C0880FCA95EAF7EFCFDF91CF91CC
:102D80001F910F9108950F939C01CB01233F4CE5B8
:102D9000340759F1A8F4283DFCE53F0701F1293D2E
:102DA0004CE53407D1F1273D3C4591F406E221EE94
:102DB00041EE67ED7CE50E94571680E00F91089583
:102DC000253FFCE53F07E9F0B0F0263F3C45F9F030
:102DD000FC018281882339F110922802EFCF07E2AB
:102DE00025EE45EE68ED7CE5E6CF06E221EE40EE0D
:102DF00063EF7CE5E0CF07E225EE44EE64EF7CE58F
:102E0000DACF06E221EE42EE65EF7CE5D4CF07E2B1
:102E100025EE46EE66EF7CE5CECF08E221E045EEFA
:102E200069ED7CE5C8CF81E0C9CFCF93DF93EC019A
:102E3000FB018281882309F419C1C230FCE5DF0758
:102E4000C0F1C6319CE5D90730F09E012A5F3C45B0
:102E50002930310570F50E94BC2390931C038093A8
:102E60001B03C031ECE5DE0709F4CFC008F05BC0FE
:102E7000C8308CE5D80709F4B6C088F5C430ECE555
:102E8000DE0709F4A8C0C0F4C2308CE5D80709F405
:102E90009CC080911B038260C330DC4509F498C05C
:102EA00080911B0390911C030E94CA230E94731DF2
:102EB00080E0DF91CF91089580911B038061C6303F
:102EC000ECE5DE0709F484C080911B038860C730FD
:102ED000DC4508F47DC080911B03806279C0CC3052
:102EE0008CE5D80709F489C070F480911B038C60CD
:102EF000CA30ECE5DE0709F46BC008F478C08091B5
:102F00001B038E7F65C0CE308CE5D80709F479C0ED
:102F100080911B038B7FCF30DC4508F459C0809132
:102F20001B038F7E55C0CB3FECE5DE0709F457C08D
:102F300030F5C3318CE5D80709F46FC078F4C1319E
:102F4000ECE5DE0709F465C0C231DC4509F0A8CF25
:102F50000E94731D80911B038F773AC0C5318CE5A9
:102F6000D80709F462C008F476C080911C03816020
:102F7000CA3FDC4509F094CF80931C0391CFCF3F2B
:102F8000FCE5DF0709F44DC088F480911C038D7FB8
:102F9000CD3F9CE5D90781F380911C038E7FCE3F06
:102FA000DC4550F380911C038360E6CFC130FDE522
:102FB000DF0709F459C008F444C080E0C230DD45A1
:102FC00009F06ECF0E944F246BCF80911B0381606C
:102FD00080931B0365CF80911B038460F9CF8091A0
:102FE0001C038260C9CF80911B038064F1CF0E94D3
:102FF000731D80911B038068EBCF80911B038D7F35
:10300000E7CF80911B03877FE3CF80911B038F7DE8
:10301000DFCF80911B038F7BDBCF80911B03837FEE
:10302000D7CF80911C038C7FA7CF80911B0382FB9D
:10303000992790F921E0922790FB82F990FB83F980
:10304000C7CF80911C03982F909591708E7F892B0C
:1030500090FB81F991CF0E94731D90911B03892FE2
:1030600097FB87F98058B4CF81E0ACCF81E021CFC6
:10307000CF93DF93EB0186319C4511F50E94F2223C
:103080009A81992399F08A7A91E009F490E09093DB
:103090002902811109C089E20E94CD220E943E23AB
:1030A00080E0DF91CF91089585E3F6CF80912902EA
:1030B000811104C089E20E94D422F0CF85E3FBCFC6
:1030C00081E0EFCF90932F0280932E020895E0913C
:1030D0002E02F0912F02309721F00190F081E02D27
:1030E000099480E00895E0912E02F0912F0230972C
:1030F00099F020912B01222359F020911B0327FFE7
:1031000007C0DC012C9111962C93119725E02C938C
:103110000280F381E02D09940895E0912E02F09150
:103120002F02309739F022E0DC012C930480F581E6
:10313000E02D0994089520912C0230912D0228173A
:10314000390771F090932D0280932C02E0912E02AA
:10315000F0912F02309721F00680F781E02D09943D
:10316000089520912A0230912B022817390771F017
:1031700090932B0280932A02E0912E02F0912F026D
:10318000309721F00084F185E02D099408950E9484
:103190009F2560933D0270933E0280933F0290937F
:1031A00040026093390270933A0280933B029093FD
:1031B0003C02089585B7806885BF85B7806885BF64
:1031C0000895089508950C94E11808950C94E51855
:1031D0000E94DA1881EA93E20E94EF250E94E21829
:1031E0000C94E31881E008950C94F2180895089562
:1031F0000E948A250E949F070E9460130E940D264C
:103200000E9486110C94E6188F929F92AF92BF9203
:10321000CF92DF92EF92FF920F931F93CF93DF93A2
:10322000CDB7DEB72A970FB6F894DEBF0FBECDBF7D
:103230000E94F6180E94F7180E94DD0781110E9473
:10324000C71851E3852E52E0952E10E000E0A02E25
:10325000802F0E9476076C01F401E190F1904F01FC
:10326000E816F90609F45EC08091C00281FD0E9453
:103270007F07C7018C259D25B12CEE24E394F12C0A
:103280009C012E213F21232B09F446C00E94F418F3
:103290008823A9F0BE82AF82CE20DF2081E0CD2836
:1032A00009F480E088870E9493258160782F9A87AF
:1032B00089874E815F8168858A850E94BC19000FCD
:1032C000111FF801EF5CFD4F80819181E826F926FE
:1032D000F182E0820E94C1110E940C0A0E946718CC
:1032E000909130028917A9F10E94671880933002EB
:1032F0002A960FB6F894DEBF0FBECDBFDF91CF91F7
:103300001F910F91FF90EF90DF90CF90BF90AF9003
:103310009F908F900C946D05B394EE0CFF1CFAE017
:10332000BF12AECF0F5F1F4F0430110509F08FCFD2
:103330008FEF89838A831B820E9493258160782F77
:103340009D838C8349815A816B818D810E94BC1938
:10335000C1CF2A960FB6F894DEBF0FBECDBFDF9166
:10336000CF911F910F91FF90EF90DF90CF90BF9082
:10337000AF909F908F900895DF92EF92FF920F93FE
:103380001F93CF93DF93CDB7DEB72B970FB6F8948B
:10339000DEBF0FBECDBF7A878B87F42E052F162F89
:1033A000E72ED82E61110E9412231E821D827E2DCF
:1033B000EC82DD824F2D502F612F8D2D9E812B961B
:1033C0000FB6F894DEBF0FBECDBFDF91CF911F9136
:1033D0000F91FF90EF90DF900C94E91FFC0180812A
:1033E00091810C949F22CF93C82F882309F48BC01E
:1033F0008238C1F40E94671881FD85C089E30E946C
:10340000CD220E943E232FEF81EE94E02150804098
:103410009040E1F700C0000089E30E94D422CF91E0
:103420000C943E238338A1F40E94671880FD6BC082
:1034300083E50E94CD220E943E232FEF81EE94E08F
:10344000215080409040E1F700C0000083E5E5CFC7
:103450008438A1F40E94671882FD55C087E40E9459
:10346000CD220E943E232FEF81EE94E02150804038
:103470009040E1F700C0000087E4CFCF8CEF8C0FC5
:10348000813A90F46C2F80911F01909120010E944D
:103490006824882329F08C2F0E94D4220E943E2386
:1034A0008C2F0E94CD22BBCF80E28C0F883048F455
:1034B000C77081E001C0880FCA95EAF70E94F52223
:1034C000AECFEBE5EC0FE33040F4F0E0EC53FE4F11
:1034D000808190E0CF910C949B18E8E5EC0FE731E8
:1034E00050F4F0E0EE0FFF1FEA56FE4F808191810D
:1034F000CF910C94B118C03F30F08C2F0E941E0960
:10350000CF910C94F109CF910895882309F452C00A
:10351000823871F40E94671881FF4CC089E30E94D1
:10352000CD220E943E2389E30E94D4220C943E23A4
:10353000833859F40E94671880FF3CC083E50E94DD
:10354000CD220E943E2383E5EFCF843859F40E94B8
:10355000671882FF2FC087E40E94CD220E943E237D
:1035600087E4E2CF9CEF980F913AF0F290E2980F47
:10357000983050F4877091E001C0990F8A95EAF76E
:10358000892F0E94FB22D2CF9BE5980F933020F425
:1035900090E080E00C949B1898E5980F973120F408
:1035A00090E080E00C94B118803F20F00E947809F0
:1035B0000C94F10908951F93CF93DF93182FEB011B
:1035C0000E94F319209731F4812FDF91CF911F9141
:1035D0000C94851A8FE99FE00197F1F700C0000075
:1035E0002197F0CF70E060E0893311F460E570E07E
:1035F0000C94DB1A882321F00E94F5220C943E23C0
:103600000895882321F00E94FB220C943E23089504
:10361000BF92CF92DF92EF92FF920F931F93CF93BF
:10362000DF936C01D62FC72FFC0112810581029513
:103630000F700E94EB22E82E8823A1F0E12E1123C7
:1036400089F08C2F807F803429F080E28D0FE12C6F
:10365000883040F082E00E9489230E94EB2291E0B2
:10366000E82EE926BC2EB2949FE0B922EB2DF0E0C3
:10367000E55CF04D0C94042E0C2F0F70C07F11F000
:103680000295007F1123A9F0002359F080E28D0FED
:10369000883010F0D11109C0802F0E94F5220E94BD
:1036A0003E238D2F0E94F31914C0802F0E94052302
:1036B000F6CF8D2F0E94851A002359F080E28D0FDE
:1036C000883010F0D1112CC0802F0E94FB220E9464
:1036D0003E232B2D2850330B2430310520F40E943B
:1036E00067180E946D05EE2009F49EC10E94E72232
:1036F00080FD9AC1F60112820E94E1220E946D2192
:10370000C6010E94351D0E94E122DF91CF911F91D9
:103710000F91FF90EF90DF90CF90BF900C948E218F
:10372000802F0E940B23D3CFFC2FFF70FF2EC07F72
:10373000C03219F0F29480EFF822DD2369F0D13025
:1037400049F1112391F1002351F1F601858180FFA8
:10375000A8CF8F70858323C0112381F0011106C08B
:103760000E9425238F290E94FA1AB3CF0130C1F796
:103770000E9425238F290E942B23ABCF011106C065
:103780000E9434238F2D0E94011BA3CF013009F426
:10379000A0CFF6CF112329F0063008F09ACF8F2D55
:1037A000E2CF053008F095CFEDCF002359F3D933A0
:1037B00049F4FFEF27EE33E0F15020403040E1F7CD
:1037C00000C000008D2F0E94851A83CF8C2F869514
:1037D0008695837069F0813009F07BCF8D2F9C2F07
:1037E0009370111102C090E080E00E94B11871CF77
:1037F0008D2F9C2F9370111102C090E080E00E94E9
:103800009B1867CF8D2F112329F00E941E090E945B
:10381000F1095FCF0E947809FACF8C2F837009F0ED
:1038200041C0111156CF4D2F429546954770440F18
:10383000440F0D2F0F7010E030E020E0042E04C084
:10384000000F111F221F331F0A94D2F760E070E0AF
:10385000CB01D4FF0FC06FE070E080E090E004C0C7
:10386000660F771F881F991F4A95D2F7609570954C
:1038700080959095C695C695C370602B712B822B51
:10388000932BC23049F058F4C13019F00E941F2127
:1038900020CF0E940D211DCF0E9431211ACF0E94FE
:1038A0000B2117CF8695112311F08C2F817088235F
:1038B00009F40FCF4D2F429546954770440F440FA2
:1038C0000D2F0F7010E030E020E0042E04C0000F38
:1038D000111F221F331F0A94D2F760E070E0CB0162
:1038E000D4FF0FC06FE070E080E090E004C0660F8E
:1038F000771F881F991F4A95D2F76095709580951C
:103900009095C695C695C370602B712B822B932B17
:10391000C23049F058F4C13019F00E94E421D9CEE8
:103920000E94D221D6CE0E94F621D3CE0E944721FA
:10393000D0CECF70112329F08C2F0E946D218D2FB6
:1039400012CF8D2F0E94011B8C2F0E948E21C1CE81
:10395000D23F89F160F4D03FC9F0D13F29F1112362
:1039600009F442C001119DCE8C2F8F7121C0D33F2D
:1039700039F1D43FA1F7112369F1CF718C2F0E9447
:103980006D2163E08C2F0E947423A3CE112341F09C
:10399000053008F09ECE8C2F8F710E94B12199CEF8
:1039A000063008F096CEF7CF8C2F8F71112369F275
:1039B0000E946D218ECE8C2F8F711123C9F3C5CF3C
:1039C000112329F08C2F8F710E94582182CE0E94E2
:1039D00053217FCE81E00E948923023008F479CE02
:1039E00082E00E94892375CE002359F0D93309F073
:1039F000E9CE8FEF97EEE3E081509040E040E1F7B1
:103A0000DFCE8C2F8F71A1CF4C2F4F706D2FC60141
:103A10000E9475050E9483205CCE4C2F4F706D2F45
:103A2000C6010E94780555CEDF91CF911F910F916D
:103A3000FF90EF90DF90CF90BF9008950F931F936A
:103A4000CF93DF93EC01688179818A810E94A9225A
:103A50008C010E9408220E940A21B801CE01DF9148
:103A6000CF911F910F910C94081BCF93DF93EC0122
:103A70008B819C81892B29F08881998189238F3FB3
:103A800059F4DF91CF910895CE010E941E1DCE0101
:103A9000DF91CF910C94C003CE010E944D0481119F
:103AA000F3CF0E94EB22882361F38A81882349F3B4
:103AB00082E0DF91CF910C94892390E080E00E9416
:103AC0009B1890E080E00E94B1180E9412230E948F
:103AD00022230E943E230E94180B0C94F1090E949D
:103AE000DB220C945D1D0E9402230C946F1DE92FB4
:103AF000E295EF70E250EE3070F4F0E0E55BF04DEF
:103B00000C94042E803F19F020F4883E20F481E0CC
:103B10000895843FE1F380E00895883EC0F3813F3B
:103B2000D1F7F5CF93FB882780F908950E949F2253
:103B30000C94771DCF93DF9300D000D00F92CDB7B8
:103B4000DEB70F900F900F900F900F90DF91CF91F5
:103B50000895CF93DF9300D000D000D0CDB7DEB76B
:103B600026960FB6F894DEBF0FBECDBFDF91CF9182
:103B700008951F93CF93DF93C091420216E0809186
:103B800043028C1304C0DF91CF911F910895D0E0C0
:103B90001C9FF0011D9FF00D1124EC5BFD4F408137
:103BA000518162817381848195810E94A91D219632
:103BB000C770E5CF40917402509175026091760212
:103BC0007091770280917802909179020C94A91DEE
:103BD0001F93CF93DF9380917902807FA9F4809126
:103BE0007602882389F080914202C091430260915D
:103BF000740270917502A0917702B0917802D62F6D
:103C0000D72316E0C81304C0DF91CF911F91089508
:103C100090E0109711F0DF3F19F401968770F2CF12
:103C2000189F9001199F300D1124F901EC5BFD4F95
:103C300041814713F2CF40814613EFCF42814111BA
:103C4000ECCF438154814A1B5B0B483C510528F75C
:103C5000809179028F70806180937902F901E75B2E
:103C6000FD4F80818F708061808384E792E00E94A5
:103C7000351DDF91CF911F910C94B91DAF92BF926A
:103C8000CF92DF92EF92FF920F931F93CF93DF9328
:103C9000CDB7DEB761970FB6F894DEBF0FBECDBFCC
:103CA0008C0185E0F801DE011D9601900D928A9548
:103CB000E1F7F80140815181E28084E7C82E82E07B
:103CC000D82E60917702709178026115710509F420
:103CD00061C19091740220917502892F82238F3FD8
:103CE00009F458C1A380B480F0907602F501E61B78
:103CF000F70BFF2009F4FCC080917902382F307F48
:103D0000E83CF10508F0B2C0311179C0FE2C251352
:103D100023C0941321C0E1101FC08F708061809375
:103D200079020E94DA1DC6010E94351D8091790238
:103D3000F80185838F2D61960FB6F894DEBF0FBE14
:103D4000CDBFDF91CF911F910F91FF90EF90DF904A
:103D5000CF90BF90AF900895AB2829F0842F852392
:103D60008F3F09F033C180E0F82FF170DF2E80FF24
:103D70003CC0809142022091430236E0821315C07C
:103D80004D875E878D859E850E949F22292F2295D3
:103D90002F702230F0F0243018F59F70F1F0F80108
:103DA0009581907FD1F4D12C1EC090E0389FF00116
:103DB000399FF00D1124EC5BFD4F6181651306C046
:103DC0006081641303C062816E110FC00196877019
:103DD000D5CF9F7011F0882331F3805E883018F3BF
:103DE000C8010E94351DFD2CA5CFEE2009F4A2CFFD
:103DF00080917902816080937902F12C9BCF251309
:103E000006C0941304C0F801EE2009F48DC04D875C
:103E10005E878D859E850E94961D882319F1EE2070
:103E200009F180917902803270F020917402309112
:103E3000750238872F831986BB86AA868C87CE01A8
:103E400007960E94351D86E0F801A4E7B2E00190D4
:103E50000D928A95E1F70E94E81D0E94DA1DFF2469
:103E6000F39468CFC8010E94351DF9CF311113C0FA
:103E70007A2DB98AA88A6E2D89890E949A1D84E7B5
:103E800092E00E94351D86E0F60111928A95E9F7CD
:103E90000E94DA1DB2CF25130FC094130DC0E1109C
:103EA0000BC0F8018583C8010E94351D86E0F6012C
:103EB00011928A95E9F73ECF4D875E878D859E8565
:103EC0000E94961D882371F2EE2061F280917902A2
:103ED000803208F4B8CF20917402309175023A8391
:103EE00029831B82BD82AC828E83CE010196A9CF2D
:103EF000E83CF10508F041C0FE2CEE2009F4B2CFF9
:103F000025132AC0941328C08091790280FD1BC01C
:103F1000982F907FC1F0F8018583903F31F0982F62
:103F2000907F905F8F70892B8583C8010E94351D1B
:103F300086E0F801A4E7B2E001900D928A95E1F7DE
:103F40000E94DA1DF7CE86E0F801A4E7B2E0019006
:103F50000D928A95E1F7EECE4D875E878D859E8521
:103F60000E94961D81116FCF8091790281608093AC
:103F70007902C8010E94351DDDCE7A2DB98AA88A42
:103F80006E2D89890E949A1D86E0F60111928A950C
:103F9000E9F7D6CFEE2009F465CF4D875E878D8592
:103FA0009E850E94961DF82E882309F45BCF86E03B
:103FB000F801A4E7B2E001900D928A95E1F784E759
:103FC00092E00E94EE190E94E81DBACF81E08E2592
:103FD000CBCE1F93CF93DF93CDB7DEB72C970FB621
:103FE000F894DEBF0FBECDBF4F83588769877A87AD
:103FF0008B879C87CE0107960E943E1E882369F01E
:104000008A859B85892B39F04F815885842F85239C
:104010008F3F09F071C016E05FC086E0FE01379661
:10402000DE01119601900D928A95E1F78A859B85B4
:10403000892B89F38F81988589238F3F61F32091A4
:10404000430230E0C90101968770992740914202EE
:104050004817190671F40E94731D109243021092C2
:10406000420286E0E4E7F2E0DF011D928A95E9F77B
:10407000D2CF96E0929FD001939FB00D1124AC5BFC
:10408000BD4FFE01319601900D929A95E1F7809314
:1040900043020E94B91DBFCF819FC00111248C5BD8
:1040A0009D4F0E943E1E8823E9F0E09142021E9F30
:1040B000F0011124EC5BFD4F4081518162817381DD
:1040C000848195810E94A91D8091420290E0019611
:1040D0008770992780934202809142029091430217
:1040E0008913DACF2C960FB6F894DEBF0FBECDBF82
:1040F000DF91CF911F91089569857A858B859C8585
:104100000E94A91D88CFEF92FF920F931F93CF9328
:10411000DF938C01892B81F0F12CEE24E394E801EC
:104120002196F8018491843770F4843008F05FC0E0
:104130008130B1F08230A1F1DF91CF911F910F91C9
:10414000FF90EF900895853709F44CC008F43DC006
:104150009CE7980F903780F78F770E94851A49C0A7
:104160000E5F1F4FFE01849190E2980F983060F42B
:104170008770FE2D01C0FF0F8A95EAF78F2F0E94EE
:1041800015230E943E2302C00E94F3198F2D8150F7
:1041900030F2EFE9FFE03197F1F700C00000F7CF10
:1041A0000E5F1F4FFE01849190E2980F983050F4FB
:1041B0008770FE2D01C0FF0F8A95EAF78F2F0E94AE
:1041C0001B23DFCF0E94851AE1CF0E5F1F4FFE0138
:1041D000C491C150D8F28FE99FE00197F1F700C078
:1041E0000000F7CF0E5F1F4FFE01F490CFCF0E946B
:1041F000F3198E01CBCF08950C94FB200E94FC2074
:1042000060939702709398028093990290939A0218
:104210000C945D1D08950C94FE200F931F93009144
:104220009702109198022091990230919A02602B86
:10423000712B822B932B1F910F910C94FE200F93C7
:104240001F9300919702109198022091990230914A
:104250009A0260237123822393231F910F910C9460
:10426000FE200F931F9300919702109198022091C6
:10427000990230919A0260277127822793271F9114
:104280000F910C94FE200C94FB200C9443210E946F
:1042900045216093930270939402809395029093CA
:1042A00096020C945D1D60E070E0CB010C944721F8
:1042B0000F931F9341E050E060E070E08A019B01A2
:1042C00004C0000F111F221F331F8A95D2F7C901A6
:1042D000B8011F910F910C9447210F931F9341E058
:1042E00050E060E070E004C0440F551F661F771F68
:1042F0008A95D2F78091930290919402A0919502B1
:10430000B09196028A019B01082B192B2A2B3B2B7B
:10431000C901B8011F910F910C9447210F931F936E
:1043200041E050E060E070E004C0440F551F661F9C
:10433000771F8A95D2F7CB01BA0160957095809569
:1043400090950091930210919402209195023091E2
:10435000960260237123822393231F910F910C9463
:1043600047210F931F9341E050E060E070E004C0EC
:10437000440F551F661F771F8A95D2F780919302CD
:1043800090919402A0919502B09196028A019B01AE
:10439000082719272A273B27C901B8011F910F9128
:1043A0000C9447210F931F93009193021091940254
:1043B0002091950230919602602B712B822B932BCA
:1043C0001F910F910C9447210F931F93009193021B
:1043D00010919402209195023091960260237123EE
:1043E000822393231F910F910C9447210F931F93C6
:1043F00000919302109194022091950230919602BF
:1044000060277127822793271F910F910C944721D2
:1044100008952AE0929F800D1124982F977041E013
:1044200001C0440F9A95EAF786958695869595E0A2
:10443000899FF0011124E658FD4F90E080E070E084
:104440005191DF0111979B01082E02C036952795E7
:104450000A94E2F7217021952527242325272C9300
:1044600001968530910561F708952AE0929F800DAD
:104470001124982F977086958695869525E0829FC2
:10448000F0011124E658FD4F50E040E080E021911A
:1044900030E0092E02C0369527950A94E2F7217084
:1044A0003327042E01C0220F0A94EAF7822B4F5FB4
:1044B0005F4F4530510559F70895BF92CF92DF9273
:1044C000EF92FF920F931F93CF93DF938C01C090D5
:1044D0009302D0909402E0909502F0909602809121
:1044E000970290919802A0919902B0919A02C82ADD
:1044F000D92AEA2AFB2ACFE1D0E0BC2ED701C60197
:104500000C2E04C0B695A795979587950A94D2F777
:1045100080FD0EC0219788F7B12C8B2DDF91CF91B4
:104520001F910F91FF90EF90DF90CF90BF90089573
:10453000B8018C2F0E948105019761F3EECFCF93D4
:10454000DF93EC010E945D22BE01DF91CF910C94BC
:1045500081051F93CF93DF93EB0190914102992343
:1045600031F0CB01DF91CF911F910C949F228823D2
:1045700079F0CB010E945D22182F682FCE010E9496
:104580000922BE01812FDF91CF911F910C948105EB
:10459000CB010E943522182FF4CF682F80911F0184
:1045A000909120010C94E824682F80911F01909134
:1045B00020010C94F32480911F01909120010C9410
:1045C000FE2480919B02859585958595089580911F
:1045D0009B028770089590919B02977081E009F487
:1045E00080E008958091BF0208959091BF02892BC9
:1045F0008093BF02089580959091BF029823909375
:10460000BF0208951092BF0208959091BE02892BB7
:104610008093BE02089580959091BE029823909356
:10462000BE0208951092BE0208959091BD02892B9A
:104630008093BD02089580959091BD029823909338
:10464000BD0208951092BD02089580919C020895C4
:1046500008950C94282390919C02981721F0809340
:104660009C020C942923089580919C02882329F0B0
:1046700010929C0280E00C9429230895E0911F0180
:10468000F09120018091BF028083E0911F01F091A1
:10469000200180819091BE02892B8083E0911F01CF
:1046A000F091200180819091BD02892B80839091AF
:1046B0009C02992381F0E0911F01F09120018081FB
:1046C000892B808380911F01909120010E945424A6
:1046D00081110E94342380911F01909120010C943C
:1046E000731808950C94712398E0899F9001112408
:1046F000622B60939B020E946D2180919B028595A5
:10470000859585950C94722310929B0280E00C9401
:10471000722390919B028095892380939B02282F7E
:10472000277071F4282F082E000C330B92171306F4
:1047300039F08595859585950E948E210C9484236A
:10474000089580E008956FEF7FEF90E080E00C9493
:10475000DD2E90E080E00E94B92E21E08B3E9E4F3E
:1047600009F020E0822F089582E090E00C94AB2EB7
:1047700083E090E00C94AB2ECF9384E090E00E9415
:10478000AB2EC82F81E290E00E94AB2E982F8C2F89
:10479000CF910895CF93C92F682F84E090E00E94B5
:1047A000BF2E6C2F81E290E0CF910C94BF2EAB0115
:1047B000BC018FE090E00C94D12EAB01BC0183E1F1
:1047C00090E00C94D12E60E070E0CB010C94DD23DE
:1047D00060E070E0CB010E94D7230C94E3236BEEE2
:1047E0007EEF90E080E00E94DD2E60E082E090E0CD
:1047F0000E94BF2E60E083E090E00E94BF2E1092E6
:104800009702109298021092990210929A0260E018
:1048100084E090E00E94BF2E60E081E290E00E9480
:10482000BF2E60E085E090E00E94BF2E60E086E051
:1048300090E00E94BF2E6FEF87E090E00E94BF2EB5
:1048400040E050E0BA0188E090E00E94D12E60E0A4
:104850008DE090E00E94BF2E40E050E0BA0188E178
:1048600090E00E94D12E60E087E190E00E94BF2E90
:1048700040E050E0BA018CE190E00E94D12E60E06F
:1048800080E290E00E94BF2E40E050E0BA0188E153
:1048900090E00E94D12E0C94E8230C94EF23682F13
:1048A0008EE090E00C94BF2EFC01329680912B019B
:1048B000882321F080911B039EE187FF96E080E032
:1048C000915008F4089521912223D1F38F5FF8CFFE
:1048D000662301F120912B012223F1F020911B038B
:1048E00027FF1AC0462F4695469546954E3190F4BF
:1048F000677021E030E002C0220F331F6A95E2F7B3
:10490000840F911DFC01828190E02823392381E0EE
:10491000232B69F480E00895FC01329608962191DA
:10492000261721F0E817F907D1F7F4CF81E00895B1
:104930009C01FC0132969FEF80E04191461751F0B7
:104940009F3F19F4411101C0982F8F5F8630A9F75E
:104950009F3F09F40895290F311D97FD3A95F901FC
:1049600062830895FC01329608962191261303C0B4
:10497000DF0111971C92E817F907B9F70895E62FA0
:10498000E695E695E695EE3168F4E80FF92FF11D0E
:10499000677021E030E001C0220F6A95EAF782815A
:1049A000822B82830895E62FE695E695E695EE3113
:1049B00070F4E80FF92FF11D677021E030E001C0BD
:1049C000220F6A95EAF72095828128232283089591
:1049D00020912B01222329F020911B0327FD0C9409
:1049E000BF240C94982420912B01222329F020919C
:1049F0001B0327FD0C94D3240C94B224FC013296A3
:104A000080912B01882351F080911B0387FF06C002
:104A10008EE1DF011D928A95E9F7089586E0F9CFCE
:104A2000089508950C94112580912103843049F153
:104A30000E94122580E00E946D051092C10288E15B
:104A400090E020E40FB6F894A895809360000FBE24
:104A50002093600083B7817F846083BF83B78160C8
:104A600083BF7894889583B78E7F83BF0FB6F89401
:104A7000A89580916000886180936000109260002A
:104A80000FBE08950895CF930E9410250E94DD0760
:104A90000E944225C0E08C2F0E947607892B31F4BA
:104AA000CF5FC430C1F780E0CF91089581E0FCCFA3
:104AB00008950C9458250E94731D0E9467180E9447
:104AC0006D050C9459251F921FB61F9211248F93C8
:104AD0009F93AF93BF938091C102811113C08091C6
:104AE000170390911803A0911903B0911A034196EE
:104AF000A11DB11D8093170390931803A093190370
:104B0000B0931A03BF91AF919F918F911F901FBED9
:104B10001F90189582E084BD93E095BD9AEF97BDF4
:104B200080936E0008952FB7F894809117039091A9
:104B30001803A0911903B0911A032FBF08952FB73E
:104B4000F894609117037091180380911903909164
:104B50001A032FBF08959C014FB7F8948091170353
:104B600090911803A0911903B0911A034FBF821BB3
:104B7000930B089578941F921FB61F9211248F9360
:104B80009F93AF93BF938091170390911803A091C7
:104B90001903B0911A030196A11DB11D809317034B
:104BA00090931803A0931903B0931A03BF91AF9188
:104BB0009F918F911F901FBE1F90189587E797E7D1
:104BC000909301088093000888E19AE00FB6F8946A
:104BD000A895809360000FBE90936000FFCF9093E4
:104BE000D7018093D60108950C944D130E94DD07E0
:104BF0002FEF86E791E0215080409040E1F700C020
:104C000000000E94DD0780E00E94760780FF04C05C
:104C10000E94F4250C94DE2508950E94A923811199
:104C200002C00E944D240E94B4238093C0020E94BF
:104C3000BC2390931C0380931B030E94B823682F0E
:104C400070E090E080E00E940B21609193027091EF
:104C5000940280919502909196020C944521809146
:104C6000E2020895CF93DF9300D00F92CDB7DEB765
:104C700090912103943011F589837B836A8390930B
:104C8000E9008FEF9091E800815095FD06C095ED09
:104C90009A95F1F700008111F5CF8091E80085FF2A
:104CA0000DC050E040E063E070E0CE0101960E944C
:104CB000C0288091E8008E778093E8000F900F90D5
:104CC0000F90DF91CF910895BC0184E00C943226BF
:104CD000BC0183E00C9432269C0184E08093E900BF
:104CE0009FEF8091E800915085FD06C085ED8A9583
:104CF000F1F700009111F5CF8091E80085FF0CC01D
:104D000050E040E066E070E0C9010E94C028809158
:104D1000E8008E778093E8000895CF93DF93EC014D
:104D200080912B018823B1F180911B0387FF32C052
:104D300060E284E08093E9008FEF9091E800815079
:104D400095FD06C095ED9A95F1F700008111F5CF1C
:104D50008091E80085FF1BC080912B0170E050E03E
:104D600040E0811104C050E040E068E070E0CE0116
:104D70000E94C0288091E8008E778093E80080E24E
:104D8000FE01A2ECB2E001900D928A95E1F7DF916D
:104D9000CF91089568E081E0CDCFCF93FC016032E0
:104DA00021F580912103843001F5C091E900CF7095
:104DB0002091EC00922F917020FD90E8C92B82E0A9
:104DC0008093E9008091E80080FF0CC050E040E053
:104DD00060E270E0CF010E94C0288091E8008E77E9
:104DE0008093E800CF70C093E900CF91089580913F
:104DF0002003811109C00E949F2A0E94FC2A8091F1
:104E0000E20084608093E2000895109220030895E8
:104E100008950895089542E061EC81E00E941B2A04
:104E200042E261EC84E00E941B2A42E261EC82E0F3
:104E30000E941B2A42E260EC83E00C941B2A8091C2
:104E40002303833009F461C030F48130D1F1823022
:104E500009F49DC008958A3009F489C08B3009F4A3
:104E60006FC0893009F050C080912203813209F06F
:104E70004BC08091260390912703009719F0029769
:104E800009F042C08091E800877F8093E80080911C
:104E9000E80082FF35C09091F3008091F200029704
:104EA00029F48091F1008B7F813021F48091F10011
:104EB0008093E2028091E8008B778093E8000C9465
:104EC0004F2A80912203813AF9F48091E800877F8C
:104ED0008093E8008091260390912703892B61F449
:104EE00060E282EC92E070E00E945E298091E8002E
:104EF0008B778093E800089560E090E080E0F3CF46
:104F0000809121038111C3CF089580912203813ABA
:104F1000D9F78091260390912703892BA9F78091D7
:104F2000E800877F8093E8008091E80080FFFCCF55
:104F300080912B018093F1008091E8008E77BDCFA6
:104F400080912203813201F78091260390912703FB
:104F5000892BD1F68091E800877F8093E8000E943A
:104F60004F2A8091240380932B010C94731D809110
:104F70002203813249F68091E800877F8093E80020
:104F80000E944F2A809125038093E3020895809127
:104F90002203813A09F0B8CF8091E800877F80939F
:104FA000E8008091E80080FFFCCF8091E302C2CF4F
:104FB000CDB7DEB7A0970FB6F894DEBF0FBECDBF5A
:104FC00084B7877F84BF0FB6F894A895809160005E
:104FD000886180936000109260000FBE80E890E0CE
:104FE0000FB6F89480936100909361000FBE0E9409
:104FF000E8180E949F2A0E94FC2A8091E2008460A7
:105000008093E20078940E94852D0E94F81881E236
:1050100091E00E94621813E0809121038530C9F06D
:105020000E940419809121038430D1F00E94F61867
:105030000E94F718F1CF0E94142580911F03882346
:1050400041F00E944325882321F00E94AA280E9453
:10505000731D80912103853071F30E945B25E0CFA1
:105060001093E9008091E80082FFE0CF8091E80092
:1050700090E085FF09C050E040E060E270E0CE01C2
:1050800001960E940F2991E08091E8008B77809330
:10509000E800992359F260E2CE0101960E940514BE
:1050A000C5CF0C945328292F33272330310521F104
:1050B00068F42130310509F443C02230310509F488
:1050C00044C090E080E030E020E026C0213231058D
:1050D00051F122323105A9F76330710590F7FB01D8
:1050E000EE0FFF1FE653FE4F2081318169537E4F43
:1050F000FB01808190E010C099278130910581F0FB
:10510000009729F00297E9F6E6EBF4E002C0EAED39
:10511000F4E0849190E09F01FA01318320830895A7
:10512000E4ECF4E0F6CF6330710558F6660F771FB4
:10513000FB01E053FE4F2081318189E090E0ECCF0C
:1051400082E190E029E335E0E7CF8BE590E02EEDBA
:1051500034E0E2CF80E189BD82E189BD09B400FE7F
:10516000FDCF8091D8008F7D8093D8008091E000A2
:1051700082608093E0008091E00081FDFCCF089583
:10518000AF92BF92CF92DF92FF920F931F93CF9374
:10519000DF936C01EB018A010E946E2AF82E8111C7
:1051A00023C00115110539F0F80180819181C81BD8
:1051B000D90BC80ED91EB12CA12C2097A9F0809133
:1051C000E80085FD22C08091E8008E778093E8009A
:1051D00001151105A1F0F80180819181A80EB91E79
:1051E000B182A08285E0F82E8F2DDF91CF911F91A3
:1051F0000F91FF90DF90CF90BF90AF9008950E94E5
:105200006E2A8823D1F2F82EEFCFF60181916F013B
:105210008093F1002197FFEFAF1ABF0ACECFAF9274
:10522000BF92CF92DF92FF920F931F93CF93DF93A2
:105230006C01EB018A010E946E2AF82E811123C0B5
:105240000115110539F0F80180819181C81BD90B36
:10525000C80ED91EB12CA12C2097A9F08091E8008E
:1052600085FD22C08091E8008B778093E8000115CE
:105270001105A1F0F80180819181A80EB91EB182BB
:10528000A08285E0F82E8F2DDF91CF911F910F9195
:10529000FF90DF90CF90BF90AF9008950E946E2A4C
:1052A0008823D1F2F82EEFCF8091F100F60181939F
:1052B0006F012197FFEFAF1ABF0ACECFFC0180919B
:1052C00028039091290386179707A0F061157105AF
:1052D00029F49091E8009E779093E80090E06115A2
:1052E000710551F4911108C08091E80082FF34C02B
:1052F00080E00895BC01F2CF809121038823C1F1A1
:105300008530C1F18091E80083FD30C08091E800D4
:1053100082FDEACF8091E80080FFE1CF8091F30029
:105320002091F200382F6115710519F028303105F0
:1053300058F091E02830310509F090E02091E80024
:105340002E772093E800CBCF81918093F1006150BC
:1053500071092F5F3F4FE7CF80912103882341F0F0
:10536000853041F08091E80083FFBECF81E0089551
:1053700082E0089583E00895FC01809128039091D4
:10538000290386179707A0F06115710529F480910C
:10539000E8008E778093E80090E06115710551F484
:1053A000911108C08091E80082FF35C080E0089527
:1053B000BC01F2CF809121038823C9F18530C9F166
:1053C0008091E80083FD31C08091E80082FDEACF42
:1053D0008091E80080FFE1CF8091F3002091F200FE
:1053E000382F6115710519F02830310558F091E01A
:1053F0002830310509F090E08091E8008E778093A5
:10540000E800CBCF84918093F1003196615071090F
:105410002F5F3F4FE6CF80912103882341F08530F5
:1054200041F08091E80083FFBDCF81E0089582E0E4
:10543000089583E00895982F973028F08F70809317
:10544000E90081E008959093E900242F762F50E041
:10545000981731F07091EC002091ED005091F00020
:1054600021FD02C09F5FE8CF3091EB003E7F30937B
:10547000EB003091ED003D7F3093ED003091EB007B
:1054800031603093EB007093EC002093ED0050936B
:10549000F0002091EE0027FDE5CF80E00895809197
:1054A000220387FF13C08091E80082FF06C080912D
:1054B000E8008B778093E80004C08091210381117C
:1054C000F2CF0895809121038823D9F38091E800D9
:1054D00080FFF8CF8091E8008E77ECCF2091E40038
:1054E0003091E50095E6A9012091EC00822F8170B2
:1054F00020FF06C08091E80080FF06C080E008958C
:105500002091E80022FD1AC080912103882389F0B0
:10551000853089F08091EB0085FD0FC02091E4007B
:105520003091E50042175307F9F29150E1F684E01B
:10553000089582E0089583E0089581E008950E942F
:105540000D2B0E94152BE0EEF0E0808181608083BE
:10555000E8EDF0E080818F77808319BCA7EDB0E0A3
:105560008C918E7F8C9380818F7E8083109220031C
:1055700008950F931F93CF93DF930E940D2B0E94EA
:10558000152BC8EDD0E088818F778883888180686B
:10559000888388818F7D888319BC109221031092A3
:1055A0001D0310921F0310921E0300EE10E0F8017D
:1055B00080818B7F808388818160888342E060E086
:1055C00080E00E941B2AE1EEF0E080818E7F8083E4
:1055D000E2EEF0E08081816080838081886080835A
:1055E000F80180818E7F8083888180618883DF914C
:1055F000CF911F910F910895E8EDF0E080818F7EAB
:105600008083E7EDF0E080818160808384E082BF69
:1056100081E0809320030C94B92AE8EDF0E08081CA
:105620008E7F80831092E20008951092DA0010922B
:10563000E10008951F920F920FB60F9211242F933D
:105640003F934F935F936F937F938F939F93AF930A
:10565000BF93EF93FF938091E10082FF0BC0809195
:10566000E20082FF07C08091E1008B7F8093E10020
:105670000E94842D8091DA0080FF19C08091D800AB
:1056800080FF15C08091DA008E7F8093DA008091D0
:10569000D90080FF96C080E189BD82E189BD09B44F
:1056A00000FEFDCF81E0809321030E94F7268091C8
:1056B000E10080FF19C08091E20080FF15C0809159
:1056C000E2008E7F8093E2008091E200806180930F
:1056D000E2008091D80080628093D80019BC85E0F8
:1056E000809321030E9409278091E10084FF2BC051
:1056F0008091E20084FF27C080E189BD82E189BDFD
:1057000089B5982F917080FFFBCF8091D8008F7D55
:105710008093D8008091E1008F7E8093E10080919A
:10572000E2008F7E8093E2008091E20081608093AE
:10573000E20080911D03882309F449C084E080932E
:1057400021030E940A278091E10083FF29C08091F4
:10575000E20083FF25C08091E100877F8093E10014
:1057600082E08093210310921D038091E1008E7FDF
:105770008093E1008091E2008E7F8093E20080912F
:10578000E20080618093E20042E060E080E00E94FD
:105790001B2A8091F00088608093F0000E94082707
:1057A000FF91EF91BF91AF919F918F917F916F91F9
:1057B0005F914F913F912F910F900FBE0F901F90CF
:1057C000189519BC109221030E94052770CF809173
:1057D000E30087FD93E090932103B3CF1F920F92D4
:1057E0000FB60F9211242F933F934F935F936F93B4
:1057F0007F938F939F93AF93BF93CF93DF93EF9359
:10580000FF93D091E900DF708091EC00C82FC17048
:1058100080FDC0E81092E9008091F000877F8093BE
:10582000F00078940E94322C1092E9008091F000F0
:1058300088608093F000CD2BCF70C093E900FF917A
:10584000EF91DF91CF91BF91AF919F918F917F9118
:105850006F915F914F913F912F910F900FBE0F90DD
:105860001F9018951F93CF93DF93CDB7DEB7AA97FC
:105870000FB6F894DEBF0FBECDBF82E293E0209159
:10588000F100FC012193CF01F3E08A329F07B9F7C1
:105890000E941F278091E80083FF1EC18091220390
:1058A000909123039A3008F017C1E92FF0E0E75AEE
:1058B000F04D0C94042E803899F0823809F00CC118
:1058C000809126038F70873008F006C18093E9002D
:1058D0008091EB0085FB882780F91092E90006C0D3
:1058E00080911E0390911F03911182609091E800B6
:1058F000977F9093E8008093F1001092F1008091DF
:10590000E8008E77E5C0882309F4D3C0823009F01F
:10591000E3C0809124038111D6C0809126038F704B
:105920002FEF280F263008F0D7C08093E900209190
:10593000EB0020FFC8C0933031F48091EB0080620F
:105940008093EB00C0C09091EB0090619093EB00CE
:1059500021E030E001C0220F8A95EAF72093EA00A7
:105960001092EA008091EB008860EACF8111B4C008
:10597000109124031F778091E3008078812B80931E
:10598000E3008091E800877F8093E8000E944F2A1F
:105990008091E80080FFFCCF8091E30080688093D5
:1059A000E30082E0111183E08093210395C08058C9
:1059B000823008F091C080912403909125038C3DA2
:1059C00023E09207A1F583E08A838AE289834FB7B7
:1059D000F894DE01139620E03EE051E2E32FF0E080
:1059E00050935700E49120FF03C0E295EF703F5FB2
:1059F000EF708E2F90E0EA30C0F0C7968D939D93A4
:105A00002F5F243159F74FBF8091E800877F809343
:105A1000E8006AE270E0CE0101960E945E29809162
:105A2000E8008B778093E80057C0C096E7CF60917D
:105A3000260370912703AE014F5F5F4F0E945128EC
:105A4000BC01892B09F448C09091E800977F90939E
:105A5000E80089819A810E94BC29E1CF8038E1F574
:105A60008091E800877F8093E80080911D038093F8
:105A7000F10045CF811130C090912403923060F540
:105A80008091E800877F8093E80090931D030E9437
:105A90004F2A80911D03882311F084E005C0809176
:105AA000E30087FDFACF81E0809321030E940B275A
:105AB00013C080912403813079F481E0933009F0A0
:105AC00080E080931F031092E9008091E800877FB7
:105AD0008093E8000E944F2A8091E80083FF0AC06B
