:100000000C94D0030C9417040C9417040C9417044C
:100010000C9417040C9417040C9417040C941704F4
:100020000C9417040C9417040C943C2E0C94102F71
:100030000C947F280C9417040C9417040C94170448
:100040000C9417040C9417040C9417040C941704C4
:100050000C9417040C94D6280C9417040C941704D1
:100060000C9417040C9417040C9417040C941704A4
:100070000C9417040C9417040C9417040C94170494
:100080000C9417040C9417040C9417040C94170484
:100090000C9417040C9417040C9417040C94170474
:1000A0000C9417040C9417040C94170414001A00F1
:1000B0000800150017001C0018000C0012001300A7
:1000C00004001600070009000A000B000D000E00D6
:1000D0000F0028001D001B0006001900050011007C
:1000E0001000360037002A00E000E2000151E10074
:1000F000AE002C002C000251E600E4001E001F00A0
:1001000020002100220023002400250026002700D3
:1001100029005000510052004F002D002E003400E5
:10012000330001002B004C0046002F00300031004E
:100130003800010001000100010001000100010080
:1001400001000100010001000100010001000100A7
:100150000100010001000100010001000100010097
:100160000100010001000100010001000100010087
:100170000100010001000100010001000100010077
:100180000100010001000100010001000100010067
:100190000100010001000100010001000100010057
:1001A0000100010001000100010001000100010047
:1001B0000100010001000100010001000100010037
:1001C0000100010001000100010001000100010027
:1001D0000100010001000100010001000100010017
:1001E0000100010001000100010001000000000009
:1001F000000000002A2B2800000000000000000082
:100200000000000000000029000000002C1E342027
:10021000212224342627252E362D3738271E1F204D
:100220002122232425263333362E37381F04050692
:100230000708090A0B0C0D0E0F10111213141516D6
:100240001718191A1B1C1D2F3130232D35040506D4
:100250000708090A0B0C0D0E0F10111213141516B6
:100260001718191A1B1C1D2F3130354C00000000C7
:10027000000000000000000000000000000000007E
:10028000000000000000000000000000000000006E
:100290007E0F00D4FFFFFFC7000000781E0F05008F
:1002A000047F3F1F643214643214783C1E1E140A0B
:1002B000052223252628292A2C2D2F3032333536A6
:1002C000383A3B3D3E4042434547494A4C4E5051E7
:1002D000535557595A5C5E6062646668696B6D6F0E
:1002E00071737577797B7D7F81838587898A8C8E11
:1002F00090929496989A9C9E9FA1A3A5A7A8AAAC19
:10030000AEAFB1B3B4B6B8B9BBBCBEBFC1C2C3C552
:10031000C6C7C9CACBCCCDCED0D1D2D2D3D4D5D6F4
:10032000D7D7D8D9D9DADADBDBDBDCDCDCDCDCDD27
:10033000DDDDDDDCDCDCDCDCDBDBDBDADAD9D9D80B
:10034000D7D7D6D5D4D3D2D2D1D0CECDCCCBCAC9A3
:10035000C7C6C5C3C2C1BFBEBCBBB9B8B6B4B3B1D2
:10036000AFAEACAAA8A7A5A3A19F9E9C9A9896946D
:1003700092908E8C8A89878583817F7D7B79777542
:1003800073716F6D6B6968666462605E5C5A595721
:10039000555351504E4C4A4947454342403E3D3BE0
:1003A0003A3836353332302F2D2C2A29282625236A
:1003B00022FFAA7F55400001010101010101010155
:1003C0000202020202020202020303030303030306
:1003D00003040404040404040505050505060606D3
:1003E0000606070707070708080808090909090A90
:1003F0000A0A0B0B0B0C0C0C0D0D0D0E0E0E0F0F35
:100400000F101011111112121313141415151616C2
:100410001717181819191A1A1B1B1C1D1D1E1E1F31
:100420002020212222232424252626272829292A80
:100430002B2C2D2D2E2F30313232333435363738A8
:10044000393A3B3C3D3E3F404142434445464748A4
:10045000494A4C4D4E4F50515354555658595A5B7A
:100460005D5E5F616264656668696B6C6D6F70721A
:10047000737577787A7B7D7E8082838587888A8C86
:100480008E8F91939596989A9C9EA0A2A3A5A7A9BA
:10049000ABADAFB1B3B5B7BABCBEC0C2C4C6C9CBB1
:1004A000CDCFD1D4D6D8DBDDDFE2E4E7E9EBEEF067
:1004B000F3F5F8FAFDFFFD377A585A000004E6D646
:1004C000B4460200210116000000742FE5A3E001EC
:1004D000BF00D55D003D8889C65436C3174FE4E997
:1004E000AB7BBFD74DA0D7B40DF586F1A7EE234760
:1004F0000FDA65A96D94129FBA6728DEAE9DF4DF0E
:100500005F73A060C6D7A84150B746F3E0EF3295BD
:1005100029117777DDD721735A93A3FA5D47A98A0A
:1005200054513D388E5EB985D364217D545CB252FE
:10053000E79C209281A241FE97ED4BD4DF47B9732F
:10054000A8C5D8104148873C0F36CD9202EF56041B
:100550001427C7C04F4257ACC9E22DE632A9EC962A
:10056000B8CAAD953F66277CBCCA09056B63C23B20
:1005700024255557A491A5375C689100FA0130C233
:100580005B4D6C9F75BE59244B0A4B4FA75064CCF2
:100590007A528B119B3958BA549FD74D0E15A98B9F
:1005A000DF0930FE35D93D433700000000000E9EC4
:1005B0006F8885B08B530001F101C00300008E6786
:1005C000F054B1C467FB020000000004595A1C0338
:1005D0007600690061006C003A0066003600340065
:1005E0006300320062003300630000000C037900F6
:1005F000610073007500690000001403720061005F
:1006000069006E006B006500650062007300000009
:100610000403090409025B00030100A0FA090400B5
:10062000000103010100092111010001224000071E
:1006300005810308000A0904010002030000000903
:100640002111010001222200070582032000010779
:100650000503032000010904020001030000000952
:10066000211101000122BC000705840320000A12A9
:10067000011001000000086B727379010001020390
:10068000010660FF0961A1010962150026FF0095BE
:1006900020750881020963150026FF009520750862
:1006A0009102C005010902A10185020901A100050D
:1006B0000919012905150025019505750181029586
:1006C00001750381010501093009311581257F95E7
:1006D000027508810609381581257F950175088105
:1006E00006050C0A38021581257F950175088106DB
:1006F000C0C005010980A101850319012AB70015B1
:100700000126B700950175108100C0050C0901A1F3
:1007100001850419012AA002150126A00295017580
:10072000108100C005010906A1018505050719E032
:1007300029E71500250195087501810205071900B3
:1007400029EF1500250195F07501810205081901B1
:100750002905950575019102950175039101C00563
:10076000010906A101050719E029E71500250195F2
:100770000875018102950175088101050719002995
:10078000FF150026FF009506750881000508190170
:100790002905950575019102950175039101C00028
:1007A00011241FBECFEFDAE0DEBFCDBF04B603FEDB
:1007B00027C080913A0390913B03A0913C03B091F4
:1007C0003D038730904BA740B04BD1F410923A03D1
:1007D00010923B0310923C0310923D0314BE84B769
:1007E000877F84BF0FB6F894A895809160008861D8
:1007F00080936000109260000FBEE0E0F8E309957E
:1008000011E0A0E0B1E0E6E1F5E602C005900D924E
:10081000AE3DB107D9F723E0AEEDB1E001C01D92C6
:10082000AA33B207E1F70E94F42A0C9444320C94E4
:10083000000081E0089581E008950C941B04089560
:100840000C941F041F93CF93DF9300D000D00F921E
:10085000CDB7DEB749835A836B83309151028981CA
:100860009A8131111DC06623B9F02223A9F00E949C
:100870007925182F682F89819A810E942525698101
:100880007A81812F0F900F900F900F900F90DF9132
:10089000CF911F910C9461180E945125182FEFCF12
:1008A0000E94792569817A81EDCFFC01262F408154
:1008B00051816281738184810C942204CF93DF93F0
:1008C000EC0160E00E945504BE01DF91CF910C94D1
:1008D00020048F929F92AF92BF92CF92DF92EF92BD
:1008E000FF920F931F936B017C0181E090E0A0E0E9
:1008F000B0E04C015D0104C0880C991CAA1CBB1C13
:100900004A95D2F7B501A4014C015D0104C0880CE1
:10091000991CAA1CBB1C2A95D2F7482959296A2977
:100920007B2904C0880F991FAA1FBB1F0A95D2F705
:100930008A019B010C211D212E213F21041715073F
:100940002607370789F48C299D29AE29BF29BC01C8
:10095000CD011F910F91FF90EF90DF90CF90BF904E
:10096000AF909F908F90089580959095A095B095A9
:100970008C219D21AE21BF21EACF0F93382F262F46
:100980006091A3027091A4028091A5029091A602A9
:10099000042F432F0E9469040F910C9463240E943A
:1009A00012290E94C526811102C00E9469270C9459
:1009B00016080C94190808950E948F200E94DB04E9
:1009C0002FEF84E39CE0215080409040E1F700C08D
:1009D00000000C94FA280F931F93CF93DF938C01A0
:1009E000EB010E944514882389F1BE01C8010E94D1
:1009F0001D04882359F1BE01C8010E94DD19882316
:100A000029F1BE01C8010E942F1A8823F9F0BE0106
:100A1000C8010E94521B8823C9F0BE01C8010E9470
:100A20005213882399F08A81882339F001158CE5C7
:100A3000180751F00E3D1C4579F0CE01DF91CF91A2
:100A40001F910F910C9419040E94DC0480E0DF9147
:100A5000CF911F910F9108950E946927F7CFCF93EF
:100A6000DF93EC0161E00E945504BE01DF91CF915C
:100A70000C94EB04DF92EF92FF920F931F93CF93AE
:100A8000DF93E82FF0E0E451FE4FD490282F269515
:100A90002695269530E0F901E457FD4F04918770C3
:100AA00010E0082E02C0159507950A94E2F7017030
:100AB0001127F901E458FD4FE490F12C082E02C0F3
:100AC000F594E7940A94E2F791E0E922FF24F90112
:100AD000E459FD4FC491D0E002C0D595C7958A95E1
:100AE000E2F7C170DD270115110519F081EE0E94B2
:100AF0000D1DE114F10419F086EE0E940D1D8D2DDF
:100B00000E940C1EEF2819F086EE0E949F1D012BFB
:100B100019F081EE0E949F1DCD2B51F08CE2DF91E8
:100B2000CF911F910F91FF90EF90DF900C940C1ECE
:100B3000DF91CF911F910F91FF90EF90DF9008957B
:100B4000EF92FF920F931F93CF93DF93EC01162F39
:100B50000AE08881882309F454C0813009F04EC02E
:100B60008981813099F47E0122E0E20EF11C8A81B4
:100B70000E940C1EE7012196812F815050F3EFE96E
:100B8000FFE03197F1F700C00000F7CF823041F469
:100B90007E0182E0E80EF11C8A810E940D1DEACFE1
:100BA000833041F47E01E2E0EE0EF11C8A810E9466
:100BB0009F1DE0CF843011F02196DDCF2A8122964F
:100BC00090E080E0AE014F5F5F4F2053330B2A303F
:100BD000310548F0019778F2EFE9FFE03197F1F73E
:100BE00000C00000F7CF089FB001099F700D1124CD
:100BF000C901860F971F2981EA01E4CF0E943A05B7
:100C0000BACFDF91CF911F910F91FF90EF90089590
:100C100060E00C94A00508950C940B0681E0089503
:100C20000C940E06CF93C82F0E940C068C2FCF91E8
:100C30000C94100690E080E008950895FC01EE0FFA
:100C4000FF1FE456FD4F859194910895CF93DF9354
:100C50000E9461180E943B07EC01811520E5920774
:100C600008F042C0811530E4930708F0BDC0883E0B
:100C7000910528F5803E910508F09DC0883A9105C0
:100C800088F4853A910508F08FC08130910509F408
:100C900092C0009709F48FC0049708F08CC0D0E090
:100CA000C0E089C08F3B910508F489C0805C910940
:100CB000C03CD105A0F30E941E06EC017CC081154A
:100CC000904250F4C11581E0D80708F074C0C03FCD
:100CD000D10528F3D0656FC0C11590E3D90708F09E
:100CE00079C0CE019F70E7CF811525E5920758F5B1
:100CF000811534E5930708F0A6C0811542E59407F5
:100D000050F4C11581E5D80708F471C0DC2FCC2759
:100D1000C16FD06A50C0982F969596959E0123700A
:100D20003327C115D34508F07FC0C1E0D0E002C031
:100D3000CC0FDD1F2A95E2F720E2929FC00111241B
:100D4000C82BD92B6FC0C11589E5D807A8F4C115E8
:100D500098E5D90708F07CC0C11526E5D20708F050
:100D60009ECF8C2F0E94D207C82FD0E0DC2FCC273B
:100D7000CC27DF71D0621FC0C1153AE5D30708F454
:100D80006CC0CE0190568115904208F088CF8D2F0F
:100D90008F710E94D20790E0982F882788279F7133
:100DA0009C012C2BE901E6CFC55AD0E0CE59DE4F8D
:100DB000C881D0E0D064CE01DF91CF910895C85AA8
:100DC000D0E0CC0FDD1FCC5CDE4F0990D881C02D68
:100DD000D464F1CFCE019927D3FF03C0EC01D86CC6
:100DE000EACFEC01D06CE7CFDF70D06AE4CFCE0160
:100DF000E4E096958795EA95E1F783702C2F269588
:100E00002695237090E2299F90011124382B8C2F76
:100E10008370C1E0D0E002C0CC0FDD1F8A95E2F7FD
:100E2000C22BD32BDC68C7CFC1E0D0E002C0CC0F0F
:100E3000DD1F2A95E2F730E2939FC0011124C82BF1
:100E4000D92BDA68B8CFD82FCC27C46FD06AB3CFEC
:100E5000DC2FCC27C06FD06AAECF8C2F8F700E9452
:100E6000D20734E0D695C7953A95E1F7CF709C2F1D
:100E7000EC01D069A0CF82389105B1F1B0F4813393
:100E8000910509F475C048F48932910509F469C0E7
:100E90008A32910509F473C008958533910509F4E8
:100EA00059C08933910501F10895833E9105A9F157
:100EB00038F4803E9105F9F0823E910549F108959C
:100EC000863E9105A9F1873E9105C9F1843E9105C1
:100ED00019F520912C0321FF1FC080912B0384FD65
:100EE00014C087EE90E0089520912B032370A1F0A9
:100EF00080EE90E0089520912B0320FD47C03091B3
:100F00002C0330FF09C024FF44C090E080E004C0FF
:100F100020912B0322FDF7CF089520912B0322FD72
:100F20003BC030912C0330FDE3CF24FFF5CFEDCF54
:100F300020912B0323FFF0CF24FDE7CFD2CF2091C8
:100F40002B0323FD2CC030912C0331FFEECF84EE18
:100F500090E0089520912B0325FFDECF89E290E0F9
:100F6000089520912B0325FFD7CF85E390E00895C6
:100F700020912B0326FFD0CF8AE290E008952091A4
:100F80002B0326FFC9CF81E390E0089589E390E029
:100F9000089583EE90E0089582EE90E0089586EE45
:100FA00090E0089590912B0392FF06C0282F28719E
:100FB0002830F9F4877F846093FF06C0282F2871BA
:100FC0002831F1F4877E846120912C0320FF06C034
:100FD000382F38713830D9F4877F816021FF06C0FF
:100FE000282F28712831D1F4877E816194FD877E76
:100FF0000895282F24712430F9F68B7F8860DCCF88
:10100000282F2471243101F78B7E8861DDCF382FA2
:101010003171313019F78E7F8860E0CF282F217130
:10102000213121F78E7E8861E1CF08950C94150857
:1010300008950C941808E82FF0E0EE0FFF1FE4501D
:10104000FD4F21E030E002C0220F331F6A95E2F726
:10105000808191812823392381E0232B09F480E0CA
:101060000895E82FF0E0EE0FFF1FE450FD4F808160
:1010700091810895089580EA8A95F1F7089500C056
:1010800008950C943B08F894E82FE295EF70F0E097
:1010900031A1282F2F7081E090E001C0880F2A95A0
:1010A000EAF7982F9095932391A392A1892B82A37D
:1010B00078940895CF93DF9384E90E94430886E6ED
:1010C0000E94430885E30E94430886EC0E9443087F
:1010D000C5E6D1E089910E94430881E0CF36D80768
:1010E000C9F71092F5021092F4021092FD021092CC
:1010F000FC021092F7021092F6021092FF02109278
:10110000FE021092F9021092F8021092010310925E
:1011100000031092FB021092FA0210920303109245
:10112000020384E00E941C09DF91CF910C94CF044C
:10113000AF92BF92CF92DF92EF92FF920F931F93E5
:10114000CF93DF930FE611E0C4EFD2E0C12CD12C96
:10115000EE24E394F12CF80181918F01F894E82FAB
:10116000E295EF70F0E021A18F70A70102C0440F5B
:10117000551F8A95E2F7CA01922F982B91A392A14D
:101180008095892382A378940E943F08E5E6F1E0E8
:1011900030E020E0B12CA12C4191A42FA295AF709A
:1011A000B0E090968C9190E04F7002C09595879535
:1011B0004A95E2F780FD3BC0C701022E02C0880FAE
:1011C000991F0A94E2F7A82AB92A2F5F3F4F2A30C5
:1011D000310511F7F801319780810E94430853E0EF
:1011E000C5120E94410888819981A816B90611F19B
:1011F000B982A88281E0D82AC394229684E0C812DA
:10120000AACF2D2D44E06CEF72E084EF92E00E94B3
:101210001D090E94D9048D2DDF91CF911F910F914F
:10122000FF90EF90DF90CF90BF90AF90089590E047
:1012300080E0C9CF80E0DFCF0895FF920F931F9326
:10124000CF93DF93F82E092F162FD72FC42F2223E9
:1012500049F081E08093E2010E94AF289093E10180
:101260008093E0018091E2018823A1F08091E00168
:101270009091E1010E94C728069760F0EF2DF02FB2
:10128000A12FBD2F90E080E0D0E08C179D0744F0A7
:101290001092E201DF91CF911F910F91FF9008957D
:1012A000219131912D933D930196EFCF8091E901EA
:1012B00080FF12C06091090185E0689FB001112490
:1012C000759567957595679560387105A8F56115F1
:1012D0007105A1F1862F089581FF09C06091090170
:1012E00085E0689FB001112475956795EDCF6091F9
:1012F000090182FD0AC08091E8018823D1F0909114
:10130000080160910901891728F085E0689FB00104
:101310001124DACF869FB001112485E0869F9001C9
:10132000879F300D1124692F70E0C9010E94F030B1
:10133000CBCF65E070E0CECF8FE7089581E00895D0
:101340008091E90180FF0CC06091050170E0759506
:101350006795759567956115710549F1862F089513
:1013600081FF06C06091050170E075956795F3CF28
:101370006091050182FD0BC09091E7019923A1F0D6
:101380006091040180910501961738F0682F70E094
:101390006038710500F38FE70895899FC00111241B
:1013A00070E00E94F030F4CF61E070E0D7CF81E0D0
:1013B0000895803F31F40E94560981958093ED0194
:1013C0000895813F19F40E945609F8CF823F31F405
:1013D0000E94560981958093EC010895833F19F48A
:1013E0000E945609F8CF893F29F40E94A0098093F2
:1013F000EE0108958A3F21F40E94A0098195F7CF5C
:101400008B3F31F40E94A00981958093EF010895EC
:101410008C3F19F40E94A009F8CF843F31F48091E9
:10142000EB0181608093EB010895853F21F4809169
:10143000EB018260F7CF863F21F48091EB0184605D
:10144000F1CF873F21F48091EB018860EBCF883F9B
:1014500021F48091EB018061E5CF8D3F31F48091E3
:10146000E90181608093E90108958E3F21F4809124
:10147000E9018260F7CF8F3FB9F78091E90184607D
:10148000F1CF9091EC01803F59F48091ED0187FFFD
:101490000DC01092ED0191110BC01092E80108C02F
:1014A000813F81F48091ED0118169CF3992381F01E
:1014B0008091EE019091EF01892B09F064C01092A8
:1014C000E7010895823F49F497FFF0CF1092EC01B5
:1014D0008091ED018111ECCFE0CF833F19F4191613
:1014E000ACF3E4CF2091EE01893F29F41216F4F613
:1014F0001092EE01DBCF8A3F19F427FFD7CFF8CF48
:101500002091EF018B3F29F427FFD0CF1092EF01FC
:10151000CDCF8C3F19F41216CCF3C8CF843F31F4F1
:101520008091EB018E7F8093EB01C0CF853F21F44A
:101530008091EB018D7FF7CF863F21F48091EB0105
:101540008B7FF1CF873F21F48091EB01877FEBCF39
:10155000883F21F48091EB018F7EE5CF8D3F31F400
:101560008091E9018E7F8093E901A0CF8E3F21F425
:101570008091E9018D7FF7CF8F3F09F097CF809160
:10158000E9018B7FF0CF08950E94AF289C019091D4
:10159000EC018091ED01982B21F03093E60120932E
:1015A000E5019091EE018091EF01982B21F03093AD
:1015B000E4012093E3018AEE91E00C94A71BEF92E3
:1015C000FF920F931F93CF93DF9300D000D000D0F2
:1015D000CDB7DEB786E0EAEEF1E0DE0111960190CC
:1015E0000D928A95E1F7E090EC01F090ED01009109
:1015F000EE011091EF011092EC011092ED011092AA
:10160000EE011092EF018E2D8F2991F08091E5016E
:101610009091E6010E94C728AC019091E8019923BE
:1016200009F43FC080910A018417150608F447C0E9
:10163000802F812B91F08091E3019091E4010E9431
:10164000C728AC019091E701992309F477C08091F4
:1016500006018417150608F47FC08091EC01909173
:10166000ED01892B9091EE01892B9091EF01892B4F
:1016700011F00E94C40A86E0FE013196AAEEB1E0A4
:1016800001900D928A95E1F726960FB6F894DEBF89
:101690000FBECDBFDF91CF911F910F91FF90EF90C3
:1016A000089520910B018AE0289F900111242417AE
:1016B000350708F0BDCF9F5F9093E80102C09F3FC0
:1016C000D1F7EE2059F00E9456099FEF1E140CF43A
:1016D00091E0899F802D11248093EC01FF2059F027
:1016E0000E9456099FEF1F140CF491E0899F802DF2
:1016F00011248093ED013091EC01332309F498CF4C
:101700002091ED01222309F493CF45EB3403C0016E
:101710001124992359F09093EC0145EB2403900197
:101720001124332339F03093ED0182CF81E080938F
:10173000EC01F3CF81E08093ED017ACF2091070196
:101740008AE0289F900111242417350708F085CFDF
:101750009F5F9093E70102C09F3FD1F7002359F0AC
:101760000E94A0099FEF10160CF491E0899F802D34
:1017700011248093EE01112359F00E94A0099FEFDC
:1017800011160CF491E0899F802D11248093EF01B4
:101790003091EE01332309F460CF2091EF01222331
:1017A00009F45BCF45EB3403C0011124992359F0B0
:1017B0009093EE0145EB240390011124332339F07B
:1017C0003093EF014ACF81E08093EE01F3CF81E0C7
:1017D0008093EF0142CF86E0EAEEF1E0DF011D9257
:1017E0008A95E9F71092E8011092E7011092E90159
:1017F0000895EF92FF920F931F93CF93DF93EB0126
:10180000E82FD11110C0442321F0F0E0EA54FC4F3E
:10181000E4916E2F7E2F8E2FDF91CF911F910F912C
:10182000FF90EF9008950D2F10E0282F30E0442313
:1018300029F02A543C4FF901249130E0F6E0CF9F83
:10184000C0011124EFEFF0E0BF010E94DC30AB01DA
:101850008C2F90E0880F991FA5E5A49FB001A59F4C
:10186000700D1124861B970B982F990F980FBF01AD
:10187000601B710B629FD001639FB00D729FB00D12
:1018800011248B2F9D9FB0011124672F7727EF0123
:10189000C61BD70BBE01629FE001639FD00D729FF4
:1018A000D00D11247F01E91AF108E09EB001E19EFC
:1018B000700DF09E700D1124672F7727E61BF70B34
:1018C000E29F8001E39F100DF29F100D1124E12F84
:1018D000722F4230510599F048F44115510569F0D5
:1018E0004130510581F0EB2F8D2F07C04430510559
:1018F00069F080F046305105B1F76E2F8DCFE22FA1
:101900007B2F812FFACFE22F7D2FF7CFEB2F822F66
:10191000712FF3CF7B2F822FED2FEFCF41E00C946F
:10192000F90B08950C948E0CCF93DF93762FE90179
:10193000682F842F0E94920C798368838A83DF91B9
:10194000CF91089580910403982F9E7F29F4817090
:1019500082608093040308958635E8F3817084657E
:10196000F8CF88E090E00C94E531CF92DF92EF92CF
:10197000FF926B017C010E94A20CB701A60188E0D6
:1019800090E0FF90EF90DF90CF900C940332609145
:1019900004037091050380910603909107030C9452
:1019A000B50CE4E0F3E083E0808311828FEF828363
:1019B0008383148260817181828193810C94B50C40
:1019C0008091040380FF02C08695089580E0089509
:1019D00090910803933018F49F5F90930803882335
:1019E00051F060910403709105038091060390917A
:1019F00007030C94B50C089581E00C94E80C9091C9
:101A00000803992319F0915090930803882351F00B
:101A10006091040370910503809106039091070380
:101A20000C94B50C089581E00C94FF0C8091080390
:101A3000089580930803662351F060910403709128
:101A4000050380910603909107030C94B50C08954B
:101A500060E00C94190D80910503089580910603B0
:101A6000089580910703089570E00C94C21360916B
:101A700010018091040380FF0AC080910F0123E0D0
:101A8000829FC0011124875F9C4F0C94340D80917C
:101A900011019091120123E0829FF0011124E75F70
:101AA000FC4F891750F71182108212828F5F339694
:101AB000F8CF9091040390FF14C0909111012091F0
:101AC000120133E0939FF0011124E75FFC4F92175E
:101AD00010F00C94370D8183608342839F5F3396AF
:101AE000F6CF0895CF93DF9300D00F92CDB7DEB736
:101AF0009091040390FF0AC09E012F5F3F4F0E9408
:101B0000940C4B8169818A810E94590D0F900F902E
:101B10000F90DF91CF910895CF93DF93EC01EC818B
:101B2000F0E0EF54FD4F4491E4E0F3E06281818105
:101B30000E94720D8C818F5F8C83DF91CF9108950D
:101B4000CF93DF93EC01E4E0F3E0438162818C8189
:101B50000E94720D8C818F5F8C83DF91CF910895ED
:101B60000F931F93CF93DF9300D00F92CDB7DEB7C3
:101B70008C018091F00181110AC09E012F5F3F4FBF
:101B80004FEF6FEF0E94940C8A818093F001F8016F
:101B90006481613069F08091F00140E0662361F07A
:101BA00040E0623011F44091F00180E060E004C058
:101BB0006091F00140E080E00E94590DF8018481BD
:101BC00090E0019663E070E00E94F03084830F9013
:101BD0000F900F90DF91CF911F910F910895AF92C9
:101BE000BF92CF92DF92EF92FF920F931F93CF930A
:101BF000DF9300D00F92CDB7DEB7182FF62E042F4B
:101C0000E22E9091040390FF29C0E92FE695AE2FB4
:101C1000B0E0AD58BE4F8C9180932C029E7F9230E5
:101C200059F59E012F5F3F4F812F0E94940C4B81ED
:101C300069818A810E94590D10930503F092060371
:101C400000930703EE2051F06091040370910503A7
:101C500080910603909107030E94B50C0F900F909E
:101C60000F90DF91CF911F910F91FF90EF90DF9038
:101C7000CF90BF90AF900895823019F40091070380
:101C8000DBCF863019F410910503D6CF8930D9F314
:101C9000893191F6E9518E2F8170D82EE695F0E0CA
:101CA000EF54FC4FA590B490C12CBB24609113015C
:101CB000C61618F00E94370DBFCF2C2D30E0A29E23
:101CC000C001A39E900DB29E900D112470E00E9461
:101CD000DC30812FD11013C0860F40911101420FCB
:101CE000532F511D9A01220F331F240F351F275FD9
:101CF0003C4F402F6F2D0E94940CC394D7CF861B6E
:101D0000ECCFE4E0F3E09181282F4381628188E009
:101D1000890F0C94EF0D81E00C94810EE4E0F3E068
:101D20009181282F4381628188EF890F0C94EF0DF8
:101D300081E00C948E0EE4E0F3E0628128E0620F13
:101D400008F46FEF282F438181810C94EF0D81E01F
:101D50000C949B0EE4E0F3E0628128E0621B08F43F
:101D600060E0282F438181810C94EF0D81E00C9479
:101D7000AA0EE4E0F3E0438128E0420F08F44FEFBD
:101D8000282F628181810C94EF0D81E00C94B90EB3
:101D9000E4E0F3E0438128E0421B08F440E0282F10
:101DA000628181810C94EF0D81E00C94C80E20E0DB
:101DB0000C94EF0DEF92FF921F93CF93DF93EC0102
:101DC00010E0EE24EA94F12C60911301161770F0E4
:101DD0000E94370D9A818C8190FF27C08F5F8C8382
:101DE000DF91CF911F91FF90EF9008952091110105
:101DF000422F410F5527551FCA019A01220F331F49
:101E0000280F391F275F3C4F70E0C7010E94F03058
:101E1000962F8C814091070360910603199F800DD6
:101E200011240E94940C1F5FCFCF8150D8CFAF9266
:101E3000BF92CF92DF92EF92FF920F931F93CF93B7
:101E4000DF93FC0182810FEF80FF01E010E04AE0A8
:101E5000A42E809113011817C8F00E94370D8091AD
:101E6000F201013009F055C0811102C080911301C7
:101E700081508093F201DF91CF911F910F91FF90DC
:101E8000EF90DF90CF90BF90AF900895C091110177
:101E9000C12ED12CCC0DDD2DD11DCE01880F991F67
:101EA000C80FD91FC75FDC4F198218821A8234E02D
:101EB000E32EF12CB12C8091F2018B0D8B301CF1B3
:101EC0006A2D0E94CE30892F082E000C990BC8165F
:101ED000D90691F4809107038E9DA0018F9D500D2E
:101EE000112455954795559547959E016091060398
:101EF000809105030E94940CB00EF1E0EF1AF108F6
:101F0000D1F61F5FA6CF87FFDFCF90911301890F16
:101F1000DBCF90E001966091130170E00E94F030F9
:101F2000A8CF0F931F93CF93DF93809111019091CE
:101F3000120123E0829FF0011124E75FFC4F891713
:101F400040F1C0E0D3E060911301C61740F10E9458
:101F5000370D20910D018091F101820F8093F101E5
:101F600090910E01920F90930E01191654F4082EC1
:101F7000000C990B409113014150550B84179507A4
:101F80001CF0219520930D01DF91CF911F910F91AE
:101F900008951182108212828F5F3396D0CF0C2F5A
:101FA00010E070E0C8010E94F03020911101820F12
:101FB000482F50E02091F101022E000C330B021744
:101FC0001307BCF020910E01022E000C330B2017DA
:101FD00031077CF08D9F90011124275F3C4F409189
:101FE000070360910603809105030E94940CCF5F64
:101FF000AACFFA01EE0FFF1FE40FF51FE75FFC4FBA
:10200000118210821282F3CF8F929F92AF92BF9271
:10201000CF92DF92EF92FF920F931F93CF93DF93B4
:10202000EC014C81042F10E09801D8010E943B3153
:102030009B01AC010E9451314B015C01E0E2F0E0F8
:10204000E01BF10BA5E5B0E0AC019B010E94513112
:102050006B017C019F01DF010E9433319B01AC01C8
:102060000E945C319B01AC01280D391D4A1D5B1D8E
:10207000C701B6010E940431F22E822F90E039E2AE
:102080003F1560F143E0249F900111243595279579
:10209000122F109500E085E5E82EEF1880911301CE
:1020A000081758F10E94370D9C8181E0992319F09F
:1020B000903219F48FEF80930C0180910C01890FFD
:1020C0008C83DF91CF911F910F91FF90EF90DF9064
:1020D000CF90BF90AF909F908F90089525E530E00E
:1020E000B901681B790B9B01220F331F260F371F85
:1020F00037FFCCCF2F5F3F4FC9CF8E2D01FD8F2DE6
:1021000020911101622F600F7727771F9B01220F0B
:10211000331F260F371F275F3C4F412F6091060367
:102120000E94940C0F5FBACF0F931F93CF93DF934E
:10213000EC0110E000E0909113019017110609F0F6
:102140006CF40E94370D8C8190E001968170992784
:102150008C83DF91CF911F910F91089520911101F0
:10216000A801420F511D9A01220F331F240F351F62
:10217000275F3C4F4C816091060380910503969543
:102180009017110651F04CF0442349F04091070399
:102190000E94940C0F5F1F4FCECF4423B9F340E051
:1021A000F7CF4F925F926F927F928F929F92AF92F2
:1021B000BF92CF92DF92EF92FF920F931F93CF9334
:1021C000DF93FC016280448081E08483E1EBF2E0F4
:1021D0007490E0E3F3E0E491812C75E0972EF2E057
:1021E000CF2EDD24D394AA24AA94B12C55245A943A
:1021F000E7190E2F10E080911301881690F0DF91FF
:10220000CF911F910F91FF90EF90DF90CF90BF90F3
:10221000AF909F908F907F906F905F904F900C94B5
:10222000370DE82CF12C82E0861568F09E9CF001B9
:102230009F9CF00D1124ED50FE4F8091050380838B
:10224000809106038183411023C09E9CF0019F9CD6
:10225000F00D1124ED50FE4F1382128220911101D6
:10226000C701820F911D9C01220F331F280F391FB8
:10227000275F3C4F9E9CF0019F9CF00D1124ED5078
:10228000FE4F4281618180810E94940C8394B3CF80
:102290009E9CE0019F9CD00D1124CD50DE4F8B8180
:1022A0008823E9F081508B83859DC00111246C81C6
:1022B00070E00E94DC30FB01FF27EF54FD4F84915A
:1022C000E82FE719E59DC0011124B8010E94DC3018
:1022D00080910703689FB00111247A83BFCF0E94C9
:1022E000B03120910703269521582C9DA0012D9DEA
:1022F000500D1124452F5527841795070CF0AECFAC
:1023000082E0861588F40E94B031B5010E94F03059
:1023100088830E94B031209106032695622F70E0D9
:102320000E94F030280F29839E9CF0019F9CF00DA5
:102330001124ED50FE4F128280910703893C58F022
:1023400088EC9E9CF0019F9CF00D1124ED50FE4FF7
:102350008483838383CF8431A0F784E1F2CFE4E0E8
:10236000F3E080818E7F808360817181828193819F
:102370000E94B50C10922D022FEF80E792E02150C1
:1023800080409040E1F700C000000C94370DE4E07D
:10239000F3E080818E7F808310922D022FEF80E703
:1023A00092E0215080409040E1F700C000000C9482
:1023B000370D60910403669570E04BE050E084E1D6
:1023C00091E00E94C931892B19F481E080932D029C
:1023D0000E94AF2890932602809325020895909141
:1023E000040390FF35C09170811128C092609093D2
:1023F0000403662351F060910403709105038091FA
:102400000603909107030E94B50C60910403669542
:1024100070E04BE050E084E191E00E94C931892BEB
:10242000A1F010922D0281E08093280240910703D1
:1024300060910603809105030C94D70E8B3210F047
:102440009465D5CF880F982BD2CF0E94D911EBCFAE
:102450000895682F90910403969581E0890F8B323F
:1024600008F081E00C94EF1181E00C942912682FA0
:102470009091040396958FEF890F09F48AE20C94EA
:10248000EF1181E00C94371261E00C94EF11E4E05D
:10249000F3E080818160808386950C944412809162
:1024A000040380FD0C94AF110C94471260E00C946F
:1024B000EF1180912B0281112EC00E94C52681113F
:1024C00004C00E9469270E94D10C0E94B10C609345
:1024D00004037093050380930603909307036E7FB4
:1024E00061F40E94D10C0E94B10C609304037093BC
:1024F000050380930603909307030E94A20C109299
:102500002D028091040380FF03C086950E9456121D
:1025100081E080932B020895E4E0F3E08081816004
:10252000808386950C9456120F931F93CF93DF935D
:1025300080912D02882309F496C080912C02E091AD
:102540000403E695E81BE0932702823091F5F0E062
:10255000E355FD4FE491CE2FD0E00CE81DE08091D3
:102560002802882361F0109228020E94AF289093DD
:1025700026028093250210922A02109229020E94BC
:10258000AF28E0912502F09126028E1B9F0B8F3F12
:102590009F4708F068C0EC0FFD1FF0932602E09300
:1025A000250285E292E0F801DF91CF911F910F9112
:1025B0000994863049F4F0E0E655FD4FE491CE2FC2
:1025C000D0E000EA1DE0CBCF893051F4E695F0E091
:1025D000E955FD4FE491CE2FD0E00AED1EE0BFCFCC
:1025E0008F3051F4E695F0E0EC55FD4FE491CE2F9D
:1025F000D0E007E11FE0B3CF853149F4F0E0EF55BB
:10260000FD4FE491CE2FD0E001E91FE0A8CFC8E252
:10261000D0E004E010E1883109F4A1CF833239F42D
:10262000EFE9F2E0C591D49100EB1DE098CFC4EF43
:10263000D1E004E910E1843209F491CFC0EDD7E094
:1026400001E91CE0853209F08ACF8E2F63E00E94F9
:10265000C230E92FF0E0E456FD4FE491CE2FD0E0F8
:1026600001ED10E17CCFDF91CF911F910F91089583
:10267000FA01811101C0FB010994CF93DF93C82FA8
:10268000D62F0E94E00C8C1740F00E94E00C8D17B2
:1026900020F4DF91CF910C9434128C2FDF91CF91E5
:1026A0000C9444120F931F93CF938C01FB01C281B2
:1026B000CC2309F465C00E940E268272F801E25C08
:1026C000FC45E431F10538F4EA5BFD4C0C9426310D
:1026D0000E944F12C0E08C2FCF911F910F9108954F
:1026E00041E452E164E372E10E943813F3CF44E322
:1026F00052E161E472E1F8CF48E95EE06BE87EE028
:10270000F3CF4BE85EE068E97EE0EECF46EB5EE0BB
:1027100067EA7EE0E9CF47EA5EE066EB7EE0E4CF81
:1027200044ED5EE065EC7EE0DFCF45EC5EE064ED1D
:102730007EE0DACF43E15DE06CEF7CE0D5CF4CEF9B
:102740005CE063E17DE0D0CF81E00E944412C2CF23
:1027500065E082E00E943D13BDCF68E086E0FACFDD
:102760006EE089E0F7CF64E18FE0F4CF67E185E1C7
:10277000F1CF88E1EACF62E289E1ECCF83E2E5CFF5
:10278000C1E0A9CF519A4BB14D7F5BB15260EFB719
:10279000F8949B01220F331F260F371F280F391F74
:1027A0002817390741F4EFBF8FE594E00197F1F75F
:1027B00000C000000895DC016D91CD0178E05BB9A7
:1027C000000000C067FF4BB9660F000000C000C0EA
:1027D00000C04BB900C07A9591F7E2CF82E290E059
:1027E0000E94DD31813689F483E290E00E94DD3180
:1027F0008D3E59F484E290E00E94DD3191E0813D0C
:1028000009F090E0892F8170089580E0FCCFCF938C
:10281000C82F6FEF811161E682E290E00E94F131F2
:102820006FEFC1116DEE83E290E00E94F1316FEF26
:10283000C11161ED84E290E0CF910C94F13180E020
:102840000E9407140C94BF26089585E290E00E9430
:10285000DD31682F70E090E080E0089585E290E03F
:102860000C94F1310E9424140E94EE1381110CC0CB
:1028700060E070E0CB010E942E140E945F170E945E
:10288000CB1881E00C9407140895CF93FB01C2810B
:10289000CC2309F19C0122513F452031310520F51F
:1028A00082510E94DB18C0E08C2FCF91089581E007
:1028B0000E94892443E062E081E00E94BD04F3CFDE
:1028C00081E00E94AA2443E062E081E00E94BD040E
:1028D000EBCF82E0F6CF8031FFE59F0789F38131AE
:1028E0009F45B9F3C1E0E0CF8031EFE59E07F9F2F3
:1028F00081319F45C9F682E0DBCF2FEFFC012083B9
:102900000895CF93DF93EC0188818138A9F028F4F2
:10291000803871F0DF91CF910895823881F083384B
:10292000C9F70E942B0D89830E942E0D8A83F2CF56
:102930000E94310D8983EECF0E94E00CFBCF0E94F4
:10294000160DF8CFCF93DF93EC0188818138E1F049
:1029500028F4803869F0DF91CF910895823811F121
:102960008338C9F70E94310D482F6A81898108C0D8
:10297000D9810E942E0DC82F0E942B0D4D2F6C2F38
:10298000DF91CF910C94D70E89810E9456128981D4
:10299000811104C0DF91CF910C94C711DF91CF91C9
:1029A0000C948C128981DF91CF910C94280D1F9388
:1029B000CF93DF93EC01162F988120913202309152
:1029C0003302232B79F09E3F09F071C08981833057
:1029D00020F08550833008F06AC0612FCE010E943C
:1029E000F31565C09E012F5F3F4F9B3009F4E5C092
:1029F00058F5953009F486C0D0F4923009F45EC0E1
:102A000030F4913009F450C08FEF888350C0933078
:102A100009F46CC09430C1F74B816A8189810E94AE
:102A200015179827892798279D838C8340C0973056
:102A300009F476C008F471C0983009F475C0993073
:102A400019F70E94C70C33C0903109F48EC000F50D
:102A50009D3009F471C008F46BC09E3009F474C055
:102A60009F3091F68091340290913502892BF9F0D4
:102A70006B8170E06D317105D0F489819A81AE016E
:102A80004C5F5F4F9827892798270E94A0180FC096
:102A9000923109F470C008F46BC0933109F47CC022
:102AA0009E3F09F0B1CF99CF198289E08A83612FC7
:102AB000CE01DF91CF911F910C94E9298981823059
:102AC00069F08330A1F3813061F40E94BB280E9439
:102AD0002C316A837B838C839D83E9CF0E942514EC
:102AE000F6CF612FCE010E947D14E1CF8981823023
:102AF000C1F76A817B818C819D810E942C310E946B
:102B00002E14D5CF2C813D813227232732274B81AC
:102B10006A8189810E943717CACF0E945F17C7CF89
:102B2000C9010E94A214C3CFC9010E948114BFCF62
:102B30000E9474188983BBCF0E9476189827892732
:102B400098279A838983B3CF6B8170E06D317105CB
:102B500008F0ADCF89819A81AE014C5F5F4F982715
:102B6000892798270E947918A2CF0E94CB189FCF5F
:102B70000E940317DFCF6B8170E06D31710508F0A3
:102B800096CF89819A81AE014C5F5F4F9827892744
:102B900098270E94A9178BCF6B8170E06D3171056A
:102BA00008F085CF89819A81AE014C5F5F4F9827ED
:102BB000892798270E94CF177ACF8091340290916D
:102BC0003502892B09F473CFCE010E94E9292FEF3A
:102BD00081EE94E0215080409040E1F700C0000079
:102BE0000E94FA2864CFEF92FF920F931F93CF9326
:102BF000DF93CDB7DEB728970FB6F894DEBF0FBED0
:102C0000CDBF8C01603219F5DC011196EC91119762
:102C1000E930E8F4F0E0E65AFD4C0C94263188E007
:102C2000ECE2F1E0DE01119601900D928A95E1F758
:102C300082E0F801808311821282138288E0FE0113
:102C40003196D801149601900D928A95E1F7289655
:102C50000FB6F894DEBF0FBECDBFDF91CF911F91AD
:102C60000F91FF90EF90089588E18C9381E0119689
:102C70008C93119712961C92129713961C92E7CF81
:102C8000FC018381682F70E0762F66278281860F92
:102C9000972F911D092E000CAA0BBB0B25E0880F66
:102CA000991FAA1FBB1F2A95D1F7AC01BD01405E39
:102CB0005F4F6F4F7F4F481759076A077B0738F2FE
:102CC0008831F1E09F07A105B10508F6493121E0FF
:102CD00052076105710520F048E151E060E070E0C5
:102CE000481B590BBC016A547B4FC80128960FB68C
:102CF000F894DEBF0FBECDBFDF91CF911F910F9132
:102D0000FF90EF900C94C03140E250E06FEF70E024
:102D10000E94D63180913402D8018C938091320286
:102D200011968C93119712961C92129713961C92DF
:102D3000139781E014968C93149789E015968C93E1
:102D400086CF81E090E0909333028093320282E359
:102D500090E090933102809330020E94AF289093CC
:102D60002F0280932E0273CF809132029091330212
:102D7000892B91F160E080E00E941B08E82E69E059
:102D800081E00E941B08F82E80912E0290912F0264
:102D90000E94C7288536910550F1EE2041F1FF20B1
:102DA00031F10E94AF2890932F0280932E028091E0
:102DB000300290913102019790933102809330025A
:102DC000892B51F4109233021092320281E090E08C
:102DD000909335028093340280913402F80180830D
:102DE00080913202818380913002828330CF82E3EE
:102DF00090E09093310280933002EECF1092350232
:102E00001092340224CF84E0089550E0440F551FFF
:102E100094E1699F400D511D112490E5899F400D5B
:102E2000511D1124CA01869608950F931F93CF93C5
:102E3000DF938430C8F46430B8F44A30A8F40E94B8
:102E400005178C010E94DD31C82FD0E0DC2FCC2784
:102E5000C80101960E94DD319E01282BC901DF9136
:102E6000CF911F910F91089590E080E0F8CF0F93DC
:102E70001F93CF93DF93E9018430E0F46430D0F402
:102E80004A30C0F421153C4531F420913402309190
:102E90003502232B79F00E9405178C016D2F0E94BB
:102EA000F1316C2FC8010196DF91CF911F910F91E5
:102EB0000C94F131DF91CF911F910F9108958F9272
:102EC0009F92AF92BF92CF92DF92EF92FF921F93A9
:102ED000CF93DF93809034029090350281E090E0B0
:102EE00090933502809334028CEAC82E80E0D82E6D
:102EF000D0E07601C0E014C0F50125913491412F56
:102F00006C2F8D2F0E94371782E0A80EB11C1F5F17
:102F10001A3091F784E1E80EF11CCF5FC43019F04C
:102F2000570110E0E9CFDF5F80E5C80ED11CD43037
:102F300001F79092350280923402DF91CF911F9178
:102F4000FF90EF90DF90CF90BF90AF909F908F90C9
:102F50000895EF92FF920F931F93CF93DF93EC01AD
:102F60008A017C01E60EF71ECE018696CE15DF059E
:102F700039F4DF91CF911F910F91FF90EF90089559
:102F8000C03421E0D20740F40E94DD31F801808393
:102F90000F5F1F4F2196E8CFF8011082F9CF4F92B3
:102FA0005F926F927F928F929F92AF92BF92CF92D9
:102FB000DF92EF92FF920F931F93CF93DF93EC0179
:102FC0007B018A0180349140D8F480E491E08C1B2D
:102FD0009D0B86179707A0F03E0136E2630E711C29
:102FE00080913402909135022E01460E571E892B96
:102FF000C1F07E01C7018696E414F50409F050C0C3
:10300000DF91CF911F910F91FF90EF90DF90CF90C4
:10301000BF90AF909F908F907F906F905F904F90F8
:1030200008956E0181E0C822DD24C0FF0FC0CE01EB
:1030300085960E94DD31F80190818927982789279C
:1030400081159C4519F48FEFF8018083570140FEEC
:1030500013C0F1E0AF1AB10848018A0C9B1CC301F0
:103060008E0D9F1D0E94DD31F401908181159C45DC
:1030700019F48FEFF4018083F801EC0DFD1D2FEFA3
:10308000CA14DB0408F0B5CF9081818181159C457D
:1030900011F42083218382E0C80ED11C3296F0CF38
:1030A000E0E4EE16E1E0FE0640F4F701EC1BFD0B58
:1030B000E00FF11F60810E94F131FFEFEF1AFF0A6C
:1030C00099CF462F2091320230913302232B49F4BD
:1030D000843038F4743028F46A3018F4672F0C9474
:1030E000151790E080E0089580E108958AE992E064
:1030F0000895EF92FF920F931F93CF93DF93EC010C
:103100008A017C01E60EF71ECE018A599E4FCE152C
:10311000DF0539F4DF91CF911F910F91FF90EF9070
:103120000895CA3922E0D20740F40E94DD31F80147
:1031300080830F5F1F4F2196E7CFF8011082F9CFF0
:10314000CF92DF92EF92FF920F931F93CF93DF9373
:103150007C016A018C01060F171FEC01CE018A5910
:103160009E4FC017D10749F4DF91CF911F910F9166
:10317000FF90EF90DF90CF900895CA3922E0D207F8
:1031800040F4FE01EE19FF09EC0DFD1D60810E9467
:10319000F1312196E3CFCF93DF93C6E6D1E060E033
:1031A000CE010E94F1312196C11584E0D807B9F70C
:1031B000DF91CF910895BF92CF92DF92EF92FF926D
:1031C0000F931F93CF93DF9300D000D0CDB7DEB71E
:1031D000F82E2FE0281740F08FEF93E00E94DD31AA
:1031E00006E611E08823D1F00F900F900F900F901A
:1031F000DF91CF911F910F91FF90EF90DF90CF90D3
:10320000BF900895011544E0140771F3C8010E94AE
:10321000DD31811101C0FA940F5F1F4FF110F2CF21
:1032200019821A821B821C82BB24BA9478015FEF38
:10323000E51AF50AC8010E94DD3189831A828823C4
:1032400099F2813009F047C0680182E0C80ED11CB4
:10325000C7010E94DD31E82E8A83882329F2C60146
:103260000E94DD31F82E8FEF8E0D833068F46801F7
:10327000E3E0CE0ED11CFB82FF2021F0CE010196AF
:103280000E9408068601D2CFF4E0EF12FBCF68015E
:1032900024E0C20ED11CC80103960E94DD31FF203C
:1032A00009F4A2CF882309F49FCF8150990BB89ECF
:1032B0009001B99E300D11244F2D4150550BCA017C
:1032C000820F931F0197F0F2EFE9FFE03197F1F7DA
:1032D00000C00000F7CFCE0101960E9408066701EA
:1032E000D1CF0F931F93CF93DF93C42FD22FFC0125
:1032F00082818823C9F0409338020E94AF289093BE
:1033000037028093360280E28C0F883008F050C07C
:10331000C77081E001C0880FCA95EAF7DF91CF91AD
:103320001F910F910C94141E10913802141335C084
:1033300080913602909137020E94C728883C9105FF
:1033400060F5C0E2CD0F1D17B9F080E2810F883023
:1033500040F4177081E001C0880F1A95EAF70E94C7
:103360001B1EC83048F481E09D2F977001C0880F64
:103370009A95EAF70E94141E802F0E940C1EC830F6
:10338000B8F4D77081E001C0880FDA95EAF7DF91D1
:10339000CF911F910F910C941B1E80E28C0F8830EF
:1033A00038F4C77081E001C0880FCA95EAF7EFCF03
:1033B000DF91CF911F910F9108950F939C01CB0145
:1033C000233F4CE5340759F1A8F4283DFCE53F07BD
:1033D00001F1293D4CE53407D1F1273D3C4591F4FD
:1033E00006E221EE41EE67ED7CE50E94711980E076
:1033F0000F910895253FFCE53F07E9F0B0F0263F27
:103400003C45F9F0FC018281882339F110923802A1
:10341000EFCF07E225EE45EE68ED7CE5E6CF06E26C
:1034200021EE40EE63EF7CE5E0CF07E225EE44EECF
:1034300064EF7CE5DACF06E221EE42EE65EF7CE553
:10344000D4CF07E225EE46EE66EF7CE5CECF08E26C
:1034500021E045EE69ED7CE5C8CF81E0C9CFCF938F
:10346000DF93EC01FB018281882309F419C1C2308A
:10347000FCE5DF07C0F1C6319CE5D90730F09E01BD
:103480002A5F3C452930310570F50E94D82690937B
:103490002C0380932B03C031ECE5DE0709F4CFC089
:1034A00008F05BC0C8308CE5D80709F4B6C088F5D1
:1034B000C430ECE5DE0709F4A8C0C0F4C2308CE5E6
:1034C000D80709F49CC080912B038260C330DC458F
:1034D00009F498C080912B0390912C030E94E6265A
:1034E0000E948F2080E0DF91CF91089580912B037F
:1034F0008061C630ECE5DE0709F484C080912B03BF
:103500008860C730DC4508F47DC080912B03806261
:1035100079C0CC308CE5D80709F489C070F480916B
:103520002B038C60CA30ECE5DE0709F46BC008F4AD
:1035300078C080912B038E7F65C0CE308CE5D80794
:1035400009F479C080912B038B7FCF30DC4508F4E0
:1035500059C080912B038F7E55C0CB3FECE5DE0731
:1035600009F457C030F5C3318CE5D80709F46FC0B2
:1035700078F4C131ECE5DE0709F465C0C231DC4501
:1035800009F0A8CF0E948F2080912B038F773AC03B
:10359000C5318CE5D80709F462C008F476C0809183
:1035A0002C038160CA3FDC4509F094CF80932C0343
:1035B00091CFCF3FFCE5DF0709F44DC088F480913F
:1035C0002C038D7FCD3F9CE5D90781F380912C039F
:1035D0008E7FCE3FDC4550F380912C038360E6CF95
:1035E000C130FDE5DF0709F459C008F444C080E0AC
:1035F000C230DD4509F06ECF0E946B276BCF809102
:103600002B03816080932B0365CF80912B03846013
:10361000F9CF80912C038260C9CF80912B03806405
:10362000F1CF0E948F2080912B038068EBCF809197
:103630002B038D7FE7CF80912B03877FE3CF809192
:103640002B038F7DDFCF80912B038F7BDBCF80918E
:103650002B03837FD7CF80912C038C7FA7CF8091C2
:103660002B0382FB992790F921E0922790FB82F9A6
:1036700090FB83F9C7CF80912C03982F9095917080
:103680008E7F892B90FB81F991CF0E948F209091A2
:103690002B03892F97FB87F98058B4CF81E0ACCFFB
:1036A00081E021CFCF93DF93EB0186319C4511F56B
:1036B0000E940E269A81992399F08A7A91E009F462
:1036C00090E090933902811109C089E20E94E925B6
:1036D0000E945A2680E0DF91CF91089585E3F6CFCE
:1036E00080913902811104C089E20E94F025F0CF57
:1036F00085E3FBCF81E0EFCF90933F0280933E02C2
:103700000895E0913E02F0913F02309721F0019040
:10371000F081E02D099480E00895E0913E02F0915F
:103720003F02309799F020912B01222359F02091EC
:103730002B0327FF07C0DC012C9111962C931197C6
:1037400025E02C930280F381E02D09940895E09107
:103750003E02F0913F02309739F022E0DC012C93D9
:103760000480F581E02D0994089520913C02309168
:103770003D022817390771F090933D0280933C0277
:10378000E0913E02F0913F02309721F00680F781F0
:10379000E02D0994089520913A0230913B022817B8
:1037A000390771F090933B0280933A02E0913E0218
:1037B000F0913F02309721F00084F185E02D0994CB
:1037C00008950E94BB2860934D0270934E0280932F
:1037D0004F02909350026093490270934A02809383
:1037E0004B0290934C02089585B7806885BF85B7DA
:1037F000806885BF0895089508950C94FB1B089573
:103800000C94FF1B0E94F41B8DEB96E20E940B2987
:103810000E94FC1B0C94FD1B81E008950C940C1C71
:10382000089508950E94A6280E945A080E94321402
:103830000E9429290E9459120C94001C8F929F9279
:10384000AF92BF92CF92DF92EF92FF920F931F93AE
:10385000CF93DF93CDB7DEB72A970FB6F894DEBFCC
:103860000FBECDBF0E94101C0E94111C0E94980820
:1038700081110E94E11B51E4852E52E0952E10E04B
:1038800000E0A02E802F0E9431086C01F401E1902D
:10389000F1904F01E816F90609F45EC08091D0025C
:1038A00081FD0E943A08C7018C259D25B12CEE248C
:1038B000E394F12C9C012E213F21232B09F446C0D7
:1038C0000E940E1C8823A9F0BE82AF82CE20DF208A
:1038D00081E0CD2809F480E088870E94AF288160CC
:1038E000782F9A8789874E815F8168858A850E94B3
:1038F000D61C000F111FF801EF5BFD4F80819181F5
:10390000E826F926F182E0820E9494120E94DF0AE2
:103910000E94811B909140028917A9F10E94811B8E
:10392000809340022A960FB6F894DEBF0FBECDBF3B
:10393000DF91CF911F910F91FF90EF90DF90CF908B
:10394000BF90AF909F908F900C941206B394EE0CA2
:10395000FF1CFAE0BF12AECF0F5F1F4F04301105FE
:1039600009F08FCF8FEF89838A831B820E94AF2853
:103970008160782F9D838C8349815A816B818D81F1
:103980000E94D61CC1CF2A960FB6F894DEBF0FBE98
:10399000CDBFDF91CF911F910F91FF90EF90DF90FE
:1039A000CF90BF90AF909F908F900895DF92EF924D
:1039B000FF920F931F93CF93DF93CDB7DEB72B9773
:1039C0000FB6F894DEBF0FBECDBF7A878B87F42E7B
:1039D000052F162FE72ED82E61110E942E261E824B
:1039E0001D827E2DEC82DD824F2D502F612F8D2D7B
:1039F0009E812B960FB6F894DEBF0FBECDBFDF9130
:103A0000CF911F910F91FF90EF90DF900C940523C1
:103A1000FC01808191810C94BB25CF93C82F882312
:103A200009F48BC08238C1F40E94811B81FD85C0DE
:103A300089E30E94E9250E945A262FEF81EE94E047
:103A4000215080409040E1F700C0000089E30E94CF
:103A5000F025CF910C945A268338A1F40E94811B43
:103A600080FD6BC083E50E94E9250E945A262FEF56
:103A700081EE94E0215080409040E1F700C00000CA
:103A800083E5E5CF8438A1F40E94811B82FD55C0F7
:103A900087E40E94E9250E945A262FEF81EE94E0E8
:103AA000215080409040E1F700C0000087E4CFCF74
:103AB0008CEF8C0F813A90F46C2F80911F019091C4
:103AC00020010E948427882329F08C2F0E94F02552
:103AD0000E945A268C2F0E94E925BBCF80E28C0FD2
:103AE000883048F4C77081E001C0880FCA95EAF7B2
:103AF0000E941126AECFEBE5EC0FE33040F4F0E08E
:103B0000E453FE4F808190E0CF910C94B51BE8E523
:103B1000EC0FE73150F4F0E0EE0FFF1FE256FE4FDE
:103B200080819181CF910C94CB1BC03F30F08C2FC2
:103B30000E94D909CF910C94C40ACF91089588238B
:103B400009F452C0823871F40E94811B81FF4CC07D
:103B500089E30E94E9250E945A2689E30E94F02504
:103B60000C945A26833859F40E94811B80FF3CC074
:103B700083E50E94E9250E945A2683E5EFCF843829
:103B800059F40E94811B82FF2FC087E40E94E9251F
:103B90000E945A2687E4E2CF9CEF980F913AF0F208
:103BA00090E2980F983050F4877091E001C0990F1F
:103BB0008A95EAF7892F0E941726D2CF9BE5980FA6
:103BC000933020F490E080E00C94B51B98E5980FBA
:103BD000973120F490E080E00C94CB1B803F20F0E4
:103BE0000E94410A0C94C40A08951F93CF93DF9357
:103BF000182FEB010E940D1D209731F4812FDF91CA
:103C0000CF911F910C949F1D8FE99FE00197F1F7D1
:103C100000C000002197F0CF70E060E0893311F41C
:103C200060E570E00C94F51D882321F00E941126B8
:103C30000C945A260895882321F00E9417260C948C
:103C40005A260895BF92CF92DF92EF92FF920F9380
:103C50001F93CF93DF936C01D62FC72FFC011281E6
:103C6000058102950F700E940726E82E8823A1F097
:103C7000E12E112389F08C2F807F803429F080E29F
:103C80008D0FE12C883040F082E00E94A5260E9432
:103C9000072691E0E82EE926BC2EB2949FE0B922D7
:103CA000EB2DF0E0ED59FD4C0C9426310C2F0F70EC
:103CB000C07F11F00295007F1123A9F0002359F075
:103CC00080E28D0F883010F0D11109C0802F0E9442
:103CD00011260E945A268D2F0E940D1D14C0802F80
:103CE0000E942126F6CF8D2F0E949F1D002359F0A0
:103CF00080E28D0F883010F0D1112CC0802F0E94EF
:103D000017260E945A262B2D2850330B24303105BC
:103D100020F40E94811B0E941206EE2009F4A0C12B
:103D20000E94032680FD9CC1F60112820E94FD259F
:103D30000E948924C6010E9451200E94FD25DF9126
:103D4000CF911F910F91FF90EF90DF90CF90BF9098
:103D50000C94AA24802F0E942726D3CFFC2FFF701B
:103D6000FF2EC07FC03219F0F29480EFF822DD23DD
:103D700069F0D13049F1112391F1002351F1F6019D
:103D8000858180FFA8CF8F70858323C0112381F0A8
:103D9000011106C00E9441268F290E94141EB3CF34
:103DA0000130C1F70E9441268F290E944726ABCFE0
:103DB000011106C00E9450268F2D0E941B1EA3CF0A
:103DC000013009F4A0CFF6CF112329F0063008F016
:103DD0009ACF8F2DE2CF053008F095CFEDCF00239D
:103DE00059F3D93349F4FFEF27EE33E0F150204087
:103DF0003040E1F700C000008D2F0E949F1D83CF4F
:103E00008C2F86958695837069F0813009F07BCF81
:103E10008D2F9C2F9370111102C090E080E00E94C2
:103E2000CB1B71CF8D2F9C2F9370111102C090E08E
:103E300080E00E94B51B67CF8D2F112339F00E94BF
:103E4000D9090E94C40A0E94C40A5DCF0E94410A97
:103E5000FACF8C2F837009F041C0111154CF4D2F30
:103E6000429546954770440F440F0D2F0F7010E098
:103E700030E020E0042E04C0000F111F221F331F6A
:103E80000A94D2F760E070E0CB01D4FF0FC06FE07E
:103E900070E080E090E004C0660F771F881F991FD4
:103EA0004A95D2F76095709580959095C695C69580
:103EB000C370602B712B822B932BC23049F058F4C6
:103EC000C13019F00E943B241ECF0E9429241BCF31
:103ED0000E944D2418CF0E94272415CF86951123C8
:103EE00011F08C2F8170882309F40DCF4D2F42954E
:103EF00046954770440F440F0D2F0F7010E030E0CF
:103F000020E0042E04C0000F111F221F331F0A944B
:103F1000D2F760E070E0CB01D4FF0FC06FE070E03B
:103F200080E090E004C0660F771F881F991F4A95B4
:103F3000D2F76095709580959095C695C695C3709B
:103F4000602B712B822B932BC23049F058F4C13077
:103F500019F00E940025D7CE0E94EE24D4CE0E94F4
:103F60001225D1CE0E946324CECECF70112329F02A
:103F70008C2F0E9489248D2F10CF8D2F0E941B1E05
:103F80008C2F0E94AA24BFCED23F89F160F4D03F8B
:103F9000C9F0D13F29F1112309F442C001119BCE90
:103FA0008C2F8F7121C0D33F39F1D43FA1F711235A
:103FB00069F1CF718C2F0E94892463E08C2F0E94BD
:103FC0009026A1CE112341F0053008F09CCE8C2F15
:103FD0008F710E94CD2497CE063008F094CEF7CF93
:103FE0008C2F8F71112369F20E9489248CCE8C2F23
:103FF0008F711123C9F3C5CF112329F08C2F8F7135
:104000000E94742480CE0E946F247DCE81E00E94A5
:10401000A526023008F477CE82E00E94A52673CE52
:10402000002359F0D93309F0E7CE8FEF97EEE3E0A4
:1040300081509040E040E1F7DDCE8C2F8F71A1CF11
:104040004C2F4F706D2FC6010E941A060E949F23AD
:104050005ACE4C2F4F706D2FC6010E941D0653CEB5
:10406000DF91CF911F910F91FF90EF90DF90CF9054
:10407000BF9008950F931F93CF93DF93EC01688156
:1040800079818A810E94C5258C010E9424250E9485
:104090002624B801CE01DF91CF911F910F910C948E
:1040A000221ECF93DF93EC018B819C81892B29F019
:1040B0008881998189238F3F59F4DF91CF910895A9
:1040C000CE010E943A20CE01DF91CF910C945E0484
:1040D000CE010E942F058111F3CF0E94072688236D
:1040E00061F38A81882349F382E0DF91CF910C94B8
:1040F000A52690E080E00E94B51B90E080E00E9441
:10410000CB1B0E942E260E943E260E945A260E9409
:10411000EB0B0C94C40A0E94F7250C9479200E94A2
:104120001E260C948B20E92FE295EF70E250EE30C2
:1041300070F4F0E0ED58FD4C0C942631803F19F0FE
:1041400020F4883E20F481E00895843FE1F380E08C
:104150000895883EC0F3813FD1F7F5CF93FB8827C0
:1041600080F908950E94BB250C949320CF93DF9390
:1041700000D000D00F92CDB7DEB70F900F900F9008
:104180000F900F90DF91CF910895CF93DF9300D0E0
:1041900000D000D0CDB7DEB726960FB6F894DEBFBC
:1041A0000FBECDBFDF91CF9108951F93CF93DF93C3
:1041B000C091520216E0809153028C1304C0DF912B
:1041C000CF911F910895D0E01C9FF0011D9FF00D2D
:1041D0001124EC5AFD4F40815181628173818481A9
:1041E00095810E94C5202196C770E5CF4091840239
:1041F00050918502609186027091870280918802B9
:10420000909189020C94C5201F93CF93DF938091E6
:104210008902807FA9F480918602882389F08091A9
:104220005202C09153026091840270918502A09164
:104230008702B0918802D62FD72316E0C81304C096
:10424000DF91CF911F91089590E0109711F0DF3F1B
:1042500019F401968770F2CF189F9001199F300DC5
:104260001124F901EC5AFD4F41814713F2CF4081EF
:104270004613EFCF42814111ECCF438154814A1B59
:104280005B0B483C510528F7809189028F70806153
:1042900080938902F901E75AFD4F80818F70806118
:1042A000808384E892E00E945120DF91CF911F919A
:1042B0000C94D520AF92BF92CF92DF92EF92FF92F3
:1042C0000F931F93CF93DF93CDB7DEB761970FB6F0
:1042D000F894DEBF0FBECDBF8C0185E0F801DE0192
:1042E0001D9601900D928A95E1F7F8014081518168
:1042F000E28084E8C82E82E0D82E60918702709117
:1043000088026115710509F461C1909184022091C0
:104310008502892F82238F3F09F458C1A380B4807E
:10432000F0908602F501E61BF70BFF2009F4FCC0B4
:1043300080918902382F307FE83CF10508F0B2C047
:10434000311179C0FE2C251323C0941321C0E11034
:104350001FC08F708061809389020E94F620C60181
:104360000E94512080918902F80185838F2D6196EA
:104370000FB6F894DEBF0FBECDBFDF91CF911F9176
:104380000F91FF90EF90DF90CF90BF90AF90089586
:10439000AB2829F0842F85238F3F09F033C180E0BB
:1043A000F82FF170DF2E80FF3CC0809152022091E7
:1043B000530236E0821315C04D875E878D859E853A
:1043C0000E94BB25292F22952F702230F0F0243037
:1043D00018F59F70F1F0F8019581907FD1F4D12C00
:1043E0001EC090E0389FF001399FF00D1124EC5A67
:1043F000FD4F6181651306C06081641303C0628153
:104400006E110FC001968770D5CF9F7011F0882371
:1044100031F3805E883018F3C8010E945120FD2CD2
:10442000A5CFEE2009F4A2CF80918902816080930C
:104430008902F12C9BCF251306C0941304C0F80108
:10444000EE2009F48DC04D875E878D859E850E9484
:10445000B220882319F1EE2009F18091890280327F
:1044600070F0209184023091850238872F8319865D
:10447000BB86AA868C87CE0107960E94512086E0D3
:10448000F801A4E8B2E001900D928A95E1F70E944C
:1044900004210E94F620FF24F39468CFC8010E94F3
:1044A0005120F9CF311113C07A2DB98AA88A6E2D07
:1044B00089890E94B62084E892E00E94512086E01B
:1044C000F60111928A95E9F70E94F620B2CF2513E2
:1044D0000FC094130DC0E1100BC0F8018583C80113
:1044E0000E94512086E0F60111928A95E9F73ECFAD
:1044F0004D875E878D859E850E94B220882371F24C
:10450000EE2061F280918902803208F4B8CF2091C8
:104510008402309185023A8329831B82BD82AC825A
:104520008E83CE010196A9CFE83CF10508F041C089
:10453000FE2CEE2009F4B2CF25132AC0941328C014
:104540008091890280FD1BC0982F907FC1F0F801F7
:104550008583903F31F0982F907F905F8F70892BEB
:104560008583C8010E94512086E0F801A4E8B2E0EA
:1045700001900D928A95E1F70E94F620F7CE86E031
:10458000F801A4E8B2E001900D928A95E1F7EECE31
:104590004D875E878D859E850E94B22081116FCFE9
:1045A00080918902816080938902C8010E94512014
:1045B000DDCE7A2DB98AA88A6E2D89890E94B6200F
:1045C00086E0F60111928A95E9F7D6CFEE2009F43C
:1045D00065CF4D875E878D859E850E94B220F82E1F
:1045E000882309F45BCF86E0F801A4E8B2E00190EB
:1045F0000D928A95E1F784E892E00E94081D0E94DE
:104600000421BACF81E08E25CBCE1F93CF93DF93C9
:10461000CDB7DEB72C970FB6F894DEBF0FBECDBF77
:104620004F83588769877A878B879C87CE01079647
:104630000E945A21882369F08A859B85892B39F04D
:104640004F815885842F85238F3F09F071C016E074
:104650005FC086E0FE013796DE01119601900D9253
:104660008A95E1F78A859B85892B89F38F819885C7
:1046700089238F3F61F32091530230E0C9010196F5
:1046800087709927409152024817190671F40E94C9
:104690008F20109253021092520286E0E4E8F2E07A
:1046A000DF011D928A95E9F7D2CF96E0929FD00163
:1046B000939FB00D1124AC5ABD4FFE01319601906D
:1046C0000D929A95E1F7809353020E94D520BFCFB7
:1046D000819FC00111248C5A9D4F0E945A2188232A
:1046E000E9F0E09152021E9FF0011124EC5AFD4FB7
:1046F0004081518162817381848195810E94C520AE
:104700008091520290E0019687709927809352021F
:1047100080915202909153028913DACF2C960FB6F2
:10472000F894DEBF0FBECDBFDF91CF911F910895EA
:1047300069857A858B859C850E94C52088CFEF92FC
:10474000FF920F931F93CF93DF938C01892B81F0FE
:10475000F12CEE24E394E8012196F801849184374A
:1047600070F4843008F05FC08130B1F08230A1F184
:10477000DF91CF911F910F91FF90EF9008958537B2
:1047800009F44CC008F43DC09CE7980F903780F7BF
:104790008F770E949F1D49C00E5F1F4FFE018491BD
:1047A00090E2980F983060F48770FE2D01C0FF0FE3
:1047B0008A95EAF78F2F0E9431260E945A2602C05E
:1047C0000E940D1D8F2D815030F2EFE9FFE03197EF
:1047D000F1F700C00000F7CF0E5F1F4FFE0184917C
:1047E00090E2980F983050F48770FE2D01C0FF0FB3
:1047F0008A95EAF78F2F0E943726DFCF0E949F1DF0
:10480000E1CF0E5F1F4FFE01C491C150D8F28FE976
:104810009FE00197F1F700C00000F7CF0E5F1F4F38
:10482000FE01F490CFCF0E940D1D8E01CBCF0895D5
:104830000C9417240E9418246093A7027093A80276
:104840008093A9029093AA020C94792008950C9465
:104850001A240F931F930091A7021091A802209190
:10486000A9023091AA02602B712B822B932B1F91EE
:104870000F910C941A240F931F930091A70210918B
:10488000A8022091A9023091AA02602371238223F9
:1048900093231F910F910C941A240F931F9300914F
:1048A000A7021091A8022091A9023091AA026027C4
:1048B0007127822793271F910F910C941A240C942F
:1048C00017240C945F240E9461246093A3027093C8
:1048D000A4028093A5029093A6020C94792060E034
:1048E00070E0CB010C9463240F931F9341E050E0E0
:1048F00060E070E08A019B0104C0000F111F221FBD
:10490000331F8A95D2F7C901B8011F910F910C94FA
:1049100063240F931F9341E050E060E070E004C017
:10492000440F551F661F771F8A95D2F78091A30207
:104930009091A402A091A502B091A6028A019B01C8
:10494000082B192B2A2B3B2BC901B8011F910F9162
:104950000C9463240F931F9341E050E060E070E0FB
:1049600004C0440F551F661F771F8A95D2F7CB01ED
:10497000BA0160957095809590950091A302109171
:10498000A4022091A5023091A60260237123822304
:1049900093231F910F910C9463240F931F9341E075
:1049A00050E060E070E004C0440F551F661F771FA1
:1049B0008A95D2F78091A3029091A402A091A502BA
:1049C000B091A6028A019B01082719272A273B27B5
:1049D000C901B8011F910F910C9463240F931F9389
:1049E0000091A3021091A4022091A5023091A60289
:1049F000602B712B822B932B1F910F910C946324AE
:104A00000F931F930091A3021091A4022091A5027D
:104A10003091A60260237123822393231F910F916B
:104A20000C9463240F931F930091A3021091A4028E
:104A30002091A5023091A602602771278227932733
:104A40001F910F910C94632408952AE0929F800D8A
:104A50001124982F977041E001C0440F9A95EAF70E
:104A600086958695869595E0899FF0011124E657F5
:104A7000FD4F90E080E070E05191DF0111979B01C4
:104A8000082E02C0369527950A94E2F721702195E9
:104A90002527242325272C9301968530910561F73E
:104AA00008952AE0929F800D1124982F9770869583
:104AB0008695869525E0829FF0011124E657FD4FEB
:104AC00050E040E080E0219130E0092E02C03695B0
:104AD00027950A94E2F721703327042E01C0220F94
:104AE0000A94EAF7822B4F5F5F4F4530510559F723
:104AF0000895BF92CF92DF92EF92FF920F931F9390
:104B0000CF93DF938C01C090A302D090A402E090D9
:104B1000A502F090A6028091A7029091A802A09110
:104B2000A902B091AA02C82AD92AEA2AFB2ACFE10F
:104B3000D0E0BC2ED701C6010C2E04C0B695A795B7
:104B4000979587950A94D2F780FD0EC0219788F734
:104B5000B12C8B2DDF91CF911F910F91FF90EF9092
:104B6000DF90CF90BF900895B8018C2F0E94260649
:104B7000019761F3EECFCF93DF93EC010E9479258B
:104B8000BE01DF91CF910C9426061F93CF93DF9344
:104B9000EB0190915102992331F0CB01DF91CF913C
:104BA0001F910C94BB25882379F0CB010E947925B5
:104BB000182F682FCE010E942525BE01812FDF917D
:104BC000CF911F910C942606CB010E945125182FDE
:104BD000F4CF682F80911F01909120010C9404283C
:104BE000682F80911F01909120010C940F288091D3
:104BF0001F01909120010C941A288091AB02859599
:104C00008595859508958091AB0287700895909160
:104C1000AB02977081E009F480E008958091CF02A3
:104C200008959091CF02892B8093CF0208958095AB
:104C30009091CF0298239093CF0208951092CF02C3
:104C400008959091CE02892B8093CE02089580958D
:104C50009091CE0298239093CE0208951092CE02A6
:104C600008959091CD02892B8093CD02089580956F
:104C70009091CD0298239093CD0208951092CD0289
:104C800008958091AC02089508950C944426909163
:104C9000AC02981721F08093AC020C94452608953D
:104CA0008091AC02882329F01092AC0280E00C9431
:104CB00045260895E0911F01F09120018091CF02D7
:104CC0008083E0911F01F091200180819091CE02BC
:104CD000892B8083E0911F01F091200180819091C8
:104CE000CD02892B80839091AC02992381F0E091D1
:104CF0001F01F09120018081892B808380911F0109
:104D0000909120010E94702781110E94502680916D
:104D10001F01909120010C948D1B08950C948D26F9
:104D200098E0899F90011124622B6093AB020E944E
:104D300089248091AB028595859585950C948E2666
:104D40001092AB0280E00C948E269091AB0280957D
:104D500089238093AB02282F277071F4282F082E07
:104D6000000C330B9217130639F0859585958595C0
:104D70000E94AA240C94A026089580E008956FEF65
:104D80007FEF90E080E00C940F3290E080E00E9492
:104D9000EB3121E08B3E9E4F09F020E0822F0895F9
:104DA00082E090E00C94DD3183E090E00C94DD3102
:104DB000CF9384E090E00E94DD31C82F81E290E043
:104DC0000E94DD31982F8C2FCF910895CF93C92F5A
:104DD000682F84E090E00E94F1316C2F81E290E036
:104DE000CF910C94F131AB01BC018FE090E00C94B9
:104DF0000332AB01BC0183E190E00C94033260E02C
:104E000070E0CB010C94F92660E070E0CB010E94C9
:104E1000F3260C94FF266BEE7EEF90E080E00E947C
:104E20000F3260E082E090E00E94F13160E083E0C8
:104E300090E00E94F1311092A7021092A802109205
:104E4000A9021092AA0260E084E090E00E94F13191
:104E500060E081E290E00E94F13160E085E090E066
:104E60000E94F13160E086E090E00E94F1316FEF46
:104E700087E090E00E94F13140E050E0BA0188E024
:104E800090E00E94033260E08DE090E00E94F131FA
:104E900040E050E0BA0188E190E00E94033260E017
:104EA00087E190E00E94F13140E050E0BA018CE1EE
:104EB00090E00E94033260E080E290E00E94F131D5
:104EC00040E050E0BA0188E190E00E9403320C9487
:104ED00004270C940B27682F8EE090E00C94F1319E
:104EE000FC01329680912B01882321F080912B03C5
:104EF0009EE187FF96E080E0915008F408952191AB
:104F00002223D1F38F5FF8CF662301F120912B018B
:104F10002223F1F020912B0327FF1AC0462F46953C
:104F2000469546954E3190F4677021E030E002C01E
:104F3000220F331F6A95E2F7840F911DFC018281D5
:104F400090E02823392381E0232B69F480E0089541
:104F5000FC01329608962191261721F0E817F907EF
:104F6000D1F7F4CF81E008959C01FC0132969FEFC8
:104F700080E04191461751F09F3F19F4411101C063
:104F8000982F8F5F8630A9F79F3F09F40895290F66
:104F9000311D97FD3A95F90162830895FC0132961F
:104FA00008962191261303C0DF0111971C92E81780
:104FB000F907B9F70895E62FE695E695E695EE31FF
:104FC00068F4E80FF92FF11D677021E030E001C0AF
:104FD000220F6A95EAF78281822B82830895E62F59
:104FE000E695E695E695EE3170F4E80FF92FF11DA0
:104FF000677021E030E001C0220F6A95EAF7209542
:10500000828128232283089520912B01222329F0D5
:1050100020912B0327FD0C94DB270C94B4272091BF
:105020002B01222329F020912B0327FD0C94EF273D
:105030000C94CE27FC01329680912B01882351F0ED
:1050400080912B0387FF06C08EE1DF011D928A95B8
:10505000E9F7089586E0F9CF089508950C942D2876
:1050600080913103843049F10E942E2880E00E9413
:1050700012061092D10288E190E020E40FB6F89475
:10508000A895809360000FBE2093600083B7817F56
:10509000846083BF83B7816083BF7894889583B72A
:1050A0008E7F83BF0FB6F894A895809160008861C9
:1050B00080936000109260000FBE08950895CF9312
:1050C0000E942C280E9498080E945E28C0E08C2F25
:1050D0000E943108892B31F4CF5FC430C1F780E0E2
:1050E000CF91089581E0FCCF08950C9474280E941C
:1050F0008F200E94811B0E9412060C9475281F921B
:105100001FB61F9211248F939F93AF93BF938091EB
:10511000D102811113C08091270390912803A0919F
:105120002903B0912A034196A11DB11D8093270345
:1051300090932803A0932903B0932A03BF91AF91C2
:105140009F918F911F901FBE1F90189582E084BD84
:1051500093E095BD9AEF97BD80936E0008952FB7A9
:10516000F8948091270390912803A0912903B0918E
:105170002A032FBF08952FB7F894609127037091E9
:1051800028038091290390912A032FBF08959C0141
:105190004FB7F8948091270390912803A091290399
:1051A000B0912A034FBF821B930B089578941F92EE
:1051B0001FB61F9211248F939F93AF93BF9380913B
:1051C000270390912803A0912903B0912A03019607
:1051D000A11DB11D8093270390932803A093290359
:1051E000B0932A03BF91AF919F918F911F901FBEE3
:1051F0001F90189587E797E7909301088093000820
:1052000088E19AE00FB6F894A895809360000FBEED
:1052100090936000FFCF9093DF018093DE010895AB
:105220000C941F140E9498082FEF86E791E02150FC
:1052300080409040E1F700C000000E94980880E0A4
:105240000E94310880FF04C00E9410290C94FA28A3
:1052500008950E94C526811102C00E9469270E94FC
:10526000D0268093D0020E94D82690932C0380935E
:105270002B030E94D426682F70E090E080E00E940B
:1052800027246091A3027091A4028091A5029091BD
:10529000A6020C9461248091F2020895CF93DF93CB
:1052A00000D00F92CDB7DEB790913103943011F555
:1052B00089837B836A839093E9008FEF9091E80064
:1052C000815095FD06C095ED9A95F1F7000081118A
:1052D000F5CF8091E80085FF0DC050E040E063E02D
:1052E00070E0CE0101960E94E22B8091E8008E775B
:1052F0008093E8000F900F900F90DF91CF91089569
:10530000BC0184E00C944E29BC0183E00C944E292E
:105310009C0184E08093E9009FEF8091E800915028
:1053200085FD06C085ED8A95F1F700009111F5CF56
:105330008091E80085FF0CC050E040E066E070E03E
:10534000C9010E94E22B8091E8008E778093E800EB
:105350000895CF93DF93EC0180912B018823B1F165
:1053600080912B0387FF32C060E284E08093E900E4
:105370008FEF9091E800815095FD06C095ED9A95CC
:10538000F1F700008111F5CF8091E80085FF1BC087
:1053900080912B0170E050E040E0811104C050E0AA
:1053A00040E068E070E0CE010E94E22B8091E800CE
:1053B0008E778093E80080E2FE01A2EDB2E00190DA
:1053C0000D928A95E1F7DF91CF91089568E081E031
:1053D000CDCFCF93FC01603221F580913103843031
:1053E00001F5C091E900CF702091EC00922F9170EF
:1053F00020FD90E8C92B82E08093E9008091E800CD
:1054000080FF0CC050E040E060E270E0CF010E94FD
:10541000E22B8091E8008E778093E800CF70C093F4
:10542000E900CF91089580913003811109C00E9455
:10543000C12D0E941E2E8091E20084608093E200C4
:10544000089510923003089508950895089542E054
:1054500061EC81E00E943D2D42E261EC84E00E941B
:105460003D2D42E261EC82E00E943D2D42E260EC83
:1054700083E00C943D2D80913303833009F461C0A7
:1054800030F48130D1F1823009F49DC008958A3022
:1054900009F489C08B3009F46FC0893009F050C01D
:1054A00080913203813209F04BC080913603909194
:1054B0003703009719F0029709F042C08091E80085
:1054C000877F8093E8008091E80082FF35C090914B
:1054D000F3008091F200029729F48091F1008B7F14
:1054E000813021F48091F1008093F2028091E800F4
:1054F0008B778093E8000C94712D80913203813A70
:10550000F9F48091E800877F8093E800809136036A
:1055100090913703892B61F460E282ED92E070E0B4
:105520000E94802C8091E8008B778093E80008959A
:1055300060E090E080E0F3CF809131038111C3CF30
:10554000089580913203813AD9F780913603909182
:105550003703892BA9F78091E800877F8093E800C3
:105560008091E80080FFFCCF80912B018093F100B7
:105570008091E8008E77BDCF80913203813201F7B0
:105580008091360390913703892BD1F68091E80002
:10559000877F8093E8000E94712D8091340380936F
:1055A0002B010C948F2080913203813249F6809137
:1055B000E800877F8093E8000E94712D8091350379
:1055C0008093F302089580913203813A09F0B8CFB5
:1055D0008091E800877F8093E8008091E80080FF59
:1055E000FCCF8091F302C2CFCDB7DEB7A0970FB644
:1055F000F894DEBF0FBECDBF84B7877F84BF0FB6E0
:10560000F894A89580916000886180936000109262
:1056100060000FBE80E890E00FB6F89480936100C0
:10562000909361000FBE0E94021C0E94C12D0E9437
:105630001E2E8091E20084608093E20078940E94A4
:10564000A7300E94121C81E291E00E947C1B13E0B3
:10565000809131038530C9F00E941E1C8091310376
:105660008430D1F00E94101C0E94111CF1CF0E94C6
:10567000302880912F03882341F00E945F288823DF
:1056800021F00E94CC2B0E948F2080913103853025
:1056900071F30E947728E0CF1093E9008091E80031
:1056A00082FFE0CF8091E80090E085FF09C050E0E4
:1056B00040E060E270E0CE0101960E94312C91E062
:1056C0008091E8008B778093E800992359F260E29B
:1056D000CE0101960E94D714C5CF0C946F2B292FB1
:1056E00033272330310521F168F42130310509F4E5
:1056F00049C02230310509F44AC090E080E030E032
:1057000020E029C02132310581F122323105A9F78B
:105710006330710590F7FB01EE0FFF1FEE52FE4F55
:105720002081318161537E4FFB01808190E013C065
:1057300099278130910599F0009741F082309105C9
:1057400089F00397D1F6EEECF5E002C0E0E1F6E077
:10575000849190E09F01FA01318320830895EAEF5C
:10576000F5E0F6CFECEEF5E0F3CF6330710528F607
:10577000660F771FFB01E852FE4F2081318189E0DF
:1057800090E0E9CF82E190E02FE636E0E4CF8BE5D0
:1057900090E024E136E0DFCF80E189BD82E189BD80
:1057A00009B400FEFDCF8091D8008F7D8093D80092
:1057B0008091E00082608093E0008091E00081FDB4
:1057C000FCCF0895AF92BF92CF92DF92FF920F93DA
:1057D0001F93CF93DF936C01EB018A010E94902D00
:1057E000F82E811123C00115110539F0F8018081CF
:1057F0009181C81BD90BC80ED91EB12CA12C2097A2
:10580000A9F08091E80085FD22C08091E8008E77A4
:105810008093E80001151105A1F0F80180819181C4
:10582000A80EB91EB182A08285E0F82E8F2DDF91DF
:10583000CF911F910F91FF90DF90CF90BF90AF90CD
:1058400008950E94902D8823D1F2F82EEFCFF60113
:1058500081916F018093F1002197FFEFAF1ABF0A8A
:10586000CECFAF92BF92CF92DF92FF920F931F9352
:10587000CF93DF936C01EB018A010E94902DF82EEB
:10588000811123C00115110539F0F8018081918142
:10589000C81BD90BC80ED91EB12CA12C2097A9F07A
:1058A0008091E80085FD22C08091E8008B7780938D
:1058B000E80001151105A1F0F80180819181A80E81
:1058C000B91EB182A08285E0F82E8F2DDF91CF9195
:1058D0001F910F91FF90DF90CF90BF90AF900895F0
:1058E0000E94902D8823D1F2F82EEFCF8091F10005
:1058F000F60181936F012197FFEFAF1ABF0ACECF58
:10590000FC01809138039091390386179707A0F026
:105910006115710529F49091E8009E779093E80055
:1059200090E06115710551F4911108C08091E80073
:1059300082FF34C080E00895BC01F2CF8091310332
:105940008823C1F18530C1F18091E80083FD30C02A
:105950008091E80082FDEACF8091E80080FFE1CFEE
:105960008091F3002091F200382F6115710519F034
:105970002830310558F091E02830310509F090E0E9
:105980002091E8002E772093E800CBCF819180937F
:10599000F100615071092F5F3F4FE7CF80913103D4
:1059A000882341F0853041F08091E80083FFBECF2D
:1059B00081E0089582E0089583E00895FC018091DC
:1059C00038039091390386179707A0F06115710588
:1059D00029F48091E8008E778093E80090E06115CB
:1059E000710551F4911108C08091E80082FF35C023
:1059F00080E00895BC01F2CF809131038823C9F182
:105A00008530C9F18091E80083FD31C08091E800C4
:105A100082FDEACF8091E80080FFE1CF8091F30022
:105A20002091F200382F6115710519F028303105E9
:105A300058F091E02830310509F090E08091E800BD
:105A40008E778093E800CBCF84918093F1003196DC
:105A5000615071092F5F3F4FE6CF8091310388235A
:105A600041F0853041F08091E80083FFBDCF81E0B7
:105A7000089582E0089583E00895982F973028F0E4
:105A80008F708093E90081E008959093E900242FBE
:105A9000762F50E0981731F07091EC002091ED00D6
:105AA0005091F00021FD02C09F5FE8CF3091EB00E4
:105AB0003E7F3093EB003091ED003D7F3093ED0061
:105AC0003091EB0031603093EB007093EC00209349
:105AD000ED005093F0002091EE0027FDE5CF80E02F
